:020000040000FA
:0604C0005EEF3CF01200AB
:0A04C6000B009A79000041020000CB
:1004D00002000000947900002202000006000000E3
:1004E0008E790000FA000000060000008A79000002
:1004F0002802000004000000877900003802000094
:10050000030000007D790000180200000A000000CE
:100510006B790000E800000012000000697900001B
:100520003F020000020000005B79000000020000B2
:100530000E00000049790000D60000001200000003
:0C0540000C790000C20100003D0000002A
:04054C00D9CFE6FF1E
:10055000E1CFD9FF020EE126FD0EDBCF96F0FE0EB5
:10056000DBCF97F00001A06BFEEC27F032EC30F00F
:10057000F9EC27F0000910E1FD0EDBCFE6FFFE0EDF
:10058000DBCFE6FF020EE66EE66A59EC30F0E5528C
:10059000E552E552E55204D00001D82B000ED923D4
:1005A00031EC28F0020EE15C02E2E16AE552E16E14
:1005B000E552E7CFD9FF1200D9CFE6FFE1CFD9FF4F
:1005C000020EE126FD0EDBCF96F0FE0EDBCF97F09C
:1005D0000001A06B609E0F01509FFEEC27F032ECF3
:1005E00030F0F9EC27F0000912E00001A06BFD0EDD
:1005F000DBCFE6FFFE0EDBCFE6FF010EE66EE66A1E
:1006000059EC30F0E552E552E552E55204D00001D4
:10061000D82B000ED92331EC28F0020EE15C02E267
:10062000E16AE552E16EE552E7CFD9FF12000EEC28
:1006300027F0400EE66EE0EC26F0E55232EC30F0AA
:10064000200EE66EE66A82DFE552E552220EE66E85
:10065000E66A7CDFE552E552200EE66E010EE66E9C
:10066000ABDFE552E552600EE66EE66AA5DFE552C5
:10067000E552300EE66EE66A9FDFE552E552800EE7
:10068000E66E020EE66E62DFE552E552820EE66E1F
:10069000020EE66E5BDFE552E552800EE66E030E5B
:1006A000E66E8ADFE552E552E66A020EE66E84DF08
:1006B000E552E552A00EE66E020EE66E7DDFE552D3
:1006C000E552900EE66E020EE66E76DFE552E552DA
:1006D000EA0EE66E060EE66E39DFE552E552EA0EE8
:1006E000E66E070EE66E68DFE552E5526A0EE66ECC
:1006F000060EE66E61DFE552E552AA0EE66E060EC4
:10070000E66E5ADFE552E552C20EE66E060EE66E62
:1007100053DFE552E552EE0EE66E060EE66E4CDF56
:10072000E552E552E80EE66E060EE66E45DFE5524E
:10073000E5521200D9CFE6FFE1CFD9FF020EE12644
:10074000100EDE6E270EDD6EDFCF14F0DF06010E19
:10075000DBCF15F001E2DB06145015100AE00000B3
:10076000000000000000F9EC27F0000901E002D0D1
:10077000EBD700D0020EE15C02E2E16AE552E16EE5
:10078000E552E7CFD9FF1200D9CFE6FFE1CFD9FF7D
:10079000FD0EDBCF96F0FE0EDBCF97F00001A06BD5
:1007A000FEEC27F0C7DFE2EC2AF0E552E7CFD9FFF5
:1007B0001200D9CFE6FFE1CFD9FFFD0EDBCF96F0D7
:1007C000FE0EDBCF97F00001040EA06FFB0EDBCF17
:1007D00098F0FC0EDBCF99F0F90EDBCF9AF0FA0E11
:1007E000DBCF9BF0FEEC27F0A5DFE2EC2AF0E55230
:1007F000E7CFD9FF1200D9CFE6FFE1CFD9FFFD0E39
:10080000DBCF96F0FE0EDBCF97F00001080EA06F55
:10081000FB0EDBCF98F0FC0EDBCF99F0F90EDBCFAF
:100820009AF0FA0EDBCF9BF0F70EDBCF9CF0F80EC0
:10083000DBCF9DF0F50EDBCF9EF0F60EDBCF9FF009
:10084000FEEC27F077DFE2EC2AF0E552E7CFD9FFA4
:1008500012000401340E006F120E016F450E026F7C
:10086000230E036F560E046F340E056F670E066F6E
:10087000450E076F780E086F560E096F890E0A6FC6
:10088000670E0B6F9A0E0C6F780E0D6F8EEC35F0B5
:100890000001DA8D000EE66EE66AE66EE66AE66E46
:1008A000E66AE66EE66A070EE66E0C0E0001D715E4
:1008B000E66E010EE66E0AEC2BF0E552E552E552CB
:1008C000F3CF14F0F4CF15F0F3CFE6FFF4CFE6FF4B
:1008D00092DF166E0A0EE15E16500001AF51B011A4
:1008E00005E10001D82B000ED9230CD0000EE66ED6
:1008F000E66A030EE66EE66A59EC30F0E552E55220
:10090000E552E5520001DA51400B05E10001D82B18
:10091000000ED9230CD0000EE66EE66A030EE66EDA
:10092000E66A59EC30F0E552E552E552E552000135
:10093000DA8D120EE66EE66A000EE66EE66AE66E86
:10094000E66AE66EE66A070EE66E0C0E0001D71543
:10095000E66E010EE66E0AEC2BF0E552E552E5522A
:10096000F3CF14F0F4CF15F0F3CFE6FFF4CFE6FFAA
:1009700042DF166E0A0EE15E16500001120EAF192C
:1009800007E1B05105E10001D82B000ED9230CD0AE
:10099000120EE66EE66A030EE66EE66A59EC30F079
:1009A000E552E552E552E5520001DA51400B05E10E
:1009B0000001D82B000ED9230CD0120EE66EE66A89
:1009C000030EE66EE66A59EC30F0E552E552E55268
:1009D000E5520001DA8DE668030EE66E000EE66E63
:1009E000E66AE66EE66AE66EE66A070EE66E0C0EEC
:1009F0000001D715E66E010EE66E0AEC2BF0E5520B
:100A0000E552E552F3CF14F0F4CF15F0F3CFE6FF43
:100A1000F4CFE6FFF0DE166E0A0EE15E1650FF0E12
:100A20000001AF1908E1030EB01905E10001D82B50
:100A3000000ED9230BD0E668030EE66EE66EE66A7A
:100A400059EC30F0E552E552E552E5520001DA5139
:100A5000400B05E10001D82B000ED9230BD0E6682E
:100A6000030EE66EE66EE66A59EC30F0E552E552AA
:100A7000E552E5520001DA9DF40EE66EE668000EDE
:100A8000E66EE66AE66EE66AE66EE66A070EE66E11
:100A90000C0E0001D715E66E010EE66E0AEC2BF087
:100AA000E552E552E552F3CF14F0F4CF15F0F3CF51
:100AB000E6FFF4CFE6FF9FDE166E0A0EE15E1650EB
:100AC000F40E0001AF1902E1FF0EB01905E00001BC
:100AD000D82B000ED9230CD0F40EE66EE668030E78
:100AE000E66EE66A59EC30F0E552E552E552E55221
:100AF0000001DA51400B05E00001D82B000ED9238C
:100B00000CD0F40EE66EE668030EE66EE66A59EC6B
:100B100030F0E552E552E552E5520001DA9DE66A11
:100B2000040EE66E000EE66EE66AE66EE66AE66EB5
:100B3000E66A070EE66E0C0E0001D715E66E010E92
:100B4000E66E0AEC2BF0E552E552E552F3CF14F0D5
:100B5000F4CF15F0F3CFE6FFF4CFE6FF4CDE166ED0
:100B60000A0EE15E16500001AF5102E1040EB01909
:100B700005E00001D82B000ED9230CD0E66A040E44
:100B8000E66E030EE66EE66A59EC30F0E552E55289
:100B9000E552E5520001DA51400B05E00001D82B87
:100BA000000ED9230CD0E66A040EE66E030EE66E44
:100BB000E66A59EC30F0E552E552E552E5520001A3
:100BC000DA8D000EE66EE66AE66EE66AE66EE66AC4
:100BD000E66EE66A080EE66E0C0E0001D715E66EAC
:100BE000010EE66E0AEC2BF0E552E552E552F3CF2A
:100BF00014F0F4CF15F0F3CFE6FFF4CFE6FFFBDD02
:100C0000166E0A0EE15E16500001B151B21105E1F7
:100C10000001D82B000ED9230CD0000EE66EE66A38
:100C2000040EE66EE66A59EC30F0E552E552E55204
:100C3000E5520001DA51400B05E10001D82B000E0E
:100C4000D9230CD0000EE66EE66A040EE66EE66A64
:100C500059EC30F0E552E552E552E5520001DA8DEB
:100C6000120EE66E160EE66E000EE66EE66AE66E92
:100C7000E66AE66EE66A080EE66E0C0E0001D7150F
:100C8000E66E010EE66E0AEC2BF0E552E552E552F7
:100C9000F3CF14F0F4CF15F0F3CFE6FFF4CFE6FF77
:100CA000AADD166E0A0EE15E1650120E0001B11991
:100CB00008E1160EB21905E10001D82B000ED92368
:100CC0000DD0120EE66E160EE66E040EE66EE66AA5
:100CD00059EC30F0E552E552E552E5520001DA51A7
:100CE000400B05E10001D82B000ED9230DD0120EC8
:100CF000E66E160EE66E040EE66EE66A59EC30F00D
:100D0000E552E552E552E5520001DA8DE668E66803
:100D1000000EE66EE66AE66EE66AE66EE66A080EC3
:100D2000E66E0C0E0001D715E66E010EE66E0AECBB
:100D30002BF0E552E552E552F3CF14F0F4CF15F065
:100D4000F3CFE6FFF4CFE6FF56DD166E0A0EE15E46
:100D500016500001B11D07E1B21D05E10001D82BBD
:100D6000000ED9230BD0E668E668040EE66EE66A4C
:100D700059EC30F0E552E552E552E5520001DA5106
:100D8000400B05E10001D82B000ED9230BD0E668FB
:100D9000E668040EE66EE66A59EC30F0E552E5527C
:100DA000E552E5520001DA8D000EE66EE66AE66E67
:100DB000E66AE66EE66AE66EE66A090EE66E0C0E16
:100DC0000001D715E66E010EE66E0AEC2BF0E55237
:100DD000E552E552F3CF14F0F4CF15F0F3CFE6FF70
:100DE000F4CFE6FF08DD166E0A0EE15E1650000134
:100DF000B351B41105E10001D82B000ED9230CD05A
:100E0000000EE66EE66A050EE66EE66A59EC30F014
:100E1000E552E552E552E5520001DA51400B05E199
:100E20000001D82B000ED9230CD0000EE66EE66A26
:100E3000050EE66EE66A59EC30F0E552E552E552F1
:100E4000E5520001DA8DE6687F0EE66E000EE66E72
:100E5000E66AE66EE66AE66EE66A090EE66E0C0E75
:100E60000001D715E66E010EE66E0AEC2BF0E55296
:100E7000E552E552F3CF14F0F4CF15F0F3CFE6FFCF
:100E8000F4CFE6FFB8DC166E0A0EE15E1650FF0ED8
:100E90000001B31908E17F0EB41905E10001D82B58
:100EA000000ED9230CD0E6687F0EE66E050EE66EC6
:100EB000E66A59EC30F0E552E552E552E5520001A0
:100EC000DA51400B05E10001D82B000ED9230CD0DC
:100ED000E6687F0EE66E050EE66EE66A59EC30F0C7
:100EE000E552E552E552E5520001DA9DE66A800ED0
:100EF000E66E000EE66EE66AE66EE66AE66EE66AA4
:100F0000090EE66E0C0E0001D715E66E010EE66EB8
:100F10000AEC2BF0E552E552E552F3CF14F0F4CF92
:100F200015F0F3CFE6FFF4CFE6FF65DC166E0A0E90
:100F3000E15E16500001B35102E1800EB41905E0E4
:100F40000001D82B000ED9230CD0E66A800EE66E85
:100F5000050EE66EE66A59EC30F0E552E552E552D0
:100F6000E5520001DA51400B05E00001D82B000EDC
:100F7000D9230CD0E66A800EE66E050EE66EE66AB0
:100F800059EC30F0E552E552E552E5520001DA8DB8
:100F9000000EE66EE66AE66EE66AE66EE66AE66E03
:100FA000E66A0A0EE66E0C0E0001D715E66E010E1B
:100FB000E66E0AEC2BF0E552E552E552F3CF14F061
:100FC000F4CF15F0F3CFE6FFF4CFE6FF14DC166E96
:100FD0000A0EE15E16500001B551B61105E100019F
:100FE000D82B000ED9230CD0000EE66EE66A060E52
:100FF000E66EE66A59EC30F0E552E552E552E5520C
:101000000001DA51400B05E10001D82B000ED92375
:101010000CD0000EE66EE66A060EE66EE66A59EC45
:1010200030F0E552E552E552E5520001DA8DE6680E
:101030007F0EE66E000EE66EE66AE66EE66AE66E25
:10104000E66A0A0EE66E0C0E0001D715E66E010E7A
:10105000E66E0AEC2BF0E552E552E552F3CF14F0C0
:10106000F4CF15F0F3CFE6FFF4CFE6FFFBEC03F08F
:10107000166E0A0EE15E1650FF0E0001B51908E16A
:101080007F0EB61905E10001D82B000ED9230CD034
:10109000E6687F0EE66E060EE66EE66A59EC30F004
:1010A000E552E552E552E5520001DA51400B05E107
:1010B0000001D82B000ED9230CD0E6687F0EE66E17
:1010C000060EE66EE66A59EC30F0E552E552E5525E
:1010D000E5520001DA9DE66A800EE66E000EE66ECD
:1010E000E66AE66EE66AE66EE66A0A0EE66E0C0EE2
:1010F0000001D715E66E010EE66E0AEC2BF0E55204
:10110000E552E552F3CF14F0F4CF15F0F3CFE6FF3C
:10111000F4CFE6FFFBEC03F0166E0A0EE15E16500C
:101120000001B55102E1800EB61905E00001D82B8F
:10113000000ED9230CD0E66A800EE66E060EE66E2F
:10114000E66A59EC30F0E552E552E552E55200010D
:10115000DA51400B05E00001D82B000ED9230CD04A
:10116000E66A800EE66E060EE66EE66A59EC30F030
:10117000E552E552E552E5520001DA8D000EE66EC9
:10118000E66AE66EE66AE66EE66AE66EE66A0B0E0A
:10119000E66E0C0E0001D715E66E010EE66E0AEC47
:1011A0002BF0E552E552E552F3CF14F0F4CF15F0F1
:1011B000F3CFE6FFF4CFE6FFFBEC03F0166E0A0E6A
:1011C000E15E16500001B751B81105E10001D82BBE
:1011D000000ED9230CD0000EE66EE66A070EE66E0E
:1011E000E66A59EC30F0E552E552E552E55200016D
:1011F000DA51400B05E10001D82B000ED9230CD0A9
:10120000000EE66EE66A070EE66EE66A59EC30F00E
:10121000E552E552E552E5520001DA8DE6687F0EAF
:10122000E66E000EE66EE66AE66EE66AE66EE66A70
:101230000B0EE66E0C0E0001D715E66E010EE66E83
:101240000AEC2BF0E552E552E552F3CF14F0F4CF5F
:1012500015F0F3CFE6FFF4CFE6FFFBEC03F0166EDC
:101260000A0EE15E1650FF0E0001B71908E17F0E6D
:10127000B81905E10001D82B000ED9230CD0E6687F
:101280007F0EE66E070EE66EE66A59EC30F0E55228
:10129000E552E552E5520001DA51400B05E100014B
:1012A000D82B000ED9230CD0E6687F0EE66E070E11
:1012B000E66EE66A59EC30F0E552E552E552E55249
:1012C0000001DA9DE66A800EE66E000EE66EE66AC2
:1012D000E66EE66AE66EE66A0B0EE66E0C0E00013E
:1012E000D715E66E010EE66E0AEC2BF0E552E552DC
:1012F000E552F3CF14F0F4CF15F0F3CFE6FFF4CFBF
:10130000E6FFFBEC03F0166E0A0EE15E16500001DC
:10131000B75102E1800EB81905E00001D82B000E8C
:10132000D9230CD0E66A800EE66E070EE66EE66AFA
:1013300059EC30F0E552E552E552E5520001DA5140
:10134000400B05E00001D82B000ED9230CD0E66A33
:10135000800EE66E070EE66EE66A59EC30F0E55256
:10136000E552E552E5520001DA8D000EE66EE66ABE
:10137000E66EE66AE66EE66AE66EE66A0C0EE66E13
:101380000001D715E66E010EE66E0AEC2BF0E55271
:10139000E552E552F3CF14F0F4CF15F0F3CFE6FFAA
:1013A000F4CFE6FFFBEC03F0166E0A0EE15E16507A
:1013B0000001B951BA1105E10001D82B000ED92363
:1013C0000CD0000EE66EE66A080EE66EE66A59EC90
:1013D00030F0E552E552E552E5520001DA51400B9A
:1013E00005E10001D82B000ED9230CD0000EE66ECB
:1013F000E66A080EE66EE66A59EC30F0E552E55210
:10140000E552E5520001DA8DE6687F0EE66E000EC9
:10141000E66EE66AE66EE66AE66EE66A0C0EE66E72
:101420000001D715E66E010EE66E0AEC2BF0E552D0
:10143000E552E552F3CF14F0F4CF15F0F3CFE6FF09
:10144000F4CFE6FFFBEC03F0166E0A0EE15E1650D9
:10145000FF0E0001B91908E17F0EBA1905E100017C
:10146000D82B000ED9230CD0E6687F0EE66E080E4E
:10147000E66EE66A59EC30F0E552E552E552E55287
:101480000001DA51400B05E10001D82B000ED923F1
:101490000CD0E6687F0EE66E080EE66EE66A59EC42
:1014A00030F0E552E552E552E5520001DA9DE66A78
:1014B000800EE66E000EE66EE66AE66EE66AE66EA0
:1014C000E66A0C0EE66E0001D715E66E010EE66EBA
:1014D0000AEC2BF0E552E552E552F3CF14F0F4CFCD
:1014E00015F0F3CFE6FFF4CFE6FFFBEC03F0166E4A
:1014F0000A0EE15E16500001B95102E1800EBA19E0
:1015000005E00001D82B000ED9230CD0E66A800E2E
:10151000E66E080EE66EE66A59EC30F0E552E552EA
:10152000E552E5520001DA51400B05E00001D82BED
:10153000000ED9230CD0E66A800EE66E080EE66E29
:10154000E66A59EC30F0E552E552E552E552000109
:10155000DA8D000EE66EE66AE66EE66AE66EE66A2A
:10156000E66EE66A0D0EE66E0C0E0001D715E66E0D
:10157000010EE66E0AEC2BF0E552E552E552F3CF90
:1015800014F0F4CF15F0F3CFE6FFF4CFE6FFFBEC59
:1015900003F0166E0A0EE15E16500001BB51BC113D
:1015A00005E10001D82B000ED9230CD0000EE66E09
:1015B000E66A090EE66EE66A59EC30F0E552E5524D
:1015C000E552E5520001DA51400B05E10001D82B4C
:1015D000000ED9230CD0000EE66EE66A090EE66E08
:1015E000E66A59EC30F0E552E552E552E552000169
:1015F000DA8DE6683F0EE66E000EE66EE66AE66E8F
:10160000E66AE66EE66A0D0EE66E0C0E0001D71570
:10161000E66E010EE66E0AEC2BF0E552E552E5525D
:10162000F3CF14F0F4CF15F0F3CFE6FFF4CFE6FFDD
:10163000FBEC03F0166E0A0EE15E1650FF0E000181
:10164000BB1908E13F0EBC1905E10001D82B000EC3
:10165000D9230CD0E6683F0EE66E090EE66EE66A08
:1016600059EC30F0E552E552E552E5520001DA510D
:10167000400B05E10001D82B000ED9230CD0E66801
:101680003F0EE66E090EE66EE66A59EC30F0E55262
:10169000E552E552E5520001DA9DE66A400EE66E3B
:1016A000000EE66EE66AE66EE66AE66EE66A0D0E25
:1016B000E66E0C0E0001D715E66E010EE66E0AEC22
:1016C0002BF0E552E552E552F3CF14F0F4CF15F0CC
:1016D000F3CFE6FFF4CFE6FFFBEC03F0166E0A0E45
:1016E000E15E16500001BB5102E1400EBC1905E05D
:1016F0000001D82B000ED9230CD0E66A400EE66E0E
:10170000090EE66EE66A59EC30F0E552E552E55214
:10171000E5520001DA51400B05E00001D82B000E24
:10172000D9230CD0E66A400EE66E090EE66EE66A34
:1017300059EC30F0E552E552E552E5520001DA8D00
:10174000000EE66EE66AE66EE66AE66EE66AE66E4B
:10175000E66A0E0EE66E0C0E0001D715E66E010E5F
:10176000E66E0AEC2BF0E552E552E552F3CF14F0A9
:10177000F4CF15F0F3CFE6FFF4CFE6FFFBEC03F078
:10178000166E0A0EE15E16500001BD51BE1105E154
:101790000001D82B000ED9230CD0000EE66EE66AAD
:1017A0000A0EE66EE66A59EC30F0E552E552E55273
:1017B000E5520001DA51400B05E10001D82B000E83
:1017C000D9230CD0000EE66EE66A0A0EE66EE66AD3
:1017D00059EC30F0E552E552E552E5520001DA8D60
:1017E000E66A010EE66E000EE66EE66AE66EE66AF0
:1017F000E66EE66A0E0EE66E0C0E0001D715E66E7A
:10180000010EE66E0AEC2BF0E552E552E552F3CFFD
:1018100014F0F4CF15F0F3CFE6FFF4CFE6FFFBECC6
:1018200003F0166E0A0EE15E16500001BD5108E18C
:10183000010EBE1905E10001D82B000ED9230CD0F2
:10184000E66A010EE66E0A0EE66EE66A59EC30F0C4
:10185000E552E552E552E5520001DA51400B05E14F
:101860000001D82B000ED9230CD0E66A010EE66EDB
:101870000A0EE66EE66A59EC30F0E552E552E552A2
:10188000E5520001DA8DFF0EE66EE66A000EE66EA6
:10189000E66AE66EE66AE66EE66A0E0EE66E0C0E26
:1018A0000001D715E66E010EE66E0AEC2BF0E5524C
:1018B000E552E552F3CF14F0F4CF15F0F3CFE6FF85
:1018C000F4CFE6FFFBEC03F0166E0A0EE15E165055
:1018D0000001FF0EBD1907E1BE5105E10001D82B43
:1018E000000ED9230CD0FF0EE66EE66A0A0EE66EF5
:1018F000E66A59EC30F0E552E552E552E552000156
:10190000DA51400B05E10001D82B000ED9230CD091
:10191000FF0EE66EE66A0A0EE66EE66A59EC30F0F5
:10192000E552E552E552E5520001DA9DE66A020E03
:10193000E66E000EE66EE66AE66EE66AE66EE66A59
:101940000E0EE66E0C0E0001D715E66E010EE66E69
:101950000AEC2BF0E552E552E552F3CF14F0F4CF48
:1019600015F0F3CFE6FFF4CFE6FFFBEC03F0166EC5
:101970000A0EE15E16500001BD5102E1020EBE19D1
:1019800005E00001D82B000ED9230CD0E66A020E28
:10199000E66E0A0EE66EE66A59EC30F0E552E55264
:1019A000E552E5520001DA51400B05E00001D82B69
:1019B000000ED9230CD0E66A020EE66E0A0EE66E21
:1019C000E66A59EC30F0E552E552E552E552020183
:1019D000010E276F0001AD0EFE6FDE0EFF6F0101DD
:1019E000AD0EC26FDE0EC36F0101AD0EC46FDE0E11
:1019F000C56F0101AD0EC66FDE0EC76F0101AD0EE2
:101A0000C86FDE0EC96F0101AD0ECA6FDE0ECB6F5F
:101A10000101AD0ECC6FDE0ECD6F0101AD0ECE6FAC
:101A20000101CF6F010EE66EE66A000EE66EE66A11
:101A3000E66EE66AE66EE66A070EE66E0C0E0001DA
:101A4000D715E66E010EE66E0AEC2BF0E552E55274
:101A5000E552F3CF14F0F4CF15F0F3CFE6FFF4CF57
:101A6000E6FFFBEC03F0166E0A0EE15E1650020E66
:101A7000E66EE66A000EE66EE66AE66EE66AE66E18
:101A8000E66A080EE66E0C0E0001D715E66E010E32
:101A9000E66E0AEC2BF0E552E552E552F3CF14F076
:101AA000F4CF15F0F3CFE6FFF4CFE6FFFBEC03F045
:101AB000166E0A0EE15E1650030EE66EE66A000E22
:101AC000E66EE66AE66EE66AE66EE66A090EE66EBF
:101AD0000C0E0001D715E66E010EE66E0AEC2BF037
:101AE000E552E552E552F3CF14F0F4CF15F0F3CF01
:101AF000E6FFF4CFE6FFFBEC03F0166E0A0EE15EA4
:101B00001650040EE66EE66A000EE66EE66AE66EB3
:101B1000E66AE66EE66A0A0EE66E0C0E0001D7155E
:101B2000E66E010EE66E0AEC2BF0E552E552E55248
:101B3000F3CF14F0F4CF15F0F3CFE6FFF4CFE6FFC8
:101B4000FBEC03F0166E0A0EE15E1650050EE66E13
:101B5000E66A000EE66EE66AE66EE66AE66EE66A3B
:101B60000B0EE66E0C0E0001D715E66E010EE66E4A
:101B70000AEC2BF0E552E552E552F3CF14F0F4CF26
:101B800015F0F3CFE6FFF4CFE6FFFBEC03F0166EA3
:101B90000A0EE15E1650060EE66EE66A000EE66E6E
:101BA000E66AE66EE66AE66EE66A0C0EE66E00012E
:101BB000D715E66E010EE66E0AEC2BF0E552E55203
:101BC000E552F3CF14F0F4CF15F0F3CFE6FFF4CFE6
:101BD000E6FFFBEC03F0166E0A0EE15E1650070EF0
:101BE000E66EE66A000EE66EE66AE66EE66AE66EA7
:101BF000E66A0D0EE66E0C0E0001D715E66E010EBC
:101C0000E66E0AEC2BF0E552E552E552F3CF14F004
:101C1000F4CF15F0F3CFE6FFF4CFE6FFFBEC03F0D3
:101C2000166E0A0EE15E1650000EE66EE66AE66E6D
:101C3000E66AE66EE66AE66EE66A0E0EE66E0C0E82
:101C40000001D715E66E010EE66E0AEC2BF0E552A8
:101C5000E552E552F3CF14F0F4CF15F0F3CFE6FFE1
:101C6000F4CFE6FFFBEC03F0166E0A0EE15E1650B1
:101C7000210EE66E430EE66E000EE66EE66AE66E36
:101C8000E66AE66EE66A0F0EE66E0C0E0001D715E8
:101C9000E66E010EE66E0AEC2BF0E552E552E552D7
:101CA000F3CF14F0F4CF15F0F3CFE6FFF4CFE6FF57
:101CB000FBEC03F0166E0A0EE15E16500001010EF9
:101CC000FE190EE1FF510CE1010EE66EE66A0B0E05
:101CD000E66EE66A59EC30F0E552E552E552E5521F
:101CE0000101030EC2190EE1C3510CE1030EE66EB1
:101CF000E66A0B0EE66EE66A59EC30F0E552E55204
:101D0000E552E5520101040EC4190EE1C5510CE182
:101D1000040EE66EE66A0B0EE66EE66A59EC30F0EB
:101D2000E552E552E552E5520101050EC6190EE1F4
:101D3000C7510CE1050EE66EE66A0B0EE66EE66A2A
:101D400059EC30F0E552E552E552E5520101060E3C
:101D5000C8190EE1C9510CE1060EE66EE66A0B0EDB
:101D6000E66EE66A59EC30F0E552E552E552E5528E
:101D70000101070ECA190EE1CB510CE1070EE66E08
:101D8000E66A0B0EE66EE66A59EC30F0E552E55273
:101D9000E552E552F90E0101CC190FE1FF0ECD1904
:101DA0000CE1080EE66EE66A0B0EE66EE66A59EC8A
:101DB00030F0E552E552E552E5520101CE510CE119
:101DC000090EE66EE66A0B0EE66EE66A59EC30F036
:101DD000E552E552E552E5520101CF510CE10A0E00
:101DE000E66EE66A0B0EE66EE66A59EC30F0E552F6
:101DF000E552E552E5520001DA51200B0BE10B0EE2
:101E0000E66EE66AE66EE66A59EC30F0E552E552B7
:101E1000E552E552850EE66E100EE66E000EE66E99
:101E2000E66AE66EE66AE66EE66A0F0EE66E0C0E8F
:101E30000001D715E66E010EE66E0AEC2BF0E552B6
:101E4000E552E552F3CF14F0F4CF15F0F3CFE6FFEF
:101E5000F4CFE6FFFBEC03F0166E0A0EE15E1650BF
:101E60000001010EFE1901E1FF510BE00B0EE66EC1
:101E7000E66AE66EE66A59EC30F0E552E552E55264
:101E8000E5520101030EC21901E1C3510CE00D0E30
:101E9000E66EE66A0B0EE66EE66A59EC30F0E55245
:101EA000E552E552E5520101040EC41901E1C551A4
:101EB0000CE00E0EE66EE66A0B0EE66EE66A59EC74
:101EC00030F0E552E552E552E5520101050EC61922
:101ED00001E1C7510CE00F0EE66EE66A0B0EE66EEE
:101EE000E66A59EC30F0E552E552E552E55201015F
:101EF000060EC81901E1C9510CE0100EE66EE66A43
:101F00000B0EE66EE66A59EC30F0E552E552E5520A
:101F1000E5520101070ECA1901E1CB510CE0110E87
:101F2000E66EE66A0B0EE66EE66A59EC30F0E552B4
:101F3000E552E552E552F90E0101CC1902E1FF0E1E
:101F4000CD190CE0120EE66EE66A0B0EE66EE66A3E
:101F500059EC30F0E552E552E552E5520101CE511F
:101F60000CE0130EE66EE66A0B0EE66EE66A59ECBE
:101F700030F0E552E552E552E5520101CF510CE057
:101F8000140EE66EE66A0B0EE66EE66A59EC30F069
:101F9000E552E552E552E5520001DA51200B0BE023
:101FA0000B0EE66EE66AE66EE66A59EC30F0E55234
:101FB000E552E552E5528EEF35F0D9CFE6FFE1CF9D
:101FC000D9FF020EE126400EE66EE0EC26F0E55267
:101FD0000001010EDC6F0001FA6BFB6B0001FE6972
:101FE000030EFF6F0001DD6B190EDE6F0201186B2F
:101FF000320E196FE668010EE66E000EE66EE66AB6
:10200000E66EE66AE66EE66A020EE66E0C0E000109
:10201000D715E66E010EE66E0AEC2BF0E552E5529E
:10202000E552F3CF14F0F4CF15F0F3CFE6FFF4CF81
:10203000E6FFFBEC03F0166E0A0EE15E165042EC72
:1020400039F0FF0E0001FC1902E1010EFD190CE050
:10205000E668010EE66E0C0EE66EE66A59EC30F0AC
:10206000E552E552E552E5521DEC39F001080CE06D
:10207000E668010EE66E0C0EE66EE66A59EC30F08C
:10208000E552E552E552E552000EE66EE66AE66E6E
:10209000E66AE66EE66AE66EE66A020EE66E0C0E2A
:1020A0000001D715E66E010EE66E0AEC2BF0E55244
:1020B000E552E552F3CF14F0F4CF15F0F3CFE6FF7D
:1020C000F4CFE6FFFBEC03F0166E0A0EE15E16504D
:1020D00042EC39F00001FC51FD110CE0000EE66EFF
:1020E000E66A0C0EE66EE66A59EC30F0E552E5520F
:1020F000E552E5521DEC39F001080CE0000EE66EE9
:10210000E66A0C0EE66EE66A59EC30F0E552E552EE
:10211000E552E552010EE66EFE0EE66E000EE66E2C
:10212000E66AE66EE66AE66EE66A020EE66E0C0E99
:102130000001D715E66E010EE66E0AEC2BF0E552B3
:10214000E552E552F3CF14F0F4CF15F0F3CFE6FFEC
:10215000F4CFE6FFFBEC03F0166E0A0EE15E1650BC
:1021600042EC39F0010E0001FC1902E1FE0EFD19EE
:102170000DE0010EE66EFE0EE66E0C0EE66EE66AF1
:1021800059EC30F0E552E552E552E5521DEC39F0DC
:1021900002080DE0010EE66EFE0EE66E0C0EE66E17
:1021A000E66A59EC30F0E552E552E552E552010E8F
:1021B000E66E040EE66E000EE66EE66AE66EE66A0F
:1021C000E66EE66A020EE66E0C0E0001D715E66EAC
:1021D000010EE66E0AEC2BF0E552E552E552F3CF24
:1021E00014F0F4CF15F0F3CFE6FFF4CFE6FFFBECED
:1021F00003F0166E0A0EE15E165042EC39F0FF0E47
:102200000001FC1902E1030EFD190DE0010EE66E5E
:10221000040EE66E0C0EE66EE66A59EC30F0E552FE
:10222000E552E552E5521DEC39F001080DE0010ED2
:10223000E66E040EE66E0C0EE66EE66A59EC30F0C1
:10224000E552E552E552E552E668FB0EE66E000EF9
:10225000E66EE66AE66EE66AE66EE66A020EE66E2E
:102260000C0E0001D715E66E010EE66E0AEC2BF09F
:10227000E552E552E552F3CF14F0F4CF15F0F3CF69
:10228000E6FFF4CFE6FFFBEC03F0166E0A0EE15E0C
:10229000165042EC39F0010E0001FC1902E1FC0E6F
:1022A000FD190CE0E668FB0EE66E0C0EE66EE66AC3
:1022B00059EC30F0E552E552E552E5521DEC39F0AB
:1022C00002080CE0E668FB0EE66E0C0EE66EE66AAF
:1022D00059EC30F0E552E552E552E552E6687F0EE2
:1022E000E66E000EE66EE66AE66EE66AE66EE66AA0
:1022F000020EE66E0C0E0001D715E66E010EE66EBC
:102300000AEC2BF0E552E552E552F3CF14F0F4CF8E
:1023100015F0F3CFE6FFF4CFE6FFFBEC03F0166E0B
:102320000A0EE15E165042EC39F0FF0E0001FC1976
:1023300002E1030EFD190CE0E6687F0EE66E0C0E5E
:10234000E66EE66A59EC30F0E552E552E552E552A8
:102350001DEC39F001080CE0E6687F0EE66E0C0E0D
:10236000E66EE66A59EC30F0E552E552E552E55288
:10237000010EE66E800EE66E000EE66EE66AE66E12
:10238000E66AE66EE66A020EE66E0C0E0001D715EE
:10239000E66E010EE66E0AEC2BF0E552E552E552D0
:1023A000F3CF14F0F4CF15F0F3CFE6FFF4CFE6FF50
:1023B000FBEC03F0166E0A0EE15E165042EC39F0AB
:1023C000010E0001FC1902E1FC0EFD190DE0010EE9
:1023D000E66E800EE66E0C0EE66EE66A59EC30F0A4
:1023E000E552E552E552E5521DEC39F002080DE0E8
:1023F000010EE66E800EE66E0C0EE66EE66A59EC95
:1024000030F0E552E552E552E552010EE66E3EEC43
:102410003CF0E55220EC39F000090CE1000EE66ECC
:10242000E66A0D0EE66EE66A59EC30F0E552E552CA
:10243000E552E5520001DD6B330EDE6F0201186BD1
:10244000320E196F010E0201206F216B02011E6F07
:102450001F6BE668E66E000EE66EE66AE66EE66AFA
:10246000E66EE66A020EE66E0C0E0001D715E66E09
:10247000010EE66E0AEC2BF0E552E552E552F3CF81
:1024800014F0F4CF15F0F3CFE6FFF4CFE6FFFBEC4A
:1024900003F0166E0A0EE15E165042EC39F00001B0
:1024A000FC51FD110CE0E668010EE66E0E0EE66EC4
:1024B000E66A59EC30F0E552E552E552E5521DEC82
:1024C00039F001080CE0E668010EE66E0E0EE66ECD
:1024D000E66A59EC30F0E552E552E552E552000E5D
:1024E000E66EE66AE66EE66AE66EE66AE66EE66A5C
:1024F000020EE66E0C0E0001D715E66E010EE66EBA
:102500000AEC2BF0E552E552E552F3CF14F0F4CF8C
:1025100015F0F3CFE6FFF4CFE6FFFBEC03F0166E09
:102520000A0EE15E165042EC39F00001FC51FD113B
:102530000CE0000EE66EE66A0E0EE66EE66A59ECF8
:1025400030F0E552E552E552E5521DEC39F0010854
:102550000CE0000EE66EE66A0E0EE66EE66A59ECD8
:1025600030F0E552E552E552E552E668010EE66EBE
:10257000000EE66EE66AE66EE66AE66EE66A020E51
:10258000E66E0C0E0001D715E66E010EE66E0AEC43
:102590002BF0E552E552E552F3CF14F0F4CF15F0ED
:1025A000F3CFE6FFF4CFE6FFFBEC03F0166E0A0E66
:1025B000E15E165042EC39F00001FC51FD110CE0D7
:1025C000E668010EE66E0E0EE66EE66A59EC30F035
:1025D000E552E552E552E5521DEC39F001080CE0F8
:1025E000E668010EE66E0E0EE66EE66A59EC30F015
:1025F000E552E552E552E5520001DD6B320EDE6F29
:10260000E66A020EE66E000EE66EE66AE66EE66AC0
:10261000E66EE66A020EE66E0C0E0001D715E66E57
:10262000010EE66E0AEC2BF0E552E552E552F3CFCF
:1026300014F0F4CF15F0F3CFE6FFF4CFE6FFFBEC98
:1026400003F0166E0A0EE15E165042EC39F00001FE
:10265000FC51FD110CE0E66A020EE66E0E0EE66E0F
:10266000E66A59EC30F0E552E552E552E5521DECD0
:1026700039F001080CE0E66A020EE66E0E0EE66E18
:10268000E66A59EC30F0E552E552E552E5520001B8
:10269000DD6B310EDE6F010EE66E020EE66E000E91
:1026A000E66EE66AE66EE66AE66EE66A020EE66EDA
:1026B0000C0E0001D715E66E010EE66E0AEC2BF04B
:1026C000E552E552E552F3CF14F0F4CF15F0F3CF15
:1026D000E6FFF4CFE6FFFBEC03F0166E0A0EE15EB8
:1026E000165042EC39F00001FC51FD110DE0010ED5
:1026F000E66E020EE66E0E0EE66EE66A59EC30F0FD
:10270000E552E552E552E5521DEC39F001080DE0C5
:10271000010EE66E020EE66E0E0EE66EE66A59ECED
:1027200030F0E552E552E552E5520001DD6B300E26
:10273000DE6F020EE66EE66E000EE66EE66AE66E8E
:10274000E66AE66EE66A020EE66E0C0E0001D7152A
:10275000E66E010EE66E0AEC2BF0E552E552E5520C
:10276000F3CF14F0F4CF15F0F3CFE6FFF4CFE6FF8C
:10277000FBEC03F0166E0A0EE15E165042EC39F0E7
:102780000001FC51FD110CE0020EE66EE66E0E0E2D
:10279000E66EE66A59EC30F0E552E552E552E55254
:1027A0001DEC39F001080CE0020EE66EE66E0E0E2E
:1027B000E66EE66A59EC30F0E552E552E552E55234
:1027C0000001DD6B2F0EDE6F030EE66E020EE66E6D
:1027D000000EE66EE66AE66EE66AE66EE66A020EEF
:1027E000E66E0C0E0001D715E66E010EE66E0AECE1
:1027F0002BF0E552E552E552F3CF14F0F4CF15F08B
:10280000F3CFE6FFF4CFE6FFFBEC03F0166E0A0E03
:10281000E15E165042EC39F00001FC51FD110DE073
:10282000030EE66E020EE66E0E0EE66EE66A59ECDA
:1028300030F0E552E552E552E5521DEC39F0010861
:102840000DE0030EE66E020EE66E0E0EE66EE66A12
:1028500059EC30F0E552E552E552E5520001DD6BEE
:102860002E0EDE6F040EE66E020EE66E000EE66EB3
:10287000E66AE66EE66AE66EE66A020EE66E0C0E42
:102880000001D715E66E010EE66E0AEC2BF0E5525C
:10289000E552E552F3CF14F0F4CF15F0F3CFE6FF95
:1028A000F4CFE6FFFBEC03F0166E0A0EE15E165065
:1028B00042EC39F00001FC51FD110DE0040EE66E12
:1028C000020EE66E0E0EE66EE66A59EC30F0E55248
:1028D000E552E552E5521DEC39F001080DE0040E19
:1028E000E66E020EE66E0E0EE66EE66A59EC30F00B
:1028F000E552E552E552E5520001010EDD6F2D0E65
:10290000DE6F050EE66E020EE66E000EE66EE66AFD
:10291000E66EE66AE66EE66A020EE66E0C0E0001F0
:10292000D715E66E010EE66E0AEC2BF0E552E55285
:10293000E552F3CF14F0F4CF15F0F3CFE6FFF4CF68
:10294000E6FFFBEC03F0166E0A0EE15E165042EC59
:1029500039F00001FC51FD110DE0050EE66E020E8E
:10296000E66E0E0EE66EE66A59EC30F0E552E55280
:10297000E552E5521DEC39F001080DE0050EE66E5A
:10298000020EE66E0E0EE66EE66A59EC30F0E55287
:10299000E552E552E5520001DD6B2D0EDE6F060EAD
:1029A000E66E020EE66E000EE66EE66AE66EE66A19
:1029B000E66EE66A020EE66E0C0E0001D715E66EB4
:1029C000010EE66E0AEC2BF0E552E552E552F3CF2C
:1029D00014F0F4CF15F0F3CFE6FFF4CFE6FFFBECF5
:1029E00003F0166E0A0EE15E165042EC39F0060E48
:1029F0000001FC1902E1020EFD190DE0060EE66E63
:102A0000020EE66E0E0EE66EE66A59EC30F0E55206
:102A1000E552E552E5521DEC39F001080DE0060ED5
:102A2000E66E020EE66E0E0EE66EE66A59EC30F0C9
:102A3000E552E552E552E5520001DC6B0201880ED9
:102A4000206F130E216F020EE15C02E2E16AE55293
:102A5000E16EE552E7CFD9FF1200D9CFE6FFE1CF13
:102A6000D9FFE652DF6A400EE66EE0EC26F0E55252
:102A700040EC18F00A0E0101C46FC56B0101D86B60
:102A8000D96B000EE66EE66AA7EC38F0E552E55227
:102A9000E80EE66E3EEC3CF0E55220EC39F0DF6EDD
:102AA000E668030EE66E000EE66EE66AE66EE66A1D
:102AB000E66EE66A010EE66E0C0E0001D715E66EB4
:102AC000010EE66E0AEC2BF0E552E552E552F3CF2B
:102AD00014F0F4CF15F0F3CFE6FFF4CFE6FFFBECF4
:102AE00003F0166E0A0EE15E165042EC39F0010E4C
:102AF0000101DE1902E1FC0EDF190CE0020EE66EA8
:102B0000E66A1E0EE66EE66A59EC30F0E552E552D2
:102B1000E552E552010E0001FC1902E1FC0EFD191F
:102B20000CE0030EE66EE66A1E0EE66EE66A59ECEF
:102B300030F0E552E552E552E5521DEC39F002085D
:102B40000CE0040EE66EE66A1E0EE66EE66A59ECCE
:102B500030F0E552E552E552E552000EE66EE66AC7
:102B6000A7EC38F0E552E552E552E552E7CFD9FF40
:102B70001200400EE66EE0EC26F0E5520001470E32
:102B8000DA6F810EDB6F040EE66E010E0001D715C1
:102B9000E66EE66A0AEC2BF0E552E552E552F3CF19
:102BA00014F0F4CF15F0F3CFE6FFF4CFE6FFC4EC5A
:102BB00003F0E552E55249CF2EF248CF2DF2470EF1
:102BC00002012D1902E1810E2E190CE0010EE66EB4
:102BD000E66A160EE66EE66A59EC30F0E552E5520A
:102BE000E552E5520F014251E00BE838E840146E1F
:102BF0004151080DF350141002012C6F0F0E2C15CB
:102C000004080BE0E668E668160EE66EE66A59EC24
:102C100030F0E552E552E552E55232EC30F0000179
:102C2000230EFC6F010EFD6F030EE66E010E000118
:102C3000D715E66EE66A0AEC2BF0E552E552E5524E
:102C4000F3CF14F0F4CF15F0F3CFE6FFF4CFE6FFA7
:102C5000C4EC03F0E552E55249CF2EF248CF2DF2F5
:102C6000230E02012D1902E1010E2E190CE0020EB5
:102C7000E66EE66A160EE66EE66A59EC30F0E5524C
:102C8000E552E552E5520F014251E00BE838E840C9
:102C9000146E4151080DF350141002012C6F0F0EE9
:102CA0002C1503080CE0FE0EE66EE668160EE66EC6
:102CB000E66A59EC30F0E552E552E552E55232EC65
:102CC00030F00001360EDF6F700EE06F050EE66E1D
:102CD000010E0001D715E66EE66A0AEC2BF0E5520C
:102CE000E552E552F3CF14F0F4CF15F0F3CFE6FF41
:102CF000F4CFE6FFC4EC03F0E552E55249CF2EF2E3
:102D000048CF2DF2360E02012D1902E1700E2E1958
:102D10000CE0030EE66EE66A160EE66EE66A59EC05
:102D200030F0E552E552E552E5520F014251E00B19
:102D3000E838E840146E4151080DF35014100201B8
:102D40002C6F0F0E2C1505080CE0FD0EE66EE668E4
:102D5000160EE66EE66A59EC30F0E552E552E552A1
:102D6000E55232EC30F00001250EE16F690EE26FA2
:102D7000060EE66E010E0001D715E66EE66A0AEC55
:102D80002BF0E552E552E552F3CF14F0F4CF15F0F5
:102D9000F3CFE6FFF4CFE6FFC4EC03F0E552E552D3
:102DA00049CF2EF248CF2DF2250E02012D1902E156
:102DB000690E2E190CE0040EE66EE66A160EE66E3B
:102DC000E66A59EC30F0E552E552E552E5520F0162
:102DD0004251E00BE838E840146E4151080DF350C1
:102DE000141002012C6F0F0E2C1506080CE0FC0EBF
:102DF000E66EE668160EE66EE66A59EC30F0E552CD
:102E0000E552E552E55232EC30F00001140EDD6F70
:102E1000580EDE6F070EE66E010E0001D715E66E46
:102E2000E66A0AEC2BF0E552E552E552F3CF14F0D6
:102E3000F4CF15F0F3CFE6FFF4CFE6FFC4EC03F0D8
:102E4000E552E55249CF2EF248CF2DF2140E020181
:102E50002D1902E1580E2E190CE0050EE66EE66AF9
:102E6000160EE66EE66A59EC30F0E552E552E55290
:102E7000E5520F014251E00BE838E840146E415131
:102E8000080DF350141002012C6F0F0E2C150708BB
:102E90000CE0FB0EE66EE668160EE66EE66A59EC8E
:102EA00030F0E552E552E552E55232EC30F00001E7
:102EB000030EE86F470EE96F080EE66E010E000183
:102EC000D715E66EE66A0AEC2BF0E552E552E552BC
:102ED000F3CF14F0F4CF15F0F3CFE6FFF4CFE6FF15
:102EE000C4EC03F0E552E55249CF2EF248CF2DF263
:102EF000040E02012D1902E1470E2E190CE0060EF8
:102F0000E66EE66A160EE66EE66A59EC30F0E552B9
:102F1000E552E552E5520F014251E00BE838E84036
:102F2000146E4151080DF350141002012C6F0F0E56
:102F30002C1508080CE0FA0EE66EE668160EE66E32
:102F4000E66A59EC30F0E552E552E552E55232ECD2
:102F500030F00001920EEA6F360EEB6F090EE66E4E
:102F6000010E0001D715E66EE66A0AEC2BF0E55279
:102F7000E552E552F3CF14F0F4CF15F0F3CFE6FFAE
:102F8000F4CFE6FFC4EC03F0E552E55249CF2EF250
:102F900048CF2DF2930E02012D1902E1360E2E19A3
:102FA0000CE0070EE66EE66A160EE66EE66A59EC6F
:102FB00030F0E552E552E552E5520F014251E00B87
:102FC000E838E840146E4151080DF3501410020126
:102FD0002C6F0F0E2C1509080CE0F90EE66EE66852
:102FE000160EE66EE66A59EC30F0E552E552E5520F
:062FF000E55232EF30F063
:0A2FF6000101FF0EC16BB7AF07EF3A
:1030000018F0B61BB71BB62BD8B0B72BC171B9AF30
:1030100010EF18F0B81BB91BB82BD8B0B92BC17181
:10302000B6C1C0F10000B651B803F4CFB5F100004D
:10303000F3CFB4F10000B751B903F4CFB7F10000FA
:10304000F3CFB6F10000B803F350B527F450B62320
:10305000E86AB723C051B903F350B527F450B6233B
:10306000E86AB723C1A13FEF18F0FF0EB41BB51BF0
:10307000B61BB71B000EB42BB523B623B723120023
:10308000D9CFE6FFE1CFD9FFE6520101C26BC36B96
:10309000C46BC56BC66BC76BC86BC96BCA6BCB6B9C
:1030A000CC6BCD6BCE6BD06BD16BD26BD36BD46B47
:1030B000D56BD66BD76BCF6BD86BD96BDA6BDB6B01
:1030C000DE6BDF6B010EE86FDF6A100EDF5C0DE276
:1030D000EA6ADF34FE0BEA36E96E000EE926010EDD
:1030E000EA22EE6AED6ADF2AF0D70101E96BDF6AB6
:1030F000400EDF5C0DE2EA6ADF34FE0BEA36E96E71
:10310000200EE926010EEA22EE6AED6ADF2AF0D7E8
:103110000101EA6BEB6BEC6BED6BE552E552E7CF2F
:10312000D9FF1200D8C1F0F1D9C1F1F10101DA5192
:10313000F05FDB51F15BE951E96EEA6AD890E9365C
:10314000EA36200EE926010EEA22EE50F05D146EFA
:10315000EE50F159156E1450EA271550EB23E95142
:10316000E96EEA6AD890E936EA36200EE926010EC1
:10317000EA22F0C1EEFFF1C1EDFFE92B3F0EE917A6
:10318000FE5120E0EBBF0DD0EA51D45D0101A06FEC
:103190000101EB51D5590101A16FA1AF02D001018D
:1031A000FE6B0101EBAF2DD0D651EA5D0101A06F9E
:1031B0000101D751EB590101A16FA1AF22D001014B
:1031C000FE6B1FD0EBBF0DD0D051EA5D0101A06FA7
:1031D0000101D151EB590101A16FA1AF02D0010151
:1031E000FE690101EBAF0DD0EA51D25D0101A06F84
:1031F0000101EB51D3590101A16FA1AF02D001012F
:10320000FE690101FE5102E0F06BF16BFD5138E007
:10321000F6510BE1DC51DA19146EDD51DB19156E34
:10322000E850800B02E0010EF66FF65129E0DB3525
:1032300012E2DA510008000EDB550DE2280ED9AF7C
:1032400002D0D89003D0D85D000ED95903E2CF51F7
:1032500012E10DD0F66B800EDB1512E0D93504E3D8
:10326000D851D808FF0ED9550AE2CF5104E0010E1B
:10327000DE6FFC0E02D0DE69030EDF6F1200F66B0C
:10328000DAC1DCF1DBC1DDF1C4C1B6F1C5C1B7F112
:10329000F0C1B8F1F1C1B9F1AEDEB4C1A6F1B5C16A
:1032A000A7F1B6C1A8F1B7C1A9F10101F051EE270C
:1032B000F151EF23EF351EE2EE510008000EEF55FD
:1032C00019E20A0EEE5F000EEF5B800EEF1502E0D2
:1032D000EE6BEF6BCB51EF19E8AE02D0EF3504D0B7
:1032E000EE51CA5DEF51CB5924E2CAC1EEF1CBC118
:1032F000EFF11FD0800EEF151CE00A0EEE27000E36
:10330000EF23EF3507E2EE510008000EEF5502E221
:10331000EE6BEF6BEF51CD19E8AE02D0CD3504D096
:10332000CC51EE5DCD51EF5904E2CCC1EEF1CDC1EF
:10333000EFF1C6C1B6F1C7C1B7F1EEC1B8F1EFC147
:10334000B9F159DEB4C1AEF1B5C1AFF1B6C1B0F15A
:10335000B7C1B1F1B5C1AEF1B6C1AFF1B7C1B0F10E
:103360000101B16BB0BFB1690101E851E96EEA6AD0
:10337000D890E936EA36000EE926010EEA22EE5030
:10338000F05D0101B26FEE500101F1590101B36F1F
:103390000101E851E96EEA6AD890E936EA36000E92
:1033A000E926010EEA22F0C1EEFFF1C1EDFFE82BA4
:1033B0000F0EE817B2C1B6F1B3C1B7F1C8C1B8F189
:1033C000C9C1B9F118DEB4C1AAF1B5C1ABF1B6C13A
:1033D000ACF1B7C1ADF1C2C1B6F1C3C1B7F1DAC149
:1033E000B8F1DBC1B9F107DEB4C1A2F1B5C1A3F1F7
:1033F000B6C1A4F1B7C1A5F1A7C1F7F1A8C1F8F111
:10340000AFC1F9F1B0C1FAF1ABC1FBF1ACC1FCF154
:10341000AA0EE96E010EEA6E0101A651EE24146EA9
:10342000A751EE20156EA851EE20166EA951EE2080
:10343000176EA20EE96E010EEA6EEE50145C0101E9
:10344000F26FEE501558F36FEE501658F46FEE50C1
:103450001758F56FF3C1F2F1F4C1F3F1F46FF56BA6
:10346000F4BFF5690101AE510101F2270101AF512D
:103470000101F3230101B0510101F4230101B15114
:103480000101F523F535000EF51909E6D880000E87
:10349000F255000EF355000EF455000EF55509E2F5
:1034A000030ED890F533F433F333F233E806F9E141
:1034B00029D0F2C114F0F3C115F0F4C116F0F5C132
:1034C00017F0000E146C151E1522161E1622171E5C
:1034D0001722030ED8901732163215321432E8062E
:1034E000F9E114C0F2F115C0F3F116C0F4F117C000
:1034F000F5F1000E0101F26DF31FF323F41FF42325
:10350000F51FF5230101F535000EF51909E6D88000
:10351000FF0EF255030EF355000EF455000EF5554F
:1035200006E2F269030EF36FF46BF56B13D0D880EB
:10353000F551FF0A08E6010EF25DFC0EF359FF0E8D
:10354000F459FF0EF55906E2010EF26FFC0EF36F0F
:10355000F469F569CF5105E1F2C1DEF1F3C1DFF1A4
:103560001200F2C106F0F3C107F0F4C108F0F5C192
:1035700009F00B680C680D680E68C8EC3BF002C0DF
:10358000DEF103C0DFF11200D9CFE6FFE1CFD9FFB2
:10359000020EE126DE6ADD6A0001E65104E1010166
:1035A000E46BE56B93D00101D93535E2D8510008C1
:1035B000000ED95530E2E751D919E8AE02D0D9351D
:1035C00004D0D851E65DD951E75966E2E651D85D9D
:1035D000146ED951E755156E14C0DEFFDD6EDECFD7
:1035E000E4F1DDCFE5F1C8C10DF0C9C10EF0E4C1D1
:1035F00008F0E5C109F0E4EC3AF006C0E4F107C0D8
:10360000E5F1040E0F0B010149E0D890E533E433F6
:10361000E806FBE143D0E6C114F0E7C115F0146CF5
:10362000151E000E1522D9511518E8AE02D015341A
:1036300004D01450D85D1550D9592EE2D851E62542
:10364000146ED951E721156E14C0DEFFDD6EDECF9A
:10365000E4F1DDCFE5F1E46DE51F000EE523C8C11F
:103660000DF0C9C10EF0E4C108F0E5C109F0E4ECC9
:103670003AF006C0E4F107C0E5F1040E0F0B0101BA
:1036800005E0D890E533E433E806FBE10101E46DA1
:10369000E51F000EE52302D0E46BE56B0101E53583
:1036A00009E2E451FD08070EE55504E2FD0EE46F62
:1036B000070EE56FD880E55104E7030EE45DF80ED0
:1036C000E55904E2030EE46FF80EE56F020EE15CCB
:1036D00002E2E16AE552E16EE552E7CFD9FF12005E
:1036E0000101C26B100EC36FC46BC56BC66BC76B99
:1036F000C86BC96BCA6BCB6BCC6BCD6BCE6BCF6B16
:10370000F60ED86FD9690A0EDA6FDB6B0BDDEC0EA3
:103710000101DE1902E1FF0EDF190DE0EC0EE66E8D
:10372000E6680F0EE66EE66A59EC30F0E552E552B7
:10373000E552E55204D00001D82B000ED923010137
:10374000D86BD96BDA6BDB6BEDDC0101DE51DF117D
:103750000DE0000EE66EE66A0F0EE66EE66A59ECC4
:1037600030F0E552E552E552E55204D00001D82B85
:10377000000ED9230A0E0101D86FD96BF60EDA6F4D
:10378000DB69D0DC0101140EDE1901E1DF510DE02F
:10379000140EE66EE66A0F0EE66EE66A59EC30F03D
:1037A000E552E552E552E55204D00001D82B000E57
:1037B000D9230101D8697F0ED96FDA69DB6FB2DCDA
:1037C000010E0101DE1902E1FC0EDF190EE0010E0F
:1037D000E66EFC0EE66E0F0EE66EE66A59EC30F011
:1037E000E552E552E552E55204D00001D82B000E17
:1037F000D9230101D8693F0ED96FDA69DB6F92DCFA
:10380000010E0101DE1902E1FC0EDF190EE0010ECE
:10381000E66EFC0EE66E0F0EE66EE66A59EC30F0D0
:10382000E552E552E552E55204D00001D82B000ED6
:10383000D9230101010ED86FC00ED96F010EDA6FC6
:10384000C00EDB6F6FDCFF0E0101DE1902E1030E1B
:10385000DF190DE0E668030EE66E0F0EE66EE66A0F
:1038600059EC30F0E552E552E552E55204D0000142
:10387000D82B000ED9230101010ED86F800ED96F0D
:10388000010EDA6F800EDB6F4DDCFF0E0101DE19D9
:1038900002E1030EDF190DE0E668030EE66E0F0E7F
:1038A000E66EE66A59EC30F0E552E552E552E55233
:1038B00004D00001D82B000ED9230101C2697F0E6C
:1038C000C36FF60ED86FD969D00EDA6F070EDB6FB3
:1038D00029DC010E0101DE1902E1FC0EDF190EE008
:1038E000010EE66EFC0EE66E0F0EE66EE66A59EC11
:1038F00030F0E552E552E552E55204D00001D82BF4
:10390000000ED9230101F60ED86FD9690A0EDA6FBD
:10391000DB6B92EC18F0600E0101DE1902E1FF0E84
:10392000DF190DE0600EE66EE6680F0EE66EE66AE1
:1039300059EC30F0E552E552E552E55204D0000171
:10394000D82B000ED9230101D86BD96BDA6BDB6B56
:1039500092EC18F00101DE51DF110DE0000EE66E71
:10396000E66A0F0EE66EE66A59EC30F0E552E55273
:10397000E552E55204D00001D82B000ED9230A0EDF
:103980000101D86FD96BF60EDA6FDB6992EC18F093
:1039900001019F0EDE1901E1DF510DE09F0EE66E81
:1039A000E66A0F0EE66EE66A59EC30F0E552E55233
:1039B000E552E55204D00001D82B000ED9230101B5
:1039C000F60ED86FD969300EDA6FF80EDB6F92EC15
:1039D00018F0FF0E0101DE1902E1030EDF190DE000
:1039E000E668030EE66E0F0EE66EE66A59EC30F0FE
:1039F000E552E552E552E55204D00001D82B000E05
:103A0000D9230101D8697F0ED96FDA69DB6F92EC97
:103A100018F0010E0101DE1902E1FC0EDF190EE0C3
:103A2000010EE66EFC0EE66E0F0EE66EE66A59ECCF
:103A300030F0E552E552E552E55204D00001D82BB2
:103A4000000ED9230101D8693F0ED96FDA69DB6F07
:103A500092EC18F0010E0101DE1902E1FC0EDF19F3
:103A60000EE0010EE66EFC0EE66E0F0EE66EE66AE6
:103A700059EC30F0E552E552E552E55204D0000130
:103A8000D82B000ED9230101010ED86FC00ED96FBB
:103A9000010EDA6FC00EDB6F92EC18F0FF0E010121
:103AA000DE1902E1030EDF190DE0E668030EE66E93
:103AB0000F0EE66EE66A59EC30F0E552E552E5523B
:103AC000E55204D00001D82B000ED9230101010ECC
:103AD000D86F800ED96F010EDA6F800EDB6F92EC1B
:103AE00018F0FF0E0101DE1902E1030EDF190DE0EF
:103AF000E668030EE66E0F0EE66EE66A59EC30F0ED
:103B0000E552E552E552E55212000001D82B000EB5
:103B1000D92312000101C26BC36BC46BF00EC56FD9
:103B2000C66BC76BC86BC96BCA6BCB6BCC6BCD6BF1
:103B3000CE6BCF6B010ED86FD96BDA6BDB6B92EC6F
:103B400018F0FE0E0101DE1902E1FF0EDF190DE093
:103B5000FE0EE66EE668100EE66EE66A59EC30F090
:103B6000E552E552E552E55204D00001D82B000E93
:103B7000D9230101D86BD96B010EDA6FDB6B92ECA4
:103B800018F00101020EDE1901E1DF510DE0020E15
:103B9000E66EE66A100EE66EE66A59EC30F0E55223
:103BA000E552E552E55204D00001D82B000ED9238E
:103BB000020E0101D86FD96BDA6BDB6B92EC18F057
:103BC000FC0E0101DE1902E1FF0EDF190DE0FC0E13
:103BD000E66EE668100EE66EE66A59EC30F0E552E5
:103BE000E552E552E55204D00001D82B000ED9234E
:103BF0000101D86BD96B020EDA6FDB6B92EC18F017
:103C00000101040EDE1901E1DF510DE0040EE66E44
:103C1000E66A100EE66EE66A59EC30F0E552E552BF
:103C2000E552E55204D00001D82B000ED923010142
:103C3000D8697F0ED96FDA6BDB6B92EC18F0010E4E
:103C40000101DE1902E1FC0EDF190EE0010EE66E45
:103C5000FC0EE66E100EE66EE66A59EC30F0E552A8
:103C6000E552E552E55204D00001D82B000ED923CD
:103C70000101D8693F0ED96FDA6BDB6B92EC18F05B
:103C8000010E0101DE1902E1FC0EDF190EE0010E4A
:103C9000E66EFC0EE66E100EE66EE66A59EC30F04B
:103CA000E552E552E552E55204D00001D82B000E52
:103CB000D9230101010ED86FC00ED96FDA6BDB6B0F
:103CC00092EC18F0FF0E0101DE1902E1030EDF197C
:103CD0000DE0E668030EE66E100EE66EE66A59EC3D
:103CE00030F0E552E552E552E55204D00001D82B00
:103CF000000ED9230101010ED86F800ED96FDA6B47
:103D0000DB6B92EC18F0FF0E0101DE1902E1030EED
:103D1000DF190DE0E668030EE66E100EE66EE66A49
:103D200059EC30F0E552E552E552E55204D000017D
:103D3000D82B000ED9230101C46B100EC56F0A0EDB
:103D4000D86FD96BDA6FDB6B92EC18F00101DE51A2
:103D5000DF110DE0000EE66EE66A100EE66EE66A12
:103D600059EC30F0E552E552E552E55204D000013D
:103D7000D82B000ED9230101D86BD96BDA6BDB6B22
:103D800092EC18F00101DE51DF110DE0000EE66E3D
:103D9000E66A100EE66EE66A59EC30F0E552E5523E
:103DA000E552E55204D00001D82B000ED9230101C1
:103DB000F60ED86FD969DA6FDB6992EC18F0010161
:103DC000DE51DF110DE0000EE66EE66A100EE66EC3
:103DD000E66A59EC30F0E552E552E552E55204D07E
:103DE0000001D82B000ED9230101D8697F0ED96FAD
:103DF000DA69DB6F92EC18F00101DE51DF110DE0A2
:103E0000000EE66EE66A100EE66EE66A59EC30F0D9
:103E1000E552E552E552E55204D00001D82B000EE0
:103E2000D9230101D8693F0ED96FDA69DB6F92ECB3
:103E300018F00101DE51DF110DE0000EE66EE66ABA
:103E4000100EE66EE66A59EC30F0E552E552E552A6
:103E5000E55204D00001D82B000ED9230101010E38
:103E6000D86FC00ED96F010EDA6FC00EDB6F92EC07
:103E700018F00101DE51DF110DE0000EE66EE66A7A
:103E8000100EE66EE66A59EC30F0E552E552E55266
:103E9000E55204D00001D82B000ED9230101010EF8
:103EA000D86F800ED96F010EDA6F800EDB6F92EC47
:103EB00018F00101DE51DF110DE0000EE66EE66A3A
:103EC000100EE66EE66A59EC30F0E552E552E55226
:103ED000E55204D00001D82B000ED923010E0101B8
:103EE000D86FD96BDA6BDB6B92EC18F00101020E24
:103EF000DE1901E1DF510DE0020EE66EE66A100EFA
:103F0000E66EE66A59EC30F0E552E552E552E552CC
:103F100004D00001D82B000ED9230101D86BD96B36
:103F2000010EDA6FDB6B92EC18F0FE0E0101DE1968
:103F300002E1FF0EDF190DE0FE0EE66EE668100EE0
:103F4000E66EE66A59EC30F0E552E552E552E5528C
:103F500004D00001D82B000ED923020E0101D86F26
:103F6000D96BDA6BDB6B92EC18F00101040EDE19F1
:103F700001E1DF510DE0040EE66EE66A100EE66E1A
:103F8000E66A59EC30F0E552E552E552E55204D0CC
:103F90000001D82B000ED9230101D86BD96B020E7A
:103FA000DA6FDB6B92EC18F0FC0E0101DE1902E116
:103FB000FF0EDF190DE0FC0EE66EE668100EE66EF1
:103FC000E66A59EC30F0E552E552E552E55204D08C
:103FD0000001D82B000ED9230101D8697F0ED96FBB
:103FE000DA6BDB6B92EC18F0FF0E0101DE1902E1D7
:103FF000030EDF190DE0E668030EE66E100EE66EA6
:10400000E66A59EC30F0E552E552E552E55204D04B
:104010000001D82B000ED9230101D8693F0ED96FBA
:10402000DA6BDB6B92EC18F0FF0E0101DE1902E196
:10403000030EDF190DE0E668030EE66E100EE66E65
:10404000E66A59EC30F0E552E552E552E55204D00B
:104050000001D82B000ED9230101010ED86FC00E2C
:10406000D96FDA6BDB6B92EC18F0010E0101DE19EF
:1040700002E1FC0EDF190EE0010EE66EFC0EE66EAC
:10408000100EE66EE66A59EC30F0E552E552E55264
:10409000E55204D00001D82B000ED9230101010EF6
:1040A000D86F800ED96FDA6BDB6B92EC18F0010ED3
:1040B0000101DE1902E1FC0EDF190EE0010EE66ED1
:1040C000FC0EE66E100EE66EE66A59EC30F0E55234
:1040D000E552E552E55204D00001D82B000ED92359
:1040E0000101C46B100EC56F640ED86FD96BDA6F07
:1040F000DB6B92EC18F00101DE51DF110DE0000ED8
:10410000E66EE66A100EE66EE66A59EC30F0E552AD
:10411000E552E552E55204D00001D82B000ED92318
:104120000101D86BD96BDA6BDB6B92EC18F00101F3
:10413000DE51DF110DE0000EE66EE66A100EE66E4F
:10414000E66A59EC30F0E552E552E552E55204D00A
:104150000001D82B000ED92301019C0ED86FD9691C
:10416000DA6FDB6992EC18F00101DE51DF110DE02E
:10417000000EE66EE66A100EE66EE66A59EC30F066
:10418000E552E552E552E55204D00001D82B000E6D
:10419000D9230101D8697F0ED96FDA69DB6F92EC00
:1041A00018F00101DE51DF110DE0000EE66EE66A47
:1041B000100EE66EE66A59EC30F0E552E552E55233
:1041C000E55204D00001D82B000ED9230101D86993
:1041D0003F0ED96FDA69DB6F92EC18F00101DE5106
:1041E000DF110DE0000EE66EE66A100EE66EE66A7E
:1041F00059EC30F0E552E552E552E55204D00001A9
:10420000D82B000ED9230101010ED86FC00ED96F33
:10421000010EDA6FC00EDB6F92EC18F00101DE5177
:10422000DF110DE0000EE66EE66A100EE66EE66A3D
:1042300059EC30F0E552E552E552E55204D0000168
:10424000D82B000ED9230101010ED86F800ED96F33
:10425000010EDA6F800EDB6F92EC18F00101DE5177
:10426000DF110DE0000EE66EE66A100EE66EE66AFD
:1042700059EC30F0E552E552E552E55204D0000128
:10428000D82B000ED923010E0101D86FD96BDA6B40
:10429000DB6B92EC18F00101020EDE1901E1DF5137
:1042A0000DE0020EE66EE66A100EE66EE66A59EC66
:1042B00030F0E552E552E552E55204D00001D82B2A
:1042C000000ED9230101D86BD96B010EDA6FDB6BBD
:1042D00092EC18F0FE0E0101DE1902E1FF0EDF196B
:1042E0000DE0FE0EE66EE668100EE66EE66A59EC2C
:1042F00030F0E552E552E552E55204D00001D82BEA
:10430000000ED923020E0101D86FD96BDA6BDB6B7B
:1043100092EC18F00101040EDE1901E1DF510DE00D
:10432000040EE66EE66A100EE66EE66A59EC30F0B0
:10433000E552E552E552E55204D00001D82B000EBB
:10434000D9230101D86BD96B020EDA6FDB6B92ECCB
:1043500018F0FC0E0101DE1902E1FF0EDF190DE07D
:10436000FC0EE66EE668100EE66EE66A59EC30F07A
:10437000E552E552E552E55204D00001D82B000E7B
:10438000D9230101D8697F0ED96FDA6BDB6B92EC10
:1043900018F0FF0E0101DE1902E1030EDF190DE036
:1043A000E668030EE66E100EE66EE66A59EC30F033
:1043B000E552E552E552E55204D00001D82B000E3B
:1043C000D9230101D8693F0ED96FDA6BDB6B92EC10
:1043D00018F0FF0E0101DE1902E1030EDF190DE0F6
:1043E000E668030EE66E100EE66EE66A59EC30F0F3
:1043F000E552E552E552E55204D00001D82B000EFB
:10440000D9230101010ED86FC00ED96FDA6BDB6BB7
:1044100092EC18F0010E0101DE1902E1FC0EDF1929
:104420000EE0010EE66EFC0EE66E100EE66EE66A1B
:1044300059EC30F0E552E552E552E55204D0000166
:10444000D82B000ED9230101010ED86F800ED96F31
:10445000DA6BDB6B92EC18F0010E0101DE1902E160
:10446000FC0EDF190EE0010EE66EFC0EE66E100E7D
:10447000E66EE66A59EC30F0E552E552E552E55257
:1044800004D00001D82B000ED9230101C46B600EAB
:10449000C56F0A0ED86FD96BDA6FDB6B92EC18F030
:1044A0000101DE51DF110DE0000EE66EE66A100E2E
:1044B000E66EE66A59EC30F0E552E552E552E55217
:1044C00004D00001D82B000ED9230101D86BD96B81
:1044D000DA6BDB6B92EC18F00101DE51DF110DE0BD
:1044E000000EE66EE66A100EE66EE66A59EC30F0F3
:1044F000E552E552E552E55204D00001D82B000EFA
:10450000D9230101F60ED86FD969DA6FDB6992EC15
:1045100018F00101DE51DF110DE0000EE66EE66AD3
:10452000100EE66EE66A59EC30F0E552E552E552BF
:10453000E55204D00001D82B000ED9230101D8691F
:104540007F0ED96FDA69DB6F92EC18F00101DE5152
:10455000DF110DE0000EE66EE66A100EE66EE66A0A
:1045600059EC30F0E552E552E552E55204D0000135
:10457000D82B000ED9230101D8693F0ED96FDA6913
:10458000DB6F92EC18F00101DE51DF110DE0000E3F
:10459000E66EE66A100EE66EE66A59EC30F0E55219
:1045A000E552E552E55204D00001D82B000ED92384
:1045B0000101010ED86FC00ED96F010EDA6FC00E67
:1045C000DB6F92EC18F00101DE51DF110DE0000EFF
:1045D000E66EE66A100EE66EE66A59EC30F0E552D9
:1045E000E552E552E55204D00001D82B000ED92344
:1045F0000101010ED86F800ED96F010EDA6F800EA7
:10460000DB6F92EC18F00101DE51DF110DE0000EBE
:10461000E66EE66A100EE66EE66A59EC30F0E55298
:10462000E552E552E55204D00001D82B000ED92303
:10463000010E0101D86FD96BDA6BDB6B92EC18F0CD
:1046400001010C0EDE1901E1DF510DE00C0EE66EEA
:10465000E66A100EE66EE66A59EC30F0E552E55275
:10466000E552E55204D00001D82B000ED9230101F8
:10467000D86BD96B010EDA6FDB6B92EC18F0F40E8D
:104680000101DE1902E1FF0EDF190DE0F40EE66E06
:10469000E668100EE66EE66A59EC30F0E552E55237
:1046A000E552E55204D00001D82B000ED923020EAA
:1046B0000101D86FD96BDA6BDB6B92EC18F001015A
:1046C000180EDE1901E1DF510DE0180EE66EE66A04
:1046D000100EE66EE66A59EC30F0E552E552E5520E
:1046E000E55204D00001D82B000ED9230101D86B6C
:1046F000D96B020EDA6FDB6B92EC18F0E80E010159
:10470000DE1902E1FF0EDF190DE0E80EE66EE66845
:10471000100EE66EE66A59EC30F0E552E552E552CD
:10472000E55204D00001D82B000ED9230101D8692D
:104730007F0ED96FDA6BDB6B92EC18F0FF0E010184
:10474000DE1902E1030EDF190DE0E668030EE66EE6
:10475000100EE66EE66A59EC30F0E552E552E5528D
:10476000E55204D00001D82B000ED9230101D869ED
:104770003F0ED96FDA6BDB6B92EC18F0FF0E010184
:10478000DE1902E1030EDF190DE0E668030EE66EA6
:10479000100EE66EE66A59EC30F0E552E552E5524D
:1047A000E55204D00001D82B000ED9230101010EDF
:1047B000D86FC00ED96FDA6BDB6B92EC18F0010E7C
:1047C0000101DE1902E1FC0EDF190EE0010EE66EBA
:1047D000FC0EE66E100EE66EE66A59EC30F0E5521D
:1047E000E552E552E55204D00001D82B000ED92342
:1047F0000101010ED86F800ED96FDA6BDB6B92EC82
:1048000018F0010E0101DE1902E1FC0EDF190EE0C5
:10481000010EE66EFC0EE66E100EE66EE66A59ECD0
:1048200030F0E552E552E552E55212000001D82B76
:10483000000ED9231200D9CFE6FFE1CFD9FF020E37
:10484000E1260101C26BC36BC46BC56BC66B100E56
:10485000C76FC86BC96B050ECA6FCB6BCC6BCD6BCA
:10486000CE6BCF6B0A0ED86FD96BDA6FDB6B92EC25
:1048700018F00101DE51DF110DE0000EE66EE66A70
:10488000110EE66EE66A59EC30F0E552E552E5525B
:10489000E55204D00001D82B000ED9230101D86BBA
:1048A000D96BDA6BDB6B92EC18F00101DE51DF1192
:1048B0000DE0000EE66EE66A110EE66EE66A59EC51
:1048C00030F0E552E552E552E55204D00001D82B14
:1048D000000ED9230101F60ED86FD969DA6FDB69B2
:1048E00092EC18F00101DE51DF110DE0000EE66ED2
:1048F000E66A110EE66EE66A59EC30F0E552E552D2
:10490000E552E55204D00001D82B000ED923010155
:10491000D8697F0ED96FDA69DB6F92EC18F001016C
:10492000DE51DF110DE0000EE66EE66A110EE66E56
:10493000E66A59EC30F0E552E552E552E55204D012
:104940000001D82B000ED9230101D8693F0ED96F81
:10495000DA69DB6F92EC18F00101DE51DF110DE036
:10496000000EE66EE66A110EE66EE66A59EC30F06D
:10497000E552E552E552E55204D00001D82B000E75
:10498000D9230101010ED86FC00ED96F010EDA6F65
:10499000C00EDB6F92EC18F00101DE51DF110DE06B
:1049A000000EE66EE66A110EE66EE66A59EC30F02D
:1049B000E552E552E552E55204D00001D82B000E35
:1049C000D9230101010ED86F800ED96F010EDA6F65
:1049D000800EDB6F92EC18F00101DE51DF110DE06B
:1049E000000EE66EE66A110EE66EE66A59EC30F0ED
:1049F000E552E552E552E55204D00001D82B000EF5
:104A0000D9230B0E0101D86FD96BDA6BDB6B92ECFB
:104A100018F00101020EDE1901E1DF510DE0020E76
:104A2000E66EE66A110EE66EE66A59EC30F0E55283
:104A3000E552E552E55204D00001D82B000ED923EF
:104A40000B0E0101D86FD96BDA6BDB6B92EC18F0AF
:104A50000101040EDE1901E1DF510DE0040EE66EE6
:104A6000E66A110EE66EE66A59EC30F0E552E55260
:104A7000E552E55204D00001D82B000ED9230B0ECD
:104A80000101D86FD96BDA6BDB6B92EC18F0010186
:104A9000060EDE1901E1DF510DE0060EE66EE66A54
:104AA000110EE66EE66A59EC30F0E552E552E55239
:104AB000E55204D00001D82B000ED9230B0E0101C2
:104AC000D86FD96BDA6BDB6B92EC18F00101080E32
:104AD000DE1901E1DF510DE0080EE66EE66A110E07
:104AE000E66EE66A59EC30F0E552E552E552E552E1
:104AF00004D00001D82B000ED9230B0E0101D86F72
:104B0000D96BDA6BDB6B92EC18F001010A0EDE193F
:104B100001E1DF510DE00A0EE66EE66A110EE66E67
:104B2000E66A59EC30F0E552E552E552E55204D020
:104B30000001D82B000ED9230B0E0101D86FD96BC1
:104B4000DA6BDB6B92EC18F001010A0EDE1901E161
:104B5000DF510DE00A0EE66EE66A110EE66EE66AB9
:104B600059EC30F0E552E552E552E55204D000012F
:104B7000D82B000ED9230B0E0101D86FD96BDA6B3D
:104B8000DB6B92EC18F001010A0EDE1901E1DF5136
:104B90000DE00A0EE66EE66A110EE66EE66A59EC64
:104BA00030F0E552E552E552E55204D00001D82B31
:104BB000000ED923080E0101C66FC76BCA693F0EEC
:104BC000CB6FEE6BEF6BD86B100ED96FDA6BDB6BC4
:104BD00092EC18F001010F0EDE1901E1DF510DE03A
:104BE0000F0EE66EE66A110EE66EE66A59EC30F0DC
:104BF000E552E552E552E55204D00001D82B000EF3
:104C0000D9230101D86B100ED96FDA6BDB6B92ECF4
:104C100018F001011F0EDE1901E1DF510DE01F0E3A
:104C2000E66EE66A110EE66EE66A59EC30F0E55281
:104C3000E552E552E55204D00001D82B000ED923ED
:104C40000101D86B100ED96FDA6BDB6B92EC18F0A8
:104C500001012F0EDE1901E1DF510DE02F0EE66E8E
:104C6000E66A110EE66EE66A59EC30F0E552E5525E
:104C7000E552E55204D00001D82B000ED9230101E2
:104C8000D86B100ED96FDA6BDB6B92EC18F0010168
:104C90003F0EDE1901E1DF510DE03F0EE66EE66AE0
:104CA000110EE66EE66A59EC30F0E552E552E55237
:104CB000E55204D00001D82B000ED9230101D86B96
:104CC000100ED96FDA6BDB6B92EC18F001013F0E1E
:104CD000DE1901E1DF510DE03F0EE66EE66A110ECE
:104CE000E66EE66A59EC30F0E552E552E552E552DF
:104CF00004D00001D82B000ED923020EE15C02E2A1
:104D0000E16AE552E16EE552E7CFD9FF12001200E9
:064D100012001200120067
:0A4D1600E66A37EC38F0E5520001C0
:104D2000D76FE850090803E20001DB8302D00001DD
:104D3000DB93020EE66E47EC38F0E552F3CF88F0D5
:104D4000F4CF89F0040EE66E47EC38F0E552F3CF6D
:104D500084F0F4CF85F0060EE66E47EC38F0E552AD
:104D6000F3CF86F0F4CF87F0080EE66E47EC38F00C
:104D7000E552F3CF80F0F4CF81F00A0EE66E47ECF7
:104D800038F0E552F3CF82F0F4CF83F00C0EE66EEC
:104D900047EC38F0E552F3CF8AF0300EE66E47EC80
:104DA00038F0E552F3CFE6F1F4CFE7F10101F31C5F
:104DB00006E1E71D04E1D00EE66F070EE76F120073
:104DC000D9CFE6FFE1CFD9FFE00E6E14146EFE0ED0
:104DD000DB50145C04E0FE0EDB506F6EF5D7609E76
:104DE0000F01509FE552E7CFD9FF1200800EE66E0B
:104DF000E7DFE552400E706EEE0E716E850E726E3C
:104E0000776A0F01200E506F240E606E200E736EB5
:104E1000A36A9394E66AD4DFE55212000001D751E9
:104E20000401006F016B050ED89000370137E806CA
:104E3000FBE1200E040100150001EC6FED6B800E0C
:104E4000040100150001EE6F010E040101150001BF
:104E5000EF6F000EEE27020EEF230A0E040100256D
:104E60000001F06F060E040101210001F16FF00E48
:104E7000F26F070EF36FF469F56FE00E6E148008A1
:104E800003E0800E6F6EF9D7ECC014F0050ED890D9
:104E90001436E804FCE114C001FFECC014F0EDC0CE
:104EA00015F0030ED89015321432E804FBE114C05B
:104EB00000FFEEC014F0050ED8901436E804FCE1B3
:104EC00014C005FFEEC014F0EFC015F0030ED8902B
:104ED00015321432E804FBE114C004FFF2C014F0F0
:104EE000050ED8901436E804FCE114C019FFF2C096
:104EF00014F0F3C015F0030ED89015321432E80404
:104F0000FBE114C018FFF0C014F0050ED890143661
:104F1000E804FCE114C009FFF0C014F0050ED890BD
:104F20001436E804FCE114C00DFFF0C014F0050EC7
:104F3000D8901436E804FCE114C011FFF0C014F05E
:104F4000050ED8901436E804FCE114C015FFF0C03B
:104F500014F0F1C015F0030ED89015321432E804A5
:104F6000FBE114C008FFF0C014F0F1C015F0030E0F
:104F7000D89015321432E804FBE114C00CFFF0C0E5
:104F800014F0F1C015F0030ED89015321432E80475
:104F9000FBE114C010FFF0C014F0F1C015F0030ED7
:104FA000D89015321432E804FBE114C014FFF4C0A9
:104FB00014F0050ED8901436E804FCE114C01DFF6F
:104FC000F4C014F0F5C015F0030ED8901532143269
:104FD000E804FBE114C01CFFE00E6E1402E06F6AEF
:104FE000FBD7120098DE02DF19DF0001040EA06F6C
:104FF00012000F0150516010800B1200E1EC2FF0F5
:105000000F01409796C014F0050ED8901436E804AE
:10501000FCE114500F01426F96C014F097C015F0D8
:10502000030ED89015321432E804FBE114500F013E
:10503000416FA0C045FF98C046FF99C047FF9AC086
:1050400048FF9BC049FF9CC04AFF9DC04BFF9EC0CC
:105050004CFF9FC04DFF40870001EA2B000EEB2361
:10506000120060AE30D0E1EC2FF0615000018B6F88
:105070008C6B030ED8908B378C37E806FBE16250BF
:10508000E00BE838E840156AE85000018B13155032
:105090008C1365CF95F0955110E066CF8DF067CFFA
:1050A0008EF068CF8FF069CF90F06ACF91F06BCF20
:1050B00092F06CCF93F06DCF94F0609E0001E82BDE
:1050C000000EE92312000F0150AF2FD0E1EC2FF0BA
:1050D0000F01515100018B6F8C6B030ED8908B37F1
:1050E0008C37E806FBE10F015251E00BE838E8404D
:1050F000156AE85000018B1315508C1355CF95F0AD
:1051000056CF8DF057CF8EF058CF8FF059CF90F00B
:105110005ACF91F05BCF92F05CCF93F05DCF94F0DB
:105120000F01509F0001E82BE92312000001F62B2C
:10513000000EF723100ED880F655000EF75502E248
:10514000F66BF76B100EF61901E1F75101E196D0FD
:105150000F0EF61901E1F75101E18BD00E0EF61991
:1051600001E1F75101E17ED00D0EF61901E1F75191
:1051700074E00C0EF61901E1F7516AE00B0EF61916
:1051800001E1F75160E00A0EF61901E1F75156E02E
:10519000090EF61901E1F7514CE0080EF61901E18C
:1051A000F75142E0070EF61901E1F75138E0060E1B
:1051B000F61901E1F7512EE0050EF61901E1F7515C
:1051C00024E0040EF61901E1F7511AE0030EF61976
:1051D00001E1F75113E0020EF61901E1F7510AE07F
:1051E000010EF61901E1F75105E0F65101E1F75121
:1051F00005E01200640EF86F080E3ED0F86B42D046
:1052000084C0F8F085C0F9F0120086C0F8F087C0BD
:10521000F9F0120088C0F8F089C0F9F0120080C0DF
:10522000F8F081C0F9F0120082C0F8F083C0F9F004
:105230001200C2C1F8F0C3C1F9F01200C4C1F8F005
:10524000C5C1F9F01200C6C1F8F0C7C1F9F01200EB
:10525000CAC1F8F0CBC1F9F01200C8C1F8F0C9C159
:10526000F9F012000101CF51000EF3500101CE11EF
:1052700007D0880EF86F130EF96F120000018A51E3
:105280000001F86FF96B12000F0E00018B1504017D
:105290000E6F0F014097E8500F0A01E19ED0010AFE
:1052A00001E192D0030A01E186D0010A01E17AD03E
:1052B000070A6FE0010A64E0030A59E0010A4EE0C0
:1052C0000F0A43E0010A38E0030A2DE0010A22E058
:1052D000070A17E0010A0CE0030A01E086D0C9C002
:1052E00046FFCAC047FFC5C048FFC6C049FF7DD0C2
:1052F000C9C046FFCAC047FFC7C048FFC8C049FF72
:1053000074D0C9C046FFCAC047FFFCC048FFFDC0FB
:1053100049FF6BD0C9C046FFCAC047FFDAC048FF8B
:10532000DBC049FF62D0C9C046FFCAC047FFDFC02B
:1053300048FFE0C049FF59D0C9C046FFCAC047FF77
:10534000E1C048FFE2C049FF50D0C9C046FFCAC013
:1053500047FFDDC048FFDEC049FF47D0C9C046FF58
:10536000CAC047FFE8C048FFE9C049FF3ED0C9C0F6
:1053700046FFCAC047FFEAC048FFEBC049FF35D02F
:10538000F6C046FFF7C047FFF8C048FFF9C049FF25
:105390002CD028C246FF29C247FF2AC248FF2BC291
:1053A00049FF23D0C9C046FFCAC047FF76CF48FF98
:1053B00075CF49FF1AD0C9C046FFCAC047FFF7C121
:1053C00048FFF8C149FF11D0C9C046FFCAC047FF16
:1053D000F9C148FFFAC149FF08D0C9C046FFCAC099
:1053E00047FFFBC148FFFCC149FF040E456F0001A8
:1053F000D751040DF3CF41FF0F01426B418F61B0D4
:10540000418162CF42FF0001EA2B000EEB230F0126
:1054100040870A0E04010E5D01E188DE1200D9CF3B
:10542000E6FFE1CFD9FF040EE1260F0E00018B1538
:10543000DF6E030E0001D715E76E010EE7CFDBFF2D
:10544000010EEA6ADB34FE0BEA36E96E8D0EE926C0
:10545000000EEA22020EEECFDBFF030EEDCFDBFFE4
:10546000DF50040A52E0070A1EE0010A11E0030AB5
:1054700004E0010A01E07BD088D0020EDBCFE6FF1A
:10548000030EDBCFE6FFE6EC2FF0E552E5527DD0D0
:10549000020EDBCFE6FF030EDBCFE6FFFAEC2FF0C8
:1054A000E552E55272D0020EDBCF14F0030EDBCFD3
:1054B00015F0000E1416FF0E1516145002E1520ED0
:1054C000151822E1FF0EE76E020EDBCF16F0030E79
:1054D000DBCF17F0E7501616176A0001D751186E88
:1054E000196A1850161802E1195017180DE1000E2C
:1054F000E66EE66A95EC3BF0E552E552640EE66E28
:1055000000EC3CF0E552FF0040D0020EDB50010BF6
:1055100003E00101010EFD6F020EDB50020B02E001
:105520000101FD6B020EDB50040B02E0AFEC2FF02B
:10553000020EDB50080B02E0BCEC2FF0020EDB5039
:10554000100B02E0C8EC2FF0020EDB50200B02E043
:10555000D5EC2FF0020EDB50400B02E094EC2EF065
:10556000020EDB50800B02E00BEC36F00ED0020E88
:10557000DBCFE6FF030EDBCFE6FFDFCFE6FFA4ECD9
:1055800035F0E552E552E55200D0040EE15C02E24E
:10559000E16AE552E16EE552E7CFD9FF1200D9CFBB
:1055A000E6FFE1CFD9FFE6520F0E00018B15DF6E4B
:1055B0000A0EDF5C02E192EC31F0E552E552E7CFF2
:1055C000D9FF1200D9CFE6FFE1CFD9FFE6520001A3
:1055D000D65102E0D60701D0808643DD0001060ED9
:1055E0008C15146E156AD89014321450DF6EDF508B
:1055F000030A0AE0010A09E0030A04E0010A05E1DE
:1056000043DE03D00CDF01D0CADFE552E552E7CF1D
:10561000D9FF1200D9CFE6FFE1CFD9FF020EE12674
:10562000FE0EDBCF14F0156A14BE1568030E1416B7
:10563000000E151614C015F0146AD890153614C053
:10564000DEFF15C0DDFFFD0EDB50146E156A0F0E78
:105650001416000E1516050ED89014361536E804EB
:10566000FBE1D9CFE9FFDACFEAFF1450EE12155073
:10567000ED12FC0EDBCF14F00F0E1414DF12DECF90
:1056800014F0DDCF15F014C0F3FF15C0F4FF020EC7
:10569000E15C02E2E16AE552E16EE552E7CFD9FF53
:0256A0001200F6
:0E56A200CF0E811693160201810E2F6F0F0E90
:1056B000306F0201050E316F7F0EE66E65EC37F03C
:1056C000E552050EE66E98EC37F0E5520201040E45
:1056D000316F7F0EE66E65EC37F0E552050EE66E33
:1056E00098EC37F0E5529CEF2CF0D9CFE6FFE1CFF4
:1056F000D9FF040EE1265EEC3AF0E66A0BEC3AF0D4
:10570000E55202013851391106E0FF0E381907E160
:105710000F0E391904E1E66A0BEC3AF0E55202018A
:105720003851391106E1FF0E381902E10F0E39190F
:105730000AE038C2C1F039C2C2F00001FF0ED880C1
:10574000C1570F0EC257010EE66E0BEC3AF0E55250
:1057500002013851391106E0FF0E381908E10F0E29
:10576000391905E1010EE66E0BEC3AF0E552020143
:105770003851391106E1FF0E381902E10F0E3919BF
:105780000AE038C2C3F039C2C4F00001FF0ED8806D
:10579000C3570F0EC457020100510001C15DC56F10
:1057A000020101510001C259C66F020102510001FC
:1057B000C35DC76F020103510001C459C86FE834CB
:1057C00014E2C7510008000EC8550FE2C7C014F01C
:1057D000C8C015F0050ED89015321432E804FBE16C
:1057E00014C0DEFF15C0DDFF02D0DE6ADD6A0001F5
:1057F000C63516E2C5510008000EC65511E2C5C0F7
:1058000014F0C6C015F0050ED89015321432E80415
:10581000FBE1020E14C0DBFF030E15C0DBFF04D05A
:10582000020EDB6A030EDB6AD9CFE9FFDACFEAFFAB
:10583000EE500001C527EE50C623020EDBCF08F064
:10584000030EDBCF09F00850C7270950C823C75102
:10585000C55DC96FC851C659CA6FC551C725CB6F41
:10586000C651C821CC6F000ECB5F020ECC5B040E7C
:10587000E15C02E2E16AE552E16EE552E7CFD9FF71
:105880001200D9CFE6FFE1CFD9FF010EF36EFE0E75
:10589000DB5004E0D890F336E806FCE1F350040155
:1058A000016F026B036B046B056B006B0151005DB4
:1058B00013E21BDF0001C151040102270001C251A4
:1058C000040103230001C351040104270001C45152
:1058D00004010523002BEAD7FE0EDB500F0B05E079
:1058E000D89003330233E806FBE1FE0EDB500F0BCA
:1058F000040105E0D89005330433E806FBE102C457
:10590000C1F003C4C2F004C4C3F005C4C4F0000174
:10591000C751C55DC96FC851C659CA6FC551C725A2
:10592000CB6FC651C821CC6F000ECB5F020ECC5B93
:10593000E552E7CFD9FF1200D9CFE6FFE1CFD9FF7B
:10594000050EE126800EDF6E010EDB6A020EDB6AB9
:10595000030EDB6A040EDB6ADF5046E0010EDB500B
:10596000DF10E76E030EE7CFDBFF020EDB50DF1028
:10597000E76E040EE7CFDBFF0201050E316F030E69
:10598000DBCFE6FFCBEC37F0E5520201040E316FBE
:10599000DBCFE6FFCBEC37F0E5520A0EE66E3EECCD
:1059A0003CF0E552040EE66E6CDFE5520001C235B4
:1059B0000BE2C1510008010EC25506E2030EDB5096
:1059C000E76E010EE7CFDBFFC4350BE2C3510008E1
:1059D000010EC45506E2040EDB50E76E020EE7CF5F
:1059E000DBFFDF90DF42B8D7C1C000F2C2C001F2D6
:1059F000C3C002F2C4C003F2040EC1C004F2C2C0AC
:105A000005F2000A06E00201D89004370537E804E1
:105A1000FBE1040EC3C006F2C4C007F2000A06E0B0
:105A20000201D89006370737E804FBE1050EE15C78
:105A300002E2E16AE552E16EE552E7CFD9FF1200DA
:105A4000D9CFE6FFE1CFD9FF040EE126C5C0DEFFC6
:105A5000C6C0DDFF020EC7C0DBFF030EC8C0DBFF00
:105A6000DECF14F0DDCF15F0800E151411E0DECF7F
:105A700014F0DDCF15F0060ED89014361536E80474
:105A8000FBE1145002010A5F15500B5BDE6ADD6A10
:105A9000020E030EDBCF15F0800E151415E0020E7A
:105AA000DBCF14F0030EDBCF15F0060ED8901436C2
:105AB0001536E804FBE1145002010C5F15500D5B34
:105AC000020EDB6A030EDB6A020EDBCF14F0030E5C
:105AD000DBCF15F0040ED89015321432E804FBE148
:105AE000050E1426000E1522145002010A5F1550EF
:105AF0000B5BDECF14F0DDCF15F0040ED89015321D
:105B00001432E804FBE1050E1426000E1522145091
:105B100002010C5F15500D5B0D3504E20C510008BD
:105B2000000E0D552FE3400E0C271F0E0D23320ED5
:105B30000001C8AF02D0D89003D0C75D000EC8598D
:105B400021E2C83509E2C7510008000EC85504E239
:105B50000201062B000E07230001800EC81504E089
:105B600002010607000E075B06C214F007C215F01B
:105B7000040ED89015321432E804FBE114C002F28E
:105B800015C003F202010B3504E20A510008000EB1
:105B90000B552FE3400E0A271F0E0B23320E000178
:105BA000C6AF02D0D89003D0C55D000EC65921E221
:105BB000C63509E2C5510008000EC65504E20201CF
:105BC000042B000E05230001800EC61504E002011F
:105BD0000407000E055B04C214F005C215F0040EA4
:105BE000D89015321432E804FBE114C000F215C05D
:105BF00001F2040EE15C02E2E16AE552E16EE55277
:105C0000E7CFD9FF1200D9CFE6FFE1CFD9FF030ECE
:105C1000E126010EFEC0DBFF020EFFC0DBFF00012C
:105C20002C0EFE6F010EFF6F0A0EDF6EDF500008B4
:105C300024E22C0EE66E010EE66EA7EC38F0E5527B
:105C4000E5520A0EDF02F350E66EE66AE6EC32F049
:105C5000E552E552D40EE66EFE0EE66EA7EC38F085
:105C6000E552E5520A0EDF02F350E66EE66AE6EC14
:105C700032F0E552E552DF06D9D7000EE66EE66A4D
:105C8000A7EC38F0E552E552E80EE66E030EE66E3C
:105C9000E6EC32F0E552E5520201046B056B066B4F
:105CA000076BDF6A100EDF5C13E21FDD0001C151DC
:105CB000020104270001C251020105230001C35162
:105CC000020106270001C45102010723DF2AEAD797
:105CD00004C214F005C215F0040ED8901532143227
:105CE000E804FBE114C000F215C001F206C214F092
:105CF00007C215F0040ED89015321432E804FBE107
:105D000014C002F215C003F2010EDBCFFEF0020E4A
:105D1000DBCFFFF0030EE15C02E2E16AE552E16EE7
:105D2000E552E7CFD9FF120000012C0ECD6F010E16
:105D3000CE6F640ECF6FD06BD16FD26BFEC0D3F03D
:105D4000FFC0D4F01200D9CFE6FFE1CFD9FFE65271
:105D500000012C0EFE6F010EFF6F0001D551010AEC
:105D600028E0010A6AE1D107000ED25BD151D211BD
:105D700064E1CD6DCE1F000ECE23050ECF5F000E69
:105D8000D05BCFC0D1F0D0C0D2F0CF51D01108E15C
:105D9000CD6BCE6B010ED56FE80ED16F030ED26FB7
:105DA000CDC0E6FFCEC0E6FFA7EC38F0E552E552E5
:105DB00044D0D107000ED25BD151D2113EE1020195
:105DC000046B056B066B076BDF6A100EDF5C13E27A
:105DD0008CDC0001C151020104270001C251020103
:105DE00005230001C351020106270001C45102012D
:105DF0000723DF2AEAD704C214F005C215F0040E07
:105E0000D89015321432E804FBE114C000F215C03A
:105E100001F206C214F007C215F0040ED890153234
:105E20001432E804FBE114C002F215C003F20001D1
:105E3000DA9FD3C0FEF0D4C0FFF0E552E552E7CFC1
:105E4000D9FF12000401006B016B026B036B700E33
:105E5000086F010E096FFEC00AF4FFC00BF40001C9
:105E60002C0EFE6F010EFF6F40DCC3C004F4C4C0F3
:105E700005F408C4E6FF09C4E6FFA7EC38F0E552D4
:105E8000E552040102515FE1010EE66E00EC3CF0C8
:105E9000E552C3C004F4C4C005F427DC0401045176
:105EA0000001C35D0401066F05510001C4590401DE
:105EB000076F0151040A2BE0070A27E0010A15E0E9
:105EC000030A0AE0010A25E1073523E206510A0820
:105ED000000E07551EE219D0D880075104E7F60ED0
:105EE000065DFF0E075915E210D0060E07AF02D06F
:105EF000D89003D0065D000E07590BE2073504E386
:105F00000651FA08FF0E075504E2032B02D0010EDA
:105F1000026F0351080803E3400E005D12E3010520
:105F200004E0086D091F000E0923006B036B08C411
:105F3000E6FF09C4E6FFA7EC38F0E552E55204019C
:105F4000012B002B9ED7000EE66EE66AA7EC38F018
:105F5000E552E5520AC4FEF00BC4FFF01200020144
:105F6000001D01E1011D07E0002B000E01230F0EB3
:105F70000427000E0523120002010051011107E061
