:020000040000FA
:0604C000C6EF3DF0120042
:0A04C6000B00617C0000360200000C
:1004D000020000005B7C0000F70100000600000045
:1004E000557C0000F900000006000000517C00006F
:1004F00022020000040000004E7C00002F020000D9
:1005000003000000447C0000180200000A00000004
:10051000327C0000D600000012000000307C000099
:100520003402000002000000227C000000020000F3
:100530000E000000117C0000E80000001100000027
:0C054000DC7B0000C20100003500000060
:04054C00D9CFE6FF1E
:10055000E1CFD9FF020EE126FD0EDBCF96F0FE0EB5
:10056000DBCF97F00001A06B4EEC2AF072EC32F07A
:1005700049EC2AF0000910E1FD0EDBCFE6FFFE0E8C
:10058000DBCFE6FF020EE66EE66A99EC32F0E5524A
:10059000E552E552E55204D00001EA2B000EEB23B0
:1005A00081EC2AF0020EE15C02E2E16AE552E16EC2
:1005B000E552E7CFD9FF1200D9CFE6FFE1CFD9FF4F
:1005C000020EE126FD0EDBCF96F0FE0EDBCF97F09C
:1005D0000001A06B609E0F01509F4EEC2AF072EC60
:1005E00032F049EC2AF0000912E00001A06BFD0E88
:1005F000DBCFE6FFFE0EDBCFE6FF010EE66EE66A1E
:1006000099EC32F0E552E552E552E55204D0000192
:10061000EA2B000EEB2381EC2AF0020EE15C02E2F1
:10062000E16AE552E16EE552E7CFD9FF12005EECD8
:1006300029F0400EE66E30EC29F0E55272EC32F013
:10064000200EE66EE66A82DFE552E552220EE66E85
:10065000E66A7CDFE552E552200EE66E010EE66E9C
:10066000ABDFE552E552600EE66EE66AA5DFE552C5
:10067000E552300EE66EE66A9FDFE552E552800EE7
:10068000E66E020EE66E62DFE552E552820EE66E1F
:10069000020EE66E5BDFE552E552800EE66E030E5B
:1006A000E66E8ADFE552E552E66A020EE66E84DF08
:1006B000E552E552A00EE66E020EE66E7DDFE552D3
:1006C000E552900EE66E020EE66E76DFE552E552DA
:1006D000EA0EE66E060EE66E39DFE552E552EA0EE8
:1006E000E66E070EE66E68DFE552E5526A0EE66ECC
:1006F000060EE66E61DFE552E552AA0EE66E060EC4
:10070000E66E5ADFE552E552C20EE66E060EE66E62
:1007100053DFE552E552EE0EE66E060EE66E4CDF56
:10072000E552E552E80EE66E060EE66E45DFE5524E
:10073000E5521200D9CFE6FFE1CFD9FF020EE12644
:10074000100EDE6E270EDD6EDFCF14F0DF06010E19
:10075000DBCF15F001E2DB06145015100AE00000B3
:1007600000000000000049EC2AF0000901E002D07E
:10077000EBD700D0020EE15C02E2E16AE552E16EE5
:10078000E552E7CFD9FF1200D9CFE6FFE1CFD9FF7D
:10079000FD0EDBCF96F0FE0EDBCF97F00001A06BD5
:1007A0004EEC2AF0C7DF26EC2DF0E552E7CFD9FF5B
:1007B0001200D9CFE6FFE1CFD9FFFD0EDBCF96F0D7
:1007C000FE0EDBCF97F00001040EA06FFB0EDBCF17
:1007D00098F0FC0EDBCF99F0F90EDBCF9AF0FA0E11
:1007E000DBCF9BF04EEC2AF0A5DF26EC2DF0E55296
:1007F000E7CFD9FF1200D9CFE6FFE1CFD9FFFD0E39
:10080000DBCF96F0FE0EDBCF97F00001080EA06F55
:10081000FB0EDBCF98F0FC0EDBCF99F0F90EDBCFAF
:100820009AF0FA0EDBCF9BF0F70EDBCF9CF0F80EC0
:10083000DBCF9DF0F50EDBCF9EF0F60EDBCF9FF009
:100840004EEC2AF077DF26EC2DF0E552E7CFD9FF0A
:1008500012000401340E006F120E016F450E026F7C
:10086000230E036F560E046F340E056F670E066F6E
:10087000450E076F780E086F560E096F890E0A6FC6
:10088000670E0B6F9A0E0C6F780E0D6F4BEC37F0F6
:100890000001EC8D000EE66EE66AE66EE66AE66E34
:1008A000E66AE66EE66A070EE66E0C0E0001E915D2
:1008B000E66E010EE66E4EEC2DF0E552E552E55285
:1008C000F3CF14F0F4CF15F0F3CFE6FFF4CFE6FF4B
:1008D00092DF166E0A0EE15E16500001AF51B011A4
:1008E00005E10001EA2B000EEB230CD0000EE66EB2
:1008F000E66A030EE66EE66A99EC32F0E552E552DE
:10090000E552E5520001EC51400B05E10001EA2BF4
:10091000000EEB230CD0000EE66EE66A030EE66EC8
:10092000E66A99EC32F0E552E552E552E5520001F3
:10093000EC8D120EE66EE66A000EE66EE66AE66E74
:10094000E66AE66EE66A070EE66E0C0E0001E91531
:10095000E66E010EE66E4EEC2DF0E552E552E552E4
:10096000F3CF14F0F4CF15F0F3CFE6FFF4CFE6FFAA
:1009700042DF166E0A0EE15E16500001120EAF192C
:1009800007E1B05105E10001EA2B000EEB230CD08A
:10099000120EE66EE66A030EE66EE66A99EC32F037
:1009A000E552E552E552E5520001EC51400B05E1FC
:1009B0000001EA2B000EEB230CD0120EE66EE66A65
:1009C000030EE66EE66A99EC32F0E552E552E55226
:1009D000E5520001EC8DE668030EE66E000EE66E51
:1009E000E66AE66EE66AE66EE66A070EE66E0C0EEC
:1009F0000001E915E66E010EE66E4EEC2DF0E552B3
:100A0000E552E552F3CF14F0F4CF15F0F3CFE6FF43
:100A1000F4CFE6FFF0DE166E0A0EE15E1650FF0E12
:100A20000001AF1908E1030EB01905E10001EA2B3E
:100A3000000EEB230BD0E668030EE66EE66EE66A68
:100A400099EC32F0E552E552E552E5520001EC51E5
:100A5000400B05E10001EA2B000EEB230BD0E6680A
:100A6000030EE66EE66EE66A99EC32F0E552E55268
:100A7000E552E5520001EC9DF40EE66EE668000ECC
:100A8000E66EE66AE66EE66AE66EE66A070EE66E11
:100A90000C0E0001E915E66E010EE66E4EEC2DF02F
:100AA000E552E552E552F3CF14F0F4CF15F0F3CF51
:100AB000E6FFF4CFE6FF9FDE166E0A0EE15E1650EB
:100AC000F40E0001AF1902E1FF0EB01905E00001BC
:100AD000EA2B000EEB230CD0F40EE66EE668030E54
:100AE000E66EE66A99EC32F0E552E552E552E552DF
:100AF0000001EC51400B05E00001EA2B000EEB2356
:100B00000CD0F40EE66EE668030EE66EE66A99EC2B
:100B100032F0E552E552E552E5520001EC9DE66AFD
:100B2000040EE66E000EE66EE66AE66EE66AE66EB5
:100B3000E66A070EE66E0C0E0001E915E66E010E80
:100B4000E66E4EEC2DF0E552E552E552F3CF14F08F
:100B5000F4CF15F0F3CFE6FFF4CFE6FF4CDE166ED0
:100B60000A0EE15E16500001AF5102E1040EB01909
:100B700005E00001EA2B000EEB230CD0E66A040E20
:100B8000E66E030EE66EE66A99EC32F0E552E55247
:100B9000E552E5520001EC51400B05E00001EA2B63
:100BA000000EEB230CD0E66A040EE66E030EE66E32
:100BB000E66A99EC32F0E552E552E552E552000161
:100BC000EC8D000EE66EE66AE66EE66AE66EE66AB2
:100BD000E66EE66A080EE66E0C0E0001E915E66E9A
:100BE000010EE66E4EEC2DF0E552E552E552F3CFE4
:100BF00014F0F4CF15F0F3CFE6FFF4CFE6FFFBDD02
:100C0000166E0A0EE15E16500001B151B21105E1F7
:100C10000001EA2B000EEB230CD0000EE66EE66A14
:100C2000040EE66EE66A99EC32F0E552E552E552C2
:100C3000E5520001EC51400B05E10001EA2B000EEA
:100C4000EB230CD0000EE66EE66A040EE66EE66A52
:100C500099EC32F0E552E552E552E5520001EC8D97
:100C6000120EE66E160EE66E000EE66EE66AE66E92
:100C7000E66AE66EE66A080EE66E0C0E0001E915FD
:100C8000E66E010EE66E4EEC2DF0E552E552E552B1
:100C9000F3CF14F0F4CF15F0F3CFE6FFF4CFE6FF77
:100CA000AADD166E0A0EE15E1650120E0001B11991
:100CB00008E1160EB21905E10001EA2B000EEB2344
:100CC0000DD0120EE66E160EE66E040EE66EE66AA5
:100CD00099EC32F0E552E552E552E5520001EC5153
:100CE000400B05E10001EA2B000EEB230DD0120EA4
:100CF000E66E160EE66E040EE66EE66A99EC32F0CB
:100D0000E552E552E552E5520001EC8DE668E668F1
:100D1000000EE66EE66AE66EE66AE66EE66A080EC3
:100D2000E66E0C0E0001E915E66E010EE66E4EEC65
:100D30002DF0E552E552E552F3CF14F0F4CF15F063
:100D4000F3CFE6FFF4CFE6FF56DD166E0A0EE15E46
:100D500016500001B11D07E1B21D05E10001EA2BAB
:100D6000000EEB230BD0E668E668040EE66EE66A3A
:100D700099EC32F0E552E552E552E5520001EC51B2
:100D8000400B05E10001EA2B000EEB230BD0E668D7
:100D9000E668040EE66EE66A99EC32F0E552E5523A
:100DA000E552E5520001EC8D000EE66EE66AE66E55
:100DB000E66AE66EE66AE66EE66A090EE66E0C0E16
:100DC0000001E915E66E010EE66E4EEC2DF0E552DF
:100DD000E552E552F3CF14F0F4CF15F0F3CFE6FF70
:100DE000F4CFE6FF08DD166E0A0EE15E1650000134
:100DF000B351B41105E10001EA2B000EEB230CD036
:100E0000000EE66EE66A050EE66EE66A99EC32F0D2
:100E1000E552E552E552E5520001EC51400B05E187
:100E20000001EA2B000EEB230CD0000EE66EE66A02
:100E3000050EE66EE66A99EC32F0E552E552E552AF
:100E4000E5520001EC8DE6687F0EE66E000EE66E60
:100E5000E66AE66EE66AE66EE66A090EE66E0C0E75
:100E60000001E915E66E010EE66E4EEC2DF0E5523E
:100E7000E552E552F3CF14F0F4CF15F0F3CFE6FFCF
:100E8000F4CFE6FFB8DC166E0A0EE15E1650FF0ED8
:100E90000001B31908E17F0EB41905E10001EA2B46
:100EA000000EEB230CD0E6687F0EE66E050EE66EB4
:100EB000E66A99EC32F0E552E552E552E55200015E
:100EC000EC51400B05E10001EA2B000EEB230CD0A6
:100ED000E6687F0EE66E050EE66EE66A99EC32F085
:100EE000E552E552E552E5520001EC9DE66A800EBE
:100EF000E66E000EE66EE66AE66EE66AE66EE66AA4
:100F0000090EE66E0C0E0001E915E66E010EE66EA6
:100F10004EEC2DF0E552E552E552F3CF14F0F4CF4C
:100F200015F0F3CFE6FFF4CFE6FF65DC166E0A0E90
:100F3000E15E16500001B35102E1800EB41905E0E4
:100F40000001EA2B000EEB230CD0E66A800EE66E61
:100F5000050EE66EE66A99EC32F0E552E552E5528E
:100F6000E5520001EC51400B05E00001EA2B000EB8
:100F7000EB230CD0E66A800EE66E050EE66EE66A9E
:100F800099EC32F0E552E552E552E5520001EC8D64
:100F9000000EE66EE66AE66EE66AE66EE66AE66E03
:100FA000E66A0A0EE66E0C0E0001E915E66E010E09
:100FB000E66E4EEC2DF0E552E552E552F3CF14F01B
:100FC000F4CF15F0F3CFE6FFF4CFE6FF14DC166E96
:100FD0000A0EE15E16500001B551B61105E100019F
:100FE000EA2B000EEB230CD0000EE66EE66A060E2E
:100FF000E66EE66A99EC32F0E552E552E552E552CA
:101000000001EC51400B05E10001EA2B000EEB233F
:101010000CD0000EE66EE66A060EE66EE66A99EC05
:1010200032F0E552E552E552E5520001EC8DE668FA
:101030007F0EE66E000EE66EE66AE66EE66AE66E25
:10104000E66A0A0EE66E0C0E0001E915E66E010E68
:10105000E66E4EEC2DF0E552E552E552F3CF14F07A
:10106000F4CF15F0F3CFE6FFF4CFE6FFFBEC03F08F
:10107000166E0A0EE15E1650FF0E0001B51908E16A
:101080007F0EB61905E10001EA2B000EEB230CD010
:10109000E6687F0EE66E060EE66EE66A99EC32F0C2
:1010A000E552E552E552E5520001EC51400B05E1F5
:1010B0000001EA2B000EEB230CD0E6687F0EE66EF3
:1010C000060EE66EE66A99EC32F0E552E552E5521C
:1010D000E5520001EC9DE66A800EE66E000EE66EBB
:1010E000E66AE66EE66AE66EE66A0A0EE66E0C0EE2
:1010F0000001E915E66E010EE66E4EEC2DF0E552AC
:10110000E552E552F3CF14F0F4CF15F0F3CFE6FF3C
:10111000F4CFE6FFFBEC03F0166E0A0EE15E16500C
:101120000001B55102E1800EB61905E00001EA2B7D
:10113000000EEB230CD0E66A800EE66E060EE66E1D
:10114000E66A99EC32F0E552E552E552E5520001CB
:10115000EC51400B05E00001EA2B000EEB230CD014
:10116000E66A800EE66E060EE66EE66A99EC32F0EE
:10117000E552E552E552E5520001EC8D000EE66EB7
:10118000E66AE66EE66AE66EE66AE66EE66A0B0E0A
:10119000E66E0C0E0001E915E66E010EE66E4EECF1
:1011A0002DF0E552E552E552F3CF14F0F4CF15F0EF
:1011B000F3CFE6FFF4CFE6FFFBEC03F0166E0A0E6A
:1011C000E15E16500001B751B81105E10001EA2BAC
:1011D000000EEB230CD0000EE66EE66A070EE66EFC
:1011E000E66A99EC32F0E552E552E552E55200012B
:1011F000EC51400B05E10001EA2B000EEB230CD073
:10120000000EE66EE66A070EE66EE66A99EC32F0CC
:10121000E552E552E552E5520001EC8DE6687F0E9D
:10122000E66E000EE66EE66AE66EE66AE66EE66A70
:101230000B0EE66E0C0E0001E915E66E010EE66E71
:101240004EEC2DF0E552E552E552F3CF14F0F4CF19
:1012500015F0F3CFE6FFF4CFE6FFFBEC03F0166EDC
:101260000A0EE15E1650FF0E0001B71908E17F0E6D
:10127000B81905E10001EA2B000EEB230CD0E6685B
:101280007F0EE66E070EE66EE66A99EC32F0E552E6
:10129000E552E552E5520001EC51400B05E1000139
:1012A000EA2B000EEB230CD0E6687F0EE66E070EED
:1012B000E66EE66A99EC32F0E552E552E552E55207
:1012C0000001EC9DE66A800EE66E000EE66EE66AB0
:1012D000E66EE66AE66EE66A0B0EE66E0C0E00013E
:1012E000E915E66E010EE66E4EEC2DF0E552E55284
:1012F000E552F3CF14F0F4CF15F0F3CFE6FFF4CFBF
:10130000E6FFFBEC03F0166E0A0EE15E16500001DC
:10131000B75102E1800EB81905E00001EA2B000E7A
:10132000EB230CD0E66A800EE66E070EE66EE66AE8
:1013300099EC32F0E552E552E552E5520001EC51EC
:10134000400B05E00001EA2B000EEB230CD0E66A0F
:10135000800EE66E070EE66EE66A99EC32F0E55214
:10136000E552E552E5520001EC8D000EE66EE66AAC
:10137000E66EE66AE66EE66AE66EE66A0C0EE66E13
:101380000001E915E66E010EE66E4EEC2DF0E55219
:10139000E552E552F3CF14F0F4CF15F0F3CFE6FFAA
:1013A000F4CFE6FFFBEC03F0166E0A0EE15E16507A
:1013B0000001B951BA1105E10001EA2B000EEB233F
:1013C0000CD0000EE66EE66A080EE66EE66A99EC50
:1013D00032F0E552E552E552E5520001EC51400B86
:1013E00005E10001EA2B000EEB230CD0000EE66EA7
:1013F000E66A080EE66EE66A99EC32F0E552E552CE
:10140000E552E5520001EC8DE6687F0EE66E000EB7
:10141000E66EE66AE66EE66AE66EE66A0C0EE66E72
:101420000001E915E66E010EE66E4EEC2DF0E55278
:10143000E552E552F3CF14F0F4CF15F0F3CFE6FF09
:10144000F4CFE6FFFBEC03F0166E0A0EE15E1650D9
:10145000FF0E0001B91908E17F0EBA1905E100017C
:10146000EA2B000EEB230CD0E6687F0EE66E080E2A
:10147000E66EE66A99EC32F0E552E552E552E55245
:101480000001EC51400B05E10001EA2B000EEB23BB
:101490000CD0E6687F0EE66E080EE66EE66A99EC02
:1014A00032F0E552E552E552E5520001EC9DE66A64
:1014B000800EE66E000EE66EE66AE66EE66AE66EA0
:1014C000E66A0C0EE66E0001E915E66E010EE66EA8
:1014D0004EEC2DF0E552E552E552F3CF14F0F4CF87
:1014E00015F0F3CFE6FFF4CFE6FFFBEC03F0166E4A
:1014F0000A0EE15E16500001B95102E1800EBA19E0
:1015000005E00001EA2B000EEB230CD0E66A800E0A
:10151000E66E080EE66EE66A99EC32F0E552E552A8
:10152000E552E5520001EC51400B05E00001EA2BC9
:10153000000EEB230CD0E66A800EE66E080EE66E17
:10154000E66A99EC32F0E552E552E552E5520001C7
:10155000EC8D000EE66EE66AE66EE66AE66EE66A18
:10156000E66EE66A0D0EE66E0C0E0001E915E66EFB
:10157000010EE66E4EEC2DF0E552E552E552F3CF4A
:1015800014F0F4CF15F0F3CFE6FFF4CFE6FFFBEC59
:1015900003F0166E0A0EE15E16500001BB51BC113D
:1015A00005E10001EA2B000EEB230CD0000EE66EE5
:1015B000E66A090EE66EE66A99EC32F0E552E5520B
:1015C000E552E5520001EC51400B05E10001EA2B28
:1015D000000EEB230CD0000EE66EE66A090EE66EF6
:1015E000E66A99EC32F0E552E552E552E552000127
:1015F000EC8DE6683F0EE66E000EE66EE66AE66E7D
:10160000E66AE66EE66A0D0EE66E0C0E0001E9155E
:10161000E66E010EE66E4EEC2DF0E552E552E55217
:10162000F3CF14F0F4CF15F0F3CFE6FFF4CFE6FFDD
:10163000FBEC03F0166E0A0EE15E1650FF0E000181
:10164000BB1908E13F0EBC1905E10001EA2B000EB1
:10165000EB230CD0E6683F0EE66E090EE66EE66AF6
:1016600099EC32F0E552E552E552E5520001EC51B9
:10167000400B05E10001EA2B000EEB230CD0E668DD
:101680003F0EE66E090EE66EE66A99EC32F0E55220
:10169000E552E552E5520001EC9DE66A400EE66E29
:1016A000000EE66EE66AE66EE66AE66EE66A0D0E25
:1016B000E66E0C0E0001E915E66E010EE66E4EECCC
:1016C0002DF0E552E552E552F3CF14F0F4CF15F0CA
:1016D000F3CFE6FFF4CFE6FFFBEC03F0166E0A0E45
:1016E000E15E16500001BB5102E1400EBC1905E05D
:1016F0000001EA2B000EEB230CD0E66A400EE66EEA
:10170000090EE66EE66A99EC32F0E552E552E552D2
:10171000E5520001EC51400B05E00001EA2B000E00
:10172000EB230CD0E66A400EE66E090EE66EE66A22
:1017300099EC32F0E552E552E552E5520001EC8DAC
:10174000000EE66EE66AE66EE66AE66EE66AE66E4B
:10175000E66A0E0EE66E0C0E0001E915E66E010E4D
:10176000E66E4EEC2DF0E552E552E552F3CF14F063
:10177000F4CF15F0F3CFE6FFF4CFE6FFFBEC03F078
:10178000166E0A0EE15E16500001BD51BE1105E154
:101790000001EA2B000EEB230CD0000EE66EE66A89
:1017A0000A0EE66EE66A99EC32F0E552E552E55231
:1017B000E5520001EC51400B05E10001EA2B000E5F
:1017C000EB230CD0000EE66EE66A0A0EE66EE66AC1
:1017D00099EC32F0E552E552E552E5520001EC8D0C
:1017E000E66A010EE66E000EE66EE66AE66EE66AF0
:1017F000E66EE66A0E0EE66E0C0E0001E915E66E68
:10180000010EE66E4EEC2DF0E552E552E552F3CFB7
:1018100014F0F4CF15F0F3CFE6FFF4CFE6FFFBECC6
:1018200003F0166E0A0EE15E16500001BD5108E18C
:10183000010EBE1905E10001EA2B000EEB230CD0CE
:10184000E66A010EE66E0A0EE66EE66A99EC32F082
:10185000E552E552E552E5520001EC51400B05E13D
:101860000001EA2B000EEB230CD0E66A010EE66EB7
:101870000A0EE66EE66A99EC32F0E552E552E55260
:10188000E5520001EC8DFF0EE66EE66A000EE66E94
:10189000E66AE66EE66AE66EE66A0E0EE66E0C0E26
:1018A0000001E915E66E010EE66E4EEC2DF0E552F4
:1018B000E552E552F3CF14F0F4CF15F0F3CFE6FF85
:1018C000F4CFE6FFFBEC03F0166E0A0EE15E165055
:1018D0000001FF0EBD1907E1BE5105E10001EA2B31
:1018E000000EEB230CD0FF0EE66EE66A0A0EE66EE3
:1018F000E66A99EC32F0E552E552E552E552000114
:10190000EC51400B05E10001EA2B000EEB230CD05B
:10191000FF0EE66EE66A0A0EE66EE66A99EC32F0B3
:10192000E552E552E552E5520001EC9DE66A020EF1
:10193000E66E000EE66EE66AE66EE66AE66EE66A59
:101940000E0EE66E0C0E0001E915E66E010EE66E57
:101950004EEC2DF0E552E552E552F3CF14F0F4CF02
:1019600015F0F3CFE6FFF4CFE6FFFBEC03F0166EC5
:101970000A0EE15E16500001BD5102E1020EBE19D1
:1019800005E00001EA2B000EEB230CD0E66A020E04
:10199000E66E0A0EE66EE66A99EC32F0E552E55222
:1019A000E552E5520001EC51400B05E00001EA2B45
:1019B000000EEB230CD0E66A020EE66E0A0EE66E0F
:1019C000E66A99EC32F0E552E552E552E552010142
:1019D000010EFC6F0001AD0EFD6FDE0EFE6F01010A
:1019E000AD0EC26FDE0EC36F0101AD0EC46FDE0E11
:1019F000C56F0101AD0EC66FDE0EC76F0101AD0EE2
:101A0000C86FDE0EC96F0101AD0ECA6FDE0ECB6F5F
:101A10000101AD0ECC6FDE0ECD6F0101AD0ECE6FAC
:101A20000101CF6F010EE66EE66A000EE66EE66A11
:101A3000E66EE66AE66EE66A070EE66E0C0E0001DA
:101A4000E915E66E010EE66E4EEC2DF0E552E5521C
:101A5000E552F3CF14F0F4CF15F0F3CFE6FFF4CF57
:101A6000E6FFFBEC03F0166E0A0EE15E1650020E66
:101A7000E66EE66A000EE66EE66AE66EE66AE66E18
:101A8000E66A080EE66E0C0E0001E915E66E010E20
:101A9000E66E4EEC2DF0E552E552E552F3CF14F030
:101AA000F4CF15F0F3CFE6FFF4CFE6FFFBEC03F045
:101AB000166E0A0EE15E1650030EE66EE66A000E22
:101AC000E66EE66AE66EE66AE66EE66A090EE66EBF
:101AD0000C0E0001E915E66E010EE66E4EEC2DF0DF
:101AE000E552E552E552F3CF14F0F4CF15F0F3CF01
:101AF000E6FFF4CFE6FFFBEC03F0166E0A0EE15EA4
:101B00001650040EE66EE66A000EE66EE66AE66EB3
:101B1000E66AE66EE66A0A0EE66E0C0E0001E9154C
:101B2000E66E010EE66E4EEC2DF0E552E552E55202
:101B3000F3CF14F0F4CF15F0F3CFE6FFF4CFE6FFC8
:101B4000FBEC03F0166E0A0EE15E1650050EE66E13
:101B5000E66A000EE66EE66AE66EE66AE66EE66A3B
:101B60000B0EE66E0C0E0001E915E66E010EE66E38
:101B70004EEC2DF0E552E552E552F3CF14F0F4CFE0
:101B800015F0F3CFE6FFF4CFE6FFFBEC03F0166EA3
:101B90000A0EE15E1650060EE66EE66A000EE66E6E
:101BA000E66AE66EE66AE66EE66A0C0EE66E00012E
:101BB000E915E66E010EE66E4EEC2DF0E552E552AB
:101BC000E552F3CF14F0F4CF15F0F3CFE6FFF4CFE6
:101BD000E6FFFBEC03F0166E0A0EE15E1650070EF0
:101BE000E66EE66A000EE66EE66AE66EE66AE66EA7
:101BF000E66A0D0EE66E0C0E0001E915E66E010EAA
:101C0000E66E4EEC2DF0E552E552E552F3CF14F0BE
:101C1000F4CF15F0F3CFE6FFF4CFE6FFFBEC03F0D3
:101C2000166E0A0EE15E1650000EE66EE66AE66E6D
:101C3000E66AE66EE66AE66EE66A0E0EE66E0C0E82
:101C40000001E915E66E010EE66E4EEC2DF0E55250
:101C5000E552E552F3CF14F0F4CF15F0F3CFE6FFE1
:101C6000F4CFE6FFFBEC03F0166E0A0EE15E1650B1
:101C7000210EE66E430EE66E000EE66EE66AE66E36
:101C8000E66AE66EE66A0F0EE66E0C0E0001E915D6
:101C9000E66E010EE66E4EEC2DF0E552E552E55291
:101CA000F3CF14F0F4CF15F0F3CFE6FFF4CFE6FF57
:101CB000FBEC03F0166E0A0EE15E16500001010EF9
:101CC000FD190EE1FE510CE1010EE66EE66A0B0E07
:101CD000E66EE66A99EC32F0E552E552E552E552DD
:101CE0000101030EC2190EE1C3510CE1030EE66EB1
:101CF000E66A0B0EE66EE66A99EC32F0E552E552C2
:101D0000E552E5520101040EC4190EE1C5510CE182
:101D1000040EE66EE66A0B0EE66EE66A99EC32F0A9
:101D2000E552E552E552E5520101050EC6190EE1F4
:101D3000C7510CE1050EE66EE66A0B0EE66EE66A2A
:101D400099EC32F0E552E552E552E5520101060EFA
:101D5000C8190EE1C9510CE1060EE66EE66A0B0EDB
:101D6000E66EE66A99EC32F0E552E552E552E5524C
:101D70000101070ECA190EE1CB510CE1070EE66E08
:101D8000E66A0B0EE66EE66A99EC32F0E552E55231
:101D9000E552E552F90E0101CC190FE1FF0ECD1904
:101DA0000CE1080EE66EE66A0B0EE66EE66A99EC4A
:101DB00032F0E552E552E552E5520101CE510CE117
:101DC000090EE66EE66A0B0EE66EE66A99EC32F0F4
:101DD000E552E552E552E5520101CF510CE10A0E00
:101DE000E66EE66A0B0EE66EE66A99EC32F0E552B4
:101DF000E552E552E5520001EC51200B0BE10B0ED0
:101E0000E66EE66AE66EE66A99EC32F0E552E55275
:101E1000E552E552850EE66E100EE66E000EE66E99
:101E2000E66AE66EE66AE66EE66A0F0EE66E0C0E8F
:101E30000001E915E66E010EE66E4EEC2DF0E5525E
:101E4000E552E552F3CF14F0F4CF15F0F3CFE6FFEF
:101E5000F4CFE6FFFBEC03F0166E0A0EE15E1650BF
:101E60000001010EFD1901E1FE510BE00B0EE66EC3
:101E7000E66AE66EE66A99EC32F0E552E552E55222
:101E8000E5520101030EC21901E1C3510CE00D0E30
:101E9000E66EE66A0B0EE66EE66A99EC32F0E55203
:101EA000E552E552E5520101040EC41901E1C551A4
:101EB0000CE00E0EE66EE66A0B0EE66EE66A99EC34
:101EC00032F0E552E552E552E5520101050EC61920
:101ED00001E1C7510CE00F0EE66EE66A0B0EE66EEE
:101EE000E66A99EC32F0E552E552E552E55201011D
:101EF000060EC81901E1C9510CE0100EE66EE66A43
:101F00000B0EE66EE66A99EC32F0E552E552E552C8
:101F1000E5520101070ECA1901E1CB510CE0110E87
:101F2000E66EE66A0B0EE66EE66A99EC32F0E55272
:101F3000E552E552E552F90E0101CC1902E1FF0E1E
:101F4000CD190CE0120EE66EE66A0B0EE66EE66A3E
:101F500099EC32F0E552E552E552E5520101CE51DD
:101F60000CE0130EE66EE66A0B0EE66EE66A99EC7E
:101F700032F0E552E552E552E5520101CF510CE055
:101F8000140EE66EE66A0B0EE66EE66A99EC32F027
:101F9000E552E552E552E5520001EC51200B0BE011
:101FA0000B0EE66EE66AE66EE66A99EC32F0E552F2
:101FB000E552E552E5524BEF37F0D9CFE6FFE1CFDE
:101FC000D9FF020EE126400EE66E30EC29F0E55214
:101FD0000001010EEE6F0001F96BFA6B0001FD6963
:101FE000030EFE6F0001EF6B190EF06F0201186B0C
:101FF000320E196FE668010EE66E000EE66EE66AB6
:10200000E66EE66AE66EE66A020EE66E0C0E000109
:10201000E915E66E010EE66E4EEC2DF0E552E55246
:10202000E552F3CF14F0F4CF15F0F3CFE6FFF4CF81
:10203000E6FFFBEC03F0166E0A0EE15E165042EC72
:102040003BF0FF0E0001FB1902E1010EFC190CE050
:10205000E668010EE66E0C0EE66EE66A99EC32F06A
:10206000E552E552E552E552C0EC3AF001080CE0C9
:10207000E668010EE66E0C0EE66EE66A99EC32F04A
:10208000E552E552E552E552000EE66EE66AE66E6E
:10209000E66AE66EE66AE66EE66A020EE66E0C0E2A
:1020A0000001E915E66E010EE66E4EEC2DF0E552EC
:1020B000E552E552F3CF14F0F4CF15F0F3CFE6FF7D
:1020C000F4CFE6FFFBEC03F0166E0A0EE15E16504D
:1020D00042EC3BF00001FB51FC110CE0000EE66EFF
:1020E000E66A0C0EE66EE66A99EC32F0E552E552CD
:1020F000E552E552C0EC3AF001080CE0000EE66E45
:10210000E66A0C0EE66EE66A99EC32F0E552E552AC
:10211000E552E552010EE66EFE0EE66E000EE66E2C
:10212000E66AE66EE66AE66EE66A020EE66E0C0E99
:102130000001E915E66E010EE66E4EEC2DF0E5525B
:10214000E552E552F3CF14F0F4CF15F0F3CFE6FFEC
:10215000F4CFE6FFFBEC03F0166E0A0EE15E1650BC
:1021600042EC3BF0010E0001FB1902E1FE0EFC19EE
:102170000DE0010EE66EFE0EE66E0C0EE66EE66AF1
:1021800099EC32F0E552E552E552E552C0EC3AF0F6
:1021900002080DE0010EE66EFE0EE66E0C0EE66E17
:1021A000E66A99EC32F0E552E552E552E552010E4D
:1021B000E66E040EE66E000EE66EE66AE66EE66A0F
:1021C000E66EE66A020EE66E0C0E0001E915E66E9A
:1021D000010EE66E4EEC2DF0E552E552E552F3CFDE
:1021E00014F0F4CF15F0F3CFE6FFF4CFE6FFFBECED
:1021F00003F0166E0A0EE15E165042EC3BF0FF0E45
:102200000001FB1902E1030EFC190DE0010EE66E60
:10221000040EE66E0C0EE66EE66A99EC32F0E552BC
:10222000E552E552E552C0EC3AF001080DE0010E2E
:10223000E66E040EE66E0C0EE66EE66A99EC32F07F
:10224000E552E552E552E552E668FB0EE66E000EF9
:10225000E66EE66AE66EE66AE66EE66A020EE66E2E
:102260000C0E0001E915E66E010EE66E4EEC2DF047
:10227000E552E552E552F3CF14F0F4CF15F0F3CF69
:10228000E6FFF4CFE6FFFBEC03F0166E0A0EE15E0C
:10229000165042EC3BF0010E0001FB1902E1FC0E6E
:1022A000FC190CE0E668FB0EE66E0C0EE66EE66AC4
:1022B00099EC32F0E552E552E552E552C0EC3AF0C5
:1022C00002080CE0E668FB0EE66E0C0EE66EE66AAF
:1022D00099EC32F0E552E552E552E552E6687F0EA0
:1022E000E66E000EE66EE66AE66EE66AE66EE66AA0
:1022F000020EE66E0C0E0001E915E66E010EE66EAA
:102300004EEC2DF0E552E552E552F3CF14F0F4CF48
:1023100015F0F3CFE6FFF4CFE6FFFBEC03F0166E0B
:102320000A0EE15E165042EC3BF0FF0E0001FB1975
:1023300002E1030EFC190CE0E6687F0EE66E0C0E5F
:10234000E66EE66A99EC32F0E552E552E552E55266
:10235000C0EC3AF001080CE0E6687F0EE66E0C0E69
:10236000E66EE66A99EC32F0E552E552E552E55246
:10237000010EE66E800EE66E000EE66EE66AE66E12
:10238000E66AE66EE66A020EE66E0C0E0001E915DC
:10239000E66E010EE66E4EEC2DF0E552E552E5528A
:1023A000F3CF14F0F4CF15F0F3CFE6FFF4CFE6FF50
:1023B000FBEC03F0166E0A0EE15E165042EC3BF0A9
:1023C000010E0001FB1902E1FC0EFC190DE0010EEB
:1023D000E66E800EE66E0C0EE66EE66A99EC32F062
:1023E000E552E552E552E552C0EC3AF002080DE044
:1023F000010EE66E800EE66E0C0EE66EE66A99EC55
:1024000032F0E552E552E552E552010EE66EA6ECD9
:102410003DF0E552C3EC3AF000090CE1000EE66E27
:10242000E66A0D0EE66EE66A99EC32F0E552E55288
:10243000E552E5520001EF6B330EF06F0201186BAD
:10244000320E196F010E0201206F216B02011E6F07
:102450001F6BE668E66E000EE66EE66AE66EE66AFA
:10246000E66EE66A020EE66E0C0E0001E915E66EF7
:10247000010EE66E4EEC2DF0E552E552E552F3CF3B
:1024800014F0F4CF15F0F3CFE6FFF4CFE6FFFBEC4A
:1024900003F0166E0A0EE15E165042EC3BF00001AE
:1024A000FB51FC110CE0E668010EE66E0E0EE66EC6
:1024B000E66A99EC32F0E552E552E552E552C0EC9D
:1024C0003AF001080CE0E668010EE66E0E0EE66ECC
:1024D000E66A99EC32F0E552E552E552E552000E1B
:1024E000E66EE66AE66EE66AE66EE66AE66EE66A5C
:1024F000020EE66E0C0E0001E915E66E010EE66EA8
:102500004EEC2DF0E552E552E552F3CF14F0F4CF46
:1025100015F0F3CFE6FFF4CFE6FFFBEC03F0166E09
:102520000A0EE15E165042EC3BF00001FB51FC113B
:102530000CE0000EE66EE66A0E0EE66EE66A99ECB8
:1025400032F0E552E552E552E552C0EC3AF00108AE
:102550000CE0000EE66EE66A0E0EE66EE66A99EC98
:1025600032F0E552E552E552E552E668010EE66EBC
:10257000000EE66EE66AE66EE66AE66EE66A020E51
:10258000E66E0C0E0001E915E66E010EE66E4EECED
:102590002DF0E552E552E552F3CF14F0F4CF15F0EB
:1025A000F3CFE6FFF4CFE6FFFBEC03F0166E0A0E66
:1025B000E15E165042EC3BF00001FB51FC110CE0D7
:1025C000E668010EE66E0E0EE66EE66A99EC32F0F3
:1025D000E552E552E552E552C0EC3AF001080CE054
:1025E000E668010EE66E0E0EE66EE66A99EC32F0D3
:1025F000E552E552E552E5520001EF6B320EF06F05
:10260000E66A020EE66E000EE66EE66AE66EE66AC0
:10261000E66EE66A020EE66E0C0E0001E915E66E45
:10262000010EE66E4EEC2DF0E552E552E552F3CF89
:1026300014F0F4CF15F0F3CFE6FFF4CFE6FFFBEC98
:1026400003F0166E0A0EE15E165042EC3BF00001FC
:10265000FB51FC110CE0E66A020EE66E0E0EE66E11
:10266000E66A99EC32F0E552E552E552E552C0ECEB
:102670003AF001080CE0E66A020EE66E0E0EE66E17
:10268000E66A99EC32F0E552E552E552E552000176
:10269000EF6B310EF06F010EE66E020EE66E000E6D
:1026A000E66EE66AE66EE66AE66EE66A020EE66EDA
:1026B0000C0E0001E915E66E010EE66E4EEC2DF0F3
:1026C000E552E552E552F3CF14F0F4CF15F0F3CF15
:1026D000E6FFF4CFE6FFFBEC03F0166E0A0EE15EB8
:1026E000165042EC3BF00001FB51FC110DE0010ED5
:1026F000E66E020EE66E0E0EE66EE66A99EC32F0BB
:10270000E552E552E552E552C0EC3AF001080DE021
:10271000010EE66E020EE66E0E0EE66EE66A99ECAD
:1027200032F0E552E552E552E5520001EF6B300E12
:10273000F06F020EE66EE66E000EE66EE66AE66E7C
:10274000E66AE66EE66A020EE66E0C0E0001E91518
:10275000E66E010EE66E4EEC2DF0E552E552E552C6
:10276000F3CF14F0F4CF15F0F3CFE6FFF4CFE6FF8C
:10277000FBEC03F0166E0A0EE15E165042EC3BF0E5
:102780000001FB51FC110CE0020EE66EE66E0E0E2F
:10279000E66EE66A99EC32F0E552E552E552E55212
:1027A000C0EC3AF001080CE0020EE66EE66E0E0E8A
:1027B000E66EE66A99EC32F0E552E552E552E552F2
:1027C0000001EF6B2F0EF06F030EE66E020EE66E49
:1027D000000EE66EE66AE66EE66AE66EE66A020EEF
:1027E000E66E0C0E0001E915E66E010EE66E4EEC8B
:1027F0002DF0E552E552E552F3CF14F0F4CF15F089
:10280000F3CFE6FFF4CFE6FFFBEC03F0166E0A0E03
:10281000E15E165042EC3BF00001FB51FC110DE073
:10282000030EE66E020EE66E0E0EE66EE66A99EC9A
:1028300032F0E552E552E552E552C0EC3AF00108BB
:102840000DE0030EE66E020EE66E0E0EE66EE66A12
:1028500099EC32F0E552E552E552E5520001EF6B9A
:102860002E0EF06F040EE66E020EE66E000EE66EA1
:10287000E66AE66EE66AE66EE66A020EE66E0C0E42
:102880000001E915E66E010EE66E4EEC2DF0E55204
:10289000E552E552F3CF14F0F4CF15F0F3CFE6FF95
:1028A000F4CFE6FFFBEC03F0166E0A0EE15E165065
:1028B00042EC3BF00001FB51FC110DE0040EE66E12
:1028C000020EE66E0E0EE66EE66A99EC32F0E55206
:1028D000E552E552E552C0EC3AF001080DE0040E75
:1028E000E66E020EE66E0E0EE66EE66A99EC32F0C9
:1028F000E552E552E552E5520001010EEF6F2D0E53
:10290000F06F050EE66E020EE66E000EE66EE66AEB
:10291000E66EE66AE66EE66A020EE66E0C0E0001F0
:10292000E915E66E010EE66E4EEC2DF0E552E5522D
:10293000E552F3CF14F0F4CF15F0F3CFE6FFF4CF68
:10294000E6FFFBEC03F0166E0A0EE15E165042EC59
:102950003BF00001FB51FC110DE0050EE66E020E8E
:10296000E66E0E0EE66EE66A99EC32F0E552E5523E
:10297000E552E552C0EC3AF001080DE0050EE66EB6
:10298000020EE66E0E0EE66EE66A99EC32F0E55245
:10299000E552E552E5520001EF6B2D0EF06F060E89
:1029A000E66E020EE66E000EE66EE66AE66EE66A19
:1029B000E66EE66A020EE66E0C0E0001E915E66EA2
:1029C000010EE66E4EEC2DF0E552E552E552F3CFE6
:1029D00014F0F4CF15F0F3CFE6FFF4CFE6FFFBECF5
:1029E00003F0166E0A0EE15E165042EC3BF0060E46
:1029F0000001FB1902E1020EFC190DE0060EE66E65
:102A0000020EE66E0E0EE66EE66A99EC32F0E552C4
:102A1000E552E552E552C0EC3AF001080DE0060E31
:102A2000E66E020EE66E0E0EE66EE66A99EC32F087
:102A3000E552E552E552E5520001EE6B0201880EC7
:102A4000206F130E216F020EE15C02E2E16AE55293
:102A5000E16EE552E7CFD9FF1200D9CFE6FFE1CF13
:102A6000D9FFE652DF6A400EE66E30EC29F0E552FF
:102A700040EC18F00A0E0101C46FC56B0101D86B60
:102A8000D96B000EE66EE66A4AEC3AF0E552E55282
:102A9000E80EE66EA6EC3DF0E552C3EC3AF0DF6ED0
:102AA000E668030EE66E000EE66EE66AE66EE66A1D
:102AB000E66EE66A010EE66E0C0E0001E915E66EA2
:102AC000010EE66E4EEC2DF0E552E552E552F3CFE5
:102AD00014F0F4CF15F0F3CFE6FFF4CFE6FFFBECF4
:102AE00003F0166E0A0EE15E165042EC3BF0010E4A
:102AF0000101DE1902E1FC0EDF190CE0020EE66EA8
:102B0000E66A1E0EE66EE66A99EC32F0E552E55290
:102B1000E552E552010E0001FB1902E1FC0EFC1921
:102B20000CE0030EE66EE66A1E0EE66EE66A99ECAF
:102B300032F0E552E552E552E552C0EC3AF00208B7
:102B40000CE0040EE66EE66A1E0EE66EE66A99EC8E
:102B500032F0E552E552E552E552000EE66EE66AC5
:102B60004AEC3AF0E552E552E552E552E7CFD9FF9B
:102B70001200400EE66E30EC29F0E5520001470EDF
:102B8000EC6F810EED6F040EE66E010E0001E9158B
:102B9000E66EE66A4EEC2DF0E552E552E552F3CFD3
:102BA00014F0F4CF15F0F3CFE6FFF4CFE6FFC4EC5A
:102BB00003F0E552E55249CFFFF148CFFEF1470E51
:102BC0000101FE1902E1810EFF190CE0010EE66E13
:102BD000E66A160EE66EE66A99EC32F0E552E552C8
:102BE000E552E5520F014251E00BE838E840146E1F
:102BF0004151080DF35014100101FD6F0F0EFD152A
:102C000004080BE0E668E668160EE66EE66A99ECE4
:102C100032F0E552E552E552E55272EC32F0000135
:102C2000230EFB6F010EFC6F030EE66E010E00011A
:102C3000E915E66EE66A4EEC2DF0E552E552E552F6
:102C4000F3CF14F0F4CF15F0F3CFE6FFF4CFE6FFA7
:102C5000C4EC03F0E552E55249CFFFF148CFFEF155
:102C6000230E0101FE1902E1010EFF190CE0020E14
:102C7000E66EE66A160EE66EE66A99EC32F0E5520A
:102C8000E552E552E5520F014251E00BE838E840C9
:102C9000146E4151080DF35014100101FD6F0F0E19
:102CA000FD1503080CE0FE0EE66EE668160EE66EF5
:102CB000E66A99EC32F0E552E552E552E55272ECE3
:102CC00032F00001360EF16F700EF26F050EE66EF7
:102CD000010E0001E915E66EE66A4EEC2DF0E552B4
:102CE000E552E552F3CF14F0F4CF15F0F3CFE6FF41
:102CF000F4CFE6FFC4EC03F0E552E55249CFFFF113
:102D000048CFFEF1360E0101FE1902E1700EFF19E7
:102D10000CE0030EE66EE66A160EE66EE66A99ECC5
:102D200032F0E552E552E552E5520F014251E00B17
:102D3000E838E840146E4151080DF35014100101B9
:102D4000FD6F0F0EFD1505080CE0FD0EE66EE66842
:102D5000160EE66EE66A99EC32F0E552E552E5525F
:102D6000E55272EC32F00001250EF36F690EF46F3C
:102D7000060EE66E010E0001E915E66EE66A4EECFF
:102D80002DF0E552E552E552F3CF14F0F4CF15F0F3
:102D9000F3CFE6FFF4CFE6FFC4EC03F0E552E552D3
:102DA00049CFFFF148CFFEF1250E0101FE1902E1E6
:102DB000690EFF190CE0040EE66EE66A160EE66E6A
:102DC000E66A99EC32F0E552E552E552E5520F0120
:102DD0004251E00BE838E840146E4151080DF350C1
:102DE00014100101FD6F0F0EFD1506080CE0FC0E1E
:102DF000E66EE668160EE66EE66A99EC32F0E5528B
:102E0000E552E552E55272EC32F00001140EEF6F1C
:102E1000580EF06F070EE66E010E0001E915E66E22
:102E2000E66A4EEC2DF0E552E552E552F3CF14F090
:102E3000F4CF15F0F3CFE6FFF4CFE6FFC4EC03F0D8
:102E4000E552E55249CFFFF148CFFEF1140E0101E2
:102E5000FE1902E1580EFF190CE0050EE66EE66A57
:102E6000160EE66EE66A99EC32F0E552E552E5524E
:102E7000E5520F014251E00BE838E840146E415131
:102E8000080DF35014100101FD6F0F0EFD1507081A
:102E90000CE0FB0EE66EE668160EE66EE66A99EC4E
:102EA00032F0E552E552E552E55272EC32F00001A3
:102EB000030ED66F470ED76F080EE66E010E0001A7
:102EC000E915E66EE66A4EEC2DF0E552E552E55264
:102ED000F3CF14F0F4CF15F0F3CFE6FFF4CFE6FF15
:102EE000C4EC03F0E552E55249CFFFF148CFFEF1C3
:102EF000040E0101FE1902E1470EFF190CE0060E57
:102F0000E66EE66A160EE66EE66A99EC32F0E55277
:102F1000E552E552E5520F014251E00BE838E84036
:102F2000146E4151080DF35014100101FD6F0F0E86
:102F3000FD1508080CE0FA0EE66EE668160EE66E61
:102F4000E66A99EC32F0E552E552E552E55272EC50
:102F500032F00001920ED86F360ED96F090EE66E70
:102F6000010E0001E915E66EE66A4EEC2DF0E55221
:102F7000E552E552F3CF14F0F4CF15F0F3CFE6FFAE
:102F8000F4CFE6FFC4EC03F0E552E55249CFFFF180
:102F900048CFFEF1930E0101FE1902E1360EFF1932
:102FA0000CE0070EE66EE66A160EE66EE66A99EC2F
:102FB00032F0E552E552E552E5520F014251E00B85
:102FC000E838E840146E4151080DF3501410010127
:102FD000FD6F0F0EFD1509080CE0F90EE66EE668B0
:102FE000160EE66EE66A99EC32F0E552E552E552CD
:062FF000E55272EF32F021
:0A2FF6000101FF0EC16BB7AF07EF3A
:1030000018F0B61BB71BB62BD8B0B72BC171B9AF30
:1030100010EF18F0B81BB91BB82BD8B0B92BC17181
:10302000B6C1C0F10000B651B803F4CFB5F100004D
:10303000F3CFB4F10000B751B903F4CFB7F10000FA
:10304000F3CFB6F10000B803F350B527F450B62320
:10305000E86AB723C051B903F350B527F450B6233B
:10306000E86AB723C1A13FEF18F0FF0EB41BB51BF0
:10307000B61BB71B000EB42BB523B623B723120023
:10308000D9CFE6FFE1CFD9FFE6520101C26BC36B96
:10309000C46BC56BC66BC76BC86BC96BCA6BCB6B9C
:1030A000CC6BCD6BCE6BD06BD16BD26BD36BD46B47
:1030B000D56BD66BD76BCF6BD86BD96BDA6BDB6B01
:1030C000DE6BDF6B010EE06FDF6A100EDF5C0DE27E
:1030D000EA6ADF34FE0BEA36E96E000EE926010EDD
:1030E000EA22EE6AED6ADF2AF0D70101E16BDF6ABE
:1030F000400EDF5C0DE2EA6ADF34FE0BEA36E96E71
:10310000200EE926010EEA22EE6AED6ADF2AF0D7E8
:103110000101E26BE36BE46BE56BE552E552E7CF4F
:10312000D9FF1200D8C1E8F1D9C1E9F10101DA51A2
:10313000E85FDB51E95BE151E96EEA6AD890E93674
:10314000EA36200EE926010EEA22EE50E85D146E02
:10315000EE50E959156E1450E2271550E323E15162
:10316000E96EEA6AD890E936EA36200EE926010EC1
:10317000EA22E8C1EEFFE9C1EDFFE12B3F0EE117C6
:10318000F65120E0E3BF0DD0E251D45D0101A06F04
:103190000101E351D5590101A16FA1AF02D0010195
:1031A000F66B0101E3AF2DD0D651E25D0101A06FB6
:1031B0000101D751E3590101A16FA1AF22D0010153
:1031C000F66B1FD0E3BF0DD0D051E25D0101A06FBF
:1031D0000101D151E3590101A16FA1AF02D0010159
:1031E000F6690101E3AF0DD0E251D25D0101A06F9C
:1031F0000101E351D3590101A16FA1AF02D0010137
:10320000F6690101F65102E0E86BE96BF55138E02F
:10321000EE510BE1DC51DA19146EDD51DB19156E3C
:10322000E850800B02E0010EEE6FEE5129E0DB3535
:1032300012E2DA510008000EDB550DE2280ED9AF7C
:1032400002D0D89003D0D85D000ED95903E2CF51F7
:1032500012E10DD0EE6B800EDB1512E0D93504E3E0
:10326000D851D808FF0ED9550AE2CF5104E0010E1B
:10327000DE6FFC0E02D0DE69030EDF6F1200EE6B14
:10328000C4C1B6F1C5C1B7F1E8C1B8F1E9C1B9F13E
:10329000B2DEB4C1A6F1B5C1A7F1B6C1A8F1B7C1FC
:1032A000A9F10101E851E627E951E723E7351EE2DC
:1032B000E6510008000EE75519E20A0EE65F000E1F
:1032C000E75B800EE71502E0E66BE76BCB51E71991
:1032D000E8AE02D0E73504D0E651CA5DE751CB59DC
:1032E00024E2CAC1E6F1CBC1E7F11FD0800EE71599
:1032F0001CE00A0EE627000EE723E73507E2E65159
:103300000008000EE75502E2E66BE76BE751CD19C6
:10331000E8AE02D0CD3504D0CC51E65DCD51E759B1
:1033200004E2CCC1E6F1CDC1E7F1C6C1B6F1C7C137
:10333000B7F1E6C1B8F1E7C1B9F15DDEB4C1AEF1F4
:10334000B5C1AFF1B6C1B0F1B7C1B1F1B5C1AEF120
:10335000B6C1AFF1B7C1B0F10101B16BB0BFB16996
:103360000101E051E96EEA6AD890E936EA36000ECA
:10337000E926010EEA22EE50E85D0101B26FEE503F
:103380000101E9590101B36F0101E051E96EEA6AF7
:10339000D890E936EA36000EE926010EEA22E8C1A5
:1033A000EEFFE9C1EDFFE02B0F0EE017B2C1B6F161
:1033B000B3C1B7F1C8C1B8F1C9C1B9F11CDEB4C11C
:1033C000AAF1B5C1ABF1B6C1ACF1B7C1ADF1C2C1A3
:1033D000B6F1C3C1B7F1DAC1B8F1DBC1B9F10BDEA7
:1033E000B4C1A2F1B5C1A3F1B6C1A4F1B7C1A5F1B1
:1033F000A7C1EFF1A8C1F0F1AFC1F1F1B0C1F2F195
:10340000ABC1F3F1ACC1F4F1AA0EE96E010EEA6EA4
:103410000101A651EE24146EA751EE20156EA8519D
:10342000EE20166EA951EE20176EA20EE96E010E67
:10343000EA6EEE50145C0101EA6FEE501558EB6F26
:10344000EE501658EC6FEE501758ED6FEBC1EAF1E5
:10345000ECC1EBF1EC6FED6BECBFED690101AE512E
:103460000101EA270101AF510101EB230101B05134
:103470000101EC230101B1510101ED23ED35000EF5
:10348000ED1909E6D880000EEA55000EEB55000E46
:10349000EC55000EED5509E2030ED890ED33EC33F8
:1034A000EB33EA33E806F9E129D0EAC114F0EBC1C5
:1034B00015F0ECC116F0EDC117F0000E146C151EDE
:1034C0001522161E1622171E1722030ED890173229
:1034D000163215321432E806F9E114C0EAF115C0CB
:1034E000EBF116C0ECF117C0EDF1000E0101EA6D31
:1034F000EB1FEB23EC1FEC23ED1FED230101ED355A
:10350000000EED1909E6D880FF0EEA55030EEB55C3
:10351000000EEC55000EED5506E2EA69030EEB6F66
:10352000EC6BED6B13D0D880ED51FF0A08E6010E6D
:10353000EA5DFC0EEB59FF0EEC59FF0EED5906E269
:10354000010EEA6FFC0EEB6FEC69ED69CF5105E1FE
:10355000EAC1DEF1EBC1DFF11200EAC106F0EBC116
:1035600007F0ECC108F0EDC109F00B680C680D68BC
:103570000E6830EC3DF002C0DEF103C0DFF1120056
:103580000101C26B100EC36FC46BC56BC66BC76BFA
:10359000C86BC96BCA6BCB6BCC6BCD6BCE6BCF6B77
:1035A000F60ED86FD9690A0EDA6FDB6BBBDDEC0E55
:1035B0000101DE1902E1FF0EDF190DE0EC0EE66EEF
:1035C000E6680F0EE66EE66A99EC32F0E552E552D7
:1035D000E552E55204D00001EA2B000EEB23010175
:1035E000D86BD96BDA6BDB6B9DDD0101DE51DF112E
:1035F0000DE0000EE66EE66A0F0EE66EE66A99ECE6
:1036000032F0E552E552E552E55204D00001EA2BD2
:10361000000EEB230A0E0101D86FD96BF60EDA6F9C
:10362000DB6980DD0101140EDE1901E1DF510DE0DF
:10363000140EE66EE66A0F0EE66EE66A99EC32F05C
:10364000E552E552E552E55204D00001EA2B000EA6
:10365000EB230101D8697F0ED96FDA69DB6F62DD78
:10366000010E0101DE1902E1FC0EDF190EE0010E70
:10367000E66EFC0EE66E0F0EE66EE66A99EC32F030
:10368000E552E552E552E55204D00001EA2B000E66
:10369000EB230101D8693F0ED96FDA69DB6F42DD98
:1036A000010E0101DE1902E1FC0EDF190EE0010E30
:1036B000E66EFC0EE66E0F0EE66EE66A99EC32F0F0
:1036C000E552E552E552E55204D00001EA2B000E26
:1036D000EB230101010ED86FC00ED96F010EDA6F16
:1036E000C00EDB6F1FDDFF0E0101DE1902E1030ECC
:1036F000DF190DE0E668030EE66E0F0EE66EE66A71
:1037000099EC32F0E552E552E552E55204D0000161
:10371000EA2B000EEB230101010ED86F800ED96F4A
:10372000010EDA6F800EDB6FFDDCFF0E0101DE198A
:1037300002E1030EDF190DE0E668030EE66E0F0EE0
:10374000E66EE66A99EC32F0E552E552E552E55252
:1037500004D00001EA2B000EEB230101C2697F0EA9
:10376000C36FF60ED86FD969D00EDA6F070EDB6F14
:10377000D9DC010E0101DE1902E1FC0EDF190EE0B9
:10378000010EE66EFC0EE66E0F0EE66EE66A99EC32
:1037900032F0E552E552E552E55204D00001EA2B41
:1037A000000EEB230101F60ED86FD9690A0EDA6F0D
:1037B000DB6BB8DC600E0101DE1902E1FF0EDF19E0
:1037C0000DE0600EE66EE6680F0EE66EE66A99ECB6
:1037D00032F0E552E552E552E55204D00001EA2B01
:1037E000000EEB230101D86BD96BDA6BDB6B9ADC33
:1037F0000101DE51DF110DE0000EE66EE66A0F0EEC
:10380000E66EE66A99EC32F0E552E552E552E55291
:1038100004D00001EA2B000EEB230A0E0101D86F41
:10382000D96BF60EDA6FDB697DDC01019F0EDE19C4
:1038300001E1DF510DE09F0EE66EE66A0F0EE66EC7
:10384000E66A99EC32F0E552E552E552E55204D0D1
:103850000001EA2B000EEB230101F60ED86FD969A7
:10386000300EDA6FF80EDB6F5DDCFF0E0101DE1942
:1038700002E1030EDF190DE0E668030EE66E0F0E9F
:10388000E66EE66A99EC32F0E552E552E552E55211
:1038900004D00001EA2B000EEB230101D8697F0E52
:1038A000D96FDA69DB6F3EDC010E0101DE1902E13E
:1038B000FC0EDF190EE0010EE66EFC0EE66E0F0E3A
:1038C000E66EE66A99EC32F0E552E552E552E552D1
:1038D00004D00001EA2B000EEB230101D8693F0E52
:1038E000D96FDA69DB6F1EDC010E0101DE1902E11E
:1038F000FC0EDF190EE0010EE66EFC0EE66E0F0EFA
:10390000E66EE66A99EC32F0E552E552E552E55290
:1039100004D00001EA2B000EEB230101010ED86F49
:10392000C00ED96F010EDA6FC00EDB6F92EC18F08B
:10393000FF0E0101DE1902E1030EDF190DE0E6685A
:10394000030EE66E0F0EE66EE66A99EC32F0E55273
:10395000E552E552E55204D00001EA2B000EEB23BC
:103960000101010ED86F800ED96F010EDA6F800E43
:10397000DB6F92EC18F0FF0E0101DE1902E1030E7D
:10398000DF190DE0E668030EE66E0F0EE66EE66ADE
:1039900099EC32F0E552E552E552E5521200000191
:1039A000EA2B000EEB2312000101C26BC36BC46B48
:1039B000F00EC56FC66BC76BC86BC96BCA6BCB6BA0
:1039C000CC6BCD6BCE6BCF6B010ED86FD96BDA6B36
:1039D000DB6B92EC18F0FE0E0101DE1902E1FF0E26
:1039E000DF190DE0FE0EE66EE668100EE66EE66A82
:1039F00099EC32F0E552E552E552E55204D000016F
:103A0000EA2B000EEB230101D86BD96B010EDA6FA4
:103A1000DB6B92EC18F00101020EDE1901E1DF51BF
:103A20000DE0020EE66EE66A100EE66EE66A99ECAE
:103A300032F0E552E552E552E55204D00001EA2B9E
:103A4000000EEB23020E0101D86FD96BDA6BDB6B32
:103A500092EC18F0FC0E0101DE1902E1FF0EDF19F5
:103A60000DE0FC0EE66EE668100EE66EE66A99EC76
:103A700032F0E552E552E552E55204D00001EA2B5E
:103A8000000EEB230101D86BD96B020EDA6FDB6BF2
:103A900092EC18F00101040EDE1901E1DF510DE096
:103AA000040EE66EE66A100EE66EE66A99EC32F0F7
:103AB000E552E552E552E55204D00001EA2B000E32
:103AC000EB230101D8697F0ED96FDA6BDB6B92ECC7
:103AD00018F0010E0101DE1902E1FC0EDF190EE003
:103AE000010EE66EFC0EE66E100EE66EE66A99ECCE
:103AF00032F0E552E552E552E55204D00001EA2BDE
:103B0000000EEB230101D8693F0ED96FDA6BDB6B36
:103B100092EC18F0010E0101DE1902E1FC0EDF1932
:103B20000EE0010EE66EFC0EE66E100EE66EE66A24
:103B300099EC32F0E552E552E552E55204D000012D
:103B4000EA2B000EEB230101010ED86FC00ED96FD6
:103B5000DA6BDB6B92EC18F0FF0E0101DE1902E16B
:103B6000030EDF190DE0E668030EE66E100EE66E3A
:103B7000E66A99EC32F0E552E552E552E55204D09E
:103B80000001EA2B000EEB230101010ED86F800E1D
:103B9000D96FDA6BDB6B92EC18F0FF0E0101DE19C6
:103BA00002E1030EDF190DE0E668030EE66E100E6B
:103BB000E66EE66A99EC32F0E552E552E552E552DE
:103BC00004D00001EA2B000EEB230101C46B100EA0
:103BD000C56F0A0ED86FD96BDA6FDB6B92EC18F0F9
:103BE0000101DE51DF110DE0000EE66EE66A100EF7
:103BF000E66EE66A99EC32F0E552E552E552E5529E
:103C000004D00001EA2B000EEB230101D86BD96B25
:103C1000DA6BDB6B92EC18F00101DE51DF110DE085
:103C2000000EE66EE66A100EE66EE66A99EC32F079
:103C3000E552E552E552E55204D00001EA2B000EB0
:103C4000EB230101F60ED86FD969DA6FDB6992ECCC
:103C500018F00101DE51DF110DE0000EE66EE66A9C
:103C6000100EE66EE66A99EC32F0E552E552E55246
:103C7000E55204D00001EA2B000EEB230101D869C4
:103C80007F0ED96FDA69DB6F92EC18F00101DE511B
:103C9000DF110DE0000EE66EE66A100EE66EE66AD3
:103CA00099EC32F0E552E552E552E55204D00001BC
:103CB000EA2B000EEB230101D8693F0ED96FDA69B8
:103CC000DB6F92EC18F00101DE51DF110DE0000E08
:103CD000E66EE66A100EE66EE66A99EC32F0E552A0
:103CE000E552E552E55204D00001EA2B000EEB2329
:103CF0000101010ED86FC00ED96F010EDA6FC00E30
:103D0000DB6F92EC18F00101DE51DF110DE0000EC7
:103D1000E66EE66A100EE66EE66A99EC32F0E5525F
:103D2000E552E552E55204D00001EA2B000EEB23E8
:103D30000101010ED86F800ED96F010EDA6F800E6F
:103D4000DB6F92EC18F00101DE51DF110DE0000E87
:103D5000E66EE66A100EE66EE66A99EC32F0E5521F
:103D6000E552E552E55204D00001EA2B000EEB23A8
:103D7000010E0101D86FD96BDA6BDB6B92EC18F096
:103D80000101020EDE1901E1DF510DE0020EE66EC7
:103D9000E66A100EE66EE66A99EC32F0E552E552FC
:103DA000E552E55204D00001EA2B000EEB2301019D
:103DB000D86BD96B010EDA6FDB6B92EC18F0FE0E4C
:103DC0000101DE1902E1FF0EDF190DE0FE0EE66EC5
:103DD000E668100EE66EE66A99EC32F0E552E552BE
:103DE000E552E55204D00001EA2B000EEB23020E4F
:103DF0000101D86FD96BDA6BDB6B92EC18F0010123
:103E0000040EDE1901E1DF510DE0040EE66EE66AF4
:103E1000100EE66EE66A99EC32F0E552E552E55294
:103E2000E55204D00001EA2B000EEB230101D86B10
:103E3000D96B020EDA6FDB6B92EC18F0FC0E01010D
:103E4000DE1902E1FF0EDF190DE0FC0EE66EE668FA
:103E5000100EE66EE66A99EC32F0E552E552E55254
:103E6000E55204D00001EA2B000EEB230101D869D2
:103E70007F0ED96FDA6BDB6B92EC18F0FF0E01014D
:103E8000DE1902E1030EDF190DE0E668030EE66EAF
:103E9000100EE66EE66A99EC32F0E552E552E55214
:103EA000E55204D00001EA2B000EEB230101D86992
:103EB0003F0ED96FDA6BDB6B92EC18F0FF0E01014D
:103EC000DE1902E1030EDF190DE0E668030EE66E6F
:103ED000100EE66EE66A99EC32F0E552E552E552D4
:103EE000E55204D00001EA2B000EEB230101010E84
:103EF000D86FC00ED96FDA6BDB6B92EC18F0010E45
:103F00000101DE1902E1FC0EDF190EE0010EE66E82
:103F1000FC0EE66E100EE66EE66A99EC32F0E552A3
:103F2000E552E552E55204D00001EA2B000EEB23E6
:103F30000101010ED86F800ED96FDA6BDB6B92EC4A
:103F400018F0010E0101DE1902E1FC0EDF190EE08E
:103F5000010EE66EFC0EE66E100EE66EE66A99EC59
:103F600032F0E552E552E552E55204D00001EA2B69
:103F7000000EEB230101C46B100EC56F640ED86FE9
:103F8000D96BDA6FDB6B92EC18F00101DE51DF11B7
:103F90000DE0000EE66EE66A100EE66EE66A99EC3B
:103FA00032F0E552E552E552E55204D00001EA2B29
:103FB000000EEB230101D86BD96BDA6BDB6B92EC53
:103FC00018F00101DE51DF110DE0000EE66EE66A29
:103FD000100EE66EE66A99EC32F0E552E552E552D3
:103FE000E55204D00001EA2B000EEB2301019C0EE8
:103FF000D86FD969DA6FDB6992EC18F00101DE51F4
:10400000DF110DE0000EE66EE66A100EE66EE66A5F
:1040100099EC32F0E552E552E552E55204D0000148
:10402000EA2B000EEB230101D8697F0ED96FDA6904
:10403000DB6F92EC18F00101DE51DF110DE0000E94
:10404000E66EE66A100EE66EE66A99EC32F0E5522C
:10405000E552E552E55204D00001EA2B000EEB23B5
:104060000101D8693F0ED96FDA69DB6F92EC18F065
:104070000101DE51DF110DE0000EE66EE66A100E62
:10408000E66EE66A99EC32F0E552E552E552E55209
:1040900004D00001EA2B000EEB230101010ED86FC2
:1040A000C00ED96F010EDA6FC00EDB6F92EC18F004
:1040B0000101DE51DF110DE0000EE66EE66A100E22
:1040C000E66EE66A99EC32F0E552E552E552E552C9
:1040D00004D00001EA2B000EEB230101010ED86F82
:1040E000800ED96F010EDA6F800EDB6F92EC18F044
:1040F0000101DE51DF110DE0000EE66EE66A100EE2
:10410000E66EE66A99EC32F0E552E552E552E55288
:1041100004D00001EA2B000EEB23010E0101D86F41
:10412000D96BDA6BDB6B92EC18F00101020EDE1931
:1041300001E1DF510DE0020EE66EE66A100EE66E5A
:10414000E66A99EC32F0E552E552E552E55204D0C8
:104150000001EA2B000EEB230101D86BD96B010E95
:10416000DA6FDB6B92EC18F0FE0E0101DE1902E152
:10417000FF0EDF190DE0FE0EE66EE668100EE66E2D
:10418000E66A99EC32F0E552E552E552E55204D088
:104190000001EA2B000EEB23020E0101D86FD96B50
:1041A000DA6BDB6B92EC18F00101040EDE1901E111
:1041B000DF510DE0040EE66EE66A100EE66EE66A6A
:1041C00099EC32F0E552E552E552E55204D0000197
:1041D000EA2B000EEB230101D86BD96B020EDA6FCC
:1041E000DB6B92EC18F0FC0E0101DE1902E1FF0E10
:1041F000DF190DE0FC0EE66EE668100EE66EE66A6C
:1042000099EC32F0E552E552E552E55204D0000156
:10421000EA2B000EEB230101D8697F0ED96FDA6B10
:10422000DB6B92EC18F0FF0E0101DE1902E1030EC8
:10423000DF190DE0E668030EE66E100EE66EE66A24
:1042400099EC32F0E552E552E552E55204D0000116
:10425000EA2B000EEB230101D8693F0ED96FDA6B10
:10426000DB6B92EC18F0FF0E0101DE1902E1030E88
:10427000DF190DE0E668030EE66E100EE66EE66AE4
:1042800099EC32F0E552E552E552E55204D00001D6
:10429000EA2B000EEB230101010ED86FC00ED96F7F
:1042A000DA6BDB6B92EC18F0010E0101DE1902E112
:1042B000FC0EDF190EE0010EE66EFC0EE66E100E2F
:1042C000E66EE66A99EC32F0E552E552E552E552C7
:1042D00004D00001EA2B000EEB230101010ED86F80
:1042E000800ED96FDA6BDB6B92EC18F0010E0101D6
:1042F000DE1902E1FC0EDF190EE0010EE66EFC0E87
:10430000E66E100EE66EE66A99EC32F0E552E55282
:10431000E552E55204D00001EA2B000EEB23010127
:10432000C46B600EC56F0A0ED86FD96BDA6FDB6B8A
:1043300092EC18F00101DE51DF110DE0000EE66E87
:10434000E66A100EE66EE66A99EC32F0E552E55246
:10435000E552E55204D00001EA2B000EEB230101E7
:10436000D86BD96BDA6BDB6B92EC18F00101DE5184
:10437000DF110DE0000EE66EE66A100EE66EE66AEC
:1043800099EC32F0E552E552E552E55204D00001D5
:10439000EA2B000EEB230101F60ED86FD969DA6F14
:1043A000DB6992EC18F00101DE51DF110DE0000E27
:1043B000E66EE66A100EE66EE66A99EC32F0E552B9
:1043C000E552E552E55204D00001EA2B000EEB2342
:1043D0000101D8697F0ED96FDA69DB6F92EC18F0B2
:1043E0000101DE51DF110DE0000EE66EE66A100EEF
:1043F000E66EE66A99EC32F0E552E552E552E55296
:1044000004D00001EA2B000EEB230101D8693F0E16
:10441000D96FDA69DB6F92EC18F00101DE51DF1120
:104420000DE0000EE66EE66A100EE66EE66A99ECA6
:1044300032F0E552E552E552E55204D00001EA2B94
:10444000000EEB230101010ED86FC00ED96F010ED3
:10445000DA6FC00EDB6F92EC18F00101DE51DF1154
:104460000DE0000EE66EE66A100EE66EE66A99EC66
:1044700032F0E552E552E552E55204D00001EA2B54
:10448000000EEB230101010ED86F800ED96F010ED3
:10449000DA6F800EDB6F92EC18F00101DE51DF1154
:1044A0000DE0000EE66EE66A100EE66EE66A99EC26
:1044B00032F0E552E552E552E55204D00001EA2B14
:1044C000000EEB23010E0101D86FD96BDA6BDB6BA9
:1044D00092EC18F001010C0EDE1901E1DF510DE044
:1044E0000C0EE66EE66A100EE66EE66A99EC32F0A5
:1044F000E552E552E552E55204D00001EA2B000EE8
:10450000EB230101D86BD96B010EDA6FDB6B92ECF8
:1045100018F0F40E0101DE1902E1FF0EDF190DE0C3
:10452000F40EE66EE668100EE66EE66A99EC32F07E
:10453000E552E552E552E55204D00001EA2B000EA7
:10454000EB23020E0101D86FD96BDA6BDB6B92ECB7
:1045500018F00101180EDE1901E1DF510DE0180E0F
:10456000E66EE66A100EE66EE66A99EC32F0E55207
:10457000E552E552E55204D00001EA2B000EEB2390
:104580000101D86BD96B020EDA6FDB6B92EC18F07D
:10459000E80E0101DE1902E1FF0EDF190DE0E80E61
:1045A000E66EE668100EE66EE66A99EC32F0E552C9
:1045B000E552E552E55204D00001EA2B000EEB2350
:1045C0000101D8697F0ED96FDA6BDB6B92EC18F0C2
:1045D000FF0E0101DE1902E1030EDF190DE0E668AE
:1045E000030EE66E100EE66EE66A99EC32F0E552C6
:1045F000E552E552E55204D00001EA2B000EEB2310
:104600000101D8693F0ED96FDA6BDB6B92EC18F0C1
:10461000FF0E0101DE1902E1030EDF190DE0E6686D
:10462000030EE66E100EE66EE66A99EC32F0E55285
:10463000E552E552E55204D00001EA2B000EEB23CF
:104640000101010ED86FC00ED96FDA6BDB6B92ECF3
:1046500018F0010E0101DE1902E1FC0EDF190EE077
:10466000010EE66EFC0EE66E100EE66EE66A99EC42
:1046700032F0E552E552E552E55204D00001EA2B52
:10468000000EEB230101010ED86F800ED96FDA6B9B
:10469000DB6B92EC18F0010E0101DE1902E1FC0E59
:1046A000DF190EE0010EE66EFC0EE66E100EE66EF1
:1046B000E66A99EC32F0E552E552E552E552120015
:1046C0000001EA2B000EEB231200D9CFE6FFE1CF69
:1046D000D9FF020EE1260101C26BC36BC46BC56B2F
:1046E000C66B100EC76FC86BC96B050ECA6FCB6B5C
:1046F000CC6BCD6BCE6BCF6B0A0ED86FD96BDA6FEC
:10470000DB6B92EC18F00101DE51DF110DE0000EC1
:10471000E66EE66A110EE66EE66A99EC32F0E55254
:10472000E552E552E55204D00001EA2B000EEB23DE
:104730000101D86BD96BDA6BDB6B92EC18F00101DD
:10474000DE51DF110DE0000EE66EE66A110EE66E38
:10475000E66A99EC32F0E552E552E552E55204D0B2
:104760000001EA2B000EEB230101F60ED86FD96988
:10477000DA6FDB6992EC18F00101DE51DF110DE018
:10478000000EE66EE66A110EE66EE66A99EC32F00D
:10479000E552E552E552E55204D00001EA2B000E45
:1047A000EB230101D8697F0ED96FDA69DB6F92ECD8
:1047B00018F00101DE51DF110DE0000EE66EE66A31
:1047C000110EE66EE66A99EC32F0E552E552E552DA
:1047D000E55204D00001EA2B000EEB230101D86959
:1047E0003F0ED96FDA69DB6F92EC18F00101DE51F0
:1047F000DF110DE0000EE66EE66A110EE66EE66A67
:1048000099EC32F0E552E552E552E55204D0000150
:10481000EA2B000EEB230101010ED86FC00ED96FF9
:10482000010EDA6FC00EDB6F92EC18F00101DE5161
:10483000DF110DE0000EE66EE66A110EE66EE66A26
:1048400099EC32F0E552E552E552E55204D0000110
:10485000EA2B000EEB230101010ED86F800ED96FF9
:10486000010EDA6F800EDB6F92EC18F00101DE5161
:10487000DF110DE0000EE66EE66A110EE66EE66AE6
:1048800099EC32F0E552E552E552E55204D00001D0
:10489000EA2B000EEB23010E0101D86FD96BDA6B06
:1048A000DB6B92EC18F00101020EDE1901E1DF5121
:1048B0000DE0020EE66EE66A110EE66EE66A99EC0F
:1048C00032F0E552E552E552E55204D00001EA2B00
:1048D000000EEB23010E0101D86FD96BDA6BDB6B95
:1048E00092EC18F00101040EDE1901E1DF510DE038
:1048F000040EE66EE66A110EE66EE66A99EC32F098
:10490000E552E552E552E55204D00001EA2B000ED3
:10491000EB23010E0101D86FD96BDA6BDB6B92ECE4
:1049200018F00101060EDE1901E1DF510DE0060E5F
:10493000E66EE66A110EE66EE66A99EC32F0E55232
:10494000E552E552E55204D00001EA2B000EEB23BC
:10495000010E0101D86FD96BDA6BDB6B92EC18F0AA
:104960000101080EDE1901E1DF510DE0080EE66ECF
:10497000E66A110EE66EE66A99EC32F0E552E5520F
:10498000E552E55204D00001EA2B000EEB23010EA4
:104990000101D86FD96BDA6BDB6B92EC18F0010177
:1049A0000A0EDE1901E1DF510DE00A0EE66EE66A3D
:1049B000110EE66EE66A99EC32F0E552E552E552E8
:1049C000E55204D00001EA2B000EEB23010E010199
:1049D000D86FD96BDA6BDB6B92EC18F001010A0E21
:1049E000DE1901E1DF510DE00A0EE66EE66A110EF6
:1049F000E66EE66A99EC32F0E552E552E552E55290
:104A000004D00001EA2B000EEB23010E0101D86F48
:104A1000D96BDA6BDB6B92EC18F001010A0EDE1930
:104A200001E1DF510DE00A0EE66EE66A110EE66E58
:104A3000E66A99EC32F0E552E552E552E55204D0CF
:104A40000001EA2B000EEB23080E0101C66FC76BB5
:104A5000CA693F0ECB6FE66BE76BD86B100ED96F50
:104A6000DA6BDB6B92EC18F00101100EDE1901E13C
:104A7000DF510DE0100EE66EE66A110EE66EE66A94
:104A800099EC32F0E552E552E552E55204D00001CE
:104A9000EA2B000EEB230101D86B100ED96FDA6BF5
:104AA000DB6B92EC18F00101200EDE1901E1DF5101
:104AB0000DE0200EE66EE66A110EE66EE66A99ECEF
:104AC00032F0E552E552E552E55204D00001EA2BFE
:104AD000000EEB230101D86B100ED96FDA6BDB6B84
:104AE00092EC18F00101300EDE1901E1DF510DE00A
:104AF000300EE66EE66A110EE66EE66A99EC32F06A
:104B0000E552E552E552E55204D00001EA2B000ED1
:104B1000EB230101D86B100ED96FDA6BDB6B92ECD3
:104B200018F001013F0EDE1901E1DF510DE03F0EEB
:104B3000E66EE66A110EE66EE66A99EC32F0E55230
:104B4000E552E552E55204D00001EA2B000EEB23BA
:104B50000101D86B100ED96FDA6BDB6B92EC18F099
:104B600001013F0EDE1901E1DF510DE03F0EE66E5F
:104B7000E66A110EE66EE66A99EC32F0E552E5520D
:104B8000E552E55204D00001EA2B000EEB23020EA1
:104B9000E15C02E2E16AE552E16EE552E7CFD9FF5E
:104BA000120040EC18F00101C26BC36BC46BC56B03
:104BB000C66BC76BC86B080EC96FCA6BCB6BCC6B6F
:104BC000CD6BCE6BCF6B010ED86FD96BDA6BDB6B15
:104BD00092EC18F00101010EDE1901E1DF510DE048
:104BE000010EE66EE66A130EE66EE66A99EC32F0A6
:104BF000E552E552E552E55204D00001EA2B000EE1
:104C0000EB23020E0101D86FD96BDA6BDB6B92ECF0
:104C100018F00101020EDE1901E1DF510DE0020E74
:104C2000E66EE66A130EE66EE66A99EC32F0E5523D
:104C3000E552E552E55204D00001EA2B000EEB23C9
:104C4000030E0101D86FD96BDA6BDB6B92EC18F0B5
:104C50000101030EDE1901E1DF510DE0030EE66EE6
:104C6000E66A130EE66EE66A99EC32F0E552E5521A
:104C7000E552E55204D00001EA2B000EEB23040EAE
:104C80000101D86FD96BDA6BDB6B92EC18F0010184
:104C9000040EDE1901E1DF510DE0040EE66EE66A56
:104CA000130EE66EE66A99EC32F0E552E552E552F3
:104CB000E55204D00001EA2B000EEB23050E0101A2
:104CC000D86FD96BDA6BDB6B92EC18F00101050E33
:104CD000DE1901E1DF510DE0050EE66EE66A130E06
:104CE000E66EE66A99EC32F0E552E552E552E5529D
:104CF00004D00001EA2B000EEB23060E0101D86F51
:104D0000D96BDA6BDB6B92EC18F00101060EDE1941
:104D100001E1DF510DE0060EE66EE66A130EE66E67
:104D2000E66A99EC32F0E552E552E552E55204D0DC
:104D30000001EA2B000EEB23070E0101D86FD96B9F
:104D4000DA6BDB6B92EC18F00101070EDE1901E162
:104D5000DF510DE0070EE66EE66A130EE66EE66AB8
:104D600099EC32F0E552E552E552E55204D00001EB
:104D7000EA2B000EEB23080E0101D86FD96BDA6B1A
:104D8000DB6B92EC18F00101080EDE1901E1DF5136
:104D90000DE0080EE66EE66A130EE66EE66A99EC22
:104DA00032F0E552E552E552E55204D00001EA2B1B
:104DB000000EEB23090E0101D86FD96BDA6BDB6BA8
:104DC00092EC18F00101090EDE1901E1DF510DE04E
:104DD000090EE66EE66A130EE66EE66A99EC32F0AC
:104DE000E552E552E552E55204D00001EA2B000EEF
:104DF000EB230A0E0101D86FD96BDA6BDB6B92ECF7
:104E000018F001010A0EDE1901E1DF510DE00A0E72
:104E1000E66EE66A130EE66EE66A99EC32F0E5524B
:104E2000E552E552E55204D00001EA2B000EEB23D7
:104E30000B0E0101D86FD96BDA6BDB6B92EC18F0BB
:104E400001010B0EDE1901E1DF510DE00B0EE66EE4
:104E5000E66A130EE66EE66A99EC32F0E552E55228
:104E6000E552E55204D00001EA2B000EEB230C0EB4
:104E70000101D86FD96BDA6BDB6B92EC18F0010192
:104E80000C0EDE1901E1DF510DE00C0EE66EE66A54
:104E9000130EE66EE66A99EC32F0E552E552E55201
:104EA000E55204D00001EA2B000EEB230D0E0101A8
:104EB000D86FD96BDA6BDB6B92EC18F001010D0E39
:104EC000DE1901E1DF510DE00D0EE66EE66A130E0C
:104ED000E66EE66A99EC32F0E552E552E552E552AB
:104EE00004D00001EA2B000EEB230E0E0101D86F57
:104EF000D96BDA6BDB6B92EC18F001010E0EDE1948
:104F000001E1DF510DE00E0EE66EE66A130EE66E6D
:104F1000E66A99EC32F0E552E552E552E55204D0EA
:104F20000001EA2B000EEB230F0E0101D86FD96BA5
:104F3000DA6BDB6B92EC18F001010F0EDE1901E168
:104F4000DF510DE00F0EE66EE66A130EE66EE66ABE
:104F500099EC32F0E552E552E552E55204D00001F9
:104F6000EA2B000EEB23100E0101D86FD96BDA6B20
:104F7000DB6B92EC18F00101100EDE1901E1DF513C
:104F80000DE0100EE66EE66A130EE66EE66A99EC28
:104F900032F0E552E552E552E55204D00001EA2B29
:104FA000000EEB23110E0101D86FD96BDA6BDB6BAE
:104FB00092EC18F00101100EDE1901E1DF510DE055
:104FC000100EE66EE66A130EE66EE66A99EC32F0B3
:104FD000E552E552E552E55204D00001EA2B000EFD
:104FE000EB230101C86B400EC96F120ED86FD96B4D
:104FF000DA6BDB6B92EC18F00101800EDE1901E137
:10500000DF510DE0800EE66EE66A120EE66EE66A8D
:1050100099EC32F0E552E552E552E55204D0000138
:10502000EA2B000EEB23130E0101D86FD96BDA6B5C
:10503000DB6B92EC18F00101800EDE1901E1DF510B
:105040000DE0800EE66EE66A120EE66EE66A99ECF8
:1050500032F0E552E552E552E55204D00001EA2B68
:10506000000EEB230101C8697F0EC96F140ED86FC3
:10507000D96BDA6BDB6B92EC18F00101FF0EDE19D5
:1050800001E1DF510DE0FF0EE66EE66A120EE66EFC
:10509000E66A99EC32F0E552E552E552E55204D069
:1050A0000001EA2B000EEB23150E0101D86FD96B1E
:1050B000DA6BDB6B92EC18F00101FF0EDE1901E1F7
:1050C000DF510DE0FF0EE66EE66A120EE66EE66A4E
:1050D00099EC32F0E552E552E552E552120000013A
:1050E000EA2B000EEB231200D9CFE6FFE1CFD9FF68
:1050F000020EE12640EC18F00101100ECE6FE850D0
:10510000D06FD16B060ED890D037D137E806FBE1CF
:105110000101CE51D46FD56BCEC1D5F1D46BD0C1C6
:10512000D2F1D1C1D3F1D26DD31F000ED323D4C19C
:10513000D6F1CEC1D7F1D66DD71FD723DA6BDB6B93
:10514000E20ED86FD969DE6ADD6ADECF14F0DDCFFA
:1051500015F0400E145C000E15581BE2DECFE9FF7F
:10516000DDCFEAFF010ED890E936EA36E806FBE12A
:10517000200EE926010EEA22E20EEE6EED681E0E0A
:105180000101E25F000EE35BDF2A010EDEE3DB2AB2
:10519000DCD7DE6ADD6ADECF14F0DDCF15F0900ECD
:1051A000145C010E15580BE20101D82B000ED92317
:1051B00092EC18F0DF2A010EEEE3DB2AECD7020EA8
:1051C000E15C02E2E16AE552E16EE552E7CFD9FF28
:0A51D00012000101010EF56F12003C
:0651DA00E66ADAEC39F090
:1051E000E5520001E96FE850090803E20001ED8390
:1051F00002D00001ED93020EE66EEAEC39F0E552C2
:10520000F3CF88F0F4CF89F0040EE66EEAEC39F0C3
:10521000E552F3CF84F0F4CF85F0060EE66EEAECAB
:1052200039F0E552F3CF86F0F4CF87F0080EE66E42
:10523000EAEC39F0E552F3CF80F0F4CF81F00A0EBA
:10524000E66EEAEC39F0E552F3CF82F0F4CF83F06A
:105250000C0EE66EEAEC39F0E552F3CF8AF012005C
:10526000D9CFE6FFE1CFD9FFE00E6E14146EFE0E2B
:10527000DB50145C04E0FE0EDB506F6EF5D7609ED1
:105280000F01509FE552E7CFD9FF1200800EE66E66
:10529000E7DFE552400E706EEE0E716E850E726E97
:1052A000776A0F01200E506F240E606E200E736E11
:1052B000A36A9394E66AD4DFE55212000001E95133
:1052C0000401006F016B050ED89000370137E80626
:1052D000FBE1200E040100150001DA6FDB6B800E8C
:1052E000040100150001DC6F010E0401011500012D
:1052F000DD6F000EDC27020EDD230A0E04010025FF
:105300000001DE6F060E040101210001DF6FF00EC7
:10531000E06F070EE16FE269E36FE00E6E14800844
:1053200003E0800E6F6EF9D7DAC014F0050ED89046
:105330001436E804FCE114C001FFDAC014F0DBC04D
:1053400015F0030ED89015321432E804FBE114C0B6
:1053500000FFDCC014F0050ED8901436E804FCE120
:1053600014C005FFDCC014F0DDC015F0030ED890AA
:1053700015321432E804FBE114C004FFE0C014F05D
:10538000050ED8901436E804FCE114C019FFE0C003
:1053900014F0E1C015F0030ED89015321432E80471
:1053A000FBE114C018FFDEC014F0050ED8901436CF
:1053B000E804FCE114C009FFDEC014F0050ED8902B
:1053C0001436E804FCE114C00DFFDEC014F0050E35
:1053D000D8901436E804FCE114C011FFDEC014F0CC
:1053E000050ED8901436E804FCE114C015FFDEC0A9
:1053F00014F0DFC015F0030ED89015321432E80413
:10540000FBE114C008FFDEC014F0DFC015F0030E8E
:10541000D89015321432E804FBE114C00CFFDEC052
:1054200014F0DFC015F0030ED89015321432E804E2
:10543000FBE114C010FFDEC014F0DFC015F0030E56
:10544000D89015321432E804FBE114C014FFE2C016
:1054500014F0050ED8901436E804FCE114C01DFFCA
:10546000E2C014F0E3C015F0030ED89015321432E8
:10547000E804FBE114C01CFFE00E6E1402E06F6A4A
:10548000FBD71200AADE02DF19DF0001040EA06FB5
:1054900012000F0150516010800B120021EC32F00D
:1054A0000F01409796C014F0050ED8901436E8040A
:1054B000FCE114500F01426F96C014F097C015F034
:1054C000030ED89015321432E804FBE114500F019A
:1054D000416FA0C045FF98C046FF99C047FF9AC0E2
:1054E00048FF9BC049FF9CC04AFF9DC04BFF9EC028
:1054F0004CFF9FC04DFF40870001D82B000ED923E1
:10550000120060AE30D021EC32F0615000018B6FA0
:105510008C6B030ED8908B378C37E806FBE162501A
:10552000E00BE838E840156AE85000018B1315508D
:105530008C1365CF95F0955110E066CF8DF067CF55
:105540008EF068CF8FF069CF90F06ACF91F06BCF7B
:1055500092F06CCF93F06DCF94F0609E0001D62B4B
:10556000000ED72312000F0150AF2FD021EC32F0E4
:105570000F01515100018B6F8C6B030ED8908B374C
:105580008C37E806FBE10F015251E00BE838E840A8
:10559000156AE85000018B1315508C1355CF95F008
:1055A00056CF8DF057CF8EF058CF8FF059CF90F067
:1055B0005ACF91F05BCF92F05CCF93F05DCF94F037
:1055C0000F01509F0001D62BD72312000001E42BBE
:1055D000000EE523100ED880E455000EE55502E2DA
:1055E000E46BE56B100EE41901E1E55101E196D0A1
:1055F0000F0EE41901E1E55101E18BD00E0EE41923
:1056000001E1E55101E17ED00D0EE41901E1E55122
:1056100074E00C0EE41901E1E5516AE00B0EE419A7
:1056200001E1E55160E00A0EE41901E1E55156E0BF
:10563000090EE41901E1E5514CE0080EE41901E11D
:10564000E55142E0070EE41901E1E55138E0060EAC
:10565000E41901E1E5512EE0050EE41901E1E551FF
:1056600024E0040EE41901E1E5511AE0030EE41907
:1056700001E1E55113E0020EE41901E1E5510AE010
:10568000010EE41901E1E55105E0E45101E1E551C4
:1056900005E01200980EE66F070E3ED0E66B42D092
:1056A00084C0E6F085C0E7F0120086C0E6F087C04F
:1056B000E7F0120088C0E6F089C0E7F0120080C071
:1056C000E6F081C0E7F0120082C0E6F083C0E7F0A8
:1056D0001200C2C1E6F0C3C1E7F01200C4C1E6F097
:1056E000C5C1E7F01200C6C1E6F0C7C1E7F012007D
:1056F000CAC1E6F0CBC1E7F01200C8C1E6F0C9C1EB
:10570000E7F012000101CF51000EF3500101CE115C
:1057100007D0880EE66F130EE76F120000018A5162
:105720000001E66FE76B12000F0E00018B150401FC
:105730000E6F0F014097E8500F0A01E19ED0010A59
:1057400001E192D0030A01E186D0010A01E17AD099
:10575000070A6FE0010A64E0030A59E0010A4EE01B
:105760000F0A43E0010A38E0030A2DE0010A22E0B3
:10577000070A17E0010A0CE0030A01E086D0C9C05D
:1057800046FFCAC047FFC5C048FFC6C049FF7DD01D
:10579000C9C046FFCAC047FFC7C048FFC8C049FFCD
:1057A00074D0C9C046FFCAC047FFFBC048FFFCC059
:1057B00049FF6BD0C9C046FFCAC047FFECC048FFD5
:1057C000EDC049FF62D0C9C046FFCAC047FFF1C063
:1057D00048FFF2C049FF59D0C9C046FFCAC047FFC1
:1057E000F3C048FFF4C049FF50D0C9C046FFCAC04B
:1057F00047FFEFC048FFF0C049FF47D0C9C046FF90
:10580000CAC047FFD6C048FFD7C049FF3ED0C9C075
:1058100046FFCAC047FFD8C048FFD9C049FF35D0AE
:10582000E4C046FFE5C047FFE6C048FFE7C049FFC8
:105830002CD022C246FF23C247FF24C248FF25C204
:1058400049FF23D0C9C046FFCAC047FF76CF48FFF3
:1058500075CF49FF1AD0C9C046FFCAC047FFEFC184
:1058600048FFF0C149FF11D0C9C046FFCAC047FF79
:10587000F1C148FFF2C149FF08D0C9C046FFCAC004
:1058800047FFF3C148FFF4C149FF040E456F000113
:10589000E951040DF3CF41FF0F01426B418F61B01D
:1058A000418162CF42FF0001D82B000ED9230F01A6
:1058B00040870A0E04010E5D01E188DE1200D9CF97
:1058C000E6FFE1CFD9FF040EE1260F0E00018B1594
:1058D000DF6E030E0001E915E76E010EE7CFDBFF77
:1058E000010EEA6ADB34FE0BEA36E96E8D0EE9261C
:1058F000000EEA22020EEECFDBFF030EEDCFDBFF40
:10590000DF50040A52E0070A1EE0010A11E0030A10
:1059100004E0010A01E06FD07CD0020EDBCFE6FF8D
:10592000030EDBCFE6FF26EC32F0E552E55271D0F4
:10593000020EDBCFE6FF030EDBCFE6FF3AEC32F0E0
:10594000E552E55266D0020EDBCF14F0030EDBCF3A
:1059500015F0000E1416FF0E1516145002E1520E2B
:10596000151822E1FF0EE76E020EDBCF16F0030ED4
:10597000DBCF17F0E7501616176A0001E951186ED1
:10598000196A1850161802E1195017180DE1000E87
:10599000E66EE66AFDEC3CF0E552E552640EE66E1A
:1059A00068EC3DF0E552FF0034D0020EDB50010BF5
:1059B00003E00101010EF56F020EDB50020B02E065
:1059C0000101F56B020EDB50040B02E0EFEC31F04D
:1059D000020EDB50080B02E0FCEC31F0020EDB5053
:1059E000100B02E008EC32F0020EDB50200B02E05C
:1059F00015EC32F00ED0020EDBCFE6FF030EDBCF4C
:105A0000E6FFDFCFE6FF61EC37F0E552E552E55205
:105A100000D0040EE15C02E2E16AE552E16EE5527B
:105A2000E7CFD9FF1200D9CFE6FFE1CFD9FFE65289
:105A30000F0E00018B15DF6E0A0EDF5C02E156ECE3
:105A400033F0E552E552E7CFD9FF1200D9CFE6FF98
:105A5000E1CFD9FFE6520001E85102E0E80701D0AA
:105A600080864FDD0001060E8C15146E156AD890E5
:105A700014321450DF6EDF50030A0AE0010A09E015
:105A8000030A04E0010A05E14FDE03D018DF01D06C
:105A9000CADFE552E552E7CFD9FF1200D9CFE6FFC2
:105AA000E1CFD9FF020EE126FE0EDBCF14F0156A1E
:105AB00014BE1568030E1416000E151614C015F04A
:105AC000146AD890153614C0DEFF15C0DDFFFD0E38
:105AD000DB50146E156A0F0E1416000E1516050E07
:105AE000D89014361536E804FBE1D9CFE9FFDACFB8
:105AF000EAFF1450EE121550ED12FC0EDBCF14F03D
:105B00000F0E1414DF12DECF14F0DDCF15F014C029
:105B1000F3FF15C0F4FF020EE15C02E2E16AE55218
:0A5B2000E16EE552E7CFD9FF120055
:065B2A00CF0E8116931658
:105B30000201810E266F0F0E276F0201050E286FDE
:105B40007F0EE66E08EC39F0E552050EE66E3BEC92
:105B500039F0E5520201040E286F7F0EE66E08EC64
:105B600039F0E552050EE66E3BEC39F0E552E0EF18
:105B70002EF0D9CFE6FFE1CFD9FF040EE12619ECD4
:105B80003BF0E66AC6EC3AF0E55202012F513011C3
:105B900006E0FF0E2F1907E10F0E301904E1E66A47
:105BA000C6EC3AF0E55202012F51301106E1FF0E2A
:105BB0002F1902E10F0E30190AE02FC2C1F030C2D6
:105BC000C2F00001FF0ED880C1570F0EC257010E60
:105BD000E66EC6EC3AF0E55202012F51301106E0B4
:105BE000FF0E2F1908E10F0E301905E1010EE66EC8
:105BF000C6EC3AF0E55202012F51301106E1FF0EDA
:105C00002F1902E10F0E30190AE02FC2C3F030C283
:105C1000C4F00001FF0ED880C3570F0EC457020115
:105C200000510001C15DC56F020101510001C2595F
:105C3000C66F020102510001C35DC76F020103512B
:105C40000001C459C86FE83414E2C7510008000EBF
:105C5000C8550FE2C7C014F0C8C015F0050ED890A3
:105C600015321432E804FBE114C0DEFF15C0DDFF7D
:105C700002D0DE6ADD6A0001C63516E2C5510008B1
:105C8000000EC65511E2C5C014F0C6C015F0050ED1
:105C9000D89015321432E804FBE1020E14C0DBFF89
:105CA000030E15C0DBFF04D0020EDB6A030EDB6AB5
:105CB000D9CFE9FFDACFEAFFEE500001C527EE5059
:105CC000C623020EDBCF08F0030EDBCF09F008502D
:105CD000C7270950C823C751C55DC96FC851C659E8
:105CE000CA6FC551C725CB6FC651C821CC6F000EF6
:105CF000CB5F020ECC5B040EE15C02E2E16AE5528E
:105D0000E16EE552E7CFD9FF1200D9CFE6FFE1CF30
:105D1000D9FF010EF36EFE0EDB5004E0D890F3368F
:105D2000E806FCE1F3500401016F026B036B046BA6
:105D3000056B006B0151005D13E21BDF0001C151D7
:105D4000040102270001C251040103230001C351D1
:105D5000040104270001C45104010523002BEAD7E4
:105D6000FE0EDB500F0B05E0D89003330233E8063C
:105D7000FBE1FE0EDB500F0B040105E0D89005336C
:105D80000433E806FBE102C4C1F003C4C2F004C45A
:105D9000C3F005C4C4F00001C751C55DC96FC85147
:105DA000C659CA6FC551C725CB6FC651C821CC6F24
:105DB000000ECB5F020ECC5BE552E7CFD9FF12009D
:105DC000D9CFE6FFE1CFD9FF050EE126800EDF6EC9
:105DD000010EDB6A020EDB6A030EDB6A040EDB6A6D
:105DE000DF5046E0010EDB50DF10E76E030EE7CF19
:105DF000DBFF020EDB50DF10E76E040EE7CFDBFFA8
:105E00000201050E286F030EDBCFE6FF6EEC39F0C2
:105E1000E5520201040E286FDBCFE6FF6EEC39F08D
:105E2000E5520A0EE66EA6EC3DF0E552040EE66E73
:105E30006CDFE5520001C2350BE2C1510008010ED2
:105E4000C25506E2030EDB50E76E010EE7CFDBFF23
:105E5000C4350BE2C3510008010EC45506E2040E1E
:105E6000DB50E76E020EE7CFDBFFDF90DF42B8D7F3
:105E7000C1C000F2C2C001F2C3C002F2C4C003F24A
:105E8000040EC1C004F2C2C005F2000A06E002011D
:105E9000D89004370537E804FBE1040EC3C006F2CE
:105EA000C4C007F2000A06E00201D890063707379F
:105EB000E804FBE1050EE15C02E2E16AE552E16E15
:105EC000E552E7CFD9FF1200D9CFE6FFE1CFD9FFE6
:105ED000040EE126C5C0DEFFC6C0DDFF020EC7C04E
:105EE000DBFF030EC8C0DBFFDECF14F0DDCF15F003
:105EF000800E151411E0DECF14F0DDCF15F0060E84
:105F0000D89014361536E804FBE1145002010A2734
:105F100015500B23DE6ADD6A020E030EDBCF15F08F
:105F2000800E151415E0020EDBCF14F0030EDBCF4C
:105F300015F0060ED89014361536E804FBE114501F
:105F400002010C2715500D23020EDB6A030EDB6ADB
:105F5000020EDBCF14F0030EDBCF15F0040ED89049
:105F600015321432E804FBE1050E1426000E15224A
:105F7000145002010A5F15500B5BDECF14F0DDCF29
