:020000040000FA
:0604C00076EF3CF0120093
:0A04C6000B00C17900002C020000B9
:1004D00002000000BB7900001402000006000000CA
:1004E000B5790000F701000006000000B1790000B6
:1004F0001A02000004000000AE790000270200008C
:1005000003000000A47900000A0200000A000000B5
:1005100092790000C10000001200000090790000F4
:100520002A0200000200000082790000E4000000BE
:100530000E00000071790000D300000011000000DF
:0C0540003C790000C20100003500000002
:04054C00D9CFE6FF1E
:10055000E1CFD9FF020EE126FD0EDBCF96F0FE0EB5
:10056000DBCF97F00001A06B4EEC2AF022EC31F0CB
:1005700049EC2AF0000910E1FD0EDBCFE6FFFE0E8C
:10058000DBCFE6FF020EE66EE66A49EC31F0E5529B
:10059000E552E552E55204D00001D52B000ED623DA
:1005A00081EC2AF0020EE15C02E2E16AE552E16EC2
:1005B000E552E7CFD9FF1200D9CFE6FFE1CFD9FF4F
:1005C000020EE126FD0EDBCF96F0FE0EDBCF97F09C
:1005D0000001A06B609E0F01509F4EEC2AF022ECB0
:1005E00031F049EC2AF0000912E00001A06BFD0E89
:1005F000DBCFE6FFFE0EDBCFE6FF010EE66EE66A1E
:1006000049EC31F0E552E552E552E55204D00001E3
:10061000D52B000ED62381EC2AF0020EE15C02E21B
:10062000E16AE552E16EE552E7CFD9FF12005EECD8
:1006300029F0400EE66E30EC29F0E55222EC31F064
:10064000200EE66EE66A82DFE552E552220EE66E85
:10065000E66A7CDFE552E552200EE66E010EE66E9C
:10066000ABDFE552E552600EE66EE66AA5DFE552C5
:10067000E552300EE66EE66A9FDFE552E552800EE7
:10068000E66E020EE66E62DFE552E552820EE66E1F
:10069000020EE66E5BDFE552E552800EE66E030E5B
:1006A000E66E8ADFE552E552E66A020EE66E84DF08
:1006B000E552E552A00EE66E020EE66E7DDFE552D3
:1006C000E552900EE66E020EE66E76DFE552E552DA
:1006D000EA0EE66E060EE66E39DFE552E552EA0EE8
:1006E000E66E070EE66E68DFE552E5526A0EE66ECC
:1006F000060EE66E61DFE552E552AA0EE66E060EC4
:10070000E66E5ADFE552E552C20EE66E060EE66E62
:1007100053DFE552E552EE0EE66E060EE66E4CDF56
:10072000E552E552E80EE66E060EE66E45DFE5524E
:10073000E5521200D9CFE6FFE1CFD9FF020EE12644
:10074000100EDE6E270EDD6EDFCF14F0DF06010E19
:10075000DBCF15F001E2DB06145015100AE00000B3
:1007600000000000000049EC2AF0000901E002D07E
:10077000EBD700D0020EE15C02E2E16AE552E16EE5
:10078000E552E7CFD9FF1200D9CFE6FFE1CFD9FF7D
:10079000FD0EDBCF96F0FE0EDBCF97F00001A06BD5
:1007A0004EEC2AF0C7DFFEEC2CF0E552E7CFD9FF84
:1007B0001200D9CFE6FFE1CFD9FFFD0EDBCF96F0D7
:1007C000FE0EDBCF97F00001040EA06FFB0EDBCF17
:1007D00098F0FC0EDBCF99F0F90EDBCF9AF0FA0E11
:1007E000DBCF9BF04EEC2AF0A5DFFEEC2CF0E552BF
:1007F000E7CFD9FF1200D9CFE6FFE1CFD9FFFD0E39
:10080000DBCF96F0FE0EDBCF97F00001080EA06F55
:10081000FB0EDBCF98F0FC0EDBCF99F0F90EDBCFAF
:100820009AF0FA0EDBCF9BF0F70EDBCF9CF0F80EC0
:10083000DBCF9DF0F50EDBCF9EF0F60EDBCF9FF009
:100840004EEC2AF077DFFEEC2CF0E552E7CFD9FF33
:1008500012000401340E006F120E016F450E026F7C
:10086000230E036F560E046F340E056F670E066F6E
:10087000450E076F780E086F560E096F890E0A6FC6
:10088000670E0B6F9A0E0C6F780E0D6FFBEC35F048
:100890000001D78D000EE66EE66AE66EE66AE66E49
:1008A000E66AE66EE66A070EE66E0C0E0001D415E7
:1008B000E66E010EE66E26EC2DF0E552E552E552AD
:1008C000F3CF14F0F4CF15F0F3CFE6FFF4CFE6FF4B
:1008D00092DF166E0A0EE15E16500001AF51B011A4
:1008E00005E10001D52B000ED6230CD0000EE66EDC
:1008F000E66A030EE66EE66A49EC31F0E552E5522F
:10090000E552E5520001D751400B05E10001D52B1E
:10091000000ED6230CD0000EE66EE66A030EE66EDD
:10092000E66A49EC31F0E552E552E552E552000144
:10093000D78D120EE66EE66A000EE66EE66AE66E89
:10094000E66AE66EE66A070EE66E0C0E0001D41546
:10095000E66E010EE66E26EC2DF0E552E552E5520C
:10096000F3CF14F0F4CF15F0F3CFE6FFF4CFE6FFAA
:1009700042DF166E0A0EE15E16500001120EAF192C
:1009800007E1B05105E10001D52B000ED6230CD0B4
:10099000120EE66EE66A030EE66EE66A49EC31F088
:1009A000E552E552E552E5520001D751400B05E111
:1009B0000001D52B000ED6230CD0120EE66EE66A8F
:1009C000030EE66EE66A49EC31F0E552E552E55277
:1009D000E5520001D78DE668030EE66E000EE66E66
:1009E000E66AE66EE66AE66EE66A070EE66E0C0EEC
:1009F0000001D415E66E010EE66E26EC2DF0E552F0
:100A0000E552E552F3CF14F0F4CF15F0F3CFE6FF43
:100A1000F4CFE6FFF0DE166E0A0EE15E1650FF0E12
:100A20000001AF1908E1030EB01905E10001D52B53
:100A3000000ED6230BD0E668030EE66EE66EE66A7D
:100A400049EC31F0E552E552E552E5520001D7514B
:100A5000400B05E10001D52B000ED6230BD0E66834
:100A6000030EE66EE66EE66A49EC31F0E552E552B9
:100A7000E552E5520001D79DF40EE66EE668000EE1
:100A8000E66EE66AE66EE66AE66EE66A070EE66E11
:100A90000C0E0001D415E66E010EE66E26EC2DF06C
:100AA000E552E552E552F3CF14F0F4CF15F0F3CF51
:100AB000E6FFF4CFE6FF9FDE166E0A0EE15E1650EB
:100AC000F40E0001AF1902E1FF0EB01905E00001BC
:100AD000D52B000ED6230CD0F40EE66EE668030E7E
:100AE000E66EE66A49EC31F0E552E552E552E55230
:100AF0000001D751400B05E00001D52B000ED62395
:100B00000CD0F40EE66EE668030EE66EE66A49EC7B
:100B100031F0E552E552E552E5520001D79DE66A13
:100B2000040EE66E000EE66EE66AE66EE66AE66EB5
:100B3000E66A070EE66E0C0E0001D415E66E010E95
:100B4000E66E26EC2DF0E552E552E552F3CF14F0B7
:100B5000F4CF15F0F3CFE6FFF4CFE6FF4CDE166ED0
:100B60000A0EE15E16500001AF5102E1040EB01909
:100B700005E00001D52B000ED6230CD0E66A040E4A
:100B8000E66E030EE66EE66A49EC31F0E552E55298
:100B9000E552E5520001D751400B05E00001D52B8D
:100BA000000ED6230CD0E66A040EE66E030EE66E47
:100BB000E66A49EC31F0E552E552E552E5520001B2
:100BC000D78D000EE66EE66AE66EE66AE66EE66AC7
:100BD000E66EE66A080EE66E0C0E0001D415E66EAF
:100BE000010EE66E26EC2DF0E552E552E552F3CF0C
:100BF00014F0F4CF15F0F3CFE6FFF4CFE6FFFBDD02
:100C0000166E0A0EE15E16500001B151B21105E1F7
:100C10000001D52B000ED6230CD0000EE66EE66A3E
:100C2000040EE66EE66A49EC31F0E552E552E55213
:100C3000E5520001D751400B05E10001D52B000E14
:100C4000D6230CD0000EE66EE66A040EE66EE66A67
:100C500049EC31F0E552E552E552E5520001D78DFD
:100C6000120EE66E160EE66E000EE66EE66AE66E92
:100C7000E66AE66EE66A080EE66E0C0E0001D41512
:100C8000E66E010EE66E26EC2DF0E552E552E552D9
:100C9000F3CF14F0F4CF15F0F3CFE6FFF4CFE6FF77
:100CA000AADD166E0A0EE15E1650120E0001B11991
:100CB00008E1160EB21905E10001D52B000ED6236E
:100CC0000DD0120EE66E160EE66E040EE66EE66AA5
:100CD00049EC31F0E552E552E552E5520001D751B9
:100CE000400B05E10001D52B000ED6230DD0120ECE
:100CF000E66E160EE66E040EE66EE66A49EC31F01C
:100D0000E552E552E552E5520001D78DE668E66806
:100D1000000EE66EE66AE66EE66AE66EE66A080EC3
:100D2000E66E0C0E0001D415E66E010EE66E26ECA2
:100D30002DF0E552E552E552F3CF14F0F4CF15F063
:100D4000F3CFE6FFF4CFE6FF56DD166E0A0EE15E46
:100D500016500001B11D07E1B21D05E10001D52BC0
:100D6000000ED6230BD0E668E668040EE66EE66A4F
:100D700049EC31F0E552E552E552E5520001D75118
:100D8000400B05E10001D52B000ED6230BD0E66801
:100D9000E668040EE66EE66A49EC31F0E552E5528B
:100DA000E552E5520001D78D000EE66EE66AE66E6A
:100DB000E66AE66EE66AE66EE66A090EE66E0C0E16
:100DC0000001D415E66E010EE66E26EC2DF0E5521C
:100DD000E552E552F3CF14F0F4CF15F0F3CFE6FF70
:100DE000F4CFE6FF08DD166E0A0EE15E1650000134
:100DF000B351B41105E10001D52B000ED6230CD060
:100E0000000EE66EE66A050EE66EE66A49EC31F023
:100E1000E552E552E552E5520001D751400B05E19C
:100E20000001D52B000ED6230CD0000EE66EE66A2C
:100E3000050EE66EE66A49EC31F0E552E552E55200
:100E4000E5520001D78DE6687F0EE66E000EE66E75
:100E5000E66AE66EE66AE66EE66A090EE66E0C0E75
:100E60000001D415E66E010EE66E26EC2DF0E5527B
:100E7000E552E552F3CF14F0F4CF15F0F3CFE6FFCF
:100E8000F4CFE6FFB8DC166E0A0EE15E1650FF0ED8
:100E90000001B31908E17F0EB41905E10001D52B5B
:100EA000000ED6230CD0E6687F0EE66E050EE66EC9
:100EB000E66A49EC31F0E552E552E552E5520001AF
:100EC000D751400B05E10001D52B000ED6230CD0E5
:100ED000E6687F0EE66E050EE66EE66A49EC31F0D6
:100EE000E552E552E552E5520001D79DE66A800ED3
:100EF000E66E000EE66EE66AE66EE66AE66EE66AA4
:100F0000090EE66E0C0E0001D415E66E010EE66EBB
:100F100026EC2DF0E552E552E552F3CF14F0F4CF74
:100F200015F0F3CFE6FFF4CFE6FF65DC166E0A0E90
:100F3000E15E16500001B35102E1800EB41905E0E4
:100F40000001D52B000ED6230CD0E66A800EE66E8B
:100F5000050EE66EE66A49EC31F0E552E552E552DF
:100F6000E5520001D751400B05E00001D52B000EE2
:100F7000D6230CD0E66A800EE66E050EE66EE66AB3
:100F800049EC31F0E552E552E552E5520001D78DCA
:100F9000000EE66EE66AE66EE66AE66EE66AE66E03
:100FA000E66A0A0EE66E0C0E0001D415E66E010E1E
:100FB000E66E26EC2DF0E552E552E552F3CF14F043
:100FC000F4CF15F0F3CFE6FFF4CFE6FF14DC166E96
:100FD0000A0EE15E16500001B551B61105E100019F
:100FE000D52B000ED6230CD0000EE66EE66A060E58
:100FF000E66EE66A49EC31F0E552E552E552E5521B
:101000000001D751400B05E10001D52B000ED6237E
:101010000CD0000EE66EE66A060EE66EE66A49EC55
:1010200031F0E552E552E552E5520001D78DE66810
:101030007F0EE66E000EE66EE66AE66EE66AE66E25
:10104000E66A0A0EE66E0C0E0001D415E66E010E7D
:10105000E66E26EC2DF0E552E552E552F3CF14F0A2
:10106000F4CF15F0F3CFE6FFF4CFE6FFFBEC03F08F
:10107000166E0A0EE15E1650FF0E0001B51908E16A
:101080007F0EB61905E10001D52B000ED6230CD03A
:10109000E6687F0EE66E060EE66EE66A49EC31F013
:1010A000E552E552E552E5520001D751400B05E10A
:1010B0000001D52B000ED6230CD0E6687F0EE66E1D
:1010C000060EE66EE66A49EC31F0E552E552E5526D
:1010D000E5520001D79DE66A800EE66E000EE66ED0
:1010E000E66AE66EE66AE66EE66A0A0EE66E0C0EE2
:1010F0000001D415E66E010EE66E26EC2DF0E552E9
:10110000E552E552F3CF14F0F4CF15F0F3CFE6FF3C
:10111000F4CFE6FFFBEC03F0166E0A0EE15E16500C
:101120000001B55102E1800EB61905E00001D52B92
:10113000000ED6230CD0E66A800EE66E060EE66E32
:10114000E66A49EC31F0E552E552E552E55200011C
:10115000D751400B05E00001D52B000ED6230CD053
:10116000E66A800EE66E060EE66EE66A49EC31F03F
:10117000E552E552E552E5520001D78D000EE66ECC
:10118000E66AE66EE66AE66EE66AE66EE66A0B0E0A
:10119000E66E0C0E0001D415E66E010EE66E26EC2E
:1011A0002DF0E552E552E552F3CF14F0F4CF15F0EF
:1011B000F3CFE6FFF4CFE6FFFBEC03F0166E0A0E6A
:1011C000E15E16500001B751B81105E10001D52BC1
:1011D000000ED6230CD0000EE66EE66A070EE66E11
:1011E000E66A49EC31F0E552E552E552E55200017C
:1011F000D751400B05E10001D52B000ED6230CD0B2
:10120000000EE66EE66A070EE66EE66A49EC31F01D
:10121000E552E552E552E5520001D78DE6687F0EB2
:10122000E66E000EE66EE66AE66EE66AE66EE66A70
:101230000B0EE66E0C0E0001D415E66E010EE66E86
:1012400026EC2DF0E552E552E552F3CF14F0F4CF41
:1012500015F0F3CFE6FFF4CFE6FFFBEC03F0166EDC
:101260000A0EE15E1650FF0E0001B71908E17F0E6D
:10127000B81905E10001D52B000ED6230CD0E66885
:101280007F0EE66E070EE66EE66A49EC31F0E55237
:10129000E552E552E5520001D751400B05E100014E
:1012A000D52B000ED6230CD0E6687F0EE66E070E17
:1012B000E66EE66A49EC31F0E552E552E552E55258
:1012C0000001D79DE66A800EE66E000EE66EE66AC5
:1012D000E66EE66AE66EE66A0B0EE66E0C0E00013E
:1012E000D415E66E010EE66E26EC2DF0E552E552C1
:1012F000E552F3CF14F0F4CF15F0F3CFE6FFF4CFBF
:10130000E6FFFBEC03F0166E0A0EE15E16500001DC
:10131000B75102E1800EB81905E00001D52B000E8F
:10132000D6230CD0E66A800EE66E070EE66EE66AFD
:1013300049EC31F0E552E552E552E5520001D75152
:10134000400B05E00001D52B000ED6230CD0E66A39
:10135000800EE66E070EE66EE66A49EC31F0E55265
:10136000E552E552E5520001D78D000EE66EE66AC1
:10137000E66EE66AE66EE66AE66EE66A0C0EE66E13
:101380000001D415E66E010EE66E26EC2DF0E55256
:10139000E552E552F3CF14F0F4CF15F0F3CFE6FFAA
:1013A000F4CFE6FFFBEC03F0166E0A0EE15E16507A
:1013B0000001B951BA1105E10001D52B000ED62369
:1013C0000CD0000EE66EE66A080EE66EE66A49ECA0
:1013D00031F0E552E552E552E5520001D751400B9C
:1013E00005E10001D52B000ED6230CD0000EE66ED1
:1013F000E66A080EE66EE66A49EC31F0E552E5521F
:10140000E552E5520001D78DE6687F0EE66E000ECC
:10141000E66EE66AE66EE66AE66EE66A0C0EE66E72
:101420000001D415E66E010EE66E26EC2DF0E552B5
:10143000E552E552F3CF14F0F4CF15F0F3CFE6FF09
:10144000F4CFE6FFFBEC03F0166E0A0EE15E1650D9
:10145000FF0E0001B91908E17F0EBA1905E100017C
:10146000D52B000ED6230CD0E6687F0EE66E080E54
:10147000E66EE66A49EC31F0E552E552E552E55296
:101480000001D751400B05E10001D52B000ED623FA
:101490000CD0E6687F0EE66E080EE66EE66A49EC52
:1014A00031F0E552E552E552E5520001D79DE66A7A
:1014B000800EE66E000EE66EE66AE66EE66AE66EA0
:1014C000E66A0C0EE66E0001D415E66E010EE66EBD
:1014D00026EC2DF0E552E552E552F3CF14F0F4CFAF
:1014E00015F0F3CFE6FFF4CFE6FFFBEC03F0166E4A
:1014F0000A0EE15E16500001B95102E1800EBA19E0
:1015000005E00001D52B000ED6230CD0E66A800E34
:10151000E66E080EE66EE66A49EC31F0E552E552F9
:10152000E552E5520001D751400B05E00001D52BF3
:10153000000ED6230CD0E66A800EE66E080EE66E2C
:10154000E66A49EC31F0E552E552E552E552000118
:10155000D78D000EE66EE66AE66EE66AE66EE66A2D
:10156000E66EE66A0D0EE66E0C0E0001D415E66E10
:10157000010EE66E26EC2DF0E552E552E552F3CF72
:1015800014F0F4CF15F0F3CFE6FFF4CFE6FFFBEC59
:1015900003F0166E0A0EE15E16500001BB51BC113D
:1015A00005E10001D52B000ED6230CD0000EE66E0F
:1015B000E66A090EE66EE66A49EC31F0E552E5525C
:1015C000E552E5520001D751400B05E10001D52B52
:1015D000000ED6230CD0000EE66EE66A090EE66E0B
:1015E000E66A49EC31F0E552E552E552E552000178
:1015F000D78DE6683F0EE66E000EE66EE66AE66E92
:10160000E66AE66EE66A0D0EE66E0C0E0001D41573
:10161000E66E010EE66E26EC2DF0E552E552E5523F
:10162000F3CF14F0F4CF15F0F3CFE6FFF4CFE6FFDD
:10163000FBEC03F0166E0A0EE15E1650FF0E000181
:10164000BB1908E13F0EBC1905E10001D52B000EC6
:10165000D6230CD0E6683F0EE66E090EE66EE66A0B
:1016600049EC31F0E552E552E552E5520001D7511F
:10167000400B05E10001D52B000ED6230CD0E66807
:101680003F0EE66E090EE66EE66A49EC31F0E55271
:10169000E552E552E5520001D79DE66A400EE66E3E
:1016A000000EE66EE66AE66EE66AE66EE66A0D0E25
:1016B000E66E0C0E0001D415E66E010EE66E26EC09
:1016C0002DF0E552E552E552F3CF14F0F4CF15F0CA
:1016D000F3CFE6FFF4CFE6FFFBEC03F0166E0A0E45
:1016E000E15E16500001BB5102E1400EBC1905E05D
:1016F0000001D52B000ED6230CD0E66A400EE66E14
:10170000090EE66EE66A49EC31F0E552E552E55223
:10171000E5520001D751400B05E00001D52B000E2A
:10172000D6230CD0E66A400EE66E090EE66EE66A37
:1017300049EC31F0E552E552E552E5520001D78D12
:10174000000EE66EE66AE66EE66AE66EE66AE66E4B
:10175000E66A0E0EE66E0C0E0001D415E66E010E62
:10176000E66E26EC2DF0E552E552E552F3CF14F08B
:10177000F4CF15F0F3CFE6FFF4CFE6FFFBEC03F078
:10178000166E0A0EE15E16500001BD51BE1105E154
:101790000001D52B000ED6230CD0000EE66EE66AB3
:1017A0000A0EE66EE66A49EC31F0E552E552E55282
:1017B000E5520001D751400B05E10001D52B000E89
:1017C000D6230CD0000EE66EE66A0A0EE66EE66AD6
:1017D00049EC31F0E552E552E552E5520001D78D72
:1017E000E66A010EE66E000EE66EE66AE66EE66AF0
:1017F000E66EE66A0E0EE66E0C0E0001D415E66E7D
:10180000010EE66E26EC2DF0E552E552E552F3CFDF
:1018100014F0F4CF15F0F3CFE6FFF4CFE6FFFBECC6
:1018200003F0166E0A0EE15E16500001BD5108E18C
:10183000010EBE1905E10001D52B000ED6230CD0F8
:10184000E66A010EE66E0A0EE66EE66A49EC31F0D3
:10185000E552E552E552E5520001D751400B05E152
:101860000001D52B000ED6230CD0E66A010EE66EE1
:101870000A0EE66EE66A49EC31F0E552E552E552B1
:10188000E5520001D78DFF0EE66EE66A000EE66EA9
:10189000E66AE66EE66AE66EE66A0E0EE66E0C0E26
:1018A0000001D415E66E010EE66E26EC2DF0E55231
:1018B000E552E552F3CF14F0F4CF15F0F3CFE6FF85
:1018C000F4CFE6FFFBEC03F0166E0A0EE15E165055
:1018D0000001FF0EBD1907E1BE5105E10001D52B46
:1018E000000ED6230CD0FF0EE66EE66A0A0EE66EF8
:1018F000E66A49EC31F0E552E552E552E552000165
:10190000D751400B05E10001D52B000ED6230CD09A
:10191000FF0EE66EE66A0A0EE66EE66A49EC31F004
:10192000E552E552E552E5520001D79DE66A020E06
:10193000E66E000EE66EE66AE66EE66AE66EE66A59
:101940000E0EE66E0C0E0001D415E66E010EE66E6C
:1019500026EC2DF0E552E552E552F3CF14F0F4CF2A
:1019600015F0F3CFE6FFF4CFE6FFFBEC03F0166EC5
:101970000A0EE15E16500001BD5102E1020EBE19D1
:1019800005E00001D52B000ED6230CD0E66A020E2E
:10199000E66E0A0EE66EE66A49EC31F0E552E55273
:1019A000E552E5520001D751400B05E00001D52B6F
:1019B000000ED6230CD0E66A020EE66E0A0EE66E24
:1019C000E66A49EC31F0E552E552E552E552020192
:1019D000010E196F0101AD0EFB6FDE0EFC6F0101F0
:1019E000AD0EC26FDE0EC36F0101AD0EC46FDE0E11
:1019F000C56F0101AD0EC66FDE0EC76F0101AD0EE2
:101A0000C86FDE0EC96F0101AD0ECA6FDE0ECB6F5F
:101A10000101AD0ECC6FDE0ECD6F0101AD0ECE6FAC
:101A20000101CF6F010EE66EE66A000EE66EE66A11
:101A3000E66EE66AE66EE66A070EE66E0C0E0001DA
:101A4000D415E66E010EE66E26EC2DF0E552E55259
:101A5000E552F3CF14F0F4CF15F0F3CFE6FFF4CF57
:101A6000E6FFFBEC03F0166E0A0EE15E1650020E66
:101A7000E66EE66A000EE66EE66AE66EE66AE66E18
:101A8000E66A080EE66E0C0E0001D415E66E010E35
:101A9000E66E26EC2DF0E552E552E552F3CF14F058
:101AA000F4CF15F0F3CFE6FFF4CFE6FFFBEC03F045
:101AB000166E0A0EE15E1650030EE66EE66A000E22
:101AC000E66EE66AE66EE66AE66EE66A090EE66EBF
:101AD0000C0E0001D415E66E010EE66E26EC2DF01C
:101AE000E552E552E552F3CF14F0F4CF15F0F3CF01
:101AF000E6FFF4CFE6FFFBEC03F0166E0A0EE15EA4
:101B00001650040EE66EE66A000EE66EE66AE66EB3
:101B1000E66AE66EE66A0A0EE66E0C0E0001D41561
:101B2000E66E010EE66E26EC2DF0E552E552E5522A
:101B3000F3CF14F0F4CF15F0F3CFE6FFF4CFE6FFC8
:101B4000FBEC03F0166E0A0EE15E1650050EE66E13
:101B5000E66A000EE66EE66AE66EE66AE66EE66A3B
:101B60000B0EE66E0C0E0001D415E66E010EE66E4D
:101B700026EC2DF0E552E552E552F3CF14F0F4CF08
:101B800015F0F3CFE6FFF4CFE6FFFBEC03F0166EA3
:101B90000A0EE15E1650060EE66EE66A000EE66E6E
:101BA000E66AE66EE66AE66EE66A0C0EE66E00012E
:101BB000D415E66E010EE66E26EC2DF0E552E552E8
:101BC000E552F3CF14F0F4CF15F0F3CFE6FFF4CFE6
:101BD000E6FFFBEC03F0166E0A0EE15E1650070EF0
:101BE000E66EE66A000EE66EE66AE66EE66AE66EA7
:101BF000E66A0D0EE66E0C0E0001D415E66E010EBF
:101C0000E66E26EC2DF0E552E552E552F3CF14F0E6
:101C1000F4CF15F0F3CFE6FFF4CFE6FFFBEC03F0D3
:101C2000166E0A0EE15E1650000EE66EE66AE66E6D
:101C3000E66AE66EE66AE66EE66A0E0EE66E0C0E82
:101C40000001D415E66E010EE66E26EC2DF0E5528D
:101C5000E552E552F3CF14F0F4CF15F0F3CFE6FFE1
:101C6000F4CFE6FFFBEC03F0166E0A0EE15E1650B1
:101C7000210EE66E430EE66E000EE66EE66AE66E36
:101C8000E66AE66EE66A0F0EE66E0C0E0001D415EB
:101C9000E66E010EE66E26EC2DF0E552E552E552B9
:101CA000F3CF14F0F4CF15F0F3CFE6FFF4CFE6FF57
:101CB000FBEC03F0166E0A0EE15E16500101010EF8
:101CC000FB190EE1FC510CE1010EE66EE66A0B0E0B
:101CD000E66EE66A49EC31F0E552E552E552E5522E
:101CE0000101030EC2190EE1C3510CE1030EE66EB1
:101CF000E66A0B0EE66EE66A49EC31F0E552E55213
:101D0000E552E5520101040EC4190EE1C5510CE182
:101D1000040EE66EE66A0B0EE66EE66A49EC31F0FA
:101D2000E552E552E552E5520101050EC6190EE1F4
:101D3000C7510CE1050EE66EE66A0B0EE66EE66A2A
:101D400049EC31F0E552E552E552E5520101060E4B
:101D5000C8190EE1C9510CE1060EE66EE66A0B0EDB
:101D6000E66EE66A49EC31F0E552E552E552E5529D
:101D70000101070ECA190EE1CB510CE1070EE66E08
:101D8000E66A0B0EE66EE66A49EC31F0E552E55282
:101D9000E552E552F90E0101CC190FE1FF0ECD1904
:101DA0000CE1080EE66EE66A0B0EE66EE66A49EC9A
:101DB00031F0E552E552E552E5520101CE510CE118
:101DC000090EE66EE66A0B0EE66EE66A49EC31F045
:101DD000E552E552E552E5520101CF510CE10A0E00
:101DE000E66EE66A0B0EE66EE66A49EC31F0E55205
:101DF000E552E552E5520001D751200B0BE10B0EE5
:101E0000E66EE66AE66EE66A49EC31F0E552E552C6
:101E1000E552E552850EE66E100EE66E000EE66E99
:101E2000E66AE66EE66AE66EE66A0F0EE66E0C0E8F
:101E30000001D415E66E010EE66E26EC2DF0E5529B
:101E4000E552E552F3CF14F0F4CF15F0F3CFE6FFEF
:101E5000F4CFE6FFFBEC03F0166E0A0EE15E1650BF
:101E60000101010EFB1901E1FC510BE00B0EE66EC6
:101E7000E66AE66EE66A49EC31F0E552E552E55273
:101E8000E5520101030EC21901E1C3510CE00D0E30
:101E9000E66EE66A0B0EE66EE66A49EC31F0E55254
:101EA000E552E552E5520101040EC41901E1C551A4
:101EB0000CE00E0EE66EE66A0B0EE66EE66A49EC84
:101EC00031F0E552E552E552E5520101050EC61921
:101ED00001E1C7510CE00F0EE66EE66A0B0EE66EEE
:101EE000E66A49EC31F0E552E552E552E55201016E
:101EF000060EC81901E1C9510CE0100EE66EE66A43
:101F00000B0EE66EE66A49EC31F0E552E552E55219
:101F1000E5520101070ECA1901E1CB510CE0110E87
:101F2000E66EE66A0B0EE66EE66A49EC31F0E552C3
:101F3000E552E552E552F90E0101CC1902E1FF0E1E
:101F4000CD190CE0120EE66EE66A0B0EE66EE66A3E
:101F500049EC31F0E552E552E552E5520101CE512E
:101F60000CE0130EE66EE66A0B0EE66EE66A49ECCE
:101F700031F0E552E552E552E5520101CF510CE056
:101F8000140EE66EE66A0B0EE66EE66A49EC31F078
:101F9000E552E552E552E5520001D751200B0BE026
:101FA0000B0EE66EE66AE66EE66A49EC31F0E55243
:101FB000E552E552E552FBEF35F0D9CFE6FFE1CF30
:101FC000D9FF020EE126400EE66E30EC29F0E55214
:101FD0000001010ED96F0101F76BF86B0101FB697C
:101FE000030EFC6F0001DA6B190EDB6F02010A6B46
:101FF000320E0B6FE668010EE66E000EE66EE66AC4
:10200000E66EE66AE66EE66A020EE66E0C0E000109
:10201000D415E66E010EE66E26EC2DF0E552E55283
:10202000E552F3CF14F0F4CF15F0F3CFE6FFF4CF81
:10203000E6FFFBEC03F0166E0A0EE15E1650F2ECC2
:1020400039F0FF0E0101F91902E1010EFA190CE055
:10205000E668010EE66E0C0EE66EE66A49EC31F0BB
:10206000E552E552E552E55270EC39F001080CE01A
:10207000E668010EE66E0C0EE66EE66A49EC31F09B
:10208000E552E552E552E552000EE66EE66AE66E6E
:10209000E66AE66EE66AE66EE66A020EE66E0C0E2A
:1020A0000001D415E66E010EE66E26EC2DF0E55229
:1020B000E552E552F3CF14F0F4CF15F0F3CFE6FF7D
:1020C000F4CFE6FFFBEC03F0166E0A0EE15E16504D
:1020D000F2EC39F00101F951FA110CE0000EE66E54
:1020E000E66A0C0EE66EE66A49EC31F0E552E5521E
:1020F000E552E55270EC39F001080CE0000EE66E96
:10210000E66A0C0EE66EE66A49EC31F0E552E552FD
:10211000E552E552010EE66EFE0EE66E000EE66E2C
:10212000E66AE66EE66AE66EE66A020EE66E0C0E99
:102130000001D415E66E010EE66E26EC2DF0E55298
:10214000E552E552F3CF14F0F4CF15F0F3CFE6FFEC
:10215000F4CFE6FFFBEC03F0166E0A0EE15E1650BC
:10216000F2EC39F0010E0101F91902E1FE0EFA1943
:102170000DE0010EE66EFE0EE66E0C0EE66EE66AF1
:1021800049EC31F0E552E552E552E55270EC39F098
:1021900002080DE0010EE66EFE0EE66E0C0EE66E17
:1021A000E66A49EC31F0E552E552E552E552010E9E
:1021B000E66E040EE66E000EE66EE66AE66EE66A0F
:1021C000E66EE66A020EE66E0C0E0001D415E66EAF
:1021D000010EE66E26EC2DF0E552E552E552F3CF06
:1021E00014F0F4CF15F0F3CFE6FFF4CFE6FFFBECED
:1021F00003F0166E0A0EE15E1650F2EC39F0FF0E97
:102200000101F91902E1030EFA190DE0010EE66E63
:10221000040EE66E0C0EE66EE66A49EC31F0E5520D
:10222000E552E552E55270EC39F001080DE0010E7F
:10223000E66E040EE66E0C0EE66EE66A49EC31F0D0
:10224000E552E552E552E552E668FB0EE66E000EF9
:10225000E66EE66AE66EE66AE66EE66A020EE66E2E
:102260000C0E0001D415E66E010EE66E26EC2DF084
:10227000E552E552E552F3CF14F0F4CF15F0F3CF69
:10228000E6FFF4CFE6FFFBEC03F0166E0A0EE15E0C
:102290001650F2EC39F0010E0101F91902E1FC0EC1
:1022A000FA190CE0E668FB0EE66E0C0EE66EE66AC6
:1022B00049EC31F0E552E552E552E55270EC39F067
:1022C00002080CE0E668FB0EE66E0C0EE66EE66AAF
:1022D00049EC31F0E552E552E552E552E6687F0EF1
:1022E000E66E000EE66EE66AE66EE66AE66EE66AA0
:1022F000020EE66E0C0E0001D415E66E010EE66EBF
:1023000026EC2DF0E552E552E552F3CF14F0F4CF70
:1023100015F0F3CFE6FFF4CFE6FFFBEC03F0166E0B
:102320000A0EE15E1650F2EC39F0FF0E0101F919C8
:1023300002E1030EFA190CE0E6687F0EE66E0C0E61
:10234000E66EE66A49EC31F0E552E552E552E552B7
:1023500070EC39F001080CE0E6687F0EE66E0C0EBA
:10236000E66EE66A49EC31F0E552E552E552E55297
:10237000010EE66E800EE66E000EE66EE66AE66E12
:10238000E66AE66EE66A020EE66E0C0E0001D415F1
:10239000E66E010EE66E26EC2DF0E552E552E552B2
:1023A000F3CF14F0F4CF15F0F3CFE6FFF4CFE6FF50
:1023B000FBEC03F0166E0A0EE15E1650F2EC39F0FB
:1023C000010E0101F91902E1FC0EFA190DE0010EEE
:1023D000E66E800EE66E0C0EE66EE66A49EC31F0B3
:1023E000E552E552E552E55270EC39F002080DE095
:1023F000010EE66E800EE66E0C0EE66EE66A49ECA5
:1024000031F0E552E552E552E552010EE66E56EC2A
:102410003CF0E55273EC39F000090CE1000EE66E79
:10242000E66A0D0EE66EE66A49EC31F0E552E552D9
:10243000E552E5520001DA6B330EDB6F02010A6BE5
:10244000320E0B6F010E0201126F136B0201106F3F
:10245000116BE668E66E000EE66EE66AE66EE66A08
:10246000E66EE66A020EE66E0C0E0001D415E66E0C
:10247000010EE66E26EC2DF0E552E552E552F3CF63
:1024800014F0F4CF15F0F3CFE6FFF4CFE6FFFBEC4A
:1024900003F0166E0A0EE15E1650F2EC39F00101FF
:1024A000F951FA110CE0E668010EE66E0E0EE66ECA
:1024B000E66A49EC31F0E552E552E552E55270EC3E
:1024C00039F001080CE0E668010EE66E0E0EE66ECD
:1024D000E66A49EC31F0E552E552E552E552000E6C
:1024E000E66EE66AE66EE66AE66EE66AE66EE66A5C
:1024F000020EE66E0C0E0001D415E66E010EE66EBD
:1025000026EC2DF0E552E552E552F3CF14F0F4CF6E
:1025100015F0F3CFE6FFF4CFE6FFFBEC03F0166E09
:102520000A0EE15E1650F2EC39F00101F951FA1190
:102530000CE0000EE66EE66A0E0EE66EE66A49EC08
:1025400031F0E552E552E552E55270EC39F0010800
:102550000CE0000EE66EE66A0E0EE66EE66A49ECE8
:1025600031F0E552E552E552E552E668010EE66EBD
:10257000000EE66EE66AE66EE66AE66EE66A020E51
:10258000E66E0C0E0001D415E66E010EE66E26EC2A
:102590002DF0E552E552E552F3CF14F0F4CF15F0EB
:1025A000F3CFE6FFF4CFE6FFFBEC03F0166E0A0E66
:1025B000E15E1650F2EC39F00101F951FA110CE02C
:1025C000E668010EE66E0E0EE66EE66A49EC31F044
:1025D000E552E552E552E55270EC39F001080CE0A5
:1025E000E668010EE66E0E0EE66EE66A49EC31F024
:1025F000E552E552E552E5520001DA6B320EDB6F2F
:10260000E66A020EE66E000EE66EE66AE66EE66AC0
:10261000E66EE66A020EE66E0C0E0001D415E66E5A
:10262000010EE66E26EC2DF0E552E552E552F3CFB1
:1026300014F0F4CF15F0F3CFE6FFF4CFE6FFFBEC98
:1026400003F0166E0A0EE15E1650F2EC39F001014D
:10265000F951FA110CE0E66A020EE66E0E0EE66E15
:10266000E66A49EC31F0E552E552E552E55270EC8C
:1026700039F001080CE0E66A020EE66E0E0EE66E18
:10268000E66A49EC31F0E552E552E552E5520001C7
:10269000DA6B310EDB6F010EE66E020EE66E000E97
:1026A000E66EE66AE66EE66AE66EE66A020EE66EDA
:1026B0000C0E0001D415E66E010EE66E26EC2DF030
:1026C000E552E552E552F3CF14F0F4CF15F0F3CF15
:1026D000E6FFF4CFE6FFFBEC03F0166E0A0EE15EB8
:1026E0001650F2EC39F00101F951FA110DE0010E2A
:1026F000E66E020EE66E0E0EE66EE66A49EC31F00C
:10270000E552E552E552E55270EC39F001080DE072
:10271000010EE66E020EE66E0E0EE66EE66A49ECFD
:1027200031F0E552E552E552E5520001DA6B300E28
:10273000DB6F020EE66EE66E000EE66EE66AE66E91
:10274000E66AE66EE66A020EE66E0C0E0001D4152D
:10275000E66E010EE66E26EC2DF0E552E552E552EE
:10276000F3CF14F0F4CF15F0F3CFE6FFF4CFE6FF8C
:10277000FBEC03F0166E0A0EE15E1650F2EC39F037
:102780000101F951FA110CE0020EE66EE66E0E0E32
:10279000E66EE66A49EC31F0E552E552E552E55263
:1027A00070EC39F001080CE0020EE66EE66E0E0EDB
:1027B000E66EE66A49EC31F0E552E552E552E55243
:1027C0000001DA6B2F0EDB6F030EE66E020EE66E73
:1027D000000EE66EE66AE66EE66AE66EE66A020EEF
:1027E000E66E0C0E0001D415E66E010EE66E26ECC8
:1027F0002DF0E552E552E552F3CF14F0F4CF15F089
:10280000F3CFE6FFF4CFE6FFFBEC03F0166E0A0E03
:10281000E15E1650F2EC39F00101F951FA110DE0C8
:10282000030EE66E020EE66E0E0EE66EE66A49ECEA
:1028300031F0E552E552E552E55270EC39F001080D
:102840000DE0030EE66E020EE66E0E0EE66EE66A12
:1028500049EC31F0E552E552E552E5520001DA6B00
:102860002E0EDB6F040EE66E020EE66E000EE66EB6
:10287000E66AE66EE66AE66EE66A020EE66E0C0E42
:102880000001D415E66E010EE66E26EC2DF0E55241
:10289000E552E552F3CF14F0F4CF15F0F3CFE6FF95
:1028A000F4CFE6FFFBEC03F0166E0A0EE15E165065
:1028B000F2EC39F00101F951FA110DE0040EE66E67
:1028C000020EE66E0E0EE66EE66A49EC31F0E55257
:1028D000E552E552E55270EC39F001080DE0040EC6
:1028E000E66E020EE66E0E0EE66EE66A49EC31F01A
:1028F000E552E552E552E5520001010EDA6F2D0E68
:10290000DB6F050EE66E020EE66E000EE66EE66A00
:10291000E66EE66AE66EE66A020EE66E0C0E0001F0
:10292000D415E66E010EE66E26EC2DF0E552E5526A
:10293000E552F3CF14F0F4CF15F0F3CFE6FFF4CF68
:10294000E6FFFBEC03F0166E0A0EE15E1650F2ECA9
:1029500039F00101F951FA110DE0050EE66E020E93
:10296000E66E0E0EE66EE66A49EC31F0E552E5528F
:10297000E552E55270EC39F001080DE0050EE66E07
:10298000020EE66E0E0EE66EE66A49EC31F0E55296
:10299000E552E552E5520001DA6B2D0EDB6F060EB3
:1029A000E66E020EE66E000EE66EE66AE66EE66A19
:1029B000E66EE66A020EE66E0C0E0001D415E66EB7
:1029C000010EE66E26EC2DF0E552E552E552F3CF0E
:1029D00014F0F4CF15F0F3CFE6FFF4CFE6FFFBECF5
:1029E00003F0166E0A0EE15E1650F2EC39F0060E98
:1029F0000101F91902E1020EFA190DE0060EE66E68
:102A0000020EE66E0E0EE66EE66A49EC31F0E55215
:102A1000E552E552E55270EC39F001080DE0060E82
:102A2000E66E020EE66E0E0EE66EE66A49EC31F0D8
:102A3000E552E552E552E5520001D96B0201880EDC
:102A4000126F130E136F020EE15C02E2E16AE552AF
:102A5000E16EE552E7CFD9FF1200D9CFE6FFE1CF13
:102A6000D9FFE652DF6A400EE66E30EC29F0E552FF
:102A700040EC18F00A0E0101C46FC56B0101D86B60
:102A8000D96B000EE66EE66AFAEC38F0E552E552D4
:102A9000E80EE66E56EC3CF0E55273EC39F0DF6E72
:102AA000E668030EE66E000EE66EE66AE66EE66A1D
:102AB000E66EE66A010EE66E0C0E0001D415E66EB7
:102AC000010EE66E26EC2DF0E552E552E552F3CF0D
:102AD00014F0F4CF15F0F3CFE6FFF4CFE6FFFBECF4
:102AE00003F0166E0A0EE15E1650F2EC39F0010E9C
:102AF0000101DE1902E1FC0EDF190CE0020EE66EA8
:102B0000E66A1E0EE66EE66A49EC31F0E552E552E1
:102B1000E552E552010E0101F91902E1FC0EFA1924
:102B20000CE0030EE66EE66A1E0EE66EE66A49ECFF
:102B300031F0E552E552E552E55270EC39F0020809
:102B40000CE0040EE66EE66A1E0EE66EE66A49ECDE
:102B500031F0E552E552E552E552000EE66EE66AC6
:102B6000FAEC38F0E552E552E552E552E7CFD9FFED
:102B70001200400EE66E30EC29F0E5520001470EDF
:102B8000D76F810ED86F040EE66E010E0001D415CA
:102B9000E66EE66A26EC2DF0E552E552E552F3CFFB
:102BA00014F0F4CF15F0F3CFE6FFF4CFE6FFC4EC5A
:102BB00003F0E552E55249CFFFF148CFFEF1470E51
:102BC0000101FE1902E1810EFF190CE0010EE66E13
:102BD000E66A160EE66EE66A49EC31F0E552E55219
:102BE000E552E5520F014251E00BE838E840146E1F
:102BF0004151080DF35014100101FD6F0F0EFD152A
:102C000004080BE0E668E668160EE66EE66A49EC34
:102C100031F0E552E552E552E55222EC31F0010186
:102C2000230EF96F010EFA6F030EE66E010E00011E
:102C3000D415E66EE66A26EC2DF0E552E552E55233
:102C4000F3CF14F0F4CF15F0F3CFE6FFF4CFE6FFA7
:102C5000C4EC03F0E552E55249CFFFF148CFFEF155
:102C6000230E0101FE1902E1010EFF190CE0020E14
:102C7000E66EE66A160EE66EE66A49EC31F0E5525B
:102C8000E552E552E5520F014251E00BE838E840C9
:102C9000146E4151080DF35014100101FD6F0F0E19
:102CA000FD1503080CE0FE0EE66EE668160EE66EF5
:102CB000E66A49EC31F0E552E552E552E55222EC84
:102CC00031F00001360EDC6F700EDD6F050EE66E22
:102CD000010E0001D415E66EE66A26EC2DF0E552F1
:102CE000E552E552F3CF14F0F4CF15F0F3CFE6FF41
:102CF000F4CFE6FFC4EC03F0E552E55249CFFFF113
:102D000048CFFEF1360E0101FE1902E1700EFF19E7
:102D10000CE0030EE66EE66A160EE66EE66A49EC15
:102D200031F0E552E552E552E5520F014251E00B18
:102D3000E838E840146E4151080DF35014100101B9
:102D4000FD6F0F0EFD1505080CE0FD0EE66EE66842
:102D5000160EE66EE66A49EC31F0E552E552E552B0
:102D6000E55222EC31F00001250EDE6F690EDF6FB7
:102D7000060EE66E010E0001D415E66EE66A26EC3C
:102D80002DF0E552E552E552F3CF14F0F4CF15F0F3
:102D9000F3CFE6FFF4CFE6FFC4EC03F0E552E552D3
:102DA00049CFFFF148CFFEF1250E0101FE1902E1E6
:102DB000690EFF190CE0040EE66EE66A160EE66E6A
:102DC000E66A49EC31F0E552E552E552E5520F0171
:102DD0004251E00BE838E840146E4151080DF350C1
:102DE00014100101FD6F0F0EFD1506080CE0FC0E1E
:102DF000E66EE668160EE66EE66A49EC31F0E552DC
:102E0000E552E552E55222EC31F00001140EDA6F82
:102E1000580EDB6F070EE66E010E0001D415E66E4C
:102E2000E66A26EC2DF0E552E552E552F3CF14F0B8
:102E3000F4CF15F0F3CFE6FFF4CFE6FFC4EC03F0D8
:102E4000E552E55249CFFFF148CFFEF1140E0101E2
:102E5000FE1902E1580EFF190CE0050EE66EE66A57
:102E6000160EE66EE66A49EC31F0E552E552E5529F
:102E7000E5520F014251E00BE838E840146E415131
:102E8000080DF35014100101FD6F0F0EFD1507081A
:102E90000CE0FB0EE66EE668160EE66EE66A49EC9E
:102EA00031F0E552E552E552E55222EC31F00001F5
:102EB000030EC16F470EC26F080EE66E010E0001D1
:102EC000D415E66EE66A26EC2DF0E552E552E552A1
:102ED000F3CF14F0F4CF15F0F3CFE6FFF4CFE6FF15
:102EE000C4EC03F0E552E55249CFFFF148CFFEF1C3
:102EF000040E0101FE1902E1470EFF190CE0060E57
:102F0000E66EE66A160EE66EE66A49EC31F0E552C8
:102F1000E552E552E5520F014251E00BE838E84036
:102F2000146E4151080DF35014100101FD6F0F0E86
:102F3000FD1508080CE0FA0EE66EE668160EE66E61
:102F4000E66A49EC31F0E552E552E552E55222ECF1
:102F500031F00001920EC36F360EC46F090EE66E9B
:102F6000010E0001D415E66EE66A26EC2DF0E5525E
:102F7000E552E552F3CF14F0F4CF15F0F3CFE6FFAE
:102F8000F4CFE6FFC4EC03F0E552E55249CFFFF180
:102F900048CFFEF1930E0101FE1902E1360EFF1932
:102FA0000CE0070EE66EE66A160EE66EE66A49EC7F
:102FB00031F0E552E552E552E5520F014251E00B86
:102FC000E838E840146E4151080DF3501410010127
:102FD000FD6F0F0EFD1509080CE0F90EE66EE668B0
:102FE000160EE66EE66A49EC31F0E552E552E5521E
:062FF000E55222EF31F072
:0A2FF6000101FF0EC16BB7AF07EF3A
:1030000018F0B61BB71BB62BD8B0B72BC171B9AF30
:1030100010EF18F0B81BB91BB82BD8B0B92BC17181
:10302000B6C1C0F10000B651B803F4CFB5F100004D
:10303000F3CFB4F10000B751B903F4CFB7F10000FA
:10304000F3CFB6F10000B803F350B527F450B62320
:10305000E86AB723C051B903F350B527F450B6233B
:10306000E86AB723C1A13FEF18F0FF0EB41BB51BF0
:10307000B61BB71B000EB42BB523B623B723120023
:10308000D9CFE6FFE1CFD9FFE6520101C26BC36B96
:10309000C46BC56BC66BC76BC86BC96BCA6BCB6B9C
:1030A000CC6BCD6BCE6BD06BD16BD26BD36BD46B47
:1030B000D56BD66BD76BCF6BD86BD96BDA6BDB6B01
:1030C000DE6BDF6B010EE06FDF6A100EDF5C0DE27E
:1030D000EA6ADF34FE0BEA36E96E000EE926010EDD
:1030E000EA22EE6AED6ADF2AF0D70101E16BDF6ABE
:1030F000400EDF5C0DE2EA6ADF34FE0BEA36E96E71
:10310000200EE926010EEA22EE6AED6ADF2AF0D7E8
:103110000101E26BE36BE46BE56BE552E552E7CF4F
:10312000D9FF1200D8C1E8F1D9C1E9F10101DA51A2
:10313000E85FDB51E95BE151E96EEA6AD890E93674
:10314000EA36200EE926010EEA22EE50E85D146E02
:10315000EE50E959156E1450E2271550E323E15162
:10316000E96EEA6AD890E936EA36200EE926010EC1
:10317000EA22E8C1EEFFE9C1EDFFE12B3F0EE117C6
:10318000F65120E0E3BF0DD0E251D45D0101A06F04
:103190000101E351D5590101A16FA1AF02D0010195
:1031A000F66B0101E3AF2DD0D651E25D0101A06FB6
:1031B0000101D751E3590101A16FA1AF22D0010153
:1031C000F66B1FD0E3BF0DD0D051E25D0101A06FBF
:1031D0000101D151E3590101A16FA1AF02D0010159
:1031E000F6690101E3AF0DD0E251D25D0101A06F9C
:1031F0000101E351D3590101A16FA1AF02D0010137
:10320000F6690101F65102E0E86BE96BF55138E02F
:10321000EE510BE1DC51DA19146EDD51DB19156E3C
:10322000E850800B02E0010EEE6FEE5129E0DB3535
:1032300012E2DA510008000EDB550DE2280ED9AF7C
:1032400002D0D89003D0D85D000ED95903E2CF51F7
:1032500012E10DD0EE6B800EDB1512E0D93504E3E0
:10326000D851D808FF0ED9550AE2CF5104E0010E1B
:10327000DE6FFC0E02D0DE69030EDF6F1200EE6B14
:10328000C4C1B6F1C5C1B7F1E8C1B8F1E9C1B9F13E
:10329000B2DEB4C1A6F1B5C1A7F1B6C1A8F1B7C1FC
:1032A000A9F10101E851E627E951E723E7351EE2DC
:1032B000E6510008000EE75519E20A0EE65F000E1F
:1032C000E75B800EE71502E0E66BE76BCB51E71991
:1032D000E8AE02D0E73504D0E651CA5DE751CB59DC
:1032E00024E2CAC1E6F1CBC1E7F11FD0800EE71599
:1032F0001CE00A0EE627000EE723E73507E2E65159
:103300000008000EE75502E2E66BE76BE751CD19C6
:10331000E8AE02D0CD3504D0CC51E65DCD51E759B1
:1033200004E2CCC1E6F1CDC1E7F1C6C1B6F1C7C137
:10333000B7F1E6C1B8F1E7C1B9F15DDEB4C1AEF1F4
:10334000B5C1AFF1B6C1B0F1B7C1B1F1B5C1AEF120
:10335000B6C1AFF1B7C1B0F10101B16BB0BFB16996
:103360000101E051E96EEA6AD890E936EA36000ECA
:10337000E926010EEA22EE50E85D0101B26FEE503F
:103380000101E9590101B36F0101E051E96EEA6AF7
:10339000D890E936EA36000EE926010EEA22E8C1A5
:1033A000EEFFE9C1EDFFE02B0F0EE017B2C1B6F161
:1033B000B3C1B7F1C8C1B8F1C9C1B9F11CDEB4C11C
:1033C000AAF1B5C1ABF1B6C1ACF1B7C1ADF1C2C1A3
:1033D000B6F1C3C1B7F1DAC1B8F1DBC1B9F10BDEA7
:1033E000B4C1A2F1B5C1A3F1B6C1A4F1B7C1A5F1B1
:1033F000A7C1EFF1A8C1F0F1AFC1F1F1B0C1F2F195
:10340000ABC1F3F1ACC1F4F1AA0EE96E010EEA6EA4
:103410000101A651EE24146EA751EE20156EA8519D
:10342000EE20166EA951EE20176EA20EE96E010E67
:10343000EA6EEE50145C0101EA6FEE501558EB6F26
:10344000EE501658EC6FEE501758ED6FEBC1EAF1E5
:10345000ECC1EBF1EC6FED6BECBFED690101AE512E
:103460000101EA270101AF510101EB230101B05134
:103470000101EC230101B1510101ED23ED35000EF5
:10348000ED1909E6D880000EEA55000EEB55000E46
:10349000EC55000EED5509E2030ED890ED33EC33F8
:1034A000EB33EA33E806F9E129D0EAC114F0EBC1C5
:1034B00015F0ECC116F0EDC117F0000E146C151EDE
:1034C0001522161E1622171E1722030ED890173229
:1034D000163215321432E806F9E114C0EAF115C0CB
:1034E000EBF116C0ECF117C0EDF1000E0101EA6D31
:1034F000EB1FEB23EC1FEC23ED1FED230101ED355A
:10350000000EED1909E6D880FF0EEA55030EEB55C3
:10351000000EEC55000EED5506E2EA69030EEB6F66
:10352000EC6BED6B13D0D880ED51FF0A08E6010E6D
:10353000EA5DFC0EEB59FF0EEC59FF0EED5906E269
:10354000010EEA6FFC0EEB6FEC69ED69CF5105E1FE
:10355000EAC1DEF1EBC1DFF11200EAC106F0EBC116
:1035600007F0ECC108F0EDC109F00B680C680D68BC
:103570000E68E0EC3BF002C0DEF103C0DFF11200A8
:103580000101C26B100EC36FC46BC56BC66BC76BFA
:10359000C86BC96BCA6BCB6BCC6BCD6BCE6BCF6B77
:1035A000F60ED86FD9690A0EDA6FDB6BBBDDEC0E55
:1035B0000101DE1902E1FF0EDF190DE0EC0EE66EEF
:1035C000E6680F0EE66EE66A49EC31F0E552E55228
:1035D000E552E55204D00001D52B000ED62301019F
:1035E000D86BD96BDA6BDB6B9DDD0101DE51DF112E
:1035F0000DE0000EE66EE66A0F0EE66EE66A49EC36
:1036000031F0E552E552E552E55204D00001D52BE8
:10361000000ED6230A0E0101D86FD96BF60EDA6FB1
:10362000DB6980DD0101140EDE1901E1DF510DE0DF
:10363000140EE66EE66A0F0EE66EE66A49EC31F0AD
:10364000E552E552E552E55204D00001D52B000EBB
:10365000D6230101D8697F0ED96FDA69DB6F62DD8D
:10366000010E0101DE1902E1FC0EDF190EE0010E70
:10367000E66EFC0EE66E0F0EE66EE66A49EC31F081
:10368000E552E552E552E55204D00001D52B000E7B
:10369000D6230101D8693F0ED96FDA69DB6F42DDAD
:1036A000010E0101DE1902E1FC0EDF190EE0010E30
:1036B000E66EFC0EE66E0F0EE66EE66A49EC31F041
:1036C000E552E552E552E55204D00001D52B000E3B
:1036D000D6230101010ED86FC00ED96F010EDA6F2B
:1036E000C00EDB6F1FDDFF0E0101DE1902E1030ECC
:1036F000DF190DE0E668030EE66E0F0EE66EE66A71
:1037000049EC31F0E552E552E552E55204D00001B2
:10371000D52B000ED6230101010ED86F800ED96F74
:10372000010EDA6F800EDB6FFDDCFF0E0101DE198A
:1037300002E1030EDF190DE0E668030EE66E0F0EE0
:10374000E66EE66A49EC31F0E552E552E552E552A3
:1037500004D00001D52B000ED6230101C2697F0ED3
:10376000C36FF60ED86FD969D00EDA6F070EDB6F14
:10377000D9DC010E0101DE1902E1FC0EDF190EE0B9
:10378000010EE66EFC0EE66E0F0EE66EE66A49EC82
:1037900031F0E552E552E552E55204D00001D52B57
:1037A000000ED6230101F60ED86FD9690A0EDA6F22
:1037B000DB6BB8DC600E0101DE1902E1FF0EDF19E0
:1037C0000DE0600EE66EE6680F0EE66EE66A49EC06
:1037D00031F0E552E552E552E55204D00001D52B17
:1037E000000ED6230101D86BD96BDA6BDB6B9ADC48
:1037F0000101DE51DF110DE0000EE66EE66A0F0EEC
:10380000E66EE66A49EC31F0E552E552E552E552E2
:1038100004D00001D52B000ED6230A0E0101D86F6B
:10382000D96BF60EDA6FDB697DDC01019F0EDE19C4
:1038300001E1DF510DE09F0EE66EE66A0F0EE66EC7
:10384000E66A49EC31F0E552E552E552E55204D022
:103850000001D52B000ED6230101F60ED86FD969D1
:10386000300EDA6FF80EDB6F5DDCFF0E0101DE1942
:1038700002E1030EDF190DE0E668030EE66E0F0E9F
:10388000E66EE66A49EC31F0E552E552E552E55262
:1038900004D00001D52B000ED6230101D8697F0E7C
:1038A000D96FDA69DB6F3EDC010E0101DE1902E13E
:1038B000FC0EDF190EE0010EE66EFC0EE66E0F0E3A
:1038C000E66EE66A49EC31F0E552E552E552E55222
:1038D00004D00001D52B000ED6230101D8693F0E7C
:1038E000D96FDA69DB6F1EDC010E0101DE1902E11E
:1038F000FC0EDF190EE0010EE66EFC0EE66E0F0EFA
:10390000E66EE66A49EC31F0E552E552E552E552E1
:1039100004D00001D52B000ED6230101010ED86F73
:10392000C00ED96F010EDA6FC00EDB6F92EC18F08B
:10393000FF0E0101DE1902E1030EDF190DE0E6685A
:10394000030EE66E0F0EE66EE66A49EC31F0E552C4
:10395000E552E552E55204D00001D52B000ED623E6
:103960000101010ED86F800ED96F010EDA6F800E43
:10397000DB6F92EC18F0FF0E0101DE1902E1030E7D
:10398000DF190DE0E668030EE66E0F0EE66EE66ADE
:1039900049EC31F0E552E552E552E55212000001E2
:1039A000D52B000ED62312000101C26BC36BC46B72
:1039B000F00EC56FC66BC76BC86BC96BCA6BCB6BA0
:1039C000CC6BCD6BCE6BCF6B010ED86FD96BDA6B36
:1039D000DB6B92EC18F0FE0E0101DE1902E1FF0E26
:1039E000DF190DE0FE0EE66EE668100EE66EE66A82
:1039F00049EC31F0E552E552E552E55204D00001C0
:103A0000D52B000ED6230101D86BD96B010EDA6FCE
:103A1000DB6B92EC18F00101020EDE1901E1DF51BF
:103A20000DE0020EE66EE66A100EE66EE66A49ECFE
:103A300031F0E552E552E552E55204D00001D52BB4
:103A4000000ED623020E0101D86FD96BDA6BDB6B47
:103A500092EC18F0FC0E0101DE1902E1FF0EDF19F5
:103A60000DE0FC0EE66EE668100EE66EE66A49ECC6
:103A700031F0E552E552E552E55204D00001D52B74
:103A8000000ED6230101D86BD96B020EDA6FDB6B07
:103A900092EC18F00101040EDE1901E1DF510DE096
:103AA000040EE66EE66A100EE66EE66A49EC31F048
:103AB000E552E552E552E55204D00001D52B000E47
:103AC000D6230101D8697F0ED96FDA6BDB6B92ECDC
:103AD00018F0010E0101DE1902E1FC0EDF190EE003
:103AE000010EE66EFC0EE66E100EE66EE66A49EC1E
:103AF00031F0E552E552E552E55204D00001D52BF4
:103B0000000ED6230101D8693F0ED96FDA6BDB6B4B
:103B100092EC18F0010E0101DE1902E1FC0EDF1932
:103B20000EE0010EE66EFC0EE66E100EE66EE66A24
:103B300049EC31F0E552E552E552E55204D000017E
:103B4000D52B000ED6230101010ED86FC00ED96F00
:103B5000DA6BDB6B92EC18F0FF0E0101DE1902E16B
:103B6000030EDF190DE0E668030EE66E100EE66E3A
:103B7000E66A49EC31F0E552E552E552E55204D0EF
:103B80000001D52B000ED6230101010ED86F800E47
:103B9000D96FDA6BDB6B92EC18F0FF0E0101DE19C6
:103BA00002E1030EDF190DE0E668030EE66E100E6B
:103BB000E66EE66A49EC31F0E552E552E552E5522F
:103BC00004D00001D52B000ED6230101C46B100ECA
:103BD000C56F0A0ED86FD96BDA6FDB6B92EC18F0F9
:103BE0000101DE51DF110DE0000EE66EE66A100EF7
:103BF000E66EE66A49EC31F0E552E552E552E552EF
:103C000004D00001D52B000ED6230101D86BD96B4F
:103C1000DA6BDB6B92EC18F00101DE51DF110DE085
:103C2000000EE66EE66A100EE66EE66A49EC31F0CA
:103C3000E552E552E552E55204D00001D52B000EC5
:103C4000D6230101F60ED86FD969DA6FDB6992ECE1
:103C500018F00101DE51DF110DE0000EE66EE66A9C
:103C6000100EE66EE66A49EC31F0E552E552E55297
:103C7000E55204D00001D52B000ED6230101D869EE
:103C80007F0ED96FDA69DB6F92EC18F00101DE511B
:103C9000DF110DE0000EE66EE66A100EE66EE66AD3
:103CA00049EC31F0E552E552E552E55204D000010D
:103CB000D52B000ED6230101D8693F0ED96FDA69E2
:103CC000DB6F92EC18F00101DE51DF110DE0000E08
:103CD000E66EE66A100EE66EE66A49EC31F0E552F1
:103CE000E552E552E55204D00001D52B000ED62353
:103CF0000101010ED86FC00ED96F010EDA6FC00E30
:103D0000DB6F92EC18F00101DE51DF110DE0000EC7
:103D1000E66EE66A100EE66EE66A49EC31F0E552B0
:103D2000E552E552E55204D00001D52B000ED62312
:103D30000101010ED86F800ED96F010EDA6F800E6F
:103D4000DB6F92EC18F00101DE51DF110DE0000E87
:103D5000E66EE66A100EE66EE66A49EC31F0E55270
:103D6000E552E552E55204D00001D52B000ED623D2
:103D7000010E0101D86FD96BDA6BDB6B92EC18F096
:103D80000101020EDE1901E1DF510DE0020EE66EC7
:103D9000E66A100EE66EE66A49EC31F0E552E5524D
:103DA000E552E55204D00001D52B000ED6230101C7
:103DB000D86BD96B010EDA6FDB6B92EC18F0FE0E4C
:103DC0000101DE1902E1FF0EDF190DE0FE0EE66EC5
:103DD000E668100EE66EE66A49EC31F0E552E5520F
:103DE000E552E55204D00001D52B000ED623020E79
:103DF0000101D86FD96BDA6BDB6B92EC18F0010123
:103E0000040EDE1901E1DF510DE0040EE66EE66AF4
:103E1000100EE66EE66A49EC31F0E552E552E552E5
:103E2000E55204D00001D52B000ED6230101D86B3A
:103E3000D96B020EDA6FDB6B92EC18F0FC0E01010D
:103E4000DE1902E1FF0EDF190DE0FC0EE66EE668FA
:103E5000100EE66EE66A49EC31F0E552E552E552A5
:103E6000E55204D00001D52B000ED6230101D869FC
:103E70007F0ED96FDA6BDB6B92EC18F0FF0E01014D
:103E8000DE1902E1030EDF190DE0E668030EE66EAF
:103E9000100EE66EE66A49EC31F0E552E552E55265
:103EA000E55204D00001D52B000ED6230101D869BC
:103EB0003F0ED96FDA6BDB6B92EC18F0FF0E01014D
:103EC000DE1902E1030EDF190DE0E668030EE66E6F
:103ED000100EE66EE66A49EC31F0E552E552E55225
:103EE000E55204D00001D52B000ED6230101010EAE
:103EF000D86FC00ED96FDA6BDB6B92EC18F0010E45
:103F00000101DE1902E1FC0EDF190EE0010EE66E82
:103F1000FC0EE66E100EE66EE66A49EC31F0E552F4
:103F2000E552E552E55204D00001D52B000ED62310
:103F30000101010ED86F800ED96FDA6BDB6B92EC4A
:103F400018F0010E0101DE1902E1FC0EDF190EE08E
:103F5000010EE66EFC0EE66E100EE66EE66A49ECA9
:103F600031F0E552E552E552E55204D00001D52B7F
:103F7000000ED6230101C46B100EC56F640ED86FFE
:103F8000D96BDA6FDB6B92EC18F00101DE51DF11B7
:103F90000DE0000EE66EE66A100EE66EE66A49EC8B
:103FA00031F0E552E552E552E55204D00001D52B3F
:103FB000000ED6230101D86BD96BDA6BDB6B92EC68
:103FC00018F00101DE51DF110DE0000EE66EE66A29
:103FD000100EE66EE66A49EC31F0E552E552E55224
:103FE000E55204D00001D52B000ED62301019C0E12
:103FF000D86FD969DA6FDB6992EC18F00101DE51F4
:10400000DF110DE0000EE66EE66A100EE66EE66A5F
:1040100049EC31F0E552E552E552E55204D0000199
:10402000D52B000ED6230101D8697F0ED96FDA692E
:10403000DB6F92EC18F00101DE51DF110DE0000E94
:10404000E66EE66A100EE66EE66A49EC31F0E5527D
:10405000E552E552E55204D00001D52B000ED623DF
:104060000101D8693F0ED96FDA69DB6F92EC18F065
:104070000101DE51DF110DE0000EE66EE66A100E62
:10408000E66EE66A49EC31F0E552E552E552E5525A
:1040900004D00001D52B000ED6230101010ED86FEC
:1040A000C00ED96F010EDA6FC00EDB6F92EC18F004
:1040B0000101DE51DF110DE0000EE66EE66A100E22
:1040C000E66EE66A49EC31F0E552E552E552E5521A
:1040D00004D00001D52B000ED6230101010ED86FAC
:1040E000800ED96F010EDA6F800EDB6F92EC18F044
:1040F0000101DE51DF110DE0000EE66EE66A100EE2
:10410000E66EE66A49EC31F0E552E552E552E552D9
:1041100004D00001D52B000ED623010E0101D86F6B
:10412000D96BDA6BDB6B92EC18F00101020EDE1931
:1041300001E1DF510DE0020EE66EE66A100EE66E5A
:10414000E66A49EC31F0E552E552E552E55204D019
:104150000001D52B000ED6230101D86BD96B010EBF
:10416000DA6FDB6B92EC18F0FE0E0101DE1902E152
:10417000FF0EDF190DE0FE0EE66EE668100EE66E2D
:10418000E66A49EC31F0E552E552E552E55204D0D9
:104190000001D52B000ED623020E0101D86FD96B7A
:1041A000DA6BDB6B92EC18F00101040EDE1901E111
:1041B000DF510DE0040EE66EE66A100EE66EE66A6A
:1041C00049EC31F0E552E552E552E55204D00001E8
:1041D000D52B000ED6230101D86BD96B020EDA6FF6
:1041E000DB6B92EC18F0FC0E0101DE1902E1FF0E10
:1041F000DF190DE0FC0EE66EE668100EE66EE66A6C
:1042000049EC31F0E552E552E552E55204D00001A7
:10421000D52B000ED6230101D8697F0ED96FDA6B3A
:10422000DB6B92EC18F0FF0E0101DE1902E1030EC8
:10423000DF190DE0E668030EE66E100EE66EE66A24
:1042400049EC31F0E552E552E552E55204D0000167
:10425000D52B000ED6230101D8693F0ED96FDA6B3A
:10426000DB6B92EC18F0FF0E0101DE1902E1030E88
:10427000DF190DE0E668030EE66E100EE66EE66AE4
:1042800049EC31F0E552E552E552E55204D0000127
:10429000D52B000ED6230101010ED86FC00ED96FA9
:1042A000DA6BDB6B92EC18F0010E0101DE1902E112
:1042B000FC0EDF190EE0010EE66EFC0EE66E100E2F
:1042C000E66EE66A49EC31F0E552E552E552E55218
:1042D00004D00001D52B000ED6230101010ED86FAA
:1042E000800ED96FDA6BDB6B92EC18F0010E0101D6
:1042F000DE1902E1FC0EDF190EE0010EE66EFC0E87
:10430000E66E100EE66EE66A49EC31F0E552E552D3
:10431000E552E55204D00001D52B000ED623010151
:10432000C46B600EC56F0A0ED86FD96BDA6FDB6B8A
:1043300092EC18F00101DE51DF110DE0000EE66E87
:10434000E66A100EE66EE66A49EC31F0E552E55297
:10435000E552E55204D00001D52B000ED623010111
:10436000D86BD96BDA6BDB6B92EC18F00101DE5184
:10437000DF110DE0000EE66EE66A100EE66EE66AEC
:1043800049EC31F0E552E552E552E55204D0000126
:10439000D52B000ED6230101F60ED86FD969DA6F3E
:1043A000DB6992EC18F00101DE51DF110DE0000E27
:1043B000E66EE66A100EE66EE66A49EC31F0E5520A
:1043C000E552E552E55204D00001D52B000ED6236C
:1043D0000101D8697F0ED96FDA69DB6F92EC18F0B2
:1043E0000101DE51DF110DE0000EE66EE66A100EEF
:1043F000E66EE66A49EC31F0E552E552E552E552E7
:1044000004D00001D52B000ED6230101D8693F0E40
:10441000D96FDA69DB6F92EC18F00101DE51DF1120
:104420000DE0000EE66EE66A100EE66EE66A49ECF6
:1044300031F0E552E552E552E55204D00001D52BAA
:10444000000ED6230101010ED86FC00ED96F010EE8
:10445000DA6FC00EDB6F92EC18F00101DE51DF1154
:104460000DE0000EE66EE66A100EE66EE66A49ECB6
:1044700031F0E552E552E552E55204D00001D52B6A
:10448000000ED6230101010ED86F800ED96F010EE8
:10449000DA6F800EDB6F92EC18F00101DE51DF1154
:1044A0000DE0000EE66EE66A100EE66EE66A49EC76
:1044B00031F0E552E552E552E55204D00001D52B2A
:1044C000000ED623010E0101D86FD96BDA6BDB6BBE
:1044D00092EC18F001010C0EDE1901E1DF510DE044
:1044E0000C0EE66EE66A100EE66EE66A49EC31F0F6
:1044F000E552E552E552E55204D00001D52B000EFD
:10450000D6230101D86BD96B010EDA6FDB6B92EC0D
:1045100018F0F40E0101DE1902E1FF0EDF190DE0C3
:10452000F40EE66EE668100EE66EE66A49EC31F0CF
:10453000E552E552E552E55204D00001D52B000EBC
:10454000D623020E0101D86FD96BDA6BDB6B92ECCC
:1045500018F00101180EDE1901E1DF510DE0180E0F
:10456000E66EE66A100EE66EE66A49EC31F0E55258
:10457000E552E552E55204D00001D52B000ED623BA
:104580000101D86BD96B020EDA6FDB6B92EC18F07D
:10459000E80E0101DE1902E1FF0EDF190DE0E80E61
:1045A000E66EE668100EE66EE66A49EC31F0E5521A
:1045B000E552E552E55204D00001D52B000ED6237A
:1045C0000101D8697F0ED96FDA6BDB6B92EC18F0C2
:1045D000FF0E0101DE1902E1030EDF190DE0E668AE
:1045E000030EE66E100EE66EE66A49EC31F0E55217
:1045F000E552E552E55204D00001D52B000ED6233A
:104600000101D8693F0ED96FDA6BDB6B92EC18F0C1
:10461000FF0E0101DE1902E1030EDF190DE0E6686D
:10462000030EE66E100EE66EE66A49EC31F0E552D6
:10463000E552E552E55204D00001D52B000ED623F9
:104640000101010ED86FC00ED96FDA6BDB6B92ECF3
:1046500018F0010E0101DE1902E1FC0EDF190EE077
:10466000010EE66EFC0EE66E100EE66EE66A49EC92
:1046700031F0E552E552E552E55204D00001D52B68
:10468000000ED6230101010ED86F800ED96FDA6BB0
:10469000DB6B92EC18F0010E0101DE1902E1FC0E59
:1046A000DF190EE0010EE66EFC0EE66E100EE66EF1
:1046B000E66A49EC31F0E552E552E552E552120066
:1046C0000001D52B000ED6231200D9CFE6FFE1CF93
:1046D000D9FF020EE1260101C26BC36BC46BC56B2F
:1046E000C66B100EC76FC86BC96B050ECA6FCB6B5C
:1046F000CC6BCD6BCE6BCF6B0A0ED86FD96BDA6FEC
:10470000DB6B92EC18F00101DE51DF110DE0000EC1
:10471000E66EE66A110EE66EE66A49EC31F0E552A5
:10472000E552E552E55204D00001D52B000ED62308
:104730000101D86BD96BDA6BDB6B92EC18F00101DD
:10474000DE51DF110DE0000EE66EE66A110EE66E38
:10475000E66A49EC31F0E552E552E552E55204D003
:104760000001D52B000ED6230101F60ED86FD969B2
:10477000DA6FDB6992EC18F00101DE51DF110DE018
:10478000000EE66EE66A110EE66EE66A49EC31F05E
:10479000E552E552E552E55204D00001D52B000E5A
:1047A000D6230101D8697F0ED96FDA69DB6F92ECED
:1047B00018F00101DE51DF110DE0000EE66EE66A31
:1047C000110EE66EE66A49EC31F0E552E552E5522B
:1047D000E55204D00001D52B000ED6230101D86983
:1047E0003F0ED96FDA69DB6F92EC18F00101DE51F0
:1047F000DF110DE0000EE66EE66A110EE66EE66A67
:1048000049EC31F0E552E552E552E55204D00001A1
:10481000D52B000ED6230101010ED86FC00ED96F23
:10482000010EDA6FC00EDB6F92EC18F00101DE5161
:10483000DF110DE0000EE66EE66A110EE66EE66A26
:1048400049EC31F0E552E552E552E55204D0000161
:10485000D52B000ED6230101010ED86F800ED96F23
:10486000010EDA6F800EDB6F92EC18F00101DE5161
:10487000DF110DE0000EE66EE66A110EE66EE66AE6
:1048800049EC31F0E552E552E552E55204D0000121
:10489000D52B000ED623010E0101D86FD96BDA6B30
:1048A000DB6B92EC18F00101020EDE1901E1DF5121
:1048B0000DE0020EE66EE66A110EE66EE66A49EC5F
:1048C00031F0E552E552E552E55204D00001D52B16
:1048D000000ED623010E0101D86FD96BDA6BDB6BAA
:1048E00092EC18F00101040EDE1901E1DF510DE038
:1048F000040EE66EE66A110EE66EE66A49EC31F0E9
:10490000E552E552E552E55204D00001D52B000EE8
:10491000D623010E0101D86FD96BDA6BDB6B92ECF9
:1049200018F00101060EDE1901E1DF510DE0060E5F
:10493000E66EE66A110EE66EE66A49EC31F0E55283
:10494000E552E552E55204D00001D52B000ED623E6
:10495000010E0101D86FD96BDA6BDB6B92EC18F0AA
:104960000101080EDE1901E1DF510DE0080EE66ECF
:10497000E66A110EE66EE66A49EC31F0E552E55260
:10498000E552E55204D00001D52B000ED623010ECE
:104990000101D86FD96BDA6BDB6B92EC18F0010177
:1049A0000A0EDE1901E1DF510DE00A0EE66EE66A3D
:1049B000110EE66EE66A49EC31F0E552E552E55239
:1049C000E55204D00001D52B000ED623010E0101C3
:1049D000D86FD96BDA6BDB6B92EC18F001010A0E21
:1049E000DE1901E1DF510DE00A0EE66EE66A110EF6
:1049F000E66EE66A49EC31F0E552E552E552E552E1
:104A000004D00001D52B000ED623010E0101D86F72
:104A1000D96BDA6BDB6B92EC18F001010A0EDE1930
:104A200001E1DF510DE00A0EE66EE66A110EE66E58
:104A3000E66A49EC31F0E552E552E552E55204D020
:104A40000001D52B000ED623080E0101C66FC76BDF
:104A5000CA693F0ECB6FE66BE76BD86B100ED96F50
:104A6000DA6BDB6B92EC18F00101100EDE1901E13C
:104A7000DF510DE0100EE66EE66A110EE66EE66A94
:104A800049EC31F0E552E552E552E55204D000011F
:104A9000D52B000ED6230101D86B100ED96FDA6B1F
:104AA000DB6B92EC18F00101200EDE1901E1DF5101
:104AB0000DE0200EE66EE66A110EE66EE66A49EC3F
:104AC00031F0E552E552E552E55204D00001D52B14
:104AD000000ED6230101D86B100ED96FDA6BDB6B99
:104AE00092EC18F00101300EDE1901E1DF510DE00A
:104AF000300EE66EE66A110EE66EE66A49EC31F0BB
:104B0000E552E552E552E55204D00001D52B000EE6
:104B1000D6230101D86B100ED96FDA6BDB6B92ECE8
:104B200018F001013F0EDE1901E1DF510DE03F0EEB
:104B3000E66EE66A110EE66EE66A49EC31F0E55281
:104B4000E552E552E55204D00001D52B000ED623E4
:104B50000101D86B100ED96FDA6BDB6B92EC18F099
:104B600001013F0EDE1901E1DF510DE03F0EE66E5F
:104B7000E66A110EE66EE66A49EC31F0E552E5525E
:104B8000E552E55204D00001D52B000ED623020ECB
:104B9000E15C02E2E16AE552E16EE552E7CFD9FF5E
:104BA000120040EC18F00101C26BC36BC46BC56B03
:104BB000C66BC76BC86B080EC96FCA6BCB6BCC6B6F
:104BC000CD6BCE6BCF6B010ED86FD96BDA6BDB6B15
:104BD00092EC18F00101010EDE1901E1DF510DE048
:104BE000010EE66EE66A130EE66EE66A49EC31F0F7
:104BF000E552E552E552E55204D00001D52B000EF6
:104C0000D623020E0101D86FD96BDA6BDB6B92EC05
:104C100018F00101020EDE1901E1DF510DE0020E74
:104C2000E66EE66A130EE66EE66A49EC31F0E5528E
:104C3000E552E552E55204D00001D52B000ED623F3
:104C4000030E0101D86FD96BDA6BDB6B92EC18F0B5
:104C50000101030EDE1901E1DF510DE0030EE66EE6
:104C6000E66A130EE66EE66A49EC31F0E552E5526B
:104C7000E552E55204D00001D52B000ED623040ED8
:104C80000101D86FD96BDA6BDB6B92EC18F0010184
:104C9000040EDE1901E1DF510DE0040EE66EE66A56
:104CA000130EE66EE66A49EC31F0E552E552E55244
:104CB000E55204D00001D52B000ED623050E0101CC
:104CC000D86FD96BDA6BDB6B92EC18F00101050E33
:104CD000DE1901E1DF510DE0050EE66EE66A130E06
:104CE000E66EE66A49EC31F0E552E552E552E552EE
:104CF00004D00001D52B000ED623060E0101D86F7B
:104D0000D96BDA6BDB6B92EC18F00101060EDE1941
:104D100001E1DF510DE0060EE66EE66A130EE66E67
:104D2000E66A49EC31F0E552E552E552E55204D02D
:104D30000001D52B000ED623070E0101D86FD96BC9
:104D4000DA6BDB6B92EC18F00101070EDE1901E162
:104D5000DF510DE0070EE66EE66A130EE66EE66AB8
:104D600049EC31F0E552E552E552E55204D000013C
:104D7000D52B000ED623080E0101D86FD96BDA6B44
:104D8000DB6B92EC18F00101080EDE1901E1DF5136
:104D90000DE0080EE66EE66A130EE66EE66A49EC72
:104DA00031F0E552E552E552E55204D00001D52B31
:104DB000000ED623090E0101D86FD96BDA6BDB6BBD
:104DC00092EC18F00101090EDE1901E1DF510DE04E
:104DD000090EE66EE66A130EE66EE66A49EC31F0FD
:104DE000E552E552E552E55204D00001D52B000E04
:104DF000D6230A0E0101D86FD96BDA6BDB6B92EC0C
:104E000018F001010A0EDE1901E1DF510DE00A0E72
:104E1000E66EE66A130EE66EE66A49EC31F0E5529C
:104E2000E552E552E55204D00001D52B000ED62301
:104E30000B0E0101D86FD96BDA6BDB6B92EC18F0BB
:104E400001010B0EDE1901E1DF510DE00B0EE66EE4
:104E5000E66A130EE66EE66A49EC31F0E552E55279
:104E6000E552E55204D00001D52B000ED6230C0EDE
:104E70000101D86FD96BDA6BDB6B92EC18F0010192
:104E80000C0EDE1901E1DF510DE00C0EE66EE66A54
:104E9000130EE66EE66A49EC31F0E552E552E55252
:104EA000E55204D00001D52B000ED6230D0E0101D2
:104EB000D86FD96BDA6BDB6B92EC18F001010D0E39
:104EC000DE1901E1DF510DE00D0EE66EE66A130E0C
:104ED000E66EE66A49EC31F0E552E552E552E552FC
:104EE00004D00001D52B000ED6230E0E0101D86F81
:104EF000D96BDA6BDB6B92EC18F001010E0EDE1948
:104F000001E1DF510DE00E0EE66EE66A130EE66E6D
:104F1000E66A49EC31F0E552E552E552E55204D03B
:104F20000001D52B000ED6230F0E0101D86FD96BCF
:104F3000DA6BDB6B92EC18F001010F0EDE1901E168
:104F4000DF510DE00F0EE66EE66A130EE66EE66ABE
:104F500049EC31F0E552E552E552E55204D000014A
:104F6000D52B000ED623100E0101D86FD96BDA6B4A
:104F7000DB6B92EC18F00101100EDE1901E1DF513C
:104F80000DE0100EE66EE66A130EE66EE66A49EC78
:104F900031F0E552E552E552E55204D00001D52B3F
:104FA000000ED623110E0101D86FD96BDA6BDB6BC3
:104FB00092EC18F00101100EDE1901E1DF510DE055
:104FC000100EE66EE66A130EE66EE66A49EC31F004
:104FD000E552E552E552E55204D00001D52B000E12
:104FE000D6230101C86B400EC96F120ED86FD96B62
:104FF000DA6BDB6B92EC18F00101800EDE1901E137
:10500000DF510DE0800EE66EE66A120EE66EE66A8D
:1050100049EC31F0E552E552E552E55204D0000189
:10502000D52B000ED623130E0101D86FD96BDA6B86
:10503000DB6B92EC18F00101800EDE1901E1DF510B
:105040000DE0800EE66EE66A120EE66EE66A49EC48
:1050500031F0E552E552E552E55204D00001D52B7E
:10506000000ED6230101C8697F0EC96F140ED86FD8
:10507000D96BDA6BDB6B92EC18F00101FF0EDE19D5
:1050800001E1DF510DE0FF0EE66EE66A120EE66EFC
:10509000E66A49EC31F0E552E552E552E55204D0BA
:1050A0000001D52B000ED623150E0101D86FD96B48
:1050B000DA6BDB6B92EC18F00101FF0EDE1901E1F7
:1050C000DF510DE0FF0EE66EE66A120EE66EE66A4E
:1050D00049EC31F0E552E552E552E552120000018B
:1050E000D52B000ED6231200D9CFE6FFE1CFD9FF92
:1050F000020EE12640EC18F00101100ECE6FE850D0
:10510000D06FD16B060ED890D037D137E806FBE1CF
:105110000101CE51D46FD56BCEC1D5F1D46BD0C1C6
:10512000D2F1D1C1D3F1D26DD31F000ED323D4C19C
:10513000D6F1CEC1D7F1D66DD71FD723DA6BDB6B93
:10514000E20ED86FD969DE6ADD6ADECF14F0DDCFFA
:1051500015F0400E145C000E15581BE2DECFE9FF7F
:10516000DDCFEAFF010ED890E936EA36E806FBE12A
:10517000200EE926010EEA22E20EEE6EED681E0E0A
:105180000101E25F000EE35BDF2A010EDEE3DB2AB2
:10519000DCD7DE6ADD6ADECF14F0DDCF15F0900ECD
:1051A000145C010E15580BE20101D82B000ED92317
:1051B00092EC18F0DF2A010EEEE3DB2AECD7020EA8
:1051C000E15C02E2E16AE552E16EE552E7CFD9FF28
:0A51D00012000101010EF56F12003C
:0651DA00E66A8AEC38F0E1
:1051E000E5520001D46FE850090803E20001D883BA
:1051F00002D00001D893020EE66E9AEC38F0E55228
:10520000F3CF88F0F4CF89F0040EE66E9AEC38F014
:10521000E552F3CF84F0F4CF85F0060EE66E9AECFB
:1052200038F0E552F3CF86F0F4CF87F0080EE66E43
:105230009AEC38F0E552F3CF80F0F4CF81F00A0E0B
:10524000E66E9AEC38F0E552F3CF82F0F4CF83F0BB
:105250000C0EE66E9AEC38F0E552F3CF8AF01200AD
:10526000D9CFE6FFE1CFD9FFE00E6E14146EFE0E2B
:10527000DB50145C04E0FE0EDB506F6EF5D7609ED1
:105280000F01509FE552E7CFD9FF1200800EE66E66
:10529000E7DFE552400E706EEE0E716E850E726E97
:1052A000776A0F01200E506F240E606E200E736E11
:1052B000A36A9394E66AD4DFE55212000001D45148
:1052C0000401006F016B050ED89000370137E80626
:1052D000FBE1200E040100150001C56FC66B800EB6
:1052E000040100150001C76F010E04010115000142
:1052F000C86F000EC727020EC8230A0E040100253E
:105300000001C96F060E040101210001CA6FF00EF1
:10531000CB6F070ECC6FCD69CE6FE00E6E14800898
:1053200003E0800E6F6EF9D7C5C014F0050ED8905B
:105330001436E804FCE114C001FFC5C014F0C6C077
:1053400015F0030ED89015321432E804FBE114C0B6
:1053500000FFC7C014F0050ED8901436E804FCE135
:1053600014C005FFC7C014F0C8C015F0030ED890D4
:1053700015321432E804FBE114C004FFCBC014F072
:10538000050ED8901436E804FCE114C019FFCBC018
:1053900014F0CCC015F0030ED89015321432E80486
:1053A000FBE114C018FFC9C014F0050ED8901436E4
:1053B000E804FCE114C009FFC9C014F0050ED89040
:1053C0001436E804FCE114C00DFFC9C014F0050E4A
:1053D000D8901436E804FCE114C011FFC9C014F0E1
:1053E000050ED8901436E804FCE114C015FFC9C0BE
:1053F00014F0CAC015F0030ED89015321432E80428
:10540000FBE114C008FFC9C014F0CAC015F0030EB8
:10541000D89015321432E804FBE114C00CFFC9C067
:1054200014F0CAC015F0030ED89015321432E804F7
:10543000FBE114C010FFC9C014F0CAC015F0030E80
:10544000D89015321432E804FBE114C014FFCDC02B
:1054500014F0050ED8901436E804FCE114C01DFFCA
:10546000CDC014F0CEC015F0030ED8901532143212
:10547000E804FBE114C01CFFE00E6E1402E06F6A4A
:10548000FBD71200AADE02DF19DF0001040EA06FB5
:1054900012000F0150516010800B1200D1EC30F05F
:1054A0000F01409796C014F0050ED8901436E8040A
:1054B000FCE114500F01426F96C014F097C015F034
:1054C000030ED89015321432E804FBE114500F019A
:1054D000416FA0C045FF98C046FF99C047FF9AC0E2
:1054E00048FF9BC049FF9CC04AFF9DC04BFF9EC028
:1054F0004CFF9FC04DFF40870001C32B000EC4230B
:10550000120060AE30D0D1EC30F0615000018B6FF2
:105510008C6B030ED8908B378C37E806FBE162501A
:10552000E00BE838E840156AE85000018B1315508D
:105530008C1365CF95F0955110E066CF8DF067CF55
:105540008EF068CF8FF069CF90F06ACF91F06BCF7B
:1055500092F06CCF93F06DCF94F0609E0001C12B60
:10556000000EC22312000F0150AF2FD0D1EC30F04B
:105570000F01515100018B6F8C6B030ED8908B374C
:105580008C37E806FBE10F015251E00BE838E840A8
:10559000156AE85000018B1315508C1355CF95F008
:1055A00056CF8DF057CF8EF058CF8FF059CF90F067
:1055B0005ACF91F05BCF92F05CCF93F05DCF94F037
:1055C0000F01509F0001C12BC22312000001CF2BFD
:1055D000000ED023100ED880CF55000ED05502E219
:1055E000CF6BD06B100ECF1901E1D05101E196D0F5
:1055F0000F0ECF1901E1D05101E18BD00E0ECF1962
:1056000001E1D05101E17ED00D0ECF1901E1D05161
:1056100074E00C0ECF1901E1D0516AE00B0ECF19E6
:1056200001E1D05160E00A0ECF1901E1D05156E0FE
:10563000090ECF1901E1D0514CE0080ECF1901E15C
:10564000D05142E0070ECF1901E1D05138E0060EEB
:10565000CF1901E1D0512EE0050ECF1901E1D05153
:1056600024E0040ECF1901E1D0511AE0030ECF1946
:1056700001E1D05113E0020ECF1901E1D0510AE04F
:10568000010ECF1901E1D05105E0CF5101E1D05118
:1056900005E012008A0ED16F070E3ED0D16B42D0CA
:1056A00084C0D1F085C0D2F0120086C0D1F087C08E
:1056B000D2F0120088C0D1F089C0D2F0120080C0B0
:1056C000D1F081C0D2F0120082C0D1F083C0D2F0FC
:1056D0001200C2C1D1F0C3C1D2F01200C4C1D1F0D6
:1056E000C5C1D2F01200C6C1D1F0C7C1D2F01200BC
:1056F000CAC1D1F0CBC1D2F01200C8C1D1F0C9C12A
:10570000D2F012000101CF51000EF3500101CE1171
:1057100007D0880ED16F130ED26F120000018A518C
:105720000001D16FD26B12000F0E00018B15040126
:105730000E6F0F014097E8500F0A01E19ED0010A59
:1057400001E192D0030A01E186D0010A01E17AD099
:10575000070A6FE0010A64E0030A59E0010A4EE01B
:105760000F0A43E0010A38E0030A2DE0010A22E0B3
:10577000070A17E0010A0CE0030A01E086D0FAC02C
:1057800046FFFBC047FFF6C048FFF7C049FF7DD08A
:10579000FAC046FFFBC047FFF8C048FFF9C049FF09
:1057A00074D0FAC046FFFBC047FFF9C148FFFAC1F9
:1057B00049FF6BD0FAC046FFFBC047FFD7C048FF88
:1057C000D8C049FF62D0FAC046FFFBC047FFDCC02B
:1057D00048FFDDC049FF59D0FAC046FFFBC047FF74
:1057E000DEC048FFDFC049FF50D0FAC046FFFBC013
:1057F00047FFDAC048FFDBC049FF47D0FAC046FF89
:10580000FBC047FFC1C048FFC2C049FF3ED0FAC03D
:1058100046FFFBC047FFC3C048FFC4C049FF35D0A7
:10582000CFC046FFD0C047FFD1C048FFD2C049FF1C
:105830002CD01AC246FF1BC247FF1CC248FF1DC224
:1058400049FF23D0FAC046FFFBC047FF76CF48FF91
:1058500075CF49FF1AD0FAC046FFFBC047FFEFC122
:1058600048FFF0C149FF11D0FAC046FFFBC047FF17
:10587000F1C148FFF2C149FF08D0FAC046FFFBC0A2
:1058800047FFF3C148FFF4C149FF040E456F000113
:10589000D451040DF3CF41FF0F01426B418F61B032
:1058A000418162CF42FF0001C32B000EC4230F01D0
:1058B00040870A0E04010E5D01E188DE1200D9CF97
:1058C000E6FFE1CFD9FF040EE1260F0E00018B1594
:1058D000DF6E030E0001D415E76E010EE7CFDBFF8C
:1058E000010EEA6ADB34FE0BEA36E96E8D0EE9261C
:1058F000000EEA22020EEECFDBFF030EEDCFDBFF40
:10590000DF50030A1EE0010A11E0030A04E0010A65
:1059100001E049D056D0020EDBCFE6FF030EDBCF0D
:10592000E6FFD6EC30F0E552E5524BD0020EDBCF6D
:10593000E6FF030EDBCFE6FFEAEC30F0E552E5527E
:1059400040D0020EDBCF14F0030EDBCF15F0000EBB
:105950001416FF0E1516145002E1520E151822E10E
:10596000FF0EE76E020EDBCF16F0030EDBCF17F053
:10597000E7501616176A0001D451186E196A1850AC
:10598000161802E1195017180DE1000EE66EE66ACE
:10599000ADEC3BF0E552E552640EE66E18EC3CF0DF
:1059A000E552FF000ED0020EDBCFE6FF030EDBCF89
:1059B000E6FFDFCFE6FF11EC36F0E552E552E552A7
:1059C00000D0040EE15C02E2E16AE552E16EE552CC
:1059D000E7CFD9FF1200D9CFE6FFE1CFD9FFE652DA
:1059E0000F0E00018B15DF6E0A0EDF5C02E106EC84
:1059F00032F0E552E552E7CFD9FF1200D9CFE6FFEA
:105A0000E1CFD9FFE6520001D35102E0D30701D024
:105A1000808677DD0001060E8C15146E156AD8900D
:105A200014321450DF6EDF50030A0AE0010A09E065
:105A3000030A04E0010A05E177DE03D040DF01D06C
:105A4000CADFE552E552E7CFD9FF1200D9CFE6FF12
:105A5000E1CFD9FF020EE126FE0EDBCF14F0156A6E
:105A600014BE1568030E1416000E151614C015F09A
:105A7000146AD890153614C0DEFF15C0DDFFFD0E88
:105A8000DB50146E156A0F0E1416000E1516050E57
:105A9000D89014361536E804FBE1D9CFE9FFDACF08
:105AA000EAFF1450EE121550ED12FC0EDBCF14F08D
:105AB0000F0E1414DF12DECF14F0DDCF15F014C07A
:105AC000F3FF15C0F4FF020EE15C02E2E16AE55269
:0A5AD000E16EE552E7CFD9FF1200A6
:065ADA00CF0E81169316A9
:105AE0000201810E1E6F0F0E1F6F0201050E206F47
:105AF0007F0EE66EB8EC37F0E552050EE66EEBEC85
:105B000037F0E5520201040E206F7F0EE66EB8EC0E
:105B100037F0E552050EE66EEBEC37F0E55261EF3B
:105B20002EF0C9EC39F0E66A76EC39F0E552020164
:105B30002751281106E0FF0E271907E10F0E28193B
:105B400004E1E66A76EC39F0E552020127512811AA
:105B500006E1FF0E271902E10F0E28190AE027C2FD
:105B6000F2F028C2F3F00001FF0ED880F2570F0EBA
:105B7000F357010EE66E76EC39F0E552020127513B
:105B8000281106E0FF0E271908E10F0E281905E17C
:105B9000010EE66E76EC39F0E5520201275128112C
:105BA00006E1FF0E271902E10F0E28190AE027C2AD
:105BB000F4F028C2F5F00001FF0ED880F4570F0E64
:105BC000F5570001E4510001F25DF66F0001E55167
:105BD0000001F359F76F0001E6510001F45DF86F21
:105BE0000001E7510001F559F96FF851F65DFA6FC0
:105BF000F951F759FB6FF651F825FC6FF751F92170
:105C0000FD6F000EFC5F020EFD5B1200D9CFE6FFB8
:105C1000E1CFD9FF010EF36EFE0EDB5004E0D89009
:105C2000F336E806FCE1F3500401016F026B036BED
:105C3000046B056B006B0151005D13E272DF000124
:105C4000F251040102270001F35104010323000172
:105C5000F451040104270001F55104010523002B30
:105C6000EAD7FE0EDB500F0B05E0D890033302336A
:105C7000E806FBE1FE0EDB500F0B040105E0D890B7
:105C800005330433E806FBE102C4F2F003C4F3F089
:105C900004C4F4F005C4F5F00001F851F65DFA6FA4
:105CA000F951F759FB6FF651F825FC6FF751F921BF
:105CB000FD6F000EFC5F020EFD5BE552E7CFD9FFE2
:105CC0001200D9CFE6FFE1CFD9FF050EE126800E05
:105CD000DF6E010EDB6A020EDB6A030EDB6A040E66
:105CE000DB6ADF5046E0010EDB50DF10E76E030E8B
:105CF000E7CFDBFF020EDB50DF10E76E040EE7CFCD
:105D0000DBFF0201050E206F030EDBCFE6FF1EEC6A
:105D100038F0E5520201040E206FDBCFE6FF1EECE7
:105D200038F0E5520A0EE66E56EC3CF0E552040EF1
:105D3000E66E6CDFE5520001F3350BE2F25100082C
:105D4000010EF35506E2030EDB50E76E010EE7CFBE
:105D5000DBFFF5350BE2F4510008010EF55506E2C4
:105D6000040EDB50E76E020EE7CFDBFFDF90DF4271
:105D7000B8D7F2C0E4F0F3C0E5F0F4C0E6F0F5C047
:105D8000E7F0040EF2C0E8F0F3C0E9F0000A06E024
:105D90000001D890E837E937E804FBE1040EF4C0CD
:105DA000EAF0F5C0EBF0000A06E00001D890EA370F
:105DB000EB37E804FBE1050EE15C02E2E16AE55243
:105DC000E16EE552E7CFD9FF1200D9CFE6FFE1CF70
:105DD000D9FF040EE126F6C0DEFFF7C0DDFF020E9C
:105DE000F8C0DBFF030EF9C0DBFFDECF14F0DDCF20
:105DF00015F0800E151402E0DE6ADD6A020E030E55
:105E0000DBCF15F0800E151404E0020EDB6A030EE2
:105E1000DB6A020EDBCF14F0030EDBCF15F0040EAD
:105E2000D89015321432E804FBE1050E1426000E5A
:105E3000152214500001EE5F1550EF5BDECF14F019
:105E4000DDCF15F0040ED89015321432E804FBE1D2
:105E5000050E1426000E152214500001F05F155097
:105E6000F15BF13504E2F0510008000EF1552DE32D
:105E70007D0EF127320E0001F9AF02D0D89003D089
:105E8000F85D000EF95921E2F93509E2F8510008F0
:105E9000000EF95504E20001EA2B000EEB2300018D
:105EA000800EF91504E00001EA07000EEB5BEAC082
:105EB00014F0EBC015F0040ED89015321432E8043B
:105EC000FBE114C0E6F015C0E7F00001EF3504E295
:105ED000EE510008000EEF552DE37D0EEF27320E38
:105EE0000001F7AF02D0D89003D0F65D000EF7594D
:105EF00021E2F73509E2F6510008000EF75504E2F9
:105F00000001E82B000EE9230001800EF71504E0E4
:105F10000001E807000EE95BE8C014F0E9C015F0E5
:105F2000040ED89015321432E804FBE114C0E4F0FA
:105F300015C0E5F0040EE15C02E2E16AE552E16EB3
:105F4000E552E7CFD9FF1200D9CFE6FFE1CFD9FF65
:105F5000030EE126010EFBC1DBFF020EFCC1DBFFDD
:105F600001012C0EFB6F010EFC6F0A0EDF6EDF507D
:105F7000000824E22C0EE66E010EE66EFAEC38F014
