:020000040000FA
:0604C0007BEF25F01200A5
:0A04C6000B00CB4B000036020000D3
:1004D00002000000C54B0000F7010000060000000C
:1004E000BF4B0000F900000006000000BB4B0000FD
:1004F0002202000004000000B84B00002F020000A0
:1005000003000000AE4B0000180200000A000000CB
:100510009C4B0000D6000000120000009A4B000027
:1005200034020000020000008C4B000000020000BA
:100530000E0000007B4B0000E800000011000000EE
:0C054000464B0000C20100003500000026
:04054C000101FF0E9C
:10055000C16BB7AFB2EF02F0B61BB71BB62BD8B06A
:10056000B72BC171B9AFBBEF02F0B81BB91BB82BE9
:10057000D8B0B92BC171B6C1C0F10000B651B803F3
:10058000F4CFB5F10000F3CFB4F10000B751B903D7
:10059000F4CFB7F10000F3CFB6F10000B803F35089
:1005A000B527F450B623E86AB723C051B903F35016
:1005B000B527F450B623E86AB723C1A1EAEF02F0E9
:1005C000FF0EB41BB51BB61BB71B000EB42BB52317
:1005D000B623B7231200D9CFE6FFE1CFD9FFE65209
:1005E000FCEC0AF0C56B9AEC0AF0D06BD16BD26BC5
:1005F000D36BD46BD56BD66BD76BCF6BBBEC0AF0E0
:10060000DE6BDF6B010EE06FDF6A100EDF5C0DE268
:10061000EA6ADF34FE0BEA36E96E000EE926010EC7
:10062000EA22EE6AED6ADF2AF0D70101E16BDF6AA8
:10063000400EDF5C0BE2EA6ADF34FE0BEA36E96E5D
:100640007BEC0BF0EE6AED6ADF2AF2D70101E26B78
:10065000E36BE46BE56BE552E552E7CFD9FF12009F
:10066000D8C1E8F1D9C1E9F10101DA51E85FDB5104
:10067000E95BD4EC0AF0EE50E85D146EEE50E959F7
:10068000156E1450E2271550E323D4EC0AF0E8C1AC
:10069000EEFFE9C1EDFFE12B3F0EE117F65120E03F
:1006A000E3BF0DD0E251D45D0101A06F0101E35120
:1006B000D5590101A16FA1AF02D00101F66B010173
:1006C000E3AF2DD0D651E25D0101A06F0101D751FA
:1006D000E3590101A16FA1AF22D00101F66B1FD038
:1006E000E3BF0DD0D051E25D0101A06F0101D151F6
:1006F000E3590101A16FA1AF02D00101F669010127
:10070000E3AF0DD0E251D25D0101A06F0101E351D1
:10071000D3590101A16FA1AF02D00101F669010116
:10072000F65102E0E86BE96BF55138E0EE510BE170
:10073000DC51DA19146EDD51DB19156EE850800BAF
:1007400002E0010EEE6FEE5129E0DB3512E2DA51E4
:100750000008000EDB550DE2280ED9AF02D0D8906C
:1007600003D0D85D000ED95903E2CF5112E10DD06C
:10077000EE6B800EDB1512E0D93504E3D851D808B2
:10078000FF0ED9550AE2CF5104E0010EDE6FFC0ED8
:1007900002D0DE69030EDF6F1200EE6BDAC1DCF10E
:1007A000DBC1DDF1C4C1B6F1C5C1B7F1E8C1B8F133
:1007B000E9C1B9F1CBDEB4C1A6F1B5C1A7F1B6C1AB
:1007C000A8F1B7C1A9F10101E851E627E951E723F2
:1007D000E7351EE2E6510008000EE75519E20A0E61
:1007E000E65F000EE75B800EE71502E0E66BE76B65
:1007F000CB51E719E8AE02D0E73504D0E651CA5D27
:10080000E751CB5924E2CAC1E6F1CBC1E7F11FD0D1
:10081000800EE7151CE00A0EE627000EE723E735F9
:1008200007E2E6510008000EE75502E2E66BE76BCF
:10083000E751CD19E8AE02D0CD3504D0CC51E65DFC
:10084000CD51E75904E2CCC1E6F1CDC1E7F1C6C113
:10085000B6F1C7C1B7F1E6C1B8F1E7C1B9F176DECB
:10086000B4C1AEF1B5C1AFF1B6C1B0F1B7C1B1F12C
:10087000B5C1AEF1B6C1AFF1B7C1B0F10101B16B15
:10088000B0BFB169C8EC0AF0EE50E85D0101B26F8B
:10089000EE500101E9590101B36FC8EC0AF0E8C15B
:1008A000EEFFE9C1EDFFE02B0F0EE017B2C1B6F18C
:1008B000B3C1B7F1C8C1B8F1C9C1B9F147DEB4C11C
:1008C000AAF1B5C1ABF1B6C1ACF1B7C1ADF1C2C1CE
:1008D000B6F1C3C1B7F1DAC1B8F1DBC1B9F136DEA7
:1008E000B4C1A2F1B5C1A3F1B6C1A4F1B7C1A5F1DC
:1008F000A7C1EFF1A8C1F0F1AFC1F1F1B0C1F2F1C0
:10090000ABC1F3F1ACC1F4F1AA0EE96E010EEA6ECF
:100910000101A651EE24146EA751EE20156EA851C8
:10092000EE20166EA951EE20176EA20EE96E010E92
:10093000EA6EEE50145C0101EA6FEE501558EB6F51
:10094000EE501658EC6FEE501758ED6FEBC1EAF110
:10095000ECC1EBF1EC6FED6BECBFED690101AE5159
:100960000101EA270101AF510101EB230101B0515F
:100970000101EC230101B1510101ED23ED35000E20
:10098000ED1909E6D880000EEA55000EEB55000E71
:10099000EC55000EED5509E2030ED890ED33EC3323
:1009A000EB33EA33E806F9E129D0EAC114F0EBC1F0
:1009B00015F0ECC116F0EDC117F0000E146C151E09
:1009C0001522161E1622171E1722030ED890173254
:1009D000163215321432E806F9E114C0EAF115C0F6
:1009E000EBF116C0ECF117C0EDF1000E0101EA6D5C
:1009F000EB1FEB23EC1FEC23ED1FED230101ED3585
:100A0000000EED1909E6D880FF0EEA55030EEB55EE
:100A1000000EEC55000EED5506E2EA69030EEB6F91
:100A2000EC6BED6B13D0D880ED51FF0A08E6010E98
:100A3000EA5DFC0EEB59FF0EEC59FF0EED5906E294
:100A4000010EEA6FFC0EEB6FEC69ED69CF5105E129
:100A5000EAC1DEF1EBC1DFF11200EAC106F0EBC141
:100A600007F0ECC108F0EDC109F00B680C680D68E7
:100A70000E68E5EC24F002C0DEF103C0DFF11200E5
:100A80000101C26B100EC36FC46BC56B9AEC0AF008
:100A9000CF6BF60ED86FD9690A0E6CEC0BF0EC0E2A
:100AA0000101DE1902E1FF0EDF1906E0EC0EE66E31
:100AB000E6683EEC0BF002D07FEC0AF03AEC0BF06B
:100AC00005E091EC0AF03EEC0BF002D07FEC0AF06E
:100AD000DCEC0AF0140EDE1901E1DF5106E0140E21
:100AE000E66EE66A3EEC0BF002D07FEC0AF052ECC8
:100AF0000BF0AAEC0AF002E1FC0EDF1903E088EC2F
:100B00000BF002D07FEC0AF056EC0BF0AAEC0AF0E6
:100B100002E1FC0EDF1903E088EC0BF002D07FEC61
:100B20000AF062EC0BF002E1030EDF1903E08BEC3C
:100B30000BF002D07FEC0AF065EC0BF002E1030E43
:100B4000DF1903E08BEC0BF002D07FEC0AF001011F
:100B5000C2697F0EC36FF60ED86FD969D00EDA6FF7
:100B6000070E6EEC0BF002E1FC0EDF1903E088ECDF
:100B70000BF002D07FEC0AF0EEEC0AF00A0E6CECFF
:100B80000BF0600E0101DE1902E1FF0EDF1906E035
:100B9000600EE66EE6683EEC0BF002D07FEC0AF0E9
:100BA0003AEC0BF005E091EC0AF03EEC0BF002D0D1
:100BB0007FEC0AF0DCEC0AF09F0EDE1901E1DF5158
:100BC00006E09F0EE66EE66A3EEC0BF002D07FEC8C
:100BD0000AF0EEEC0AF0300EDA6FF80EB4EC0AF020
:100BE00002E1030EDF1903E08BEC0BF002D07FEC87
:100BF0000AF052EC0BF0AAEC0AF002E1FC0EDF194D
:100C000003E088EC0BF002D07FEC0AF056EC0BF01E
:100C1000AAEC0AF002E1FC0EDF1903E088EC0BF00D
:100C200002D07FEC0AF062EC0BF002E1030EDF1958
:100C300003E08BEC0BF002D07FEC0AF065EC0BF0DC
:100C400002E1030EDF1902E08BEF0BF07FEF0AF0F9
:100C5000FCEC0AF0F00EC56F9AEC0AF0F3EC0AF027
:100C6000FE0E0101DE1902E1FF0EDF1904E0FE0EA7
:100C70001EEC0BF002D07FEC0AF00101A1EC0AF0AF
:100C80000101020EDE1901E1DF5103E068EC0BF017
:100C900002D07FEC0AF0020E010136EC0BF0FC0EE4
:100CA0000101DE1902E1FF0EDF1904E0FC0E1EEC6B
:100CB0000BF002D07FEC0AF0AEEC0AF00101040E5A
:100CC000DE1901E1DF5103E06AEC0BF002D07FECAA
:100CD0000AF052EC0BF021EC0BF002E1FC0EDF19F4
:100CE00003E026EC0BF002D07FEC0AF056EC0BF0A0
:100CF00021EC0BF002E1FC0EDF1903E026EC0BF017
:100D000002D07FEC0AF0A6EC0AF0C00E28EC0BF043
:100D100002E1030EDF1903E02DEC0BF001D0EFDB55
:100D2000A6EC0AF0800E28EC0BF002E1030EDF19AE
:100D300003E02DEC0BF001D0E2DB0101C46B100EDF
:100D4000C56F0A0E41EC0BF003E00EEC0BF001D086
:100D5000D6DB3AEC0BF003E00EEC0BF001D0CFDB6E
:100D60005AEC0BF003E00EEC0BF001D0C8DB96EC74
:100D70000BF003E00EEC0BF001D0C1DB99EC0BF0B3
:100D800003E00EEC0BF001D0BADB1AEC0BF003E041
:100D90000EEC0BF001D0B3DB1CEC0BF003E00EEC1F
:100DA0000BF001D0ACDB010EA6EC0BF001E1DF5142
:100DB00003E068EC0BF001D0A2DB75EC0BF002E174
:100DC000FF0EDF1904E0FE0E1EEC0BF001D097DBE6
:100DD000020EAAEC0BF001E1DF5103E06AEC0BF02C
:100DE00001D08DDBBBDBFC0E0101DE1902E1FF0E41
:100DF000DF1904E0FC0E1EEC0BF001D080DBAEEC42
:100E00000BF002E1030EDF1903E02DEC0BF001D033
:100E100076DBB1EC0BF002E1030EDF1903E02DEC01
:100E20000BF001D06CDB8EEC0BF002E1FC0EDF1955
:100E300003E026EC0BF001D062DB92EC0BF002E158
:100E4000FC0EDF1903E026EC0BF001D058DB0101AA
:100E5000C46B100EC56F640E41EC0BF002E0DEDBDC
:100E600001D04DDB3AEC0BF002E0D8DB01D047DBE0
:100E700001019C0ED86FD969DA6FDB6949DB02E0AA
:100E8000CDDB01D03CDB96EC0BF002E0C7DB01D000
:100E900036DB99EC0BF002E0C1DB01D030DBCADBC2
:100EA00002E0BCDB01D02BDBC7DB02E0B7DB01D00B
:100EB00026DB010EA6EC0BF001E1DF5103E068EC4C
:100EC0000BF001D01CDB75EC0BF002E1FF0EDF191B
:100ED00003E0FE0EB3DB01D012DB020EAAEC0BF036
:100EE00001E1DF5102E0F6DB01D009DB37DBFC0E6C
:100EF0000101DE1902E1FF0EDF1903E0FC0E9EDBAB
:100F000001D0FDDAAEEC0BF002E1030EDF1902E0D6
:100F1000A4DB01D0F4DAB1EC0BF002E1030EDF192F
:100F200002E09BDB01D0EBDAF9DB02E1FC0EDF191A
:100F300002E08CDB01D0E3DAF5DB02E1FC0EDF1925
:100F400002E084DB01D0DBDA0101C46B600EC56F07
:100F50000A0E97DB02E062DB01D0D1DA8BDB02E024
:100F60005DDB01D0CCDAA6DB02E058DB01D0C7DACA
:100F7000DDDB02E053DB01D0C2DADBDB02E04EDB7B
:100F800001D0BDDA57DB02E049DB01D0B8DA54DB2F
:100F900002E044DB01D0B3DA010EB6DA0C0EDE1942
:100FA00001E1DF5106E00C0EE66EE66A100E9EDAF5
:100FB00001D0A5DA0101C5DAF40E0101DE1902E162
:100FC000FF0EDF1903E0F40E39DB01D098DA020ED0
:100FD0009BDA180EDE1901E1DF5106E0180EE66E0D
:100FE000E66A100E83DA01D08ADAB8DAE80E010177
:100FF000DE1902E1FF0EDF1903E0E80E1FDB01D06E
:101000007EDAACDB02E1030EDF1902E026DB01D061
:1010100076DAA7DB02E1030EDF1902E01EDB01D066
:101020006EDA7CDB02E1FC0EDF1902E00FDB01D09F
:1010300066DA78DB02E1FC0EDF1902E026EF0BF046
:101040007FEF0AF0C4DAD8DAC56BC66B100EC76F33
:10105000C86BC96B050ECA6F53DBCF6B0A0E11DB71
:1010600002E000DB01D04BDA05DB02E0FBDA01D065
:1010700046DA20DB02E0F6DA01D041DA57DB02E0A3
:10108000F1DA01D03CDA55DB02E0ECDA01D037DAF4
:10109000D1DA02E0E7DA01D032DACEDA02E0E2DADF
:1010A00001D02DDA0CDB020EDE1901E1DF5104E084
:1010B000ADDA110E1BDA01D022DA01DB040EDE19E3
:1010C00001E1DF5104E0A6DA110E10DA01D017DADF
:1010D000F6DA060EDE1901E1DF5103E0060EA5DAAD
:1010E00001D00DDAECDA080EDE1901E1DF5103E080
:1010F000080E9BDA01D003DA37DB01E1DF5103E0B0
:101100000A0E93DA01D0FBD92FDB01E1DF5103E0B6
:101110000A0E8BDA01D0F3D927DB01E1DF5103E0BE
:101120000A0E83DA01D0EBD9080E0101C66FC76B36
:10113000CA693F0ECB6FE66BE76BD86B100EEED92A
:1011400001010F0EDE1901E1DF5103E00F0E6DDA30
:1011500001D0D5D99CDA1F0EDE1901E1DF5103E081
:101160001F0E63DA01D0CBD992DA2F0EDE1901E11E
:10117000DF5103E02F0E59DA01D0C1D988DA3F0ED2
:10118000DE1901E1DF5103E03F0E4FDA01D0B7D99C
:101190007EDA3F0EDE1901E1DF5103E03F0E45DA52
:1011A00001D0ADD9020EE15C02E2E16AE5521FD244
:1011B000EBEC02F021DAC56BC66BC76BC86B080E8F
:1011C000C96FCA6B9DDA0FDA0101010EDE1901E168
:1011D000DF5103E0010E24DA01D091D9020EB6DA14
:1011E00001E1DF5104E012DA130E80D901D087D972
:1011F000030E8AD9030EDE1901E1DF5103E0030E6D
:101200000FDA01D07CD9040EA5DA01E1DF5104E048
:1012100001DA130E6BD901D072D9050E75D9050EFE
:10122000DE1901E1DF5103E0050EFAD901D067D9DB
:10123000060E6AD9060EDE1901E1DF5103E0060E43
:10124000EFD901D05CD9070E5FD9070EDE1901E195
:10125000DF5103E0070EE4D901D051D9080E54D96B
:10126000080EDE1901E1DF5103E0080ED9D901D0E3
:1012700046D9090E49D9090EDE1901E1DF5103E013
:10128000090ECED901D03BD90A0E3ED90A0EDE197D
:1012900001E1DF5103E00A0EC3D901D030D90FDAE2
:1012A0000B0EDE1901E1DF5103E00B0EB9D901D0BD
:1012B00026D90C0E29D90C0EDE1901E1DF5103E00D
:1012C0000C0EAED901D01BD90D0E1ED90D0EDE1994
:1012D00001E1DF5103E00D0EA3D901D010D90E0EAC
:1012E00013D90E0EDE1901E1DF5103E00E0E98D97D
:1012F00001D005D90F0E08D90F0EDE1901E1DF511B
:1013000003E00F0E8DD901D0FAD8100EFDD8100EC3
:10131000DE1901E1DF5103E0100E82D901D0EFD8D0
:10132000110EF2D8100EDE1901E1DF5103E0100EAC
:1013300077D901D0E4D80101C86B400EC96F120EF5
:1013400095D90101800EDE1901E1DF5103E0800E25
:10135000A4D901D0D4D8130ED7D8800EDE1901E15C
:10136000DF5103E0800E99D901D0C9D80101C869C5
:101370007F0EC96F140E7AD90101FF0EDE1901E14B
:10138000DF5103E0FF0E89D901D0B9D8150EBCD8C2
:10139000FF0EDE1901E1DF5103E0FF0E4DEF0BF010
:1013A0007FEF0AF014D9EBEC02F0EBEC02F0010154
:1013B000C26BC36BE80EC46F030EC56FBBD8CF6B97
:1013C000C0D89C0EDE6EDD681CD9D890155004E69E
:1013D0001E0E145C000E15580FE2DECFD8F1DDCFE3
:1013E000D9F10101F60EDA6FDB6930EC03F00A0E79
:1013F000DE26000EDD22E8D7020EE15C02E2E16AA1
:10140000E552F5D0E4D8EBEC02F00101100ECE6FFE
:10141000E850D06FD16B060ED890D037D137E806A0
:10142000FBE10101CE51D46FD56BCEC1D5F1D46BA8
:10143000D0C1D2F1D1C1D3F1D26DD31F000ED323CD
:10144000D4C1D6F1CEC1D7F1D66DD71FD723DA6B71
:10145000DB6BE20ED86FD969DE6ADD6AD2D8400E46
:10146000145C000E155818E2DECFE9FFDDCFEAFF6D
:10147000010ED890E936EA36E806FBE13CD9E20EE7
:10148000EE6EED681E0E0101E25F000EE35BDF2AE7
:10149000010EE4E3DB2AE2D7DE6ADD6AB2D8900E01
:1014A000145C010E15580BE20101D82B000ED92354
:1014B00030EC03F0DF2A010EF1E3DB2AEFD7020E56
:1014C000E15C02E2E16AE55292D00101010EF56FA2
:1014D00069DF0101F56B40EC05F028EC06F0B2DDA8
:1014E00067DE90DF0101010EF56F1200E66EE66A1D
:1014F000FAEC1EF0E552E552E552E5521200000109
:10150000EA2B000EEB2312000101B0D801011200FA
:1015100030EC03F00101DE51DF111200D96FDA6BFC
:1015200027D1000EE66EE66A1200010EE66EFC0E92
:10153000E66E1200C66BC76BC86BC96BCA6B80EFD7
:101540000BF0D86BD96B010E6CEF0BF00101010EA3
:10155000D86F1200D96FDA696EEF0BF00101D86B0A
:10156000D96B020E6CEF0BF0DB6F30EC03F0FF0E6B
:101570000101DE191200D86BD96BDA6BDB6B12003C
:10158000E668030EE66E1200D96F010EDA6F1200E4
:101590000101E051E96EEA6AD890E936EA36000EB8
:1015A000E926010EEA221200E151E96EEA6AD890BA
:1015B000E936EA367BEF0BF00A0E0101D86FD96BE2
:1015C000F60EDA6FDB6930EC03F001011200D9CFBF
:1015D000E6FFE1CFD9FF020EE12612000101F60E6F
:1015E000D86FD9691200CF6B010E36EF0BF0E16EA8
:1015F000E552E7CFD9FF12000101C26BC36BC46B88
:101600001200DECF14F0DDCF15F01200020EE66EF0
:10161000E66A1200040EE66EE66A120082DF75D0FA
:10162000E66EE66A130E76EF0AF0E66EE66A110ED3
:1016300076EF0AF081D89FD084D89DD0E66EE66818
:1016400064D06CDF010E0101DE1912006EDF5DD087
:1016500065DFFF0E0101DE19120092DF56D0D96F4F
:10166000DA6989D05EDF110E76EF0AF0D86FD96B98
:10167000DA6B7ED001017FDF88EF0AF00F0E76EF84
:101680000AF0D86FD96BDA6FDB6B88EF0AF00101D3
:10169000D86B100E43DF01011200E66EE66A120EEF
:1016A00076EF0AF00101D8697F0E12000101D869B6
:1016B0003F0E120093DFDA6FDB6988EF0AF00B0E42
:1016C00084EF0AF039D8B4EF0AF03BD8B4EF0AF04F
:1016D0009DDF1BD09FDF19D0DA6F4AD0DB6F30EC73
:1016E00003F0010E0101DE19120001012ADFFE0ED6
:1016F0000101DE191200200EE926010EEA22120075
:10170000CB6BCC6BCD6BCE6B1200100E76EF0AF06C
:101710000CDF3EEF0BF034DF3EEF0BF017DFC00EB7
:1017200021EF0BF013DF800E21EF0BF0BBDF2FEF6B
:101730000BF0BCDF2FEF0BF009DFC00E25DFC00E72
:10174000120004DF800E20DF800E1200DDDE020EAC
:10175000DE191200D9DE040EDE191200A3DF28EF15
:101760000BF0A4DF28EF0BF0AADF0A0EDE1912003F
:0C177000DB6B30EF03F0DB6F88EF0AF05A
:04177C009FEC13F0DB
:10178000F7EC12F006E105EC13F0020E66EC12F035
:1017900002D085EC12F036EC15F0020EE15C02E2AC
:1017A000E16AE552E9EF12F09FEC13F0609E0F0141
:1017B000509FF7EC12F008E00001A06B05EC13F06D
:1017C000010E66EC12F002D085EC12F036EC15F04A
:1017D000020EE15C02E2E16AE552E9EF12F050EC40
:1017E00014F0DAEC12F0D3EC1EF0200EE66EE66A8E
:1017F000E0EC12F0220EE66EE66AE0EC12F0200E4B
:10180000E66E010E9CEC12F0600E0CEC13F0300E44
:101810000CEC13F0800EE66E020EE66EE0EC12F0B9
:10182000820EE66E020EE66EE0EC12F0800EE66EC0
:10183000030E9CEC12F0E66A020E9CEC12F0A00E75
:10184000E66E020E9CEC12F0900EE66E020E9CEC20
:1018500012F0EA0EE66E060EE66EE0EC12F0EA0E0C
:10186000E66E070E9CEC12F06A0E71EC13F0AA0EF5
:1018700071EC13F0C20E71EC13F0EE0E71EC13F07C
:10188000E80E71EF13F0D9CFE6FFE1CFD9FF020EDA
:10189000E126100EDE6E270EDD6EDFCF14F0DF06C0
:1018A000010EDBCF15F001E2DB06145015100AE043
:1018B000000000000000000003EC15F0000901E04A
:1018C00002D0EBD700D0020EE15C02E2E16AE55201
:1018D000E16EE552E7CFD9FF1200C4EC13F0A06B24
:1018E000B4EF12F0C4EC13F0040EC8EC12F0B4EF35
:1018F00012F0C4EC13F0080EC8EC12F0F70EDBCFB8
:101900009CF0F80EDBCF9DF0F50EDBCF9EF0F60ECF
:10191000DBCF9FF0B4EF12F00401340E006F120E13
:10192000016F450E026F230E036F560E046F340EC7
:10193000056F670E066F450E076F780E086F560E1F
:10194000096F890E0A6F670E0B6F9A0E0C6F780E77
:101950000D6F37EC1DF040EC13F0A5EC13F0000117
:10196000AF51B01103E185EC12F005D051EC13F04A
:10197000030E66EC12F0A8EC12F003E185EC12F015
:1019800005D051EC13F0030E66EC12F00001EC8D63
:10199000120E5AEC13F0A5EC13F00001120EAF1961
:1019A00005E1B05103E185EC12F002D0A8EC13F090
:1019B000A8EC12F003E185EC12F002D0A8EC13F0D1
:1019C0000001EC8DE668030EDCEC13F0A5EC13F0DF
:1019D000FF0E0001AF1906E1030EB01903E185EC1B
:1019E00012F005D0E668030EE66E66EC12F0A8EC85
:1019F00012F003E185EC12F005D0E668030EE66E06
:101A000066EC12F00001EC9DF40EE66EE6686FECF9
:101A100012F0A5EC13F0F40E0001AF1902E1FF0E75
:101A2000B01903E085EC12F002D0ACEC13F0A8EC96
:101A300012F003E085EC12F002D0ACEC13F00001E0
:101A4000EC9DE66A040EDCEC13F0A5EC13F000014B
:101A5000AF5102E1040EB01903E085EC12F002D0A0
:101A6000B0EC13F0A8EC12F003E085EC12F002D019
:101A7000B0EC13F040EC13F0080E63EC12F0000130
:101A8000B151B21103E185EC12F005D051EC13F025
:101A9000040E66EC12F0A8EC12F003E185EC12F0F3
:101AA00005D051EC13F0040E66EC12F00001EC8D41
:101AB00019EC13F06FEC12F0080E63EC12F0120E3A
:101AC0000001B11906E1160EB21903E185EC12F01E
:101AD00005D019EC13F0040E66EC12F0A8EC12F02D
:101AE00003E185EC12F005D019EC13F0040E66EC5E
:101AF00012F00001EC8DE668E6686FEC12F0080E5B
:101B000063EC12F00001B11D05E1B21D03E185ECAB
:101B100012F005D0E668E668040E66EC12F0A8EC58
:101B200012F003E185EC12F005D0E668E668040ED9
:101B300066EC12F040EC13F0090E63EC12F00001B9
:101B4000B351B41103E185EC12F005D051EC13F060
:101B5000050E66EC12F0A8EC12F003E185EC12F031
:101B600005D051EC13F0050E66EC12F063EC13F0A7
:101B7000090E63EC12F0FF0E0001B31906E17F0EAF
:101B8000B41903E185EC12F005D0BBEC12F0050EA0
:101B900066EC12F0A8EC12F003E185EC12F005D02F
:101BA000BBEC12F0050E66EC12F068EC13F0090EB7
:101BB00063EC12F00001B35102E1800EB41903E0AE
:101BC00085EC12F005D0D6EC12F0050E66EC12F0A2
:101BD000A8EC12F003E085EC12F005D0D6EC12F080
:101BE000050E66EC12F040EC13F00A0E63EC12F0F6
:101BF0000001B551B61103E185EC12F005D051ECAE
:101C000013F0060E66EC12F0A8EC12F003E185EC7E
:101C100012F005D051EC13F0060E66EC12F063ECF6
:101C200013F00A0E63EC12F0FF0E0001B51906E185
:101C30007F0EB61903E185EC12F005D0BBEC12F073
:101C4000060E66EC12F0A8EC12F003E185EC12F03F
:101C500005D0BBEC12F0060E66EC12F068EC13F047
:101C60000A0E63EC12F00001B55102E1800EB619C4
:101C700003E085EC12F005D0D6EC12F0060E66EC0F
:101C800012F0A8EC12F003E085EC12F005D0D6ECCF
:101C900012F0060E66EC12F040EC13F00B0E63EC43
:101CA00012F00001B751B81103E185EC12F005D034
:101CB00051EC13F0070E66EC12F0A8EC12F003E101
:101CC00085EC12F005D051EC13F0070E66EC12F023
:101CD00063EC13F00B0EF7DBFF0E0001B71906E102
:101CE0007F0EB81903E185EC12F004D0BBEC12F0C2
:101CF000070EECDBA8EC12F003E185EC12F004D047
:101D0000BBEC12F0070EE2DB68EC13F00B0EDBDB32
:101D10000001B75102E1800EB81902E0F6DB04D0F1
:101D2000D6EC12F0070ED2DBA8EC12F002E0EDDBED
:101D300004D0D6EC12F0070EC9DB40EC13F0EADB5E
:101D40000001B951BA1102E1E0DB04D051EC13F00B
:101D5000080EBCDBA8EC12F002E1D7DB04D051EC9A
:101D600013F0080EB3DB63EC13F0D4DBFF0E0001BD
:101D7000B91905E17F0EBA1902E1C7DB04D0BBEC4B
:101D800012F0080EA3DBE4DB02E1BFDB03D0F3DBE0
:101D9000080E9CDB68EC13F0BDDB0001B95102E1D9
:101DA000800EBA1902E0B1DB04D0D6EC12F0080EB6
:101DB0008DDBCEDB02E0A9DB03D0F8DB080E86DB8F
:101DC00040EC13F00D0E7FDB0001BB51BC1102E1B2
:101DD0009CDB04D051EC13F0090E78DBB9DB02E197
:101DE00094DB04D051EC13F0090E70DB0001EC8D94
:101DF000E6683F0EB4EC13F0FF0E0001BB1905E1DD
:101E00003F0EBC1902E181DB04D0E6683F0E93EC83
:101E100013F09EDB02E179DB04D0E6683F0E93EC21
:101E200013F00001EC9DE66A400EB4EC13F00001E3
:101E3000BB5102E1400EBC1902E067DB04D0E66A48
:101E4000400E93EC13F084DB02E05FDB04D0E66A23
:101E5000400E93EC13F040EC13F0DFEC13F0BD51A7
:101E6000BE1102E152DB04D051EC13F00A0E2EDB5E
:101E70006FDB02E14ADB04D051EC13F00A0E26DBE3
:101E80000001EC8DE66A010E85EC13F005E1010E10
:101E9000BE1902E13ADB04D0E66A010E97EC13F0BA
:101EA00057DB02E132DB04D0E66A010E97EC13F057
:101EB0000001EC8DFF0E5AEC13F0DFEC13F0FF0E77
:101EC000BD1904E1BE5102E120DB02D0B8EC13F0F1
:101ED0003FDB02E11ADB02D0B8EC13F00001EC9D0D
:101EE000E66A020E85EC13F002E1020EBE1902E072
:101EF0000CDB04D0E66A020E97EC13F029DB02E05B
:101F000004DB04D0E66A020E97EC13F00101010E27
:101F1000FC6F0001AD0EFD6FDE0EFE6F0101AD0E18
:101F2000C26FDE0EC36F0101AD0EC46FDE0EC56F52
:101F30000101AD0EC66FDE0EC76F0101AD0EC86F99
:101F4000DE0EC96F0101AD0ECA6FDE0ECB6F01014F
:101F5000AD0ECC6FDE0ECD6F0101AD0ECE6F010167
:101F6000CF6F010EA7DBF1DB020EA4DB080EABDAAC
:101F7000030EA0DB090EA7DA040E9CDB0A0EA3DA1F
:101F8000050E98DB0B0E9FDA060E94DBC3DA070E04
:101F900091DB0D0E98DAE3EC13F00E0E94DA210EBD
:101FA000E66E430EA6DB04E1FE5102E1010E5FDBAB
:101FB0000101030EC21904E1C35102E1030E57DB14
:101FC0000101040EC41904E1C55102E1040E4FDB06
:101FD0000101050EC61904E1C75102E1050E47DBF8
:101FE0000101060EC81904E1C95102E1060E3FDBEA
:101FF0000101070ECA1904E1CB5102E1070E37DBDC
:10200000F90E0101CC1905E1FF0ECD1902E1080E10
:102010002EDB0101CE5102E1090E29DB0101CF5176
:1020200002E10A0E24DB0001EC51200B01E171DB1F
:10203000850EE66E100E5DDB01E1FE5101E069DB0D
:102040000101030EC21901E1C35102E00D0E0FDBC5
:102050000101040EC41901E1C55102E00E0E07DBB7
:102060000101050EC61901E1C75102E00F0EFFDAAA
:102070000101060EC81901E1C95102E0100EF7DA9C
:102080000101070ECA1901E1CB5102E0110EEFDA8E
:10209000F90E0101CC1902E1FF0ECD1902E0120E7A
:1020A000E6DA0101CE5102E0130EE1DA0101CF516F
:1020B00002E0140EDCDA0001EC51200B01E029DB18
:1020C00037EF1DF060DA020EE12674DA0001010E2E
:1020D000EE6F0001F96BFA6B0001FD69030EFE6FF4
:1020E0000001EF6B190EF06F0201186B320E196FC1
:1020F0006CDA6DDB02E1010EFC1903E066DA0C0E0E
:10210000E5D93DDA03E061DA0C0EE0D9F9DA03E053
:10211000C8DA0C0EDBD933DA03E0C3DA0C0ED6D9F9
:102120008DDA58DB02E1FE0EFC1903E087DA0C0EB3
:10213000CDD96AEC22F0020803E080DA0C0EC6D991
:1021400082DA45DB02E1030EFC1903E07CDA0C0EB7
:10215000BDD915DA03E077DA0C0EB8D9E668FB0EC4
:10216000E66E38DB02E1FC0EFC1901E007DB6AECED
:1021700022F0020801E002DBFED929DB02E1030EB6
:10218000FC1903E0F8D90C0EA1D9F9D903E0F3D971
:102190000C0E9CD95DDA1EDB02E1FC0EFC1903E09B
:1021A00057DA0C0E93D96AEC22F0020803E050DAF9
:1021B0000C0E8CD9010E37DA000903E172DA0D0E2C
:1021C00085D90001EF6B330EF06F0201186B320EF0
:1021D000196F010E0201206F216B02011E6F1F6B30
:1021E000E668E66ED8DA01E078DAC9D901E075DA96
:1021F00087DA03E056DA0E0E69D9C1D903E051DA65
:102200000E0E64D9E2D9C7DA01E067DAB8D901E085
:1022100064DA0001EF6B320EF06FE66A020EE66ED2
:10222000BADA03E0E66A020E86DAA9D903E0E66AC2
:10223000020E81DA0001EF6B310EF06F0EDAABDACD
:1022400003E00BDA0E0E42D99AD903E006DA0E0E3D
:102250003DD90001EF6B300EF06F020EE66EE66EB8
:102260009ADA03E0020EE66E66DA89D903E0020E1E
:10227000E66E61DA0001EF6B2F0EF06FF0D98BDAAA
:1022800003E0EDD90E0E22D97AD903E0E8D90E0E7B
:102290001DD90001EF6B2E0EF06FE3D97CDA03E05D
:1022A000E0D90E0E13D96BD903E0DBD90E0E0ED98F
:1022B0000001010EEF6F2D0EF06FD5D96CDA03E03F
:1022C000D2D90E0E03D95BD903E0CDD90E0EFED8BC
:1022D0000001EF6B2D0EF06FC8D9CED9FAEC22F0C9
:1022E000060E0001FB1902E1020EFC1903E0BDD944
:1022F0000E0EECD844D903E0B8D90E0EE7D8000191
:10230000EE6B0201880E206F130E216F020EE15C4E
:1023100002E2E16AE5525DD136D9E652DF6A4AD976
:10232000EBEC02F00A0E0101C46FC56B0101D86B22
:10233000D96B65D9E80E77D9DF6EE668030E3CDA13
:10234000010EC1D8FAEC22F0010E0101DE1902E102
:10235000FC0EDF1902E0020EE1D9010E0001FB19AB
:1023600002E1FC0EFC1902E0030ED8D96AEC22F05F
:10237000020802E0040ED2D942D9E55208D21AD995
:102380000001470EEC6F810EED6F040EAED8470EC4
:102390000101FE1902E1810EFF1902E0010E85D94B
:1023A000BCD8040804E0E668E668160E8FD8D3ECC3
:1023B0001EF00001230EFB6F010EFC6F030E95D87B
:1023C000230E0101FE1902E1010EFF1902E0020EC7
:1023D0006CD9A3D8030802E0FE0E70D9D3EC1EF02E
:1023E0000001360EF16F700EF26F050E7ED8360EBC
:1023F0000101FE1902E1700EFF1902E0030E55D92A
:102400008CD8050802E0FD0E59D9D3EC1EF000016E
:10241000250EF36F690EF46F060E67D8250E0101C5
:10242000FE1902E1690EFF1902E0040E3ED975D8CB
:10243000060802E0FC0E42D9D3EC1EF00001140E97
:10244000EF6F580EF06F070E50D8140E0101FE19F1
:1024500002E1580EFF1902E0050E27D95ED80708E1
:1024600002E0FB0E2BD9D3EC1EF00001030ED66F59
:10247000470ED76F080E39D8040E0101FE1902E18C
:10248000470EFF1902E0060E10D947D8080802E0EF
:10249000FA0E14D9D3EC1EF00001920ED86F360E4E
:1024A000D96F090E22D8930E0101FE1902E1360EF2
:1024B000FF1902E0070EF9D830D8090802E0F90E3A
:1024C000FDD8D3EF1EF0E66E0C0EDED0E66EE66AA7
:1024D000FAEC1EF0E552E552E552E5521200E1D861
:1024E000E66EE66AE66EE66A1200E66E010E00012E
:1024F000E915E66EE66A52D96DEC0CF0E552E5524C
:1025000049CFFFF148CFFEF112000001EA2B000E87
:10251000EB2312000C0EE66EB7D00F014251E00B18
:10252000E838E840146E4151080DF35014100101D1
:10253000FD6F0F0EFD151200E66ED4EC0BF0E552A8
:10254000E5521200FAEC22F00001FB51FC111200DE
:102550000001EC51400B1200FD0EDBCF96F0FE0E99
:10256000DBCF97F00001120008EC15F043EC0CF003
:10257000A5EC17F00CD1E6687F0EE66E12006AEC4F
:1025800022F001081200D9CFE6FFE1CFD9FF1200F7
:10259000A06FFB0EDBCF98F0FC0EDBCF99F0F90EAD
:1025A000DBCF9AF0FA0EDBCF9BF01200E66A800ECA
:1025B000E66E1200400EE66E26EC14F0E5521200B4
:1025C000BEEC0BF0E552E5521200E668010EE66E35
:1025D0001200E16EDCD0FAEC22F0FF0E0001FB19D4
:1025E0001200FAEC22F0010E0001FB19120008ECB7
:1025F00015F0D3EC1EF003EC15F00009120051D8D1
:102600000DEC22F0E552E5521200FD0EDBCFE6FFA5
:10261000FE0EDBCFE6FF1200E66EE66AD4EC0BF0AE
:10262000E552E5521200E66E5BEC25F0E5526DEFE7
:1026300022F0120EE66E160EE66E1200010EE66E27
:10264000FE0EE66E1200010EE66E040EE66E12003D
:10265000010EE66E800EE66E1200010E46D0030EED
:1026600044D0040E42D0050E40D0060E3ED0E66E99
:10267000E66A0B0E66EF12F032DF020E63EF12F025
:102680000001EC8DE3EF13F00001E915E66E010E99
:10269000E66E84D879EC0CF0166E0A0EE15E1650E8
:1026A0001200000EE66EE66A1200E66EE66A160E8C
:1026B00066EF12F0E66EE66A6FEF12F0E66EE6681D
:1026C000160E66EF12F00001EC8D55DF6FEF12F081
:1026D0000001EC9D6BDF6FEF12F077DF0E0E66EFFF
:1026E00012F0E66E060E9CEF12F0E66E020EE66E3B
:1026F000120062D80F0EE7DE0001010EFD19120074
:1027000062D8020EE0DEA2EF12F056D858D8BD51C2
:1027100012000B0EE66EE66A66EF12F0E66EE66AEF
:102720001E0E66EF12F0E66E090E66EF12F0E66E10
:102730000A0E66EF12F0E66E0E0E66EF12F023DF61
:10274000020EE12609DFA06B1200070E63EF12F004
:10275000120EE66EE66A41D0F40EE66EE6683DD0F3
:10276000E66A040EE66E39D027D80D0E63EF12F03C
:10277000FF0EE66EE66A0A0E66EF12F0E668FB0EE2
:10278000E66E0C0E66EF12F0FEDEACEF12F0E552D4
:10279000E7CFD9FF120070DFA2EF12F0C7EC17F0FD
:1027A000E552E552E552F3CF14F0F4CF15F0F3CF34
:1027B000E6FFF4CFE6FF1200E66E6FEF12F00E0EAA
:1027C00082DE000112008BDEE66EE66A120054DF44
:1027D000EBEF12F051DFF1EF12F0030E66EF12F0A3
:1027E000E66AA6EC21F0E5520001E96FE85009081D
:1027F00003E20001ED8302D00001ED93020E12EC22
:1028000018F0F3CF88F0F4CF89F0040E12EC18F032
:10281000F3CF84F0F4CF85F0060E12EC18F0F3CF6E
:1028200086F0F4CF87F0080E12EC18F0F3CF80F0AA
:10283000F4CF81F00A0E12EC18F0F3CF82F0F4CF4F
:1028400083F00C0EEFDBF3CF8AF012002BEC18F0C4
:10285000E00E6E14146EFE0EDB50145C04E0FE0EEF
:10286000DB506F6EF5D7609E0F01509F30EF18F070
:10287000800EE66EEBDFE552400E706EEE0E716E6E
:10288000850E726E776A0F01200E506F240E606EF7
:10289000200E736EA36A9394E66AD8DFE5521200A5
:1028A0000001E9510401006F016B050ED89000375B
:1028B0000137E806FBE1200E040100150001DA6F84
:1028C000DB6B800E040100150001DC6F010E0401BA
:1028D00001150001DD6F000EDC27020EDD230A0E5C
:1028E000040100250001DE6F060E04010121000134
:1028F000DF6FF00EE06F070EE16FE269E36FE00E4D
:102900006E14800803E0800E6F6EF9D7DAC014F001
:10291000050E93DBFEE114C001FFDAC014F0DBC04A
:1029200015F0030E7ADBFEE114C000FFDCC014F0EA
:10293000050E83DBFEE114C005FFDCC014F0DDC032
:1029400015F0030E6ADBFEE114C004FFE0C014F0D2
:10295000050E73DBFEE114C019FFE0C014F0E1C006
:1029600015F0030E5ADBFEE114C018FFDEC014F0B0
:10297000050E63DBFEE114C009FFDEC014F0050E96
:102980005CDBFEE114C00DFFDEC014F0050E55DB6C
:10299000FEE114C011FFDEC014F0050E4EDBFEE1B7
:1029A00014C015FF44DB39DBFEE114C008FF3FDB38
:1029B00034DBFEE114C00CFF3ADB2FDBFEE114C078
:1029C00010FF35DB2ADBFEE114C014FFE2C014F077
:1029D000050E33DBFEE114C01DFFE2C014F0E3C0BE
:1029E00015F0030E1ADBFEE114C01CFFE00E6E149E
:1029F00002E06F6AFBD71200F3DE3ADF51DF00011D
:102A0000040EA06F12000F0150516010800B1200D5
:102A1000A0EC1EF00F01409796C014F0050E0DDBE0
:102A2000FEE114500F01426F96C014F097C015F0EC
:102A3000030EF3DAFEE114500F01416FA0C045FF11
:102A400098C046FF99C047FF9AC048FF9BC049FF06
:102A50009CC04AFF9DC04BFF9EC04CFF9FC04DFFD6
:102A600040870001D82B000ED923120060AE28D079
:102A7000A0EC1EF0615000018B6F8C6B030ED890A0
:102A80008B378C37E806FBE16250DBDA65CF95F0D7
:102A9000955110E066CF8DF067CF8EF068CF8FF044
:102AA00069CF90F06ACF91F06BCF92F06CCF93F03A
:102AB0006DCF94F0609E0001D62B000ED72312003C
:102AC0000F0150AF27D0A0EC1EF00F0151510001B3
:102AD0008B6F8C6B030ED8908B378C37E806FBE13D
:102AE0000F015251AEDA55CF95F056CF8DF057CF3A
:102AF0008EF058CF8FF059CF90F05ACF91F05BCF36
:102B000092F05CCF93F05DCF94F00F01509F0001E5
:102B1000D62BD72312000001E42B000EE523100E64
:102B2000D880E455000EE55502E2E46BE56B100E2B
:102B3000E41901E1E55101E196D00F0EE41901E13C
:102B4000E55101E18BD00E0EE41901E1E55101E1FF
:102B50007ED00D0EE41901E1E55174E00C0EE4198C
:102B600001E1E5516AE00B0EE41901E1E55160E095
:102B70000A0EE41901E1E55156E0090EE41901E1FC
:102B8000E5514CE0080EE41901E1E55142E0070E81
:102B9000E41901E1E55138E0060EE41901E1E551DF
:102BA0002EE0050EE41901E1E55124E0040EE419DC
:102BB00001E1E5511AE0030EE41901E1E55113E0EA
:102BC000020EE41901E1E5510AE0010EE41901E108
:102BD000E55105E0E45101E1E55105E01200530E35
:102BE000E66F080E3ED0E66B42D084C0E6F085C0AA
:102BF000E7F0120086C0E6F087C0E7F0120088C058
:102C0000E6F089C0E7F0120080C0E6F081C0E7F08E
:102C1000120082C0E6F083C0E7F01200C2C1E6F005
:102C2000C3C1E7F01200C4C1E6F0C5C1E7F012006D
:102C3000C6C1E6F0C7C1E7F01200CAC1E6F0CBC1D9
:102C4000E7F01200C8C1E6F0C9C1E7F012000101C7
:102C5000CF51000EF3500101CE1107D0880EE66F60
:102C6000130EE76F120000018A510001E66FE76B57
:102C700012000F0E00018B1504010E6F0F0140971B
:102C8000E8500F0A76E0010A6EE0030A66E0010AE6
:102C90005EE0070A53E0010A48E0030A40E0010A47
:102CA00038E00F0A30E0010A28E0030A20E0010AB8
:102CB00018E0070A10E0010A08E0030A5FE1A8D95A
:102CC000C5C048FFC6C049FF59D0A2D9C7C048FFF8
:102CD000C8C049FF53D09CD9FBC048FFFCC049FF86
:102CE0004DD096D9ECC048FFEDC049FF47D090D9F0
:102CF000F1C048FFF2C049FF41D08AD9F3C048FF74
:102D0000F4C049FF3BD084D9EFC048FFF0C049FF71
:102D100035D07ED9D6C048FFD7C049FF2FD078D94B
:102D2000D8C048FFD9C049FF29D0E4C046FFE5C05C
:102D300047FFE6C048FFE7C049FF20D022C246FF58
:102D400023C247FF24C248FF25C249FF17D060D9DC
:102D500076CF48FF75CF49FF11D05AD9EFC148FF50
:102D6000F0C149FF0BD054D9F1C148FFF2C149FF6E
:102D700005D04ED9F3C148FFF4C149FF040E456F99
:102D80000001E951040DF3CF41FF0F01426B418F68
:102D900061B0418162CF42FF0001D82B000ED923E0
:102DA0000F0140870A0E04010E5D01E1B4DE12003E
:102DB000D9CFE6FFE1CFD9FF040EE1260F0E0001C7
:102DC0008B15DF6E030E0001E915E76E010EE7CFEC
:102DD000DBFF010EEA6ADB34FE0BEA36E96E8D0E8C
:102DE000E926000EEA22020EEECFDBFF030EEDCF46
:102DF000DBFFDF50040A52E0070A1EE0010A11E07F
:102E0000030A04E0010A01E07BD088D0020EDBCF88
:102E1000E6FF030EDBCFE6FFA5EC1EF0E552E55220
:102E20007DD0020EDBCFE6FF030EDBCFE6FFAFEC7B
:102E30001EF0E552E55272D0020EDBCF14F0030E05
:102E4000DBCF15F0000E1416FF0E1516145002E11C
:102E5000520E151822E1FF0EE76E020EDBCF16F0C0
:102E6000030EDBCF17F0E7501616176A0001E95181
:102E7000186E196A1850161802E1195017180DE14A
:102E8000000EE66EE66AB2EC24F0E552E552640EFE
:102E9000E66E1DEC25F0E552FF0040D0020EDB503F
:102EA000010B03E00101010EF56F020EDB50020B76
:102EB00002E00101F56B020EDB50040B02E064EC52
:102EC0001BF0020EDB50080B02E071EC1BF0020E4F
:102ED000DB50100B02E07DEC1BF0020EDB50200BF0
:102EE00002E08AEC1BF0020EDB50400B02E099EC92
:102EF0001AF0020EDB50800B02E09DEC1DF00ED0AC
:102F0000020EDBCFE6FF030EDBCFE6FFDFCFE6FFEF
:102F100047EC1DF0E552E552E55200D0040EE15CAD
:102F200002E2E16AE552E16EE552E7CFD9FF120015
:102F300092D8E6520F0E00018B15DF6E0A0EDF5C91
:102F400002E1A7EC1FF0E5528BD085D8E6520001D4
:102F5000E85102E0E80701D0808688DD0001060E16
:102F60008C15146E156AD89014321450DF6EDF5031
:102F7000030A0AE0010A09E0030A04E0010A05E184
:102F800078DE03D015DF01D0D3DFE55269D063D8F6
:102F9000020EE126FE0EDBCF14F0156A14BE156892
:102FA000030E1416000E151614C015F0146AD890EE
:102FB000153614C0DEFF15C0DDFFFD0EDB50146EAC
:102FC000156A0F0E1416000E1516050ED89014363D
:102FD0001536E804FBE1D9CFE9FFDACFEAFF145058
:102FE000EE121550ED12FC0EDBCF14F00F0E141480
:102FF000DF12DECF14F0DDCF15F014C0F3FF15C0E3
:10300000F4FF020EE15C02E2E16AE552E16E28D0D3
:10301000C9C046FFCAC047FF1200D890153214320B
:10302000E8041200E66EB0EC21F0E5521200DEC0BA
:1030300014F0DFC015F0030E1200D8901436E80427
:103040001200E00BE838E840156AE85000018B13E5
:1030500015508C131200D9CFE6FFE1CFD9FF120033
:08306000E552E7CFD9FF120091
:08306800CF0E81169316020140
:10307000810E266F0F0E276F0201050E95DB0201F0
:10308000040E92DB2EEF19F086DB040EE126D1EC64
:1030900022F0E66AB6DB06E0FF0E2F1907E10F0EFD
:1030A000301904E1E66A7EEC22F0E55202012F516C
:1030B000301106E1FF0E2F1902E10F0E30190AE060
:1030C0002FC2C1F030C2C2F00001FF0ED880C1573C
:1030D0000F0EC257010EE66E94DB06E0FF0E2F19AD
:1030E00008E10F0E301905E1010EE66E7EEC22F0CC
:1030F000E55202012F51301106E1FF0E2F1902E1B6
:103100000F0E30190AE02FC2C3F030C2C4F0000124
:10311000FF0ED880C3570F0EC457020100510001A3
:10312000C15DC56F020101510001C259C66F0201A4
:1031300002510001C35DC76F020103510001C45970
:10314000C86FE83411E2C7510008000EC8550CE200
:10315000C7C014F0C8C015F0050EE8DAFEE114C0CF
:10316000DEFF15C0DDFF02D0DE6ADD6A0001C63574
:1031700013E2C5510008000EC6550EE2C5C014F09A
:10318000C6C015F0050ED2DAFEE1020E14C0DBFF58
:10319000030E15C0DBFF01D049DBD9CFE9FFDACF41
:1031A000EAFFEE500001C527EE50C623020EDBCF2A
:1031B00008F0030EDBCF09F00850C7270950C823D9
:1031C000CDDA040EE15C02E2E16AE552E16EE8D29A
:1031D000E2DA010EF36EFE0EDB5004E0D890F33617
:1031E000E806FCE1F3500401016F026B036B046B12
:1031F000056B006B0151005D13E246DF0001C15118
:10320000040102270001C251040103230001C3513C
:10321000040104270001C45104010523002BEAD74F
:10322000FE0EDB500F0B05E0D89003330233E806A7
:10323000FBE1FE0EDB500F0B040105E0D8900533D7
:103240000433E806FBE102C4C1F003C4C2F004C4C5
:10325000C3F005C4C4F0000181DAA2D29CDA050EE5
:10326000E126800EDF6E010EDB6AE0DA040EDB6A17
:10327000DF5046E0010EDB50DF10E76E030EE7CFB4
:10328000DBFF020EDB50DF10E76E040EE7CFDBFF43
:103290000201050E286F030EDBCFE6FF37EC21F0AD
:1032A000E5520201040E286FDBCFE6FF37EC21F078
:1032B000E5520A0EE66E5BEC25F0E552040EE66E72
:1032C00087DFE5520001C2350BE2C1510008010E53
:1032D000C25506E2030EDB50E76E010EE7CFDBFFBF
:1032E000C4350BE2C3510008010EC45506E2040EBA
:1032F000DB50E76E020EE7CFDBFFDF90DF42B8D78F
:10330000C1C000F2C2C001F2C3C002F2C4C003F2E5
:10331000040EC1C004F2C2C005F2000A06E00201B8
:10332000D89004370537E804FBE1040EC3C006F269
:10333000C4C007F2000A06E00201D890063707373A
:10334000E804FBE1050EE15C02E2E16AE552E16EB0
:1033500027D221DA040EE126C5C0DEFFC6C0DDFF9C
:10336000020EC7C0DBFF030EC8C0DBFF64DA800EAD
:1033700015140EE060DA060ED89014361536E804FF
:10338000FBE1145002010A5F15500B5BDE6ADD6A37
:10339000020E030EDBCF15F0800E15140DE038DAA7
:1033A000060ED89014361536E804FBE114500201DD
:1033B0000C5F15500D5B3ADA2BDA040EB7D9FEE13B
:1033C000050E1426000E1522145002010A5F155036
:1033D0000B5B31DA040EAAD9FEE1050E1426000EAD
:1033E0001522145002010C5F15500D5B0D3504E2DF
:1033F0000C510008000E0D5529E3400E0C271F0E3E
:103400000D23320E0001C8AF02D0D89003D0C75DA3
:10341000000EC8591BE2C83509E2C7510008000E6A
:10342000C85504E20201062B000E07230001800E9E
:10343000C81504E002010607000E075B06C214F07F
:1034400007C215F0040E72D9FEE1FAD902010B355C
:1034500004E20A510008000E0B5528E3400E0A272B
:103460001F0E0B23320E0001C6AF02D0D89003D03E
:10347000C55D000EC6591AE2C63509E2C5510008FD
:10348000000EC65504E20201042B000E05230001C4
:10349000800EC61504E002010407000E055BA0D9EA
:1034A00045D9FEE114C000F215C001F2040EE15C42
:1034B00002E2E16AE552E16E73D16DD9030EE126B5
:1034C000010EFDC0DBFF020EFEC0DBFF8FD90A0E2E
:1034D000DF6EDF5000080AE22C0EE66E010E4FD9B7
:1034E000D40EE66EFE0E4BD9DF06F3D785D9E80E73
:1034F000E66E030EE66E25EC20F0E552E5528FD91C
:10350000100EDF5C02E217D9FBD76AD90FD9FEE1B2
:1035100057D90CD9FEE194D9010EDBCFFDF0020E94
:10352000DBCFFEF0030EE15C02E2E16AE552E16E00
:1035300037D100012C0ECD6F010ECE6F640ECF6F10
:10354000D06BD16FD26BFDC0D3F0FEC0D4F01200AF
:1035500022D9E6524BD90001D551010A25E0010AD2
:103560003CE1D107000ED25BD151D21136E1CD6DD5
:10357000CE1F000ECE23050ECF5F000ED05BCFC056
:10358000D1F0D0C0D2F0CF51D01108E1CD6BCE6BCD
:10359000010ED56FE80ED16F030ED26FCDC0E6FFDE
:1035A000CEC0E6FF52D919D0D107000ED25BD1515F
:1035B000D21113E134D9100EDF5C02E2BCD8FBD784
:1035C0000FD9B4D8FEE1FCD8B1D8FEE139D9000159
:1035D000EC9FD3C0FDF0D4C0FEF0E552E1D0040171
:1035E000006B016B026B036B700E086F010E096FAD
:1035F000FDC00AF4FEC00BF4F9D846DDC3C004F4E4
:10360000C4C005F4E7D80401025158E1010EE66E8A
:103610001DEC25F0E552C3C004F4C4C005F434DD4C
:10362000040104510001C35D0401066F055100014E
:10363000C4590401076F0151040A2BE0070A27E06F
:10364000010A15E0030A0AE0010A25E1073523E231
:1036500006510A08000E07551EE219D0D8800751FE
:1036600004E7F60E065DFF0E075915E210D0060EB0
:1036700007AF02D0D89003D0065D000E07590BE2C9
:10368000073504E30651FA08FF0E075504E2032B41
:1036900002D0010E026F0351080803E3400E005DE3
:1036A0000BE3010504E0086D091F000E0923006B00
:1036B000036B90D80401012B002BA5D79DD80AC419
:1036C000FDF00BC4FEF012000201001D01E1011D1E
:1036D00007E0002B000E01230F0E0427000E052328
:1036E000120002010051011107E00007000E015B0A
:1036F0000F0E045F000E055B12000201021D01E1C6
:10370000031D07E0022B000E03230F0E0627000EF9
:103710000723120002010251031107E00207000E05
:10372000035B0F0E065F000E075B1200D890153288
:103730001432E8041200A8DC0001C1510201042780
:103740000001C251020105230001C35102010627F5
:103750000001C45102010723DF2A1200C751C55DD1
:10376000C96FC851C659CA6FC551C725CB6FC6515D
:10377000C821CC6F000ECB5F020ECC5B1200E66E50
:1037800064D80A0EDF02F350E66EE66A25EC20F0FC
:10379000E552E5521200D9CFE6FFE1CFD9FF120082
:1037A000E552E7CFD9FF1200286F7F0EE66E31ECAD
:1037B00021F0E552050EE66E34EC21F0E5521200E0
:1037C00014C000F215C001F206C214F007C215F0D1
:1037D000040E120008C4E6FF09C4E6FF25EF1CF042
:1037E00004C214F005C215F0040E120000012C0EE4
:1037F000FD6F010EFE6F1200000EE66EE66A25EF09
:103800001CF07EEC22F0E55202012F513011120023
:10381000020EDBCF14F0030EDBCF15F01200020115
:10382000046B056B066B076BDF6A1200020EDB6A26
:10383000030EDB6A1200DECF14F0DDCF15F01200AC
:1038400014C002F215C003F212000DEC22F0E55292
:04385000E55212002B
:0C38540046DAFE0EDB50E824100F0401E1
:10386000056FE66EB0EC21F0E55240D23ADA040E74
:103870004BDA0F0A73E0010A4FE0030A46E0010A3F
:103880003FE0070A38E0010A31E0030A2AE0010AB2
:1038900065E00A0A1FE0050A1DE0060A03E0010AC6
:1038A0005FE15AD0DECF14F0DDCF15F0D88015508F
:1038B00004E7010E145C800E15584EE3DECF16F0BF
:1038C000DDCF17F017344AE21650FF087F0E175469
:1038D00045E242D0EED940E3F7D9030EED543EE283
:1038E0003BD0E7D939E321DA39E236D0E2D934E303
:1038F0001CDA34E231D0DDD92FE317DA2FE22CD0F5
:10390000D8D92AE312DA2AE227D0D3D925E3DCD9A1
:103910003F0EED5423E220D0EDD9020E14C0DBFFA0
:10392000FCD9030E14C0DBFF000EF36E020EDBCFDA
:10393000F4FFF350F45C10E3020EDB50FF080CE3DD
:10394000000EF36E030EDBCFF4FFF350F45C04E3E0
:10395000030EDB50010802E2000E03D0010E01D07D
:10396000000E146E040EE15C02E2E16AE552E16EC3
:103970001450BCD1B6D9020EC7D90E0A48E0030ACA
:1039800036E0010A2DE0070A24E0010A1BE0030AE1
:1039900012E0010A65E00F0A07E0070A61E0010A88
:1039A0005FE0030A5DE05CD0FC0EDBCFFDF0FD0EB6
:1039B000DBCFFEF055D0FC0EDBCFC2F1FD0EDBCF2E
:1039C000C3F14ED0FC0EDBCFC4F1FD0EDBCFC5F151
:1039D00047D0FC0EDBCFC6F1FD0EDBCFC7F140D0E8
:1039E000FC0EDBCFC8F1FD0EDBCFC9F139D0FC0EE8
:1039F000DBCFCAF1FD0EDBCFCBF1CAC1CCF1CBC11D
:103A0000CDF10101CC6DCD1F000ECD2329D072D98F
:103A100014C0CEF114500101D06FD16B060ED890B6
:103A2000D037D137E806FBE10101CE510101D46F57
:103A3000D56BCEC1D5F1D46BD0C1D2F1D1C1D3F108
:103A40000101D26DD31F000ED323D4C1D6F1CEC154
:103A5000D7F10101D66DD71FD7235FD914C0CFF19D
:103A6000020EE15C02E2E16AE552E16E3FD104013F
:103A70000E6B100E0E5D0AE20E51E96EEA6A29D94C
:103A8000AD0EEE6EDE0EED6E0E2BF3D7120029D9C1
:103A9000050EE126FE0EDBCF22F20201236B22BFD0
:103AA0002369FC0EDBCF24F2FD0EDBCF25F2FC0EEA
:103AB000DBCFE6FFFD0EDBCFE6FFFE0EDBCFE6FF42
:103AC000D5DEE552E552E55200090CE00001EC9D1F
:103AD000FE0EDBCF14F0100EE76E1418E8AE05D022
:103AE000E73405D00001EC8D21D0E750145C0DE2E5
:103AF000FE0EDBCFE9FFEA6AE9BEEA68EAD8FC0E0F
:103B0000DBCFEEFFFD0EDBCFEDFFFE0EDB500F082F
:103B10000DE10FD9EE50ED1009E07ED8000904E068
:103B200033D80001EC9B02D00001EC8B050EE15C68
:103B300002E2E16AE552E16ED9D0D3D8040EE12663
:103B4000AF0EDE6E000EDD6E1E0EF36E020EF3CFB4
:103B5000DBFF120EF36E030EF3CFDBFFDBCFE6FFCE
:103B6000020EDBCFE6FFDECFE6FFDDCFE6FF75EC32
:103B700021F0E552E552E552E552040EE15C02E225
:103B8000E16AE552E16EB2D0ACD8E652070EDF6EC4
:103B9000DFCF14F00E0EE76E1418E8AE02D0143426
:103BA00003D0E750D880145412E3DFCFE9FFEA6A6C
:103BB000E9BEEA688ED8EECFE6FFEFCFE6FFDFCFB3
:103BC000E6FFD8DEE552E552E552DF2AE1D7E552BD
:103BD0008DD00401070E006F00510E0815E300C4DC
:103BE000E6FF38DEE552F3CF01F4F4CF02F4F3CF71
:103BF000E6FFF4CFE6FF00C4E6FF49DFE552E552F9
:103C0000E5520401002BE8D70001EC51200B02E043
:103C1000ED8D1200ED9D120022EC24F00401070E40
:103C20000E6F0E510E0819E30E51E96EEA6A51D873
:103C3000EECF0FF4EDCF10F40FC4E6FF26EC24F026
:103C4000E55210C4E6FF26EC24F0E552F3CF13F45E
:103C5000F4CF14F404010E2BE4D71351141103E133
:103C6000010E136F146BBFC011F4C0C012F41351D6
:103C7000111902E11451121901E0000C010C0001AC
:103C8000FD6BFE6B0101C26BC36B0101C46BC56BA5
:103C90000101C66BC76B0101C86BC96B0101CA6B1F
:103CA000CB6B0101CC6BCD6B0101CE6B0101CF6BF6
:103CB0001200FC0EDBCF14F0FD0EDBCF15F0000E72
:103CC000145C000E1558120034D8FF0ED880EE5444
:103CD0001200D890E936EA36A10EE926000EEA2253
:103CE0001200D9CFE6FFE1CFD9FF1200E552E7CFAE
:103CF000D9FF1200FF0EE76EFC0EDBCF14F0FD0EB5
:103D0000E7501416156A1200E126FC0EDBCFDEFF29
:103D1000DBCFDDFFFE0EDB501200FC0EFD0EDBCF15
:103D200015F015C014F0156A1200CEDF7F0EED54A9
:103D30001200D950FC0FE96EFF0EDA20EA6E120075
:103D400080960001050EE86F120011DAFD0EDBCF40
:103D5000DAF1FE0EDBCFDBF10201010E03D207DA4E
:103D6000FD0EDBCFF9F0FE0EDBCFFAF00DDA1534E5
:103D700009E21450FF08030E155404E20001F9692A
:103D8000030EFA6F01DAD880155004E7010E145CB7
:103D9000FC0E155805E20001010EF96FFC0EFA6FDA
:103DA0000201020EDFD1D9CFE6FFE1CFD9FF020E2B
:103DB000E126DE6ADD6ADECF14F0DDCF15F0D890A3
:103DC000155004E6E80E145C030E155809E20000D5
:103DD000000000000000DF2A010E01E3DB2AEBD720
:103DE000020EE15C02E2E16AE552E16EE552E7CFE4
:103DF000D9FF1200BCD9040EE126020EDB6A030EC5
:103E0000DB6A020EDBCF14F0030EDBCF15F0D89087
:103E1000155004E60A0E145C000E155833E2000E2D
:103E2000E66EE66A0DEC22F0E552E55289DFDE6AC5
:103E3000DD6AB1D904E6640E145C000E155806E282
:103E4000B2DFDF2A010EF5E3DB2AF3D70001E86BCE
:103E5000E85102E0E80701D08086DE6ADD6A9BD97E
:103E600004E6640E145C000E155806E29CDFDF2A9F
:103E7000010EF5E3DB2AF3D7020EDB2A030EC1E3C2
:103E8000DB2ABFD764D8040EE15C02E2E16AE552A6
:103E9000E16E96D10001F851030A30E0010A1EE0FC
:103EA000030A03E0010A010EF86F020EE66E7EECD3
:103EB00022F0E5522FC2EFF030C2F0F00001990E6F
:103EC000EF5F010EF05B1F0EF003F3CFF0F0EF0396
:103ED000F3CFEFF0F450F027020E0ED0030EE66E93
:103EE0007EEC22F0E5522FC2F1F030C2F2F0000178
:103EF000D890F233F133030EF86F1200C350020171
:103F00002D6F2E6BC450156E146A14502D2715504A
:103F10002E232DC214F02EC215F05D0E1502F3CF24
:103F200015F01402F3CF14F0F4501526030ED890B8
:103F300015321432E804FBE114C0F3F015C0F4F0BC
:103F40000001010EF86F02012C6B89EF25F0000EC5
:103F5000E66EE66AB2EC24F0E552E552E668E66801
:103F6000C3EC21F0E552E552DDEC21F0FF00120038
:103F70000001EC6BED6BED51200B02E0010EE2D87D
:103F8000FBD802E0020EDED8FBD802E0030EDAD83E
:103F90000001ED8BED51200B02E1040ED3D8ECD8DB
:103FA00002E0050ECFD8ECD802E0060ECBD8000117
:103FB000ED8DED51200B02E1070EC4D8DDD802E1F2
:103FC000080EC0D8DDD802E0090EBCD80001ED8F84
:103FD000ED51200B02E10A0EB5D8CED802E10B0E4E
:103FE000B1D8CED802E10C0EADD80001ED9BED5159
:103FF000200B02E00D0EA6D8BFD802E10E0EA2D80B
:10400000BFD802E10F0E9ED80001ED9DED51200BAF
:1040100002E0100E97D8B0D802E0110E93D8B0D8B5
:1040200002E1120E8FD80001ED9FED51200B02E04E
:10403000130E88D8A1D804E0140EE66EE66AB8D84C
:104040009FD802E0150E7ED8120091D8020EE1260C
:10405000050E086E096AFD0EDBCF0DF0FE0EDBCFFC
:104060000EF004EC24F006C0DEFF07C0DDFFD9CF60
:10407000E9FFDACFEAFFEE50ED1010E0DFCF14F0E9
:10408000DF06010EDBCF15F001E2DB061450151040
:1040900005E0F2A4FED785EC24F0F0D7020EE15C37
:1040A00002E2E16AE552E16E8BD00001F76BEF6B43
:1040B000F06B52D802E1010E4AD80001FB51FC110D
:1040C00002E0020E44D8010E6DD80401006B630EAD
:1040D000005D0DE241D802E0030E39D80001FB512A
:1040E000FC1102E1040E33D80401002BF0D734D8C0
:1040F00002E1050E2CD80001FB51FC1102E0060E76
:1041000026D8000EE66EE66A20DEE552E55224D897
:1041100002E0070E1CD8000E45D8FAEC22F0000190
:10412000EF69F06912000001EC6BED6B070EE96FAF
:1041300065EC0AF0EFEC0BF08CEC0CF019DFB5DF5E
:10414000BFEF11F0E66EE66A140ED8EF20F0E66ECF
:10415000E66A150ED8EF20F0FAEC22F00001ED51DE
:10416000040B12001D6F0001640EF76F29D0D9CF28
:10417000E6FFE1CFD9FF12000001ED51400B120024
:104180000001ED51800B1200FD0EDBCF14F0FE0E8E
:10419000DBCF15F01200DECF14F0DDCF15F0D89094
:1041A00015501200E66EE66ADADDE552E5521200BD
:1041B000E66EE66A1FDEE552E552E552E552120070
:0841C000E552E7CFD9FF120020
:0841C800D9CFE6FFE1CFD9FFDA
:1041D000FD0EDBCF00F40401005100083DE2FE0EAD
:1041E000DBCFE6FF0005146E010E145204E0E84632
:1041F000FE0B1406FCE1E552E71414E05FD802E080
:1042000062D8FEE16ED802E05ED8FEE18112500E67
:104210005ED854D802E057D8FEE163D816E053D8F0
:10422000FEE113D04BD802E04ED8FEE15AD802E0AE
:104230004AD8FEE18112010E4AD840D802E043D8A4
:10424000FEE14FD802E03FD8FEE1E81C8116140ED3
:104250003ED804010007BFD7002BE552E7CFD9FFB6
:1042600012001DD8060E06D01AD8020E03D017D899
:104270000A0E00D031D8080EE66EFE0EDBCFE6FF48
:10428000A3DFE552E552040EE66E070E25D8080EB0
:10429000E66EFE0E21D8E552E7CFD9FF1200D9CF46
:1042A000E6FFE1CFD9FF080EE66E800E15D8060EA8
:1042B000E66E050E11D8040EE66E1200010E28C23D
:1042C000E7FFE7521200E846FE0BE7061200E66E33
:1042D00097EC25F0E5521200E66E76DFE552E552E6
:0A42E0001200E81C93165EEF21F0B7
:0642EA007ED80101FC5129
:1042F00002E0FC6B0FD0F8510DE1FB0EDBCFF8F1C3
:10430000FD0EDBCFF9F1FE0EDBCFFAF1FC0EDBCFB9
:10431000FBF101D86ED00101F85114E00001EC89E5
:10432000A6B213D0F9C1E9FFFAC1EAFFEF50E66E79
:10433000FBC1E6FF62D80101FB2BF92B000EFA232B
:10434000F80712000001EC99A69412004DD8A6B20D
:10435000FED7FE0EDB50A96EA66AA680A85049D0F3
:1043600043D8FE0EDBCFE6FFF1DFE5520401036F19
:10437000FE0EDB28E66EEADFE5520401046F03C49B
:10438000F3FFF46E36D0D9CFE6FFE1CFD9FFA6B266
:10439000FED7FE0EDB50A96EFD0EDB50A86E040E9C
:1043A000A66EA682F29E550EA76EAA0EA76EA682D4
:1043B000F28EE552E7CFD9FF1200A6B2FED7120067
:1043C00013D8FD0EDBCF00F4FC0EDBCF01F401C4EB
:1043D000E6FFFE0EDBCFE6FF10D800C4E6FFFE0EC0
:1043E000DB28E66E0AD805D0D9CFE6FFE1CFD9FFAA
:1043F0001200E552E7CFD9FF1200C5DFE552E552C2
:024400001200A8
:0E440200000EE66EE66AB2EC24F0E552E552DA
:10441000BC0E9416828C82921200D9CFE6FFE1CFB7
:10442000D9FF8282FE0EDBCF15F00001800E15143D
:104430001CE156D80001FE511518E8AE02D0153423
:1044400004D01450FD5D1550FE5906E2FD0EFDC06E
:10445000DBFFFE0EFEC0DBFF4AD88280FD0EDBCF05
:10446000E6FFFE0EDBCFE6FF2DD03AD8FDC016F0FA
:10447000FEC017F0166C171E000E172215501718E5
:10448000E8AE02D0173404D01650145C17501558FB
:104490000EE208680968FDC00DF0FEC00EF0D7EC12
:1044A00023F0FD0E06C0DBFFFE0E07C0DBFF1FD8AA
:1044B000829016D8146C151E000E152214C0E6FF4B
:1044C00015C0E6FFB2EC24F0E552E552E552E7CF25
:1044D000D9FF120082B0010C020C82B4010C000C56
:1044E000FD0EDBCF14F0FE0EDBCF15F01200FD0E3B
:0C44F000DBCFFBF0FE0EDBCFFCF0120077
:0444FC00D9CFE6FF2F
:10450000E1CFD9FFFE0EDBCF14F0180E1410829EFF
:10451000C96EC7A0FED7C9CF0CF4C96AC7A0FED721
:10452000C9CF30F2C96AC7A0FED7C9CF2FF2D89041
:10453000020130332F33D89030332F330F0E301722
:10454000828EE552E7CFD9FF1200D9CFE6FFE1CF47
:10455000D9FF27D80401010E006FA00E016FFE0ED7
:10456000DB5001E0018D829E00C4C9FFC7A0FED7C9
:10457000C9CF02F401C4C9FFC7A0FED7C9CF02F456
:104580000F0E040102150201306FC96AC7A0FED7E1
:10459000C9CF02F402C42FF2828EE552E7CFD9FFD1
:1045A0001200020EE66EE66A34EC25F0E552E552A2
:0645B000949E828E1200B1
:0A45B60002011D6B12000001ED511F
:1045C000800B0CE00001EF5102011A5D0001F05177
:1045D00002011B590EE30001ED9F12000001EF5193
:1045E0000201185D0001F0510201195902E20001B7
:1045F000ED8F120002011E07000E1F5B1E511F11DE
:1046000005E120C21EF221C21FF2D8DF0001F751DE
:1046100001E0F707F75103E10001ED8502D0000149
:10462000ED95ED51E40B18E102011D51020A0FE076
:10463000030A02E0010A1200C9C0D8F1CAC0D9F1C8
:1046400030EC03F0DEC1E6FFDFC1E6FF08D0F9C0C1
:10465000E6FFFAC0E6FF03D0000EE66EE66A0DEC58
:0846600022F0E552E5521200C0
:08466800C2900F0EC16E010E9D
:10467000926EFCEC14F093949386EBEC02F0AAECAF
:1046800024F001EC22F034EC18F03FEC1EF0E9ECE1
:104690001DF06AEC24F00001EC6BED6B1200E4DF1E
:1046A00093EC20F0E1DF6AEC24F000018A510D0A5E
:1046B00005E0010A05E1EFEC1AF002D05DEC1AF01A
:1046C000F2B40DD003EC15F0000902E0A5EC17F0F0
:1046D0000001E85102E0E807F3D78086F1D785ECC6
:1046E00024F044EC18F0FAEC22F003EC15F0000989
:1046F00002E0A5EC17F08BEC21F003EC15F00009BB
:1047000002E0A5EC17F04AEC1FF0A9EC19F0D8D79D
:10471000C60EF66E040EF76E000EF86E020109006A
:10472000F550136F0900F550146F03E1136701D0C2
:104730003DD00900F5500E6F0900F5500F6F0900CC
:10474000F550106F09000900F550E96E0900F550A9
:10475000EA6E090009000900F550116F0900F550D3
:10476000126F09000900F6CF15F2F7CF16F2F8CF55
:1047700017F20EC2F6FF0FC2F7FF10C2F8FF0201D8
:10478000115302E1125307E00900F550EE6E1107D4
:10479000F8E21207F9D715C2F6FF16C2F7FF17C2E3
:0E47A000F8FF02011307000E145BBFD71200D2
:0247AE0009C040
:1047B00013F008C012F008500D02F4CF07F0F3CF49
:1047C00006F009500E02F4CF09F0F3CF08F00D0205
:1047D000F3500726F4500822E86A092212500E020C
:1047E000F3500726F4500822E86A09220EAEFDEFC6
:1047F00023F01250085E1350095A13AE000C0D50EE
:10480000085E0E50095A000C08C012F008500D0244
:10481000F4CF07F0F3CF06F009500E02F4CF09F001
:10482000F3CF08F00D02F3500726F4500822E86A8F
:10483000092212500E02F3500726F4500822E86AAB
:044840000922000C3D
:0C48440002012A6B2B6B1200D9CFE6FF9B
:10485000E1CFD9FFE65202012A51DF6EFE0EDB5096
:10486000DF1A2BC22AF22B6BDFA004D0960E2A1B74
:10487000300E2B1BDFA204D02C0E2A1B610E2B1B2B
:10488000DFA404D0190E2A1BC40E2B1BDFA604D0F4
:10489000320E2A1B880E2B1BDFA803D0640E2A1BA6
:1048A0002B79DFAA03D0C80E2A1B2B7BDFAC04D0E8
:1048B000900E2A1B410E2B1BDFAE03D02A7B830EEA
:1048C0002B1B2AC2F3FF2BC2F4FFE552E552E7CFC0
:0448D000D9FF1200FA
:0C48D40038D8800ED56E170EDE6EFC0E7C
:1048E000DD6E010EDB50D76EDF50D66ED58EF29A9C
:1048F000020EE15C02E2E16AE552E16EE552E7CFC9
:10490000D9FF1200F2A4FED712001DD8D650DF6ED8
:10491000010ED7CFDBFFD9CFE9FFDACFEAFFE00EF8
:10492000EE5E030EED5A010EDB50D76EDF50D66EF1
:10493000F294020EE15C02E2E16AE552E16EE552B8
:10494000E7CFD9FF1200D9CFE6FFE1CFD9FF020EA2
:04495000E12612004A
:0C495400CA6ACB68BE6A0C0EBD6ECA8435
:1049600094941200D9CFE6FFE1CFD9FF0001ED51B9
:10497000E40B07E0BE6A0C0EBD6E0001FB6BFC6B26
:1049800020D0FD0EDBCF14F0FE0EDBCF15F0D8905B
:1049900015321432D890153214321450BE6E030EF4
:1049A000E76EFD0EDBCF14F0FE0EE7501416156A0D
:1049B000040ED89014361536E804FBE10C0E1410E2
:0A49C000BD6EE552E7CFD9FF1200EB
:0649CA0006500B02F3CFC2
:1049D00002F0F4CF03F00C02F3500326000EF42093
:1049E000046E06500D02F3500426000EF420056EEE
:1049F00006500E02F350052607500B02F350032613
:104A0000F4500422000E052207500C02F350042635
:104A1000F450052207500D02F350052608500B02F2
:104A2000F3500426F450052208500C02F3500526DA
:0A4A300009500B02F3500526120096
:064A3A00FF0EE3501B6EAD
:104A4000EF0E01D0F30EE76EE72E24EF25F00C0EEB
:104A50001A6EE76AE72E2AEF25F01A2E29EF25F0C5
:084A60001B2E22EF25F01200CD
:084A6800D9CFE6FFE1CFD9FF31
:104A7000949A94889496C76AFE0EDB50030BC66E18
:104A8000FD0EDBB0C78CDBB2C688C68AE552E7CF25
:044A9000D9FF120038
:0C4A94006D61696E3A245265763A203953
:104AA00034372024006164633A245265763A203713
:054AB000393120240053
:0A4AB600FF0EE3501B6E480E01D006
:104AC0004C0EE76EE72EFED7E76AE72EFED71B2EC9
:064AD000F7D70000120000
:0A4AD600000EF36E00EE00F0060E75
:104AE00001D81200EA6002D0EE6AFCD7F350E96008
:064AF0001200EE6AFCD783
:0A4AF60015EE00F025EE00F0F86A5E
:104B0000019C88EC23F0A2EC25F04FEC23F0FBD7BE
:024B1000120091
:0E4B1200C2B2120002012C51040DF350010931
:0E4B2000C26E0E0EC16EBE0EC06EC2821200BC
:024B2E00FF0E78
:104B3000E350E84E1200000000D000D000D0E82E74
:044B4000FAD712008E
:024B440012005D
:0A4B46000000000000000000000065
:104B50000000000000000000000000000000000055
:104B60000000000000000000000000000000000045
:0B4B7000000000000000000000010039
:054B7B0000FF00000036
:0C4B80000000FFFFFFFF0000FFFF00002F
:044B8C000001000123
:0A4B900000100010F401401F401F48
:024B9A00944A3B
:044B9C000000000015
:0E4BA000000000000000000000000000000007
:024BAE00003CC9
:084BB00000370000010088132A
:034BB800000000FA
:044BBB0000000000F6
:014BBF0000F5
:054BC000000000FF03EE
:064BC500000000000000EA
:024BCB00A54AF9
:020000040030CA
:0100010006F8
:010002001DE0
:0100030016E6
:01000500807A
:010006008178
:00000001FF
