:020000040000FA
:0604C00036EF3EF01200D1
:0A04C6000B00497D00004102000018
:1004D00002000000437D0000220200000600000030
:1004E0003D7D0000F900000006000000397D00009D
:1004F0002802000004000000367D000038020000E1
:10050000030000002C7D0000180200000A0000001B
:100510001A7D0000D600000012000000187D0000C7
:100520003F020000020000000A7D000000020000FF
:100530000E000000F97C0000E8000000110000003F
:0C054000BC7C0000C20100003D00000077
:04054C00D9CFE6FF1E
:10055000E1CFD9FF020EE126FD0EDBCF96F0FE0EB5
:10056000DBCF97F00001A06B5CEC2AF090EC32F04E
:1005700057EC2AF0000910E1FD0EDBCFE6FFFE0E7E
:10058000DBCFE6FF020EE66EE66AB7EC32F0E5522C
:10059000E552E552E55204D00001EA2B000EEB23B0
:1005A0008FEC2AF0020EE15C02E2E16AE552E16EB4
:1005B000E552E7CFD9FF1200D9CFE6FFE1CFD9FF4F
:1005C000020EE126FD0EDBCF96F0FE0EDBCF97F09C
:1005D0000001A06B609E0F01509F5CEC2AF090EC34
:1005E00032F057EC2AF0000912E00001A06BFD0E7A
:1005F000DBCFE6FFFE0EDBCFE6FF010EE66EE66A1E
:10060000B7EC32F0E552E552E552E55204D0000174
:10061000EA2B000EEB238FEC2AF0020EE15C02E2E3
:10062000E16AE552E16EE552E7CFD9FF12006CECCA
:1006300029F0400EE66E3EEC29F0E55290EC32F0E7
:10064000200EE66EE66A82DFE552E552220EE66E85
:10065000E66A7CDFE552E552200EE66E010EE66E9C
:10066000ABDFE552E552600EE66EE66AA5DFE552C5
:10067000E552300EE66EE66A9FDFE552E552800EE7
:10068000E66E020EE66E62DFE552E552820EE66E1F
:10069000020EE66E5BDFE552E552800EE66E030E5B
:1006A000E66E8ADFE552E552E66A020EE66E84DF08
:1006B000E552E552A00EE66E020EE66E7DDFE552D3
:1006C000E552900EE66E020EE66E76DFE552E552DA
:1006D000EA0EE66E060EE66E39DFE552E552EA0EE8
:1006E000E66E070EE66E68DFE552E5526A0EE66ECC
:1006F000060EE66E61DFE552E552AA0EE66E060EC4
:10070000E66E5ADFE552E552C20EE66E060EE66E62
:1007100053DFE552E552EE0EE66E060EE66E4CDF56
:10072000E552E552E80EE66E060EE66E45DFE5524E
:10073000E5521200D9CFE6FFE1CFD9FF020EE12644
:10074000100EDE6E270EDD6EDFCF14F0DF06010E19
:10075000DBCF15F001E2DB06145015100AE00000B3
:1007600000000000000057EC2AF0000901E002D070
:10077000EBD700D0020EE15C02E2E16AE552E16EE5
:10078000E552E7CFD9FF1200D9CFE6FFE1CFD9FF7D
:10079000FD0EDBCF96F0FE0EDBCF97F00001A06BD5
:1007A0005CEC2AF0C7DF40EC2DF0E552E7CFD9FF33
:1007B0001200D9CFE6FFE1CFD9FFFD0EDBCF96F0D7
:1007C000FE0EDBCF97F00001040EA06FFB0EDBCF17
:1007D00098F0FC0EDBCF99F0F90EDBCF9AF0FA0E11
:1007E000DBCF9BF05CEC2AF0A5DF40EC2DF0E5526E
:1007F000E7CFD9FF1200D9CFE6FFE1CFD9FFFD0E39
:10080000DBCF96F0FE0EDBCF97F00001080EA06F55
:10081000FB0EDBCF98F0FC0EDBCF99F0F90EDBCFAF
:100820009AF0FA0EDBCF9BF0F70EDBCF9CF0F80EC0
:10083000DBCF9DF0F50EDBCF9EF0F60EDBCF9FF009
:100840005CEC2AF077DF40EC2DF0E552E7CFD9FFE2
:1008500012000401340E006F120E016F450E026F7C
:10086000230E036F560E046F340E056F670E066F6E
:10087000450E076F780E086F560E096F890E0A6FC6
:10088000670E0B6F9A0E0C6F780E0D6F69EC37F0D8
:100890000001EC8D000EE66EE66AE66EE66AE66E34
:1008A000E66AE66EE66A070EE66E0C0E0001E915D2
:1008B000E66E010EE66E68EC2DF0E552E552E5526B
:1008C000F3CF14F0F4CF15F0F3CFE6FFF4CFE6FF4B
:1008D00092DF166E0A0EE15E16500001AF51B011A4
:1008E00005E10001EA2B000EEB230CD0000EE66EB2
:1008F000E66A030EE66EE66AB7EC32F0E552E552C0
:10090000E552E5520001EC51400B05E10001EA2BF4
:10091000000EEB230CD0000EE66EE66A030EE66EC8
:10092000E66AB7EC32F0E552E552E552E5520001D5
:10093000EC8D120EE66EE66A000EE66EE66AE66E74
:10094000E66AE66EE66A070EE66E0C0E0001E91531
:10095000E66E010EE66E68EC2DF0E552E552E552CA
:10096000F3CF14F0F4CF15F0F3CFE6FFF4CFE6FFAA
:1009700042DF166E0A0EE15E16500001120EAF192C
:1009800007E1B05105E10001EA2B000EEB230CD08A
:10099000120EE66EE66A030EE66EE66AB7EC32F019
:1009A000E552E552E552E5520001EC51400B05E1FC
:1009B0000001EA2B000EEB230CD0120EE66EE66A65
:1009C000030EE66EE66AB7EC32F0E552E552E55208
:1009D000E5520001EC8DE668030EE66E000EE66E51
:1009E000E66AE66EE66AE66EE66A070EE66E0C0EEC
:1009F0000001E915E66E010EE66E68EC2DF0E55299
:100A0000E552E552F3CF14F0F4CF15F0F3CFE6FF43
:100A1000F4CFE6FFF0DE166E0A0EE15E1650FF0E12
:100A20000001AF1908E1030EB01905E10001EA2B3E
:100A3000000EEB230BD0E668030EE66EE66EE66A68
:100A4000B7EC32F0E552E552E552E5520001EC51C7
:100A5000400B05E10001EA2B000EEB230BD0E6680A
:100A6000030EE66EE66EE66AB7EC32F0E552E5524A
:100A7000E552E5520001EC9DF40EE66EE668000ECC
:100A8000E66EE66AE66EE66AE66EE66A070EE66E11
:100A90000C0E0001E915E66E010EE66E68EC2DF015
:100AA000E552E552E552F3CF14F0F4CF15F0F3CF51
:100AB000E6FFF4CFE6FF9FDE166E0A0EE15E1650EB
:100AC000F40E0001AF1902E1FF0EB01905E00001BC
:100AD000EA2B000EEB230CD0F40EE66EE668030E54
:100AE000E66EE66AB7EC32F0E552E552E552E552C1
:100AF0000001EC51400B05E00001EA2B000EEB2356
:100B00000CD0F40EE66EE668030EE66EE66AB7EC0D
:100B100032F0E552E552E552E5520001EC9DE66AFD
:100B2000040EE66E000EE66EE66AE66EE66AE66EB5
:100B3000E66A070EE66E0C0E0001E915E66E010E80
:100B4000E66E68EC2DF0E552E552E552F3CF14F075
:100B5000F4CF15F0F3CFE6FFF4CFE6FF4CDE166ED0
:100B60000A0EE15E16500001AF5102E1040EB01909
:100B700005E00001EA2B000EEB230CD0E66A040E20
:100B8000E66E030EE66EE66AB7EC32F0E552E55229
:100B9000E552E5520001EC51400B05E00001EA2B63
:100BA000000EEB230CD0E66A040EE66E030EE66E32
:100BB000E66AB7EC32F0E552E552E552E552000143
:100BC000EC8D000EE66EE66AE66EE66AE66EE66AB2
:100BD000E66EE66A080EE66E0C0E0001E915E66E9A
:100BE000010EE66E68EC2DF0E552E552E552F3CFCA
:100BF00014F0F4CF15F0F3CFE6FFF4CFE6FFFBDD02
:100C0000166E0A0EE15E16500001B151B21105E1F7
:100C10000001EA2B000EEB230CD0000EE66EE66A14
:100C2000040EE66EE66AB7EC32F0E552E552E552A4
:100C3000E5520001EC51400B05E10001EA2B000EEA
:100C4000EB230CD0000EE66EE66A040EE66EE66A52
:100C5000B7EC32F0E552E552E552E5520001EC8D79
:100C6000120EE66E160EE66E000EE66EE66AE66E92
:100C7000E66AE66EE66A080EE66E0C0E0001E915FD
:100C8000E66E010EE66E68EC2DF0E552E552E55297
:100C9000F3CF14F0F4CF15F0F3CFE6FFF4CFE6FF77
:100CA000AADD166E0A0EE15E1650120E0001B11991
:100CB00008E1160EB21905E10001EA2B000EEB2344
:100CC0000DD0120EE66E160EE66E040EE66EE66AA5
:100CD000B7EC32F0E552E552E552E5520001EC5135
:100CE000400B05E10001EA2B000EEB230DD0120EA4
:100CF000E66E160EE66E040EE66EE66AB7EC32F0AD
:100D0000E552E552E552E5520001EC8DE668E668F1
:100D1000000EE66EE66AE66EE66AE66EE66A080EC3
:100D2000E66E0C0E0001E915E66E010EE66E68EC4B
:100D30002DF0E552E552E552F3CF14F0F4CF15F063
:100D4000F3CFE6FFF4CFE6FF56DD166E0A0EE15E46
:100D500016500001B11D07E1B21D05E10001EA2BAB
:100D6000000EEB230BD0E668E668040EE66EE66A3A
:100D7000B7EC32F0E552E552E552E5520001EC5194
:100D8000400B05E10001EA2B000EEB230BD0E668D7
:100D9000E668040EE66EE66AB7EC32F0E552E5521C
:100DA000E552E5520001EC8D000EE66EE66AE66E55
:100DB000E66AE66EE66AE66EE66A090EE66E0C0E16
:100DC0000001E915E66E010EE66E68EC2DF0E552C5
:100DD000E552E552F3CF14F0F4CF15F0F3CFE6FF70
:100DE000F4CFE6FF08DD166E0A0EE15E1650000134
:100DF000B351B41105E10001EA2B000EEB230CD036
:100E0000000EE66EE66A050EE66EE66AB7EC32F0B4
:100E1000E552E552E552E5520001EC51400B05E187
:100E20000001EA2B000EEB230CD0000EE66EE66A02
:100E3000050EE66EE66AB7EC32F0E552E552E55291
:100E4000E5520001EC8DE6687F0EE66E000EE66E60
:100E5000E66AE66EE66AE66EE66A090EE66E0C0E75
:100E60000001E915E66E010EE66E68EC2DF0E55224
:100E7000E552E552F3CF14F0F4CF15F0F3CFE6FFCF
:100E8000F4CFE6FFB8DC166E0A0EE15E1650FF0ED8
:100E90000001B31908E17F0EB41905E10001EA2B46
:100EA000000EEB230CD0E6687F0EE66E050EE66EB4
:100EB000E66AB7EC32F0E552E552E552E552000140
:100EC000EC51400B05E10001EA2B000EEB230CD0A6
:100ED000E6687F0EE66E050EE66EE66AB7EC32F067
:100EE000E552E552E552E5520001EC9DE66A800EBE
:100EF000E66E000EE66EE66AE66EE66AE66EE66AA4
:100F0000090EE66E0C0E0001E915E66E010EE66EA6
:100F100068EC2DF0E552E552E552F3CF14F0F4CF32
:100F200015F0F3CFE6FFF4CFE6FF65DC166E0A0E90
:100F3000E15E16500001B35102E1800EB41905E0E4
:100F40000001EA2B000EEB230CD0E66A800EE66E61
:100F5000050EE66EE66AB7EC32F0E552E552E55270
:100F6000E5520001EC51400B05E00001EA2B000EB8
:100F7000EB230CD0E66A800EE66E050EE66EE66A9E
:100F8000B7EC32F0E552E552E552E5520001EC8D46
:100F9000000EE66EE66AE66EE66AE66EE66AE66E03
:100FA000E66A0A0EE66E0C0E0001E915E66E010E09
:100FB000E66E68EC2DF0E552E552E552F3CF14F001
:100FC000F4CF15F0F3CFE6FFF4CFE6FF14DC166E96
:100FD0000A0EE15E16500001B551B61105E100019F
:100FE000EA2B000EEB230CD0000EE66EE66A060E2E
:100FF000E66EE66AB7EC32F0E552E552E552E552AC
:101000000001EC51400B05E10001EA2B000EEB233F
:101010000CD0000EE66EE66A060EE66EE66AB7ECE7
:1010200032F0E552E552E552E5520001EC8DE668FA
:101030007F0EE66E000EE66EE66AE66EE66AE66E25
:10104000E66A0A0EE66E0C0E0001E915E66E010E68
:10105000E66E68EC2DF0E552E552E552F3CF14F060
:10106000F4CF15F0F3CFE6FFF4CFE6FFFBEC03F08F
:10107000166E0A0EE15E1650FF0E0001B51908E16A
:101080007F0EB61905E10001EA2B000EEB230CD010
:10109000E6687F0EE66E060EE66EE66AB7EC32F0A4
:1010A000E552E552E552E5520001EC51400B05E1F5
:1010B0000001EA2B000EEB230CD0E6687F0EE66EF3
:1010C000060EE66EE66AB7EC32F0E552E552E552FE
:1010D000E5520001EC9DE66A800EE66E000EE66EBB
:1010E000E66AE66EE66AE66EE66A0A0EE66E0C0EE2
:1010F0000001E915E66E010EE66E68EC2DF0E55292
:10110000E552E552F3CF14F0F4CF15F0F3CFE6FF3C
:10111000F4CFE6FFFBEC03F0166E0A0EE15E16500C
:101120000001B55102E1800EB61905E00001EA2B7D
:10113000000EEB230CD0E66A800EE66E060EE66E1D
:10114000E66AB7EC32F0E552E552E552E5520001AD
:10115000EC51400B05E00001EA2B000EEB230CD014
:10116000E66A800EE66E060EE66EE66AB7EC32F0D0
:10117000E552E552E552E5520001EC8D000EE66EB7
:10118000E66AE66EE66AE66EE66AE66EE66A0B0E0A
:10119000E66E0C0E0001E915E66E010EE66E68ECD7
:1011A0002DF0E552E552E552F3CF14F0F4CF15F0EF
:1011B000F3CFE6FFF4CFE6FFFBEC03F0166E0A0E6A
:1011C000E15E16500001B751B81105E10001EA2BAC
:1011D000000EEB230CD0000EE66EE66A070EE66EFC
:1011E000E66AB7EC32F0E552E552E552E55200010D
:1011F000EC51400B05E10001EA2B000EEB230CD073
:10120000000EE66EE66A070EE66EE66AB7EC32F0AE
:10121000E552E552E552E5520001EC8DE6687F0E9D
:10122000E66E000EE66EE66AE66EE66AE66EE66A70
:101230000B0EE66E0C0E0001E915E66E010EE66E71
:1012400068EC2DF0E552E552E552F3CF14F0F4CFFF
:1012500015F0F3CFE6FFF4CFE6FFFBEC03F0166EDC
:101260000A0EE15E1650FF0E0001B71908E17F0E6D
:10127000B81905E10001EA2B000EEB230CD0E6685B
:101280007F0EE66E070EE66EE66AB7EC32F0E552C8
:10129000E552E552E5520001EC51400B05E1000139
:1012A000EA2B000EEB230CD0E6687F0EE66E070EED
:1012B000E66EE66AB7EC32F0E552E552E552E552E9
:1012C0000001EC9DE66A800EE66E000EE66EE66AB0
:1012D000E66EE66AE66EE66A0B0EE66E0C0E00013E
:1012E000E915E66E010EE66E68EC2DF0E552E5526A
:1012F000E552F3CF14F0F4CF15F0F3CFE6FFF4CFBF
:10130000E6FFFBEC03F0166E0A0EE15E16500001DC
:10131000B75102E1800EB81905E00001EA2B000E7A
:10132000EB230CD0E66A800EE66E070EE66EE66AE8
:10133000B7EC32F0E552E552E552E5520001EC51CE
:10134000400B05E00001EA2B000EEB230CD0E66A0F
:10135000800EE66E070EE66EE66AB7EC32F0E552F6
:10136000E552E552E5520001EC8D000EE66EE66AAC
:10137000E66EE66AE66EE66AE66EE66A0C0EE66E13
:101380000001E915E66E010EE66E68EC2DF0E552FF
:10139000E552E552F3CF14F0F4CF15F0F3CFE6FFAA
:1013A000F4CFE6FFFBEC03F0166E0A0EE15E16507A
:1013B0000001B951BA1105E10001EA2B000EEB233F
:1013C0000CD0000EE66EE66A080EE66EE66AB7EC32
:1013D00032F0E552E552E552E5520001EC51400B86
:1013E00005E10001EA2B000EEB230CD0000EE66EA7
:1013F000E66A080EE66EE66AB7EC32F0E552E552B0
:10140000E552E5520001EC8DE6687F0EE66E000EB7
:10141000E66EE66AE66EE66AE66EE66A0C0EE66E72
:101420000001E915E66E010EE66E68EC2DF0E5525E
:10143000E552E552F3CF14F0F4CF15F0F3CFE6FF09
:10144000F4CFE6FFFBEC03F0166E0A0EE15E1650D9
:10145000FF0E0001B91908E17F0EBA1905E100017C
:10146000EA2B000EEB230CD0E6687F0EE66E080E2A
:10147000E66EE66AB7EC32F0E552E552E552E55227
:101480000001EC51400B05E10001EA2B000EEB23BB
:101490000CD0E6687F0EE66E080EE66EE66AB7ECE4
:1014A00032F0E552E552E552E5520001EC9DE66A64
:1014B000800EE66E000EE66EE66AE66EE66AE66EA0
:1014C000E66A0C0EE66E0001E915E66E010EE66EA8
:1014D00068EC2DF0E552E552E552F3CF14F0F4CF6D
:1014E00015F0F3CFE6FFF4CFE6FFFBEC03F0166E4A
:1014F0000A0EE15E16500001B95102E1800EBA19E0
:1015000005E00001EA2B000EEB230CD0E66A800E0A
:10151000E66E080EE66EE66AB7EC32F0E552E5528A
:10152000E552E5520001EC51400B05E00001EA2BC9
:10153000000EEB230CD0E66A800EE66E080EE66E17
:10154000E66AB7EC32F0E552E552E552E5520001A9
:10155000EC8D000EE66EE66AE66EE66AE66EE66A18
:10156000E66EE66A0D0EE66E0C0E0001E915E66EFB
:10157000010EE66E68EC2DF0E552E552E552F3CF30
:1015800014F0F4CF15F0F3CFE6FFF4CFE6FFFBEC59
:1015900003F0166E0A0EE15E16500001BB51BC113D
:1015A00005E10001EA2B000EEB230CD0000EE66EE5
:1015B000E66A090EE66EE66AB7EC32F0E552E552ED
:1015C000E552E5520001EC51400B05E10001EA2B28
:1015D000000EEB230CD0000EE66EE66A090EE66EF6
:1015E000E66AB7EC32F0E552E552E552E552000109
:1015F000EC8DE6683F0EE66E000EE66EE66AE66E7D
:10160000E66AE66EE66A0D0EE66E0C0E0001E9155E
:10161000E66E010EE66E68EC2DF0E552E552E552FD
:10162000F3CF14F0F4CF15F0F3CFE6FFF4CFE6FFDD
:10163000FBEC03F0166E0A0EE15E1650FF0E000181
:10164000BB1908E13F0EBC1905E10001EA2B000EB1
:10165000EB230CD0E6683F0EE66E090EE66EE66AF6
:10166000B7EC32F0E552E552E552E5520001EC519B
:10167000400B05E10001EA2B000EEB230CD0E668DD
:101680003F0EE66E090EE66EE66AB7EC32F0E55202
:10169000E552E552E5520001EC9DE66A400EE66E29
:1016A000000EE66EE66AE66EE66AE66EE66A0D0E25
:1016B000E66E0C0E0001E915E66E010EE66E68ECB2
:1016C0002DF0E552E552E552F3CF14F0F4CF15F0CA
:1016D000F3CFE6FFF4CFE6FFFBEC03F0166E0A0E45
:1016E000E15E16500001BB5102E1400EBC1905E05D
:1016F0000001EA2B000EEB230CD0E66A400EE66EEA
:10170000090EE66EE66AB7EC32F0E552E552E552B4
:10171000E5520001EC51400B05E00001EA2B000E00
:10172000EB230CD0E66A400EE66E090EE66EE66A22
:10173000B7EC32F0E552E552E552E5520001EC8D8E
:10174000000EE66EE66AE66EE66AE66EE66AE66E4B
:10175000E66A0E0EE66E0C0E0001E915E66E010E4D
:10176000E66E68EC2DF0E552E552E552F3CF14F049
:10177000F4CF15F0F3CFE6FFF4CFE6FFFBEC03F078
:10178000166E0A0EE15E16500001BD51BE1105E154
:101790000001EA2B000EEB230CD0000EE66EE66A89
:1017A0000A0EE66EE66AB7EC32F0E552E552E55213
:1017B000E5520001EC51400B05E10001EA2B000E5F
:1017C000EB230CD0000EE66EE66A0A0EE66EE66AC1
:1017D000B7EC32F0E552E552E552E5520001EC8DEE
:1017E000E66A010EE66E000EE66EE66AE66EE66AF0
:1017F000E66EE66A0E0EE66E0C0E0001E915E66E68
:10180000010EE66E68EC2DF0E552E552E552F3CF9D
:1018100014F0F4CF15F0F3CFE6FFF4CFE6FFFBECC6
:1018200003F0166E0A0EE15E16500001BD5108E18C
:10183000010EBE1905E10001EA2B000EEB230CD0CE
:10184000E66A010EE66E0A0EE66EE66AB7EC32F064
:10185000E552E552E552E5520001EC51400B05E13D
:101860000001EA2B000EEB230CD0E66A010EE66EB7
:101870000A0EE66EE66AB7EC32F0E552E552E55242
:10188000E5520001EC8DFF0EE66EE66A000EE66E94
:10189000E66AE66EE66AE66EE66A0E0EE66E0C0E26
:1018A0000001E915E66E010EE66E68EC2DF0E552DA
:1018B000E552E552F3CF14F0F4CF15F0F3CFE6FF85
:1018C000F4CFE6FFFBEC03F0166E0A0EE15E165055
:1018D0000001FF0EBD1907E1BE5105E10001EA2B31
:1018E000000EEB230CD0FF0EE66EE66A0A0EE66EE3
:1018F000E66AB7EC32F0E552E552E552E5520001F6
:10190000EC51400B05E10001EA2B000EEB230CD05B
:10191000FF0EE66EE66A0A0EE66EE66AB7EC32F095
:10192000E552E552E552E5520001EC9DE66A020EF1
:10193000E66E000EE66EE66AE66EE66AE66EE66A59
:101940000E0EE66E0C0E0001E915E66E010EE66E57
:1019500068EC2DF0E552E552E552F3CF14F0F4CFE8
:1019600015F0F3CFE6FFF4CFE6FFFBEC03F0166EC5
:101970000A0EE15E16500001BD5102E1020EBE19D1
:1019800005E00001EA2B000EEB230CD0E66A020E04
:10199000E66E0A0EE66EE66AB7EC32F0E552E55204
:1019A000E552E5520001EC51400B05E00001EA2B45
:1019B000000EEB230CD0E66A020EE66E0A0EE66E0F
:1019C000E66AB7EC32F0E552E552E552E552020123
:1019D000010E276F0001AD0EFD6FDE0EFE6F0101DF
:1019E000AD0EC26FDE0EC36F0101AD0EC46FDE0E11
:1019F000C56F0101AD0EC66FDE0EC76F0101AD0EE2
:101A0000C86FDE0EC96F0101AD0ECA6FDE0ECB6F5F
:101A10000101AD0ECC6FDE0ECD6F0101AD0ECE6FAC
:101A20000101CF6F010EE66EE66A000EE66EE66A11
:101A3000E66EE66AE66EE66A070EE66E0C0E0001DA
:101A4000E915E66E010EE66E68EC2DF0E552E55202
:101A5000E552F3CF14F0F4CF15F0F3CFE6FFF4CF57
:101A6000E6FFFBEC03F0166E0A0EE15E1650020E66
:101A7000E66EE66A000EE66EE66AE66EE66AE66E18
:101A8000E66A080EE66E0C0E0001E915E66E010E20
:101A9000E66E68EC2DF0E552E552E552F3CF14F016
:101AA000F4CF15F0F3CFE6FFF4CFE6FFFBEC03F045
:101AB000166E0A0EE15E1650030EE66EE66A000E22
:101AC000E66EE66AE66EE66AE66EE66A090EE66EBF
:101AD0000C0E0001E915E66E010EE66E68EC2DF0C5
:101AE000E552E552E552F3CF14F0F4CF15F0F3CF01
:101AF000E6FFF4CFE6FFFBEC03F0166E0A0EE15EA4
:101B00001650040EE66EE66A000EE66EE66AE66EB3
:101B1000E66AE66EE66A0A0EE66E0C0E0001E9154C
:101B2000E66E010EE66E68EC2DF0E552E552E552E8
:101B3000F3CF14F0F4CF15F0F3CFE6FFF4CFE6FFC8
:101B4000FBEC03F0166E0A0EE15E1650050EE66E13
:101B5000E66A000EE66EE66AE66EE66AE66EE66A3B
:101B60000B0EE66E0C0E0001E915E66E010EE66E38
:101B700068EC2DF0E552E552E552F3CF14F0F4CFC6
:101B800015F0F3CFE6FFF4CFE6FFFBEC03F0166EA3
:101B90000A0EE15E1650060EE66EE66A000EE66E6E
:101BA000E66AE66EE66AE66EE66A0C0EE66E00012E
:101BB000E915E66E010EE66E68EC2DF0E552E55291
:101BC000E552F3CF14F0F4CF15F0F3CFE6FFF4CFE6
:101BD000E6FFFBEC03F0166E0A0EE15E1650070EF0
:101BE000E66EE66A000EE66EE66AE66EE66AE66EA7
:101BF000E66A0D0EE66E0C0E0001E915E66E010EAA
:101C0000E66E68EC2DF0E552E552E552F3CF14F0A4
:101C1000F4CF15F0F3CFE6FFF4CFE6FFFBEC03F0D3
:101C2000166E0A0EE15E1650000EE66EE66AE66E6D
:101C3000E66AE66EE66AE66EE66A0E0EE66E0C0E82
:101C40000001E915E66E010EE66E68EC2DF0E55236
:101C5000E552E552F3CF14F0F4CF15F0F3CFE6FFE1
:101C6000F4CFE6FFFBEC03F0166E0A0EE15E1650B1
:101C7000210EE66E430EE66E000EE66EE66AE66E36
:101C8000E66AE66EE66A0F0EE66E0C0E0001E915D6
:101C9000E66E010EE66E68EC2DF0E552E552E55277
:101CA000F3CF14F0F4CF15F0F3CFE6FFF4CFE6FF57
:101CB000FBEC03F0166E0A0EE15E16500001010EF9
:101CC000FD190EE1FE510CE1010EE66EE66A0B0E07
:101CD000E66EE66AB7EC32F0E552E552E552E552BF
:101CE0000101030EC2190EE1C3510CE1030EE66EB1
:101CF000E66A0B0EE66EE66AB7EC32F0E552E552A4
:101D0000E552E5520101040EC4190EE1C5510CE182
:101D1000040EE66EE66A0B0EE66EE66AB7EC32F08B
:101D2000E552E552E552E5520101050EC6190EE1F4
:101D3000C7510CE1050EE66EE66A0B0EE66EE66A2A
:101D4000B7EC32F0E552E552E552E5520101060EDC
:101D5000C8190EE1C9510CE1060EE66EE66A0B0EDB
:101D6000E66EE66AB7EC32F0E552E552E552E5522E
:101D70000101070ECA190EE1CB510CE1070EE66E08
:101D8000E66A0B0EE66EE66AB7EC32F0E552E55213
:101D9000E552E552F90E0101CC190FE1FF0ECD1904
:101DA0000CE1080EE66EE66A0B0EE66EE66AB7EC2C
:101DB00032F0E552E552E552E5520101CE510CE117
:101DC000090EE66EE66A0B0EE66EE66AB7EC32F0D6
:101DD000E552E552E552E5520101CF510CE10A0E00
:101DE000E66EE66A0B0EE66EE66AB7EC32F0E55296
:101DF000E552E552E5520001EC51200B0BE10B0ED0
:101E0000E66EE66AE66EE66AB7EC32F0E552E55257
:101E1000E552E552850EE66E100EE66E000EE66E99
:101E2000E66AE66EE66AE66EE66A0F0EE66E0C0E8F
:101E30000001E915E66E010EE66E68EC2DF0E55244
:101E4000E552E552F3CF14F0F4CF15F0F3CFE6FFEF
:101E5000F4CFE6FFFBEC03F0166E0A0EE15E1650BF
:101E60000001010EFD1901E1FE510BE00B0EE66EC3
:101E7000E66AE66EE66AB7EC32F0E552E552E55204
:101E8000E5520101030EC21901E1C3510CE00D0E30
:101E9000E66EE66A0B0EE66EE66AB7EC32F0E552E5
:101EA000E552E552E5520101040EC41901E1C551A4
:101EB0000CE00E0EE66EE66A0B0EE66EE66AB7EC16
:101EC00032F0E552E552E552E5520101050EC61920
:101ED00001E1C7510CE00F0EE66EE66A0B0EE66EEE
:101EE000E66AB7EC32F0E552E552E552E5520101FF
:101EF000060EC81901E1C9510CE0100EE66EE66A43
:101F00000B0EE66EE66AB7EC32F0E552E552E552AA
:101F1000E5520101070ECA1901E1CB510CE0110E87
:101F2000E66EE66A0B0EE66EE66AB7EC32F0E55254
:101F3000E552E552E552F90E0101CC1902E1FF0E1E
:101F4000CD190CE0120EE66EE66A0B0EE66EE66A3E
:101F5000B7EC32F0E552E552E552E5520101CE51BF
:101F60000CE0130EE66EE66A0B0EE66EE66AB7EC60
:101F700032F0E552E552E552E5520101CF510CE055
:101F8000140EE66EE66A0B0EE66EE66AB7EC32F009
:101F9000E552E552E552E5520001EC51200B0BE011
:101FA0000B0EE66EE66AE66EE66AB7EC32F0E552D4
:101FB000E552E552E55269EF37F0D9CFE6FFE1CFC0
:101FC000D9FF020EE126400EE66E3EEC29F0E55206
:101FD0000001010EEE6F0001F96BFA6B0001FD6963
:101FE000030EFE6F0001EF6B190EF06F0201186B0C
:101FF000320E196FE668010EE66E000EE66EE66AB6
:10200000E66EE66AE66EE66A020EE66E0C0E000109
:10201000E915E66E010EE66E68EC2DF0E552E5522C
:10202000E552F3CF14F0F4CF15F0F3CFE6FFF4CF81
:10203000E6FFFBEC03F0166E0A0EE15E16501DEC97
:102040003BF0FF0E0001FB1902E1010EFC190CE050
:10205000E668010EE66E0C0EE66EE66AB7EC32F04C
:10206000E552E552E552E552F8EC3AF001080CE091
:10207000E668010EE66E0C0EE66EE66AB7EC32F02C
:10208000E552E552E552E552000EE66EE66AE66E6E
:10209000E66AE66EE66AE66EE66A020EE66E0C0E2A
:1020A0000001E915E66E010EE66E68EC2DF0E552D2
:1020B000E552E552F3CF14F0F4CF15F0F3CFE6FF7D
:1020C000F4CFE6FFFBEC03F0166E0A0EE15E16504D
:1020D0001DEC3BF00001FB51FC110CE0000EE66E24
:1020E000E66A0C0EE66EE66AB7EC32F0E552E552AF
:1020F000E552E552F8EC3AF001080CE0000EE66E0D
:10210000E66A0C0EE66EE66AB7EC32F0E552E5528E
:10211000E552E552010EE66EFE0EE66E000EE66E2C
:10212000E66AE66EE66AE66EE66A020EE66E0C0E99
:102130000001E915E66E010EE66E68EC2DF0E55241
:10214000E552E552F3CF14F0F4CF15F0F3CFE6FFEC
:10215000F4CFE6FFFBEC03F0166E0A0EE15E1650BC
:102160001DEC3BF0010E0001FB1902E1FE0EFC1913
:102170000DE0010EE66EFE0EE66E0C0EE66EE66AF1
:10218000B7EC32F0E552E552E552E552F8EC3AF0A0
:1021900002080DE0010EE66EFE0EE66E0C0EE66E17
:1021A000E66AB7EC32F0E552E552E552E552010E2F
:1021B000E66E040EE66E000EE66EE66AE66EE66A0F
:1021C000E66EE66A020EE66E0C0E0001E915E66E9A
:1021D000010EE66E68EC2DF0E552E552E552F3CFC4
:1021E00014F0F4CF15F0F3CFE6FFF4CFE6FFFBECED
:1021F00003F0166E0A0EE15E16501DEC3BF0FF0E6A
:102200000001FB1902E1030EFC190DE0010EE66E60
:10221000040EE66E0C0EE66EE66AB7EC32F0E5529E
:10222000E552E552E552F8EC3AF001080DE0010EF6
:10223000E66E040EE66E0C0EE66EE66AB7EC32F061
:10224000E552E552E552E552E668FB0EE66E000EF9
:10225000E66EE66AE66EE66AE66EE66A020EE66E2E
:102260000C0E0001E915E66E010EE66E68EC2DF02D
:10227000E552E552E552F3CF14F0F4CF15F0F3CF69
:10228000E6FFF4CFE6FFFBEC03F0166E0A0EE15E0C
:1022900016501DEC3BF0010E0001FB1902E1FC0E93
:1022A000FC190CE0E668FB0EE66E0C0EE66EE66AC4
:1022B000B7EC32F0E552E552E552E552F8EC3AF06F
:1022C00002080CE0E668FB0EE66E0C0EE66EE66AAF
:1022D000B7EC32F0E552E552E552E552E6687F0E82
:1022E000E66E000EE66EE66AE66EE66AE66EE66AA0
:1022F000020EE66E0C0E0001E915E66E010EE66EAA
:1023000068EC2DF0E552E552E552F3CF14F0F4CF2E
:1023100015F0F3CFE6FFF4CFE6FFFBEC03F0166E0B
:102320000A0EE15E16501DEC3BF0FF0E0001FB199A
:1023300002E1030EFC190CE0E6687F0EE66E0C0E5F
:10234000E66EE66AB7EC32F0E552E552E552E55248
:10235000F8EC3AF001080CE0E6687F0EE66E0C0E31
:10236000E66EE66AB7EC32F0E552E552E552E55228
:10237000010EE66E800EE66E000EE66EE66AE66E12
:10238000E66AE66EE66A020EE66E0C0E0001E915DC
:10239000E66E010EE66E68EC2DF0E552E552E55270
:1023A000F3CF14F0F4CF15F0F3CFE6FFF4CFE6FF50
:1023B000FBEC03F0166E0A0EE15E16501DEC3BF0CE
:1023C000010E0001FB1902E1FC0EFC190DE0010EEB
:1023D000E66E800EE66E0C0EE66EE66AB7EC32F044
:1023E000E552E552E552E552F8EC3AF002080DE00C
:1023F000010EE66E800EE66E0C0EE66EE66AB7EC37
:1024000032F0E552E552E552E552010EE66E16EC69
:102410003EF0E552FBEC3AF000090CE1000EE66EEE
:10242000E66A0D0EE66EE66AB7EC32F0E552E5526A
:10243000E552E5520001EF6B330EF06F0201186BAD
:10244000320E196F010E0201206F216B02011E6F07
:102450001F6BE668E66E000EE66EE66AE66EE66AFA
:10246000E66EE66A020EE66E0C0E0001E915E66EF7
:10247000010EE66E68EC2DF0E552E552E552F3CF21
:1024800014F0F4CF15F0F3CFE6FFF4CFE6FFFBEC4A
:1024900003F0166E0A0EE15E16501DEC3BF00001D3
:1024A000FB51FC110CE0E668010EE66E0E0EE66EC6
:1024B000E66AB7EC32F0E552E552E552E552F8EC47
:1024C0003AF001080CE0E668010EE66E0E0EE66ECC
:1024D000E66AB7EC32F0E552E552E552E552000EFD
:1024E000E66EE66AE66EE66AE66EE66AE66EE66A5C
:1024F000020EE66E0C0E0001E915E66E010EE66EA8
:1025000068EC2DF0E552E552E552F3CF14F0F4CF2C
:1025100015F0F3CFE6FFF4CFE6FFFBEC03F0166E09
:102520000A0EE15E16501DEC3BF00001FB51FC1160
:102530000CE0000EE66EE66A0E0EE66EE66AB7EC9A
:1025400032F0E552E552E552E552F8EC3AF0010876
:102550000CE0000EE66EE66A0E0EE66EE66AB7EC7A
:1025600032F0E552E552E552E552E668010EE66EBC
:10257000000EE66EE66AE66EE66AE66EE66A020E51
:10258000E66E0C0E0001E915E66E010EE66E68ECD3
:102590002DF0E552E552E552F3CF14F0F4CF15F0EB
:1025A000F3CFE6FFF4CFE6FFFBEC03F0166E0A0E66
:1025B000E15E16501DEC3BF00001FB51FC110CE0FC
:1025C000E668010EE66E0E0EE66EE66AB7EC32F0D5
:1025D000E552E552E552E552F8EC3AF001080CE01C
:1025E000E668010EE66E0E0EE66EE66AB7EC32F0B5
:1025F000E552E552E552E5520001EF6B320EF06F05
:10260000E66A020EE66E000EE66EE66AE66EE66AC0
:10261000E66EE66A020EE66E0C0E0001E915E66E45
:10262000010EE66E68EC2DF0E552E552E552F3CF6F
:1026300014F0F4CF15F0F3CFE6FFF4CFE6FFFBEC98
:1026400003F0166E0A0EE15E16501DEC3BF0000121
:10265000FB51FC110CE0E66A020EE66E0E0EE66E11
:10266000E66AB7EC32F0E552E552E552E552F8EC95
:102670003AF001080CE0E66A020EE66E0E0EE66E17
:10268000E66AB7EC32F0E552E552E552E552000158
:10269000EF6B310EF06F010EE66E020EE66E000E6D
:1026A000E66EE66AE66EE66AE66EE66A020EE66EDA
:1026B0000C0E0001E915E66E010EE66E68EC2DF0D9
:1026C000E552E552E552F3CF14F0F4CF15F0F3CF15
:1026D000E6FFF4CFE6FFFBEC03F0166E0A0EE15EB8
:1026E00016501DEC3BF00001FB51FC110DE0010EFA
:1026F000E66E020EE66E0E0EE66EE66AB7EC32F09D
:10270000E552E552E552E552F8EC3AF001080DE0E9
:10271000010EE66E020EE66E0E0EE66EE66AB7EC8F
:1027200032F0E552E552E552E5520001EF6B300E12
:10273000F06F020EE66EE66E000EE66EE66AE66E7C
:10274000E66AE66EE66A020EE66E0C0E0001E91518
:10275000E66E010EE66E68EC2DF0E552E552E552AC
:10276000F3CF14F0F4CF15F0F3CFE6FFF4CFE6FF8C
:10277000FBEC03F0166E0A0EE15E16501DEC3BF00A
:102780000001FB51FC110CE0020EE66EE66E0E0E2F
:10279000E66EE66AB7EC32F0E552E552E552E552F4
:1027A000F8EC3AF001080CE0020EE66EE66E0E0E52
:1027B000E66EE66AB7EC32F0E552E552E552E552D4
:1027C0000001EF6B2F0EF06F030EE66E020EE66E49
:1027D000000EE66EE66AE66EE66AE66EE66A020EEF
:1027E000E66E0C0E0001E915E66E010EE66E68EC71
:1027F0002DF0E552E552E552F3CF14F0F4CF15F089
:10280000F3CFE6FFF4CFE6FFFBEC03F0166E0A0E03
:10281000E15E16501DEC3BF00001FB51FC110DE098
:10282000030EE66E020EE66E0E0EE66EE66AB7EC7C
:1028300032F0E552E552E552E552F8EC3AF0010883
:102840000DE0030EE66E020EE66E0E0EE66EE66A12
:10285000B7EC32F0E552E552E552E5520001EF6B7C
:102860002E0EF06F040EE66E020EE66E000EE66EA1
:10287000E66AE66EE66AE66EE66A020EE66E0C0E42
:102880000001E915E66E010EE66E68EC2DF0E552EA
:10289000E552E552F3CF14F0F4CF15F0F3CFE6FF95
:1028A000F4CFE6FFFBEC03F0166E0A0EE15E165065
:1028B0001DEC3BF00001FB51FC110DE0040EE66E37
:1028C000020EE66E0E0EE66EE66AB7EC32F0E552E8
:1028D000E552E552E552F8EC3AF001080DE0040E3D
:1028E000E66E020EE66E0E0EE66EE66AB7EC32F0AB
:1028F000E552E552E552E5520001010EEF6F2D0E53
:10290000F06F050EE66E020EE66E000EE66EE66AEB
:10291000E66EE66AE66EE66A020EE66E0C0E0001F0
:10292000E915E66E010EE66E68EC2DF0E552E55213
:10293000E552F3CF14F0F4CF15F0F3CFE6FFF4CF68
:10294000E6FFFBEC03F0166E0A0EE15E16501DEC7E
:102950003BF00001FB51FC110DE0050EE66E020E8E
:10296000E66E0E0EE66EE66AB7EC32F0E552E55220
:10297000E552E552F8EC3AF001080DE0050EE66E7E
:10298000020EE66E0E0EE66EE66AB7EC32F0E55227
:10299000E552E552E5520001EF6B2D0EF06F060E89
:1029A000E66E020EE66E000EE66EE66AE66EE66A19
:1029B000E66EE66A020EE66E0C0E0001E915E66EA2
:1029C000010EE66E68EC2DF0E552E552E552F3CFCC
:1029D00014F0F4CF15F0F3CFE6FFF4CFE6FFFBECF5
:1029E00003F0166E0A0EE15E16501DEC3BF0060E6B
:1029F0000001FB1902E1020EFC190DE0060EE66E65
:102A0000020EE66E0E0EE66EE66AB7EC32F0E552A6
:102A1000E552E552E552F8EC3AF001080DE0060EF9
:102A2000E66E020EE66E0E0EE66EE66AB7EC32F069
:102A3000E552E552E552E5520001EE6B0201880EC7
:102A4000206F130E216F020EE15C02E2E16AE55293
:102A5000E16EE552E7CFD9FF1200D9CFE6FFE1CF13
:102A6000D9FFE652DF6A400EE66E3EEC29F0E552F1
:102A700040EC18F00A0E0101C46FC56B0101D86B60
:102A8000D96B000EE66EE66A82EC3AF0E552E5524A
:102A9000E80EE66E16EC3EF0E552FBEC3AF0DF6E27
:102AA000E668030EE66E000EE66EE66AE66EE66A1D
:102AB000E66EE66A010EE66E0C0E0001E915E66EA2
:102AC000010EE66E68EC2DF0E552E552E552F3CFCB
:102AD00014F0F4CF15F0F3CFE6FFF4CFE6FFFBECF4
:102AE00003F0166E0A0EE15E16501DEC3BF0010E6F
:102AF0000101DE1902E1FC0EDF190CE0020EE66EA8
:102B0000E66A1E0EE66EE66AB7EC32F0E552E55272
:102B1000E552E552010E0001FB1902E1FC0EFC1921
:102B20000CE0030EE66EE66A1E0EE66EE66AB7EC91
:102B300032F0E552E552E552E552F8EC3AF002087F
:102B40000CE0040EE66EE66A1E0EE66EE66AB7EC70
:102B500032F0E552E552E552E552000EE66EE66AC5
:102B600082EC3AF0E552E552E552E552E7CFD9FF63
:102B70001200400EE66E3EEC29F0E5520001470ED1
:102B8000EC6F810EED6F040EE66E010E0001E9158B
:102B9000E66EE66A68EC2DF0E552E552E552F3CFB9
:102BA00014F0F4CF15F0F3CFE6FFF4CFE6FFC4EC5A
:102BB00003F0E552E55249CF2EF248CF2DF2470EF1
:102BC00002012D1902E1810E2E190CE0010EE66EB4
:102BD000E66A160EE66EE66AB7EC32F0E552E552AA
:102BE000E552E5520F014251E00BE838E840146E1F
:102BF0004151080DF350141002012C6F0F0E2C15CB
:102C000004080BE0E668E668160EE66EE66AB7ECC6
:102C100032F0E552E552E552E55290EC32F0000117
:102C2000230EFB6F010EFC6F030EE66E010E00011A
:102C3000E915E66EE66A68EC2DF0E552E552E552DC
:102C4000F3CF14F0F4CF15F0F3CFE6FFF4CFE6FFA7
:102C5000C4EC03F0E552E55249CF2EF248CF2DF2F5
:102C6000230E02012D1902E1010E2E190CE0020EB5
:102C7000E66EE66A160EE66EE66AB7EC32F0E552EC
:102C8000E552E552E5520F014251E00BE838E840C9
:102C9000146E4151080DF350141002012C6F0F0EE9
:102CA0002C1503080CE0FE0EE66EE668160EE66EC6
:102CB000E66AB7EC32F0E552E552E552E55290ECA7
:102CC00032F00001360EF16F700EF26F050EE66EF7
:102CD000010E0001E915E66EE66A68EC2DF0E5529A
:102CE000E552E552F3CF14F0F4CF15F0F3CFE6FF41
:102CF000F4CFE6FFC4EC03F0E552E55249CF2EF2E3
:102D000048CF2DF2360E02012D1902E1700E2E1958
:102D10000CE0030EE66EE66A160EE66EE66AB7ECA7
:102D200032F0E552E552E552E5520F014251E00B17
:102D3000E838E840146E4151080DF35014100201B8
:102D40002C6F0F0E2C1505080CE0FD0EE66EE668E4
:102D5000160EE66EE66AB7EC32F0E552E552E55241
:102D6000E55290EC32F00001250EF36F690EF46F1E
:102D7000060EE66E010E0001E915E66EE66A68ECE5
:102D80002DF0E552E552E552F3CF14F0F4CF15F0F3
:102D9000F3CFE6FFF4CFE6FFC4EC03F0E552E552D3
:102DA00049CF2EF248CF2DF2250E02012D1902E156
:102DB000690E2E190CE0040EE66EE66A160EE66E3B
:102DC000E66AB7EC32F0E552E552E552E5520F0102
:102DD0004251E00BE838E840146E4151080DF350C1
:102DE000141002012C6F0F0E2C1506080CE0FC0EBF
:102DF000E66EE668160EE66EE66AB7EC32F0E5526D
:102E0000E552E552E55290EC32F00001140EEF6FFE
:102E1000580EF06F070EE66E010E0001E915E66E22
:102E2000E66A68EC2DF0E552E552E552F3CF14F076
:102E3000F4CF15F0F3CFE6FFF4CFE6FFC4EC03F0D8
:102E4000E552E55249CF2EF248CF2DF2140E020181
:102E50002D1902E1580E2E190CE0050EE66EE66AF9
:102E6000160EE66EE66AB7EC32F0E552E552E55230
:102E7000E5520F014251E00BE838E840146E415131
:102E8000080DF350141002012C6F0F0E2C150708BB
:102E90000CE0FB0EE66EE668160EE66EE66AB7EC30
:102EA00032F0E552E552E552E55290EC32F0000185
:102EB000030ED66F470ED76F080EE66E010E0001A7
:102EC000E915E66EE66A68EC2DF0E552E552E5524A
:102ED000F3CF14F0F4CF15F0F3CFE6FFF4CFE6FF15
:102EE000C4EC03F0E552E55249CF2EF248CF2DF263
:102EF000040E02012D1902E1470E2E190CE0060EF8
:102F0000E66EE66A160EE66EE66AB7EC32F0E55259
:102F1000E552E552E5520F014251E00BE838E84036
:102F2000146E4151080DF350141002012C6F0F0E56
:102F30002C1508080CE0FA0EE66EE668160EE66E32
:102F4000E66AB7EC32F0E552E552E552E55290EC14
:102F500032F00001920ED86F360ED96F090EE66E70
:102F6000010E0001E915E66EE66A68EC2DF0E55207
:102F7000E552E552F3CF14F0F4CF15F0F3CFE6FFAE
:102F8000F4CFE6FFC4EC03F0E552E55249CF2EF250
:102F900048CF2DF2930E02012D1902E1360E2E19A3
:102FA0000CE0070EE66EE66A160EE66EE66AB7EC11
:102FB00032F0E552E552E552E5520F014251E00B85
:102FC000E838E840146E4151080DF3501410020126
:102FD0002C6F0F0E2C1509080CE0F90EE66EE66852
:102FE000160EE66EE66AB7EC32F0E552E552E552AF
:062FF000E55290EF32F003
:0A2FF6000101FF0EC16BB7AF07EF3A
:1030000018F0B61BB71BB62BD8B0B72BC171B9AF30
:1030100010EF18F0B81BB91BB82BD8B0B92BC17181
:10302000B6C1C0F10000B651B803F4CFB5F100004D
:10303000F3CFB4F10000B751B903F4CFB7F10000FA
:10304000F3CFB6F10000B803F350B527F450B62320
:10305000E86AB723C051B903F350B527F450B6233B
:10306000E86AB723C1A13FEF18F0FF0EB41BB51BF0
:10307000B61BB71B000EB42BB523B623B723120023
:10308000D9CFE6FFE1CFD9FFE6520101C26BC36B96
:10309000C46BC56BC66BC76BC86BC96BCA6BCB6B9C
:1030A000CC6BCD6BCE6BD06BD16BD26BD36BD46B47
:1030B000D56BD66BD76BCF6BD86BD96BDA6BDB6B01
:1030C000DE6BDF6B010EE86FDF6A100EDF5C0DE276
:1030D000EA6ADF34FE0BEA36E96E000EE926010EDD
:1030E000EA22EE6AED6ADF2AF0D70101E96BDF6AB6
:1030F000400EDF5C0DE2EA6ADF34FE0BEA36E96E71
:10310000200EE926010EEA22EE6AED6ADF2AF0D7E8
:103110000101EA6BEB6BEC6BED6BE552E552E7CF2F
:10312000D9FF1200D8C1F0F1D9C1F1F10101DA5192
:10313000F05FDB51F15BE951E96EEA6AD890E9365C
:10314000EA36200EE926010EEA22EE50F05D146EFA
:10315000EE50F159156E1450EA271550EB23E95142
:10316000E96EEA6AD890E936EA36200EE926010EC1
:10317000EA22F0C1EEFFF1C1EDFFE92B3F0EE917A6
:10318000FE5120E0EBBF0DD0EA51D45D0101A06FEC
:103190000101EB51D5590101A16FA1AF02D001018D
:1031A000FE6B0101EBAF2DD0D651EA5D0101A06F9E
:1031B0000101D751EB590101A16FA1AF22D001014B
:1031C000FE6B1FD0EBBF0DD0D051EA5D0101A06FA7
:1031D0000101D151EB590101A16FA1AF02D0010151
:1031E000FE690101EBAF0DD0EA51D25D0101A06F84
:1031F0000101EB51D3590101A16FA1AF02D001012F
:10320000FE690101FE5102E0F06BF16BFD5138E007
:10321000F6510BE1DC51DA19146EDD51DB19156E34
:10322000E850800B02E0010EF66FF65129E0DB3525
:1032300012E2DA510008000EDB550DE2280ED9AF7C
:1032400002D0D89003D0D85D000ED95903E2CF51F7
:1032500012E10DD0F66B800EDB1512E0D93504E3D8
:10326000D851D808FF0ED9550AE2CF5104E0010E1B
:10327000DE6FFC0E02D0DE69030EDF6F1200F66B0C
:10328000DAC1DCF1DBC1DDF1C4C1B6F1C5C1B7F112
:10329000F0C1B8F1F1C1B9F1AEDEB4C1A6F1B5C16A
:1032A000A7F1B6C1A8F1B7C1A9F10101F051EE270C
:1032B000F151EF23EF351EE2EE510008000EEF55FD
:1032C00019E20A0EEE5F000EEF5B800EEF1502E0D2
:1032D000EE6BEF6BCB51EF19E8AE02D0EF3504D0B7
:1032E000EE51CA5DEF51CB5924E2CAC1EEF1CBC118
:1032F000EFF11FD0800EEF151CE00A0EEE27000E36
:10330000EF23EF3507E2EE510008000EEF5502E221
:10331000EE6BEF6BEF51CD19E8AE02D0CD3504D096
:10332000CC51EE5DCD51EF5904E2CCC1EEF1CDC1EF
:10333000EFF1C6C1B6F1C7C1B7F1EEC1B8F1EFC147
:10334000B9F159DEB4C1AEF1B5C1AFF1B6C1B0F15A
:10335000B7C1B1F1B5C1AEF1B6C1AFF1B7C1B0F10E
:103360000101B16BB0BFB1690101E851E96EEA6AD0
:10337000D890E936EA36000EE926010EEA22EE5030
:10338000F05D0101B26FEE500101F1590101B36F1F
:103390000101E851E96EEA6AD890E936EA36000E92
:1033A000E926010EEA22F0C1EEFFF1C1EDFFE82BA4
:1033B0000F0EE817B2C1B6F1B3C1B7F1C8C1B8F189
:1033C000C9C1B9F118DEB4C1AAF1B5C1ABF1B6C13A
:1033D000ACF1B7C1ADF1C2C1B6F1C3C1B7F1DAC149
:1033E000B8F1DBC1B9F107DEB4C1A2F1B5C1A3F1F7
:1033F000B6C1A4F1B7C1A5F1A7C1F7F1A8C1F8F111
:10340000AFC1F9F1B0C1FAF1ABC1FBF1ACC1FCF154
:10341000AA0EE96E010EEA6E0101A651EE24146EA9
:10342000A751EE20156EA851EE20166EA951EE2080
:10343000176EA20EE96E010EEA6EEE50145C0101E9
:10344000F26FEE501558F36FEE501658F46FEE50C1
:103450001758F56FF3C1F2F1F4C1F3F1F46FF56BA6
:10346000F4BFF5690101AE510101F2270101AF512D
:103470000101F3230101B0510101F4230101B15114
:103480000101F523F535000EF51909E6D880000E87
:10349000F255000EF355000EF455000EF55509E2F5
:1034A000030ED890F533F433F333F233E806F9E141
:1034B00029D0F2C114F0F3C115F0F4C116F0F5C132
:1034C00017F0000E146C151E1522161E1622171E5C
:1034D0001722030ED8901732163215321432E8062E
:1034E000F9E114C0F2F115C0F3F116C0F4F117C000
:1034F000F5F1000E0101F26DF31FF323F41FF42325
:10350000F51FF5230101F535000EF51909E6D88000
:10351000FF0EF255030EF355000EF455000EF5554F
:1035200006E2F269030EF36FF46BF56B13D0D880EB
:10353000F551FF0A08E6010EF25DFC0EF359FF0E8D
:10354000F459FF0EF55906E2010EF26FFC0EF36F0F
:10355000F469F569CF5105E1F2C1DEF1F3C1DFF1A4
:103560001200F2C106F0F3C107F0F4C108F0F5C192
:1035700009F00B680C680D680E68A0EC3DF002C005
:10358000DEF103C0DFF11200D9CFE6FFE1CFD9FFB2
:10359000020EE126DE6ADD6A0101D93516E2D85154
:1035A0000008000ED95511E2E751D919E8AE02D052
:1035B000D93504D0D851E65DD951E75922E2E65118
:1035C000D85D146ED951E75518D0E6C114F0E7C1A3
:1035D00015F0146C151E000E1522D9511518E8AE01
:1035E00002D0153404D01450D85D1550D95909E2D1
:1035F000D851E625146ED951E72114C0DEFFDD6EE7
:1036000002D0DE6ADD6ADECFE4F1DDCFE5F1D890ED
:10361000E437E537D890E437E537E53509E2E4519A
:10362000FD08070EE55504E2FD0EE46F070EE56F99
:10363000D880E55104E7030EE45DF80EE55904E295
:10364000030EE46FF80EE56F020EE15C02E2E16A40
:10365000E552E16EE552E7CFD9FF12000101C26BDE
:10366000100EC36FC46BC56BC66BC76BC86BC96BE1
:10367000CA6BCB6BCC6BCD6BCE6BCF6BF60ED86FB2
:10368000D9690A0EDA6FDB6B4DDDEC0E0101DE1934
:1036900002E1FF0EDF190DE0EC0EE66EE6680F0E9C
:1036A000E66EE66AB7EC32F0E552E552E552E552D5
:1036B00004D00001EA2B000EEB230101D86BD96B7B
:1036C000DA6BDB6B2FDD0101DE51DF110DE0000E47
:1036D000E66EE66A0F0EE66EE66AB7EC32F0E55289
:1036E000E552E552E55204D00001EA2B000EEB232F
:1036F0000A0E0101D86FD96BF60EDA6FDB6912DDA5
:103700000101140EDE1901E1DF510DE0140EE66E29
:10371000E66A0F0EE66EE66AB7EC32F0E552E55265
:10372000E552E55204D00001EA2B000EEB23010123
:10373000D8697F0ED96FDA69DB6FF4DC010E010105
:10374000DE1902E1FC0EDF190EE0010EE66EFC0E42
:10375000E66E0F0EE66EE66AB7EC32F0E552E55221
:10376000E552E55204D00001EA2B000EEB230101E3
:10377000D8693F0ED96FDA69DB6FD4DC010E010125
:10378000DE1902E1FC0EDF190EE0010EE66EFC0E02
:10379000E66E0F0EE66EE66AB7EC32F0E552E552E1
:1037A000E552E55204D00001EA2B000EEB230101A3
:1037B000010ED86FC00ED96F010EDA6FC00EDB6F2D
:1037C000B1DCFF0E0101DE1902E1030EDF190DE08D
:1037D000E668030EE66E0F0EE66EE66AB7EC32F0B0
:1037E000E552E552E552E55204D00001EA2B000E05
:1037F000EB230101010ED86F800ED96F010EDA6F35
:10380000800EDB6F8FDCFF0E0101DE1902E1030E7B
:10381000DF190DE0E668030EE66E0F0EE66EE66A4F
:10382000B7EC32F0E552E552E552E55204D0000122
:10383000EA2B000EEB230101C2697F0EC36FF60E67
:10384000D86FD969D00EDA6F070EDB6F6BDC010E13
:103850000101DE1902E1FC0EDF190EE0010EE66E39
:10386000FC0EE66E0F0EE66EE66AB7EC32F0E5523D
:10387000E552E552E55204D00001EA2B000EEB239D
:103880000101F60ED86FD9690A0EDA6FDB6B4ADCDC
:10389000600E0101DE1902E1FF0EDF190DE0600E7E
:1038A000E66EE6680F0EE66EE66AB7EC32F0E552B9
:1038B000E552E552E55204D00001EA2B000EEB235D
:1038C0000101D86BD96BDA6BDB6B2CDC0101DE51AB
:1038D000DF110DE0000EE66EE66A0F0EE66EE66A98
:1038E000B7EC32F0E552E552E552E55204D0000162
:1038F000EA2B000EEB230A0E0101D86FD96BF60EEE
:10390000DA6FDB6992EC18F001019F0EDE1901E11C
:10391000DF510DE09F0EE66EE66A0F0EE66EE66A78
:10392000B7EC32F0E552E552E552E55204D0000121
:10393000EA2B000EEB230101F60ED86FD969300E89
:10394000DA6FF80EDB6F92EC18F0FF0E0101DE1952
:1039500002E1030EDF190DE0E668030EE66E0F0EBE
:10396000E66EE66AB7EC32F0E552E552E552E55212
:1039700004D00001EA2B000EEB230101D8697F0E71
:10398000D96FDA69DB6F92EC18F0010E0101DE19D4
:1039900002E1FC0EDF190EE0010EE66EFC0EE66E93
:1039A0000F0EE66EE66AB7EC32F0E552E552E552EC
:1039B000E55204D00001EA2B000EEB230101D86987
:1039C0003F0ED96FDA69DB6F92EC18F0010E01013E
:1039D000DE1902E1FC0EDF190EE0010EE66EFC0EB0
:1039E000E66E0F0EE66EE66AB7EC32F0E552E5528F
:1039F000E552E55204D00001EA2B000EEB23010151
:103A0000010ED86FC00ED96F010EDA6FC00EDB6FDA
:103A100092EC18F0FF0E0101DE1902E1030EDF192E
:103A20000DE0E668030EE66E0F0EE66EE66AB7EC92
:103A300032F0E552E552E552E55204D00001EA2B9E
:103A4000000EEB230101010ED86F800ED96F010E1D
:103A5000DA6F800EDB6F92EC18F0FF0E0101DE19B9
:103A600002E1030EDF190DE0E668030EE66E0F0EAD
:103A7000E66EE66AB7EC32F0E552E552E552E55201
:103A800012000001EA2B000EEB2312000101C26BB1
:103A9000C36BC46BF00EC56FC66BC76BC86BC96BCD
:103AA000CA6BCB6BCC6BCD6BCE6BCF6B010ED86F73
:103AB000D96BDA6BDB6B92EC18F0FE0E0101DE19AC
:103AC00002E1FF0EDF190DE0FE0EE66EE668100E55
:103AD000E66EE66AB7EC32F0E552E552E552E552A1
:103AE00004D00001EA2B000EEB230101D86BD96B47
:103AF000010EDA6FDB6B92EC18F00101020EDE1999
:103B000001E1DF510DE0020EE66EE66A100EE66E90
:103B1000E66AB7EC32F0E552E552E552E55204D0E0
:103B20000001EA2B000EEB23020E0101D86FD96BC6
:103B3000DA6BDB6B92EC18F0FC0E0101DE1902E18E
:103B4000FF0EDF190DE0FC0EE66EE668100EE66E65
:103B5000E66AB7EC32F0E552E552E552E55204D0A0
:103B60000001EA2B000EEB230101D86BD96B020E8A
:103B7000DA6FDB6B92EC18F00101040EDE1901E143
:103B8000DF510DE0040EE66EE66A100EE66EE66AA0
:103B9000B7EC32F0E552E552E552E55204D00001AF
:103BA000EA2B000EEB230101D8697F0ED96FDA6B87
:103BB000DB6B92EC18F0010E0101DE1902E1FC0E44
:103BC000DF190EE0010EE66EFC0EE66E100EE66EDC
:103BD000E66AB7EC32F0E552E552E552E55204D020
:103BE0000001EA2B000EEB230101D8693F0ED96FCB
:103BF000DA6BDB6B92EC18F0010E0101DE1902E1C9
:103C0000FC0EDF190EE0010EE66EFC0EE66E100EE5
:103C1000E66EE66AB7EC32F0E552E552E552E5525F
:103C200004D00001EA2B000EEB230101010ED86F36
:103C3000C00ED96FDA6BDB6B92EC18F0FF0E01014E
:103C4000DE1902E1030EDF190DE0E668030EE66EF1
:103C5000100EE66EE66AB7EC32F0E552E552E55238
:103C6000E55204D00001EA2B000EEB230101010E06
:103C7000D86F800ED96FDA6BDB6B92EC18F0FF0E09
:103C80000101DE1902E1030EDF190DE0E668030E03
:103C9000E66E100EE66EE66AB7EC32F0E552E552DB
:103CA000E552E55204D00001EA2B000EEB2301019E
:103CB000C46B100EC56F0A0ED86FD96BDA6FDB6B51
:103CC00092EC18F00101DE51DF110DE0000EE66EFE
:103CD000E66A100EE66EE66AB7EC32F0E552E5529F
:103CE000E552E55204D00001EA2B000EEB2301015E
:103CF000D86BD96BDA6BDB6B92EC18F00101DE51FB
:103D0000DF110DE0000EE66EE66A100EE66EE66A62
:103D1000B7EC32F0E552E552E552E55204D000012D
:103D2000EA2B000EEB230101F60ED86FD969DA6F8A
:103D3000DB6992EC18F00101DE51DF110DE0000E9D
:103D4000E66EE66A100EE66EE66AB7EC32F0E55211
:103D5000E552E552E55204D00001EA2B000EEB23B8
:103D60000101D8697F0ED96FDA69DB6F92EC18F028
:103D70000101DE51DF110DE0000EE66EE66A100E65
:103D8000E66EE66AB7EC32F0E552E552E552E552EE
:103D900004D00001EA2B000EEB230101D8693F0E8D
:103DA000D96FDA69DB6F92EC18F00101DE51DF1197
:103DB0000DE0000EE66EE66A100EE66EE66AB7ECFF
:103DC00032F0E552E552E552E55204D00001EA2B0B
:103DD000000EEB230101010ED86FC00ED96F010E4A
:103DE000DA6FC00EDB6F92EC18F00101DE51DF11CB
:103DF0000DE0000EE66EE66A100EE66EE66AB7ECBF
:103E000032F0E552E552E552E55204D00001EA2BCA
:103E1000000EEB230101010ED86F800ED96F010E49
:103E2000DA6F800EDB6F92EC18F00101DE51DF11CA
:103E30000DE0000EE66EE66A100EE66EE66AB7EC7E
:103E400032F0E552E552E552E55204D00001EA2B8A
:103E5000000EEB23010E0101D86FD96BDA6BDB6B1F
:103E600092EC18F00101020EDE1901E1DF510DE0C4
:103E7000020EE66EE66A100EE66EE66AB7EC32F007
:103E8000E552E552E552E55204D00001EA2B000E5E
:103E9000EB230101D86BD96B010EDA6FDB6B92EC6F
:103EA00018F0FE0E0101DE1902E1FF0EDF190DE030
:103EB000FE0EE66EE668100EE66EE66AB7EC32F0CD
:103EC000E552E552E552E55204D00001EA2B000E1E
:103ED000EB23020E0101D86FD96BDA6BDB6B92EC2E
:103EE00018F00101040EDE1901E1DF510DE0040EAE
:103EF000E66EE66A100EE66EE66AB7EC32F0E55260
:103F0000E552E552E55204D00001EA2B000EEB2306
:103F10000101D86BD96B020EDA6FDB6B92EC18F0F3
:103F2000FC0E0101DE1902E1FF0EDF190DE0FC0EAF
:103F3000E66EE668100EE66EE66AB7EC32F0E55221
:103F4000E552E552E55204D00001EA2B000EEB23C6
:103F50000101D8697F0ED96FDA6BDB6B92EC18F038
:103F6000FF0E0101DE1902E1030EDF190DE0E66824
:103F7000030EE66E100EE66EE66AB7EC32F0E5521E
:103F8000E552E552E55204D00001EA2B000EEB2386
:103F90000101D8693F0ED96FDA6BDB6B92EC18F038
:103FA000FF0E0101DE1902E1030EDF190DE0E668E4
:103FB000030EE66E100EE66EE66AB7EC32F0E552DE
:103FC000E552E552E55204D00001EA2B000EEB2346
:103FD0000101010ED86FC00ED96FDA6BDB6B92EC6A
:103FE00018F0010E0101DE1902E1FC0EDF190EE0EE
:103FF000010EE66EFC0EE66E100EE66EE66AB7EC9B
:1040000032F0E552E552E552E55204D00001EA2BC8
:10401000000EEB230101010ED86F800ED96FDA6B11
:10402000DB6B92EC18F0010E0101DE1902E1FC0ECF
:10403000DF190EE0010EE66EFC0EE66E100EE66E67
:10404000E66AB7EC32F0E552E552E552E55204D0AB
:104050000001EA2B000EEB230101C46B100EC56FAB
:10406000640ED86FD96BDA6FDB6B92EC18F001013C
:10407000DE51DF110DE0000EE66EE66A100EE66E10
:10408000E66AB7EC32F0E552E552E552E55204D06B
:104090000001EA2B000EEB230101D86BD96BDA6B20
:1040A000DB6B92EC18F00101DE51DF110DE0000E28
:1040B000E66EE66A100EE66EE66AB7EC32F0E5529E
:1040C000E552E552E55204D00001EA2B000EEB2345
:1040D00001019C0ED86FD969DA6FDB6992EC18F098
:1040E0000101DE51DF110DE0000EE66EE66A100EF2
:1040F000E66EE66AB7EC32F0E552E552E552E5527B
:1041000004D00001EA2B000EEB230101D8697F0ED9
:10411000D96FDA69DB6F92EC18F00101DE51DF1123
:104120000DE0000EE66EE66A100EE66EE66AB7EC8B
:1041300032F0E552E552E552E55204D00001EA2B97
:10414000000EEB230101D8693F0ED96FDA69DB6FEE
:1041500092EC18F00101DE51DF110DE0000EE66E69
:10416000E66A100EE66EE66AB7EC32F0E552E5520A
:10417000E552E55204D00001EA2B000EEB230101C9
:10418000010ED86FC00ED96F010EDA6FC00EDB6F53
:1041900092EC18F00101DE51DF110DE0000EE66E29
:1041A000E66A100EE66EE66AB7EC32F0E552E552CA
:1041B000E552E55204D00001EA2B000EEB23010189
:1041C000010ED86F800ED96F010EDA6F800EDB6F93
:1041D00092EC18F00101DE51DF110DE0000EE66EE9
:1041E000E66A100EE66EE66AB7EC32F0E552E5528A
:1041F000E552E55204D00001EA2B000EEB23010E3C
:104200000101D86FD96BDA6BDB6B92EC18F001010E
:10421000020EDE1901E1DF510DE0020EE66EE66AE4
:10422000100EE66EE66AB7EC32F0E552E552E55262
:10423000E55204D00001EA2B000EEB230101D86BFC
:10424000D96B010EDA6FDB6B92EC18F0FE0E0101F8
:10425000DE1902E1FF0EDF190DE0FE0EE66EE668E4
:10426000100EE66EE66AB7EC32F0E552E552E55222
:10427000E55204D00001EA2B000EEB23020E0101EF
:10428000D86FD96BDA6BDB6B92EC18F00101040E7E
:10429000DE1901E1DF510DE0040EE66EE66A100E54
:1042A000E66EE66AB7EC32F0E552E552E552E552C9
:1042B00004D00001EA2B000EEB230101D86BD96B6F
:1042C000020EDA6FDB6B92EC18F0FC0E0101DE19C6
:1042D00002E1FF0EDF190DE0FC0EE66EE668100E3F
:1042E000E66EE66AB7EC32F0E552E552E552E55289
:1042F00004D00001EA2B000EEB230101D8697F0EE8
:10430000D96FDA6BDB6B92EC18F0FF0E0101DE194E
:1043100002E1030EDF190DE0E668030EE66E100EF3
:10432000E66EE66AB7EC32F0E552E552E552E55248
:1043300004D00001EA2B000EEB230101D8693F0EE7
:10434000D96FDA6BDB6B92EC18F0FF0E0101DE190E
:1043500002E1030EDF190DE0E668030EE66E100EB3
:10436000E66EE66AB7EC32F0E552E552E552E55208
:1043700004D00001EA2B000EEB230101010ED86FDF
:10438000C00ED96FDA6BDB6B92EC18F0010E0101F5
:10439000DE1902E1FC0EDF190EE0010EE66EFC0EE6
:1043A000E66E100EE66EE66AB7EC32F0E552E552C4
:1043B000E552E55204D00001EA2B000EEB23010187
:1043C000010ED86F800ED96FDA6BDB6B92EC18F0B0
:1043D000010E0101DE1902E1FC0EDF190EE0010EF3
:1043E000E66EFC0EE66E100EE66EE66AB7EC32F094
:1043F000E552E552E552E55204D00001EA2B000EE9
:10440000EB230101C46B600EC56F0A0ED86FD96B28
:10441000DA6FDB6B92EC18F00101DE51DF110DE079
:10442000000EE66EE66A100EE66EE66AB7EC32F053
:10443000E552E552E552E55204D00001EA2B000EA8
:10444000EB230101D86BD96BDA6BDB6B92EC18F0C4
:104450000101DE51DF110DE0000EE66EE66A100E7E
:10446000E66EE66AB7EC32F0E552E552E552E55207
:1044700004D00001EA2B000EEB230101F60ED86FE9
:10448000D969DA6FDB6992EC18F00101DE51DF11B6
:104490000DE0000EE66EE66A100EE66EE66AB7EC18
:1044A00032F0E552E552E552E55204D00001EA2B24
:1044B000000EEB230101D8697F0ED96FDA69DB6F3B
:1044C00092EC18F00101DE51DF110DE0000EE66EF6
:1044D000E66A100EE66EE66AB7EC32F0E552E55297
:1044E000E552E55204D00001EA2B000EEB23010156
:1044F000D8693F0ED96FDA69DB6F92EC18F00101D1
:10450000DE51DF110DE0000EE66EE66A100EE66E7B
:10451000E66AB7EC32F0E552E552E552E55204D0D6
:104520000001EA2B000EEB230101010ED86FC00E33
:10453000D96F010EDA6FC00EDB6F92EC18F001013B
:10454000DE51DF110DE0000EE66EE66A100EE66E3B
:10455000E66AB7EC32F0E552E552E552E55204D096
:104560000001EA2B000EEB230101010ED86F800E33
:10457000D96F010EDA6F800EDB6F92EC18F001013B
:10458000DE51DF110DE0000EE66EE66A100EE66EFB
:10459000E66AB7EC32F0E552E552E552E55204D056
:1045A0000001EA2B000EEB23010E0101D86FD96B3D
:1045B000DA6BDB6B92EC18F001010C0EDE1901E1F5
:1045C000DF510DE00C0EE66EE66A100EE66EE66A4E
:1045D000B7EC32F0E552E552E552E55204D0000165
:1045E000EA2B000EEB230101D86BD96B010EDA6FB9
:1045F000DB6B92EC18F0F40E0101DE1902E1FF0E04
:10460000DF190DE0F40EE66EE668100EE66EE66A5F
:10461000B7EC32F0E552E552E552E55204D0000124
:10462000EA2B000EEB23020E0101D86FD96BDA6B77
:10463000DB6B92EC18F00101180EDE1901E1DF517D
:104640000DE0180EE66EE66A100EE66EE66AB7EC4E
:1046500032F0E552E552E552E55204D00001EA2B72
:10466000000EEB230101D86BD96B020EDA6FDB6B06
:1046700092EC18F0E80E0101DE1902E1FF0EDF19DD
:104680000DE0E80EE66EE668100EE66EE66AB7EC40
:1046900032F0E552E552E552E55204D00001EA2B32
:1046A000000EEB230101D8697F0ED96FDA6BDB6B4B
:1046B00092EC18F0FF0E0101DE1902E1030EDF1982
:1046C0000DE0E668030EE66E100EE66EE66AB7ECE5
:1046D00032F0E552E552E552E55204D00001EA2BF2
:1046E000000EEB230101D8693F0ED96FDA6BDB6B4B
:1046F00092EC18F0FF0E0101DE1902E1030EDF1942
:104700000DE0E668030EE66E100EE66EE66AB7ECA4
:1047100032F0E552E552E552E55204D00001EA2BB1
:10472000000EEB230101010ED86FC00ED96FDA6BBA
:10473000DB6B92EC18F0010E0101DE1902E1FC0EB8
:10474000DF190EE0010EE66EFC0EE66E100EE66E50
:10475000E66AB7EC32F0E552E552E552E55204D094
:104760000001EA2B000EEB230101010ED86F800E31
:10477000D96FDA6BDB6B92EC18F0010E0101DE19D8
:1047800002E1FC0EDF190EE0010EE66EFC0EE66E95
:10479000100EE66EE66AB7EC32F0E552E552E552ED
:1047A000E55212000001EA2B000EEB231200D9CFD4
:1047B000E6FFE1CFD9FF020EE1260101C26BC36B18
:1047C000C46BC56BC66B100EC76FC86BC96B050E8B
:1047D000CA6FCB6BCC6BCD6BCE6BCF6B0A0ED86F29
:1047E000D96BDA6FDB6B92EC18F00101DE51DF114F
:1047F0000DE0000EE66EE66A110EE66EE66AB7ECB4
:1048000032F0E552E552E552E55204D00001EA2BC0
:10481000000EEB230101D86BD96BDA6BDB6B92ECEA
:1048200018F00101DE51DF110DE0000EE66EE66AC0
:10483000110EE66EE66AB7EC32F0E552E552E5524B
:10484000E55204D00001EA2B000EEB230101F60E25
:10485000D86FD969DA6FDB6992EC18F00101DE518B
:10486000DF110DE0000EE66EE66A110EE66EE66AF6
:10487000B7EC32F0E552E552E552E55204D00001C2
:10488000EA2B000EEB230101D8697F0ED96FDA699C
:10489000DB6F92EC18F00101DE51DF110DE0000E2C
:1048A000E66EE66A110EE66EE66AB7EC32F0E552A5
:1048B000E552E552E55204D00001EA2B000EEB234D
:1048C0000101D8693F0ED96FDA69DB6F92EC18F0FD
:1048D0000101DE51DF110DE0000EE66EE66A110EF9
:1048E000E66EE66AB7EC32F0E552E552E552E55283
:1048F00004D00001EA2B000EEB230101010ED86F5A
:10490000C00ED96F010EDA6FC00EDB6F92EC18F09B
:104910000101DE51DF110DE0000EE66EE66A110EB8
:10492000E66EE66AB7EC32F0E552E552E552E55242
:1049300004D00001EA2B000EEB230101010ED86F19
:10494000800ED96F010EDA6F800EDB6F92EC18F0DB
:104950000101DE51DF110DE0000EE66EE66A110E78
:10496000E66EE66AB7EC32F0E552E552E552E55202
:1049700004D00001EA2B000EEB230B0E0101D86FCF
:10498000D96BDA6BDB6B92EC18F00101020EDE19C9
:1049900001E1DF510DE0020EE66EE66A110EE66EF1
:1049A000E66AB7EC32F0E552E552E552E55204D042
:1049B0000001EA2B000EEB230B0E0101D86FD96B1F
:1049C000DA6BDB6B92EC18F00101040EDE1901E1E9
:1049D000DF510DE0040EE66EE66A110EE66EE66A41
:1049E000B7EC32F0E552E552E552E55204D0000151
:1049F000EA2B000EEB230B0E0101D86FD96BDA6B9B
:104A0000DB6B92EC18F00101060EDE1901E1DF51BB
:104A10000DE0060EE66EE66A110EE66EE66AB7EC8B
:104A200032F0E552E552E552E55204D00001EA2B9E
:104A3000000EEB230B0E0101D86FD96BDA6BDB6B29
:104A400092EC18F00101080EDE1901E1DF510DE0D2
:104A5000080EE66EE66A110EE66EE66AB7EC32F014
:104A6000E552E552E552E55204D00001EA2B000E72
:104A7000EB230B0E0101D86FD96BDA6BDB6B92EC79
:104A800018F001010A0EDE1901E1DF510DE00A0EF6
:104A9000E66EE66A110EE66EE66AB7EC32F0E552B3
:104AA000E552E552E55204D00001EA2B000EEB235B
:104AB0000B0E0101D86FD96BDA6BDB6B92EC18F03F
:104AC00001010A0EDE1901E1DF510DE00A0EE66E6A
:104AD000E66A110EE66EE66AB7EC32F0E552E55290
:104AE000E552E55204D00001EA2B000EEB230B0E39
:104AF0000101D86FD96BDA6BDB6B92EC18F0010116
:104B00000A0EDE1901E1DF510DE00A0EE66EE66ADB
:104B1000110EE66EE66AB7EC32F0E552E552E55268
:104B2000E55204D00001EA2B000EEB23080E010130
:104B3000C66FC76BCA693F0ECB6FEE6BEF6BD86B5E
:104B4000100ED96FDA6BDB6B92EC18F001010F0ECF
:104B5000DE1901E1DF510DE00F0EE66EE66A110E7F
:104B6000E66EE66AB7EC32F0E552E552E552E55200
:104B700004D00001EA2B000EEB230101D86B100ECC
:104B8000D96FDA6BDB6B92EC18F001011F0EDE19A6
:104B900001E1DF510DE01F0EE66EE66A110EE66ED2
:104BA000E66AB7EC32F0E552E552E552E55204D040
:104BB0000001EA2B000EEB230101D86B100ED96F18
:104BC000DA6BDB6B92EC18F001012F0EDE1901E1BC
:104BD000DF510DE02F0EE66EE66A110EE66EE66A14
:104BE000B7EC32F0E552E552E552E55204D000014F
:104BF000EA2B000EEB230101D86B100ED96FDA6B94
:104C0000DB6B92EC18F001013F0EDE1901E1DF5180
:104C10000DE03F0EE66EE66A110EE66EE66AB7EC50
:104C200032F0E552E552E552E55204D00001EA2B9C
:104C3000000EEB230101D86B100ED96FDA6BDB6B22
:104C400092EC18F001013F0EDE1901E1DF510DE099
:104C50003F0EE66EE66A110EE66EE66AB7EC32F0DB
:104C6000E552E552E552E55204D00001EA2B000E70
:104C7000EB23020EE15C02E2E16AE552E16EE552ED
:104C8000E7CFD9FF120040EC18F00101C26BC36BF3
:104C9000C46BC56BC66BC76BC86B080EC96FCA6B9C
:104CA000CB6BCC6BCD6BCE6BCF6B010ED86FD96B52
:104CB000DA6BDB6B92EC18F00101010EDE1901E1F9
:104CC000DF510DE0010EE66EE66A130EE66EE66A4F
:104CD000B7EC32F0E552E552E552E55204D000015E
:104CE000EA2B000EEB23020E0101D86FD96BDA6BB1
:104CF000DB6B92EC18F00101020EDE1901E1DF51CD
:104D00000DE0020EE66EE66A130EE66EE66AB7EC9A
:104D100032F0E552E552E552E55204D00001EA2BAB
:104D2000000EEB23030E0101D86FD96BDA6BDB6B3E
:104D300092EC18F00101030EDE1901E1DF510DE0E4
:104D4000030EE66EE66A130EE66EE66AB7EC32F024
:104D5000E552E552E552E55204D00001EA2B000E7F
:104D6000EB23040E0101D86FD96BDA6BDB6B92EC8D
:104D700018F00101040EDE1901E1DF510DE0040E0F
:104D8000E66EE66A130EE66EE66AB7EC32F0E552BE
:104D9000E552E552E55204D00001EA2B000EEB2368
:104DA000050E0101D86FD96BDA6BDB6B92EC18F052
:104DB0000101050EDE1901E1DF510DE0050EE66E81
:104DC000E66A130EE66EE66AB7EC32F0E552E5529B
:104DD000E552E55204D00001EA2B000EEB23060E4B
:104DE0000101D86FD96BDA6BDB6B92EC18F0010123
:104DF000060EDE1901E1DF510DE0060EE66EE66AF1
:104E0000130EE66EE66AB7EC32F0E552E552E55273
:104E1000E55204D00001EA2B000EEB23070E01013E
:104E2000D86FD96BDA6BDB6B92EC18F00101070ECF
:104E3000DE1901E1DF510DE0070EE66EE66A130EA2
:104E4000E66EE66AB7EC32F0E552E552E552E5521D
:104E500004D00001EA2B000EEB23080E0101D86FED
:104E6000D96BDA6BDB6B92EC18F00101080EDE19DE
:104E700001E1DF510DE0080EE66EE66A130EE66E04
:104E8000E66AB7EC32F0E552E552E552E55204D05D
:104E90000001EA2B000EEB23090E0101D86FD96B3C
:104EA000DA6BDB6B92EC18F00101090EDE1901E1FF
:104EB000DF510DE0090EE66EE66A130EE66EE66A55
:104EC000B7EC32F0E552E552E552E55204D000016C
:104ED000EA2B000EEB230A0E0101D86FD96BDA6BB7
:104EE000DB6B92EC18F001010A0EDE1901E1DF51D3
:104EF0000DE00A0EE66EE66A130EE66EE66AB7ECA1
:104F000032F0E552E552E552E55204D00001EA2BB9
:104F1000000EEB230B0E0101D86FD96BDA6BDB6B44
:104F200092EC18F001010B0EDE1901E1DF510DE0EA
:104F30000B0EE66EE66A130EE66EE66AB7EC32F02A
:104F4000E552E552E552E55204D00001EA2B000E8D
:104F5000EB230C0E0101D86FD96BDA6BDB6B92EC93
:104F600018F001010C0EDE1901E1DF510DE00C0E0D
:104F7000E66EE66A130EE66EE66AB7EC32F0E552CC
:104F8000E552E552E55204D00001EA2B000EEB2376
:104F90000D0E0101D86FD96BDA6BDB6B92EC18F058
:104FA00001010D0EDE1901E1DF510DE00D0EE66E7F
:104FB000E66A130EE66EE66AB7EC32F0E552E552A9
:104FC000E552E55204D00001EA2B000EEB230E0E51
:104FD0000101D86FD96BDA6BDB6B92EC18F0010131
:104FE0000E0EDE1901E1DF510DE00E0EE66EE66AEF
:104FF000130EE66EE66AB7EC32F0E552E552E55282
:10500000E55204D00001EA2B000EEB230F0E010144
:10501000D86FD96BDA6BDB6B92EC18F001010F0ED5
:10502000DE1901E1DF510DE00F0EE66EE66A130EA8
:10503000E66EE66AB7EC32F0E552E552E552E5522B
:1050400004D00001EA2B000EEB23100E0101D86FF3
:10505000D96BDA6BDB6B92EC18F00101100EDE19E4
:1050600001E1DF510DE0100EE66EE66A130EE66E0A
:10507000E66AB7EC32F0E552E552E552E55204D06B
:105080000001EA2B000EEB23110E0101D86FD96B42
:10509000DA6BDB6B92EC18F00101100EDE1901E106
:1050A000DF510DE0100EE66EE66A130EE66EE66A5C
:1050B000B7EC32F0E552E552E552E55204D000017A
:1050C000EA2B000EEB230101C86B400EC96F120ED4
:1050D000D86FD96BDA6BDB6B92EC18F00101800EA4
:1050E000DE1901E1DF510DE0800EE66EE66A120E78
:1050F000E66EE66AB7EC32F0E552E552E552E5526B
:1051000004D00001EA2B000EEB23130E0101D86F2F
:10511000D96BDA6BDB6B92EC18F00101800EDE19B3
:1051200001E1DF510DE0800EE66EE66A120EE66EDA
:10513000E66AB7EC32F0E552E552E552E55204D0AA
:105140000001EA2B000EEB230101C8697F0EC96F35
:10515000140ED86FD96BDA6BDB6B92EC18F001018F
:10516000FF0EDE1901E1DF510DE0FF0EE66EE66A8B
:10517000120EE66EE66AB7EC32F0E552E552E55201
:10518000E55204D00001EA2B000EEB23150E0101BD
:10519000D86FD96BDA6BDB6B92EC18F00101FF0E64
:1051A000DE1901E1DF510DE0FF0EE66EE66A120E38
:1051B000E66EE66AB7EC32F0E552E552E552E552AA
:1051C00012000001EA2B000EEB2312001200120065
:0251D0001200CB
:0E51D200E66A12EC3AF0E5520001E96FE8508F
:1051E000090803E20001ED8302D00001ED93020EF5
:1051F000E66E22EC3AF0E552F3CF88F0F4CF89F076
:10520000040EE66E22EC3AF0E552F3CF84F0F4CFD0
:1052100085F0060EE66E22EC3AF0E552F3CF86F00A
:10522000F4CF87F0080EE66E22EC3AF0E552F3CFA9
:1052300080F0F4CF81F00A0EE66E22EC3AF0E552EF
:10524000F3CF82F0F4CF83F00C0EE66E22EC3AF04E
:10525000E552F3CF8AF0300EE66E22EC3AF0E552DA
:10526000F3CFE6F1F4CFE7F10101F31C06E1E71D0E
:1052700004E1D00EE66F070EE76F1200D9CFE6FF0C
:10528000E1CFD9FFE00E6E14146EFE0EDB50145CFD
:1052900004E0FE0EDB506F6EF5D7609E0F01509F4D
:1052A000E552E7CFD9FF1200800EE66EE7DFE55248
:1052B000400E706EEE0E716E850E726E776A0F0183
:1052C000200E506F240E606E200E736EA36A9394AE
:1052D000E66AD4DFE55212000001E9510401006FD3
:1052E000016B050ED89000370137E806FBE1200E70
:1052F000040100150001DA6FDB6B800E040100155C
:105300000001DC6F010E040101150001DD6F000ECC
:10531000DC27020EDD230A0E040100250001DE6FEA
:10532000060E040101210001DF6FF00EE06F070E91
:10533000E16FE269E36FE00E6E14800803E0800E17
:105340006F6EF9D7DAC014F0050ED8901436E80461
:10535000FCE114C001FFDAC014F0DBC015F0030E4D
:10536000D89015321432E804FBE114C000FFDCC011
:1053700014F0050ED8901436E804FCE114C005FFC3
:10538000DCC014F0DDC015F0030ED89015321432D5
:10539000E804FBE114C004FFE0C014F0050ED8904F
:1053A0001436E804FCE114C019FFE0C014F0E1C0B9
:1053B00015F0030ED89015321432E804FBE114C046
:1053C00018FFDEC014F0050ED8901436E804FCE196
:1053D00014C009FFDEC014F0050ED8901436E8049E
:1053E000FCE114C00DFFDEC014F0050ED890143699
:1053F000E804FCE114C011FFDEC014F0050ED890E3
:105400001436E804FCE114C015FFDEC014F0DFC060
:1054100015F0030ED89015321432E804FBE114C0E5
:1054200008FFDEC014F0DFC015F0030ED89015326F
:105430001432E804FBE114C00CFFDEC014F0DFC03E
:1054400015F0030ED89015321432E804FBE114C0B5
:1054500010FFDEC014F0DFC015F0030ED890153237
:105460001432E804FBE114C014FFE2C014F0050E8E
:10547000D8901436E804FCE114C01DFFE2C014F01B
:10548000E3C015F0030ED89015321432E804FBE1A6
:1054900014C01CFFE00E6E1402E06F6AFBD712000E
:1054A00098DE02DF19DF0001040EA06F12000F0169
:1054B00050516010800B12003FEC32F00F0140970A
:1054C00096C014F0050ED8901436E804FCE1145090
:1054D0000F01426F96C014F097C015F0030ED890DC
:1054E00015321432E804FBE114500F01416FA0C0E3
:1054F00045FF98C046FF99C047FF9AC048FF9BC030
:1055000049FF9CC04AFF9DC04BFF9EC04CFF9FC0FF
:105510004DFF40870001D82B000ED923120060AE4A
:1055200030D03FEC32F0615000018B6F8C6B030E7A
:10553000D8908B378C37E806FBE16250E00BE838F7
:10554000E840156AE85000018B1315508C1365CFA5
:1055500095F0955110E066CF8DF067CF8EF068CF53
:105560008FF069CF90F06ACF91F06BCF92F06CCF53
:1055700093F06DCF94F0609E0001D62B000ED723E0
:1055800012000F0150AF2FD03FEC32F00F015151FC
:1055900000018B6F8C6B030ED8908B378C37E8062D
:1055A000FBE10F015251E00BE838E840156AE85082
:1055B00000018B1315508C1355CF95F056CF8DF0FD
:1055C00057CF8EF058CF8FF059CF90F05ACF91F03F
:1055D0005BCF92F05CCF93F05DCF94F00F01509FC2
:1055E0000001D62BD72312000001E42B000EE52387
:1055F000100ED880E455000EE55502E2E46BE56B31
:10560000100EE41901E1E55101E196D00F0EE41905
:1056100001E1E55101E18BD00E0EE41901E1E55104
:1056200001E17ED00D0EE41901E1E55174E00C0EAC
:10563000E41901E1E5516AE00B0EE41901E1E551DD
:1056400060E00A0EE41901E1E55156E0090EE419A3
:1056500001E1E5514CE0080EE41901E1E55142E0B9
:10566000070EE41901E1E55138E0060EE41901E105
:10567000E5512EE0050EE41901E1E55124E0040EA8
:10568000E41901E1E5511AE0030EE41901E1E551E5
:1056900013E0020EE41901E1E5510AE0010EE419FC
:1056A00001E1E55105E0E45101E1E55105E01200B9
:1056B0005F0EE66F080E3ED0E66B42D084C0E6F087
:1056C00085C0E7F0120086C0E6F087C0E7F0120060
:1056D00088C0E6F089C0E7F0120080C0E6F081C023
:1056E000E7F0120082C0E6F083C0E7F01200C2C10A
:1056F000E6F0C3C1E7F01200C4C1E6F0C5C1E7F0AF
:105700001200C6C1E6F0C7C1E7F01200CAC1E6F058
:10571000CBC1E7F01200C8C1E6F0C9C1E7F0120042
:105720000101CF51000EF3500101CE1107D0880EB8
:10573000E66F130EE76F120000018A510001E66F59
:10574000E76B12000F0E00018B1504010E6F0F01A5
:105750004097E8500F0A01E19ED0010A01E192D082
:10576000030A01E186D0010A01E17AD0070A6FE05D
:10577000010A64E0030A59E0010A4EE00F0A43E01F
:10578000010A38E0030A2DE0010A22E0070A17E0C7
:10579000010A0CE0030A01E086D0C9C046FFCAC076
:1057A00047FFC5C048FFC6C049FF7DD0C9C046FFFE
:1057B000CAC047FFC7C048FFC8C049FF74D0C9C0AE
:1057C00046FFCAC047FFFBC048FFFCC049FF6BD083
:1057D000C9C046FFCAC047FFECC048FFEDC049FF43
:1057E00062D0C9C046FFCAC047FFF1C048FFF2C03F
:1057F00049FF59D0C9C046FFCAC047FFF3C048FFA0
:10580000F4C049FF50D0C9C046FFCAC047FFEFC02F
:1058100048FFF0C049FF47D0C9C046FFCAC047FF94
:10582000D6C048FFD7C049FF3ED0C9C046FFCAC056
:1058300047FFD8C048FFD9C049FF35D0E4C046FF74
:10584000E5C047FFE6C048FFE7C049FF2CD028C2AB
:1058500046FF29C247FF2AC248FF2BC249FF23D077
:10586000C9C046FFCAC047FF76CF48FF75CF49FF82
:105870001AD0C9C046FFCAC047FFF7C148FFF8C1E8
:1058800049FF11D0C9C046FFCAC047FFF9C148FF50
:10589000FAC149FF08D0C9C046FFCAC047FFFBC1D3
:1058A00048FFFCC149FF040E456F0001E951040D9A
:1058B000F3CF41FF0F01426B418F61B0418162CF55
:1058C00042FF0001D82B000ED9230F0140870A0E9A
:1058D00004010E5D01E188DE1200D9CFE6FFE1CFC1
:1058E000D9FF040EE1260F0E00018B15DF6E030EAB
:1058F0000001E915E76E010EE7CFDBFF010EEA6A52
:10590000DB34FE0BEA36E96E8D0EE926000EEA2244
:10591000020EEECFDBFF030EEDCFDBFFDF50040AFC
:1059200052E0070A1EE0010A11E0030A04E0010A3E
:1059300001E07BD088D0020EDBCFE6FF030EDBCF89
:10594000E6FF44EC32F0E552E5527DD0020EDBCFAB
:10595000E6FF030EDBCFE6FF58EC32F0E552E552EE
:1059600072D0020EDBCF14F0030EDBCF15F0000E69
:105970001416FF0E1516145002E1520E151822E1EE
:10598000FF0EE76E020EDBCF16F0030EDBCF17F033
:10599000E7501616176A0001E951186E196A185077
:1059A000161802E1195017180DE1000EE66EE66AAE
:1059B0006DEC3DF0E552E552640EE66ED8EC3DF03C
:1059C000E552FF0040D0020EDB50010B03E0010165
:1059D000010EFD6F020EDB50020B02E00101FD6BB8
:1059E000020EDB50040B02E00DEC32F0020EDB5035
:1059F000080B02E01AEC32F0020EDB50100B02E052
:105A000026EC32F0020EDB50200B02E033EC32F0D9
:105A1000020EDB50400B02E0F2EC30F0020EDB50E5
:105A2000800B02E0E6EC37F00ED0020EDBCFE6FF93
:105A3000030EDBCFE6FFDFCFE6FF7FEC37F0E5526A
:105A4000E552E55200D0040EE15C02E2E16AE55263
:105A5000E16EE552E7CFD9FF1200D9CFE6FFE1CFE3
:105A6000D9FFE6520F0E00018B15DF6E0A0EDF5CC8
:105A700002E174EC33F0E552E552E7CFD9FF1200B2
:105A8000D9CFE6FFE1CFD9FFE6520001E85102E0AD
:105A9000E80701D0808643DD0001060E8C15146EE8
:105AA000156AD89014321450DF6EDF50030A0AE0F2
:105AB000010A09E0030A04E0010A05E143DE03D01C
:105AC0000CDF01D0CADFE552E552E7CFD9FF120063
:105AD000D9CFE6FFE1CFD9FF020EE126FE0EDBCFE4
:105AE00014F0156A14BE1568030E1416000E151670
:105AF00014C015F0146AD890153614C0DEFF15C016
:105B0000DDFFFD0EDB50146E156A0F0E1416000E2D
:105B10001516050ED89014361536E804FBE1D9CFDA
:105B2000E9FFDACFEAFF1450EE121550ED12FC0E29
:105B3000DBCF14F00F0E1414DF12DECF14F0DDCF24
:105B400015F014C0F3FF15C0F4FF020EE15C02E291
:0E5B5000E16AE552E16EE552E7CFD9FF12009F
:025B5E00CF0E68
:105B6000811693160201810E2F6F0F0E306F020106
:105B7000050E316F7F0EE66E40EC39F0E552050EF2
:105B8000E66E73EC39F0E5520201040E316F7F0EC0
:105B9000E66E40EC39F0E552050EE66E73EC39F036
:105BA000E552FAEF2EF0D9CFE6FFE1CFD9FF040E90
:105BB000E12636EC3CF0E66AE3EC3BF0E55202010C
:105BC0003851391106E0FF0E381907E10F0E391967
:105BD00004E1E66AE3EC3BF0E55202013851391189
:105BE00006E1FF0E381902E10F0E39190AE038C23A
:105BF000C1F039C2C2F00001FF0ED880C1570F0EAC
:105C0000C257010EE66EE3EC3BF0E552020138515B
:105C1000391106E0FF0E381908E10F0E391905E1B8
:105C2000010EE66EE3EC3BF0E5520201385139110A
:105C300006E1FF0E381902E10F0E39190AE038C2E9
:105C4000C3F039C2C4F00001FF0ED880C3570F0E55
:105C5000C457020100510001C15DC56F020101512D
:105C60000001C259C66F020102510001C35DC76F36
:105C7000020103510001C459C86FE83414E2C7514E
:105C80000008000EC8550FE2C7C014F0C8C015F0D8
:105C9000050ED89015321432E804FBE114C0DEFF83
:105CA00015C0DDFF02D0DE6ADD6A0001C63516E2EE
:105CB000C5510008000EC65511E2C5C014F0C6C09B
:105CC00015F0050ED89015321432E804FBE1020EEF
:105CD00014C0DBFF030E15C0DBFF04D0020EDB6A2D
:105CE000030EDB6AD9CFE9FFDACFEAFFEE500001FD
:105CF000C527EE50C623020EDBCF08F0030EDBCF24
:105D000009F00850C7270950C823C751C55DC96F9E
:105D1000C851C659CA6FC551C725CB6FC651C821D6
:105D2000CC6F000ECB5F020ECC5B040EE15C02E296
:105D3000E16AE552E16EE552E7CFD9FF1200D9CF13
:105D4000E6FFE1CFD9FF010EF36EFE0EDB5004E05B
:105D5000D890F336E806FCE1F3500401016F026BC2
:105D6000036B046B056B006B0151005D13E21BDFDD
:105D70000001C151040102270001C25104010323A3
:105D80000001C351040104270001C451040105238B
:105D9000002BEAD7FE0EDB500F0B05E0D890033343
:105DA0000233E806FBE1FE0EDB500F0B040105E0B9
:105DB000D89005330433E806FBE102C4C1F003C404
:105DC000C2F004C4C3F005C4C4F00001C751C55DEE
:105DD000C96FC851C659CA6FC551C725CB6FC651C7
:105DE000C821CC6F000ECB5F020ECC5BE552E7CF33
:105DF000D9FF1200D9CFE6FFE1CFD9FF050EE1268A
:105E0000800EDF6E010EDB6A020EDB6A030EDB6AB8
:105E1000040EDB6ADF5046E0010EDB50DF10E76E58
:105E2000030EE7CFDBFF020EDB50DF10E76E040E40
:105E3000E7CFDBFF0201050E316F030EDBCFE6FF7C
:105E4000A6EC39F0E5520201040E316FDBCFE6FF1C
:105E5000A6EC39F0E5520A0EE66E16EC3EF0E5527D
:105E6000040EE66E6CDFE5520001C2350BE2C15153
:105E70000008010EC25506E2030EDB50E76E010E6C
:105E8000E7CFDBFFC4350BE2C3510008010EC45558
:105E900006E2040EDB50E76E020EE7CFDBFFDF9079
:105EA000DF42B8D7C1C000F2C2C001F2C3C002F2E3
:105EB000C4C003F2040EC1C004F2C2C005F2000A5D
:105EC00006E00201D89004370537E804FBE1040E30
:105ED000C3C006F2C4C007F2000A06E00201D8906F
:105EE00006370737E804FBE1050EE15C02E2E16AF0
:105EF000E552E16EE552E7CFD9FF1200D9CFE6FFB8
:105F0000E1CFD9FF040EE126C5C0DEFFC6C0DDFF2C
:105F1000020EC7C0DBFF030EC8C0DBFFDECF14F0EC
:105F2000DDCF15F0800E151411E0DECF14F0DDCFBB
:105F300015F0060ED89014361536E804FBE114501F
:105F400002010A5F15500B5BDE6ADD6A020E030E6A
:105F5000DBCF15F0800E151415E0020EDBCF14F028
:105F6000030EDBCF15F0060ED89014361536E80474
:105F7000FBE1145002010C5F15500D5B020EDB6A51
